{"contracts/apartmentContract.sol":{"apartmentContract":{"abi":[{"anonymous":false,"inputs":[{"indexed":false,"internalType":"string","name":"_apartmentAddress","type":"string"}],"name":"ApartmentDeleted","type":"event"},{"anonymous":false,"inputs":[{"indexed":false,"internalType":"string","name":"_oldApartmentAddress","type":"string"},{"indexed":false,"internalType":"string","name":"_newApartmentAdress","type":"string"}],"name":"ApartmentDirectionChanged","type":"event"},{"anonymous":false,"inputs":[{"indexed":false,"internalType":"string","name":"_apartmentAddress","type":"string"},{"indexed":false,"internalType":"string","name":"_description","type":"string"},{"indexed":false,"internalType":"uint256","name":"_price","type":"uint256"},{"indexed":false,"internalType":"enum apartmentContract.ApartmentState","name":"_aptState","type":"uint8"},{"indexed":false,"internalType":"address","name":"_apartmentOwner","type":"address"}],"name":"ApartmentUpdated","type":"event"},{"anonymous":false,"inputs":[{"indexed":false,"internalType":"string","name":"_apartmentAddress","type":"string"},{"indexed":false,"internalType":"string","name":"_description","type":"string"},{"indexed":false,"internalType":"uint256","name":"_price","type":"uint256"},{"indexed":false,"internalType":"address","name":"_apartmentOwner","type":"address"}],"name":"NewApartmentAdded","type":"event"},{"inputs":[{"internalType":"string","name":"_apartmentAddress","type":"string"},{"internalType":"string","name":"_description","type":"string"},{"internalType":"uint256","name":"_price","type":"uint256"},{"internalType":"address","name":"_apartmentOwner","type":"address"}],"name":"addApartment","outputs":[],"stateMutability":"nonpayable","type":"function"},{"inputs":[{"internalType":"string","name":"_apartmentAddress","type":"string"},{"internalType":"address","name":"_newOwner","type":"address"}],"name":"changeAparmentOwner","outputs":[],"stateMutability":"nonpayable","type":"function"},{"inputs":[{"internalType":"string","name":"_apartmentAddress","type":"string"}],"name":"deleteApartment","outputs":[],"stateMutability":"nonpayable","type":"function"},{"inputs":[{"internalType":"string","name":"_apartmentAddress","type":"string"}],"name":"getApartment","outputs":[{"components":[{"internalType":"string","name":"apartmentAddress","type":"string"},{"internalType":"string","name":"description","type":"string"},{"internalType":"uint256","name":"price","type":"uint256"},{"internalType":"enum apartmentContract.ApartmentState","name":"aptState","type":"uint8"},{"internalType":"address payable","name":"apartmentOwner","type":"address"}],"internalType":"struct apartmentContract.Apartment","name":"","type":"tuple"}],"stateMutability":"view","type":"function"},{"inputs":[{"internalType":"string","name":"_apartmentAddress","type":"string"}],"name":"getApartmentOwner","outputs":[{"internalType":"address","name":"","type":"address"}],"stateMutability":"view","type":"function"},{"inputs":[{"internalType":"string","name":"_apartmentAddress","type":"string"}],"name":"getApartmentPrice","outputs":[{"internalType":"uint256","name":"","type":"uint256"}],"stateMutability":"view","type":"function"},{"inputs":[{"internalType":"string","name":"_apartmentAddress","type":"string"}],"name":"isApartmentVacant","outputs":[{"internalType":"bool","name":"","type":"bool"}],"stateMutability":"view","type":"function"},{"inputs":[{"internalType":"string","name":"_apartmentAddress","type":"string"}],"name":"searchIfApartmentExists","outputs":[{"internalType":"bool","name":"","type":"bool"}],"stateMutability":"view","type":"function"},{"inputs":[{"internalType":"string","name":"_oldApartmentAddress","type":"string"},{"internalType":"string","name":"_newApartmentAdress","type":"string"}],"name":"updateApartmentDirection","outputs":[],"stateMutability":"nonpayable","type":"function"},{"inputs":[{"internalType":"string","name":"_apartmentAddress","type":"string"},{"internalType":"string","name":"_description","type":"string"},{"internalType":"uint256","name":"_price","type":"uint256"},{"internalType":"enum apartmentContract.ApartmentState","name":"_aptState","type":"uint8"},{"internalType":"address","name":"_apartmentOwner","type":"address"}],"name":"updateApartmentParams","outputs":[],"stateMutability":"nonpayable","type":"function"}],"evm":{"bytecode":{"linkReferences":{},"object":"608060405234801561001057600080fd5b50611d6d806100206000396000f3fe608060405234801561001057600080fd5b506004361061009e5760003560e01c80635cf8a03f116100665780635cf8a03f1461015757806371902a4c1461018757806377e06199146101b7578063cbf9aaa7146101e7578063f5f4998b146102035761009e565b80630408b887146100a35780630a277fe3146100bf5780632719be0b146100ef5780632d4b49531461010b578063467fc8f81461013b575b600080fd5b6100bd60048036038101906100b8919061113e565b61021f565b005b6100d960048036038101906100d4919061113e565b61034e565b6040516100e691906111a0565b60405180910390f35b610109600480360381019061010491906111bb565b6103ea565b005b6101256004803603810190610120919061113e565b6106f9565b604051610132919061124e565b60405180910390f35b610155600480360381019061015091906112f3565b610742565b005b610171600480360381019061016c919061113e565b610914565b60405161017e91906113a1565b60405180910390f35b6101a1600480360381019061019c919061113e565b6109d0565b6040516101ae919061124e565b60405180910390f35b6101d160048036038101906101cc919061113e565b610a3e565b6040516101de919061155f565b60405180910390f35b61020160048036038101906101fc91906115a6565b610ca6565b005b61021d60048036038101906102189190611659565b610e5b565b005b806000808260405161023191906116f1565b9081526020016040518091039020600001805461024d90611737565b90500361028f576040517f08c379a0000000000000000000000000000000000000000000000000000000008152600401610286906117c5565b60405180910390fd5b60008260405161029f91906116f1565b9081526020016040518091039020600080820160006102be9190610f30565b6001820160006102ce9190610f30565b60028201600090556003820160006101000a81549060ff02191690556003820160016101000a81549073ffffffffffffffffffffffffffffffffffffffff021916905550507f77da8edffc46a52004d8ddef94207a420ff6f69d7cb832b0031f438f2763b4ca82604051610342919061181e565b60405180910390a15050565b6000816000808260405161036291906116f1565b9081526020016040518091039020600001805461037e90611737565b9050036103c0576040517f08c379a00000000000000000000000000000000000000000000000000000000081526004016103b7906117c5565b60405180910390fd5b6000836040516103d091906116f1565b908152602001604051809103902060020154915050919050565b81600080826040516103fc91906116f1565b9081526020016040518091039020600001805461041890611737565b90500361045a576040517f08c379a0000000000000000000000000000000000000000000000000000000008152600401610451906117c5565b60405180910390fd5b8160008360405161046b91906116f1565b9081526020016040518091039020600001908161048891906119ec565b5060008360405161049991906116f1565b90815260200160405180910390206001016000836040516104ba91906116f1565b908152602001604051809103902060010190816104d79190611ae9565b506000836040516104e891906116f1565b90815260200160405180910390206002015460008360405161050a91906116f1565b90815260200160405180910390206002018190555060008360405161052f91906116f1565b908152602001604051809103902060030160009054906101000a900460ff1660008360405161055e91906116f1565b908152602001604051809103902060030160006101000a81548160ff021916908360018111156105915761059061144a565b5b02179055506000836040516105a691906116f1565b908152602001604051809103902060030160019054906101000a900473ffffffffffffffffffffffffffffffffffffffff166000836040516105e891906116f1565b908152602001604051809103902060030160016101000a81548173ffffffffffffffffffffffffffffffffffffffff021916908373ffffffffffffffffffffffffffffffffffffffff16021790555060008360405161064791906116f1565b9081526020016040518091039020600080820160006106669190610f30565b6001820160006106769190610f30565b60028201600090556003820160006101000a81549060ff02191690556003820160016101000a81549073ffffffffffffffffffffffffffffffffffffffff021916905550507f90ef2c1acf9194023bfd5a9880e914a11ba47f8a582a1a4b6ba173e16d2e23b883836040516106ec929190611bd1565b60405180910390a1505050565b60008060008360405161070c91906116f1565b9081526020016040518091039020600001805461072890611737565b905014610738576001905061073d565b600090505b919050565b836000808260405161075491906116f1565b9081526020016040518091039020600001805461077090611737565b9050146107b2576040517f08c379a00000000000000000000000000000000000000000000000000000000081526004016107a990611c54565b60405180910390fd5b6040518060a00160405280868152602001858152602001848152602001600060018111156107e3576107e261144a565b5b81526020018373ffffffffffffffffffffffffffffffffffffffff1681525060008660405161081291906116f1565b9081526020016040518091039020600082015181600001908161083591906119ec565b50602082015181600101908161084b91906119ec565b506040820151816002015560608201518160030160006101000a81548160ff021916908360018111156108815761088061144a565b5b021790555060808201518160030160016101000a81548173ffffffffffffffffffffffffffffffffffffffff021916908373ffffffffffffffffffffffffffffffffffffffff1602179055509050507f24c1440985100e55da65bd1f885ceafacb77eb75e90ca41028fbd9620afc9a4b858585856040516109059493929190611c74565b60405180910390a15050505050565b6000816000808260405161092891906116f1565b9081526020016040518091039020600001805461094490611737565b905003610986576040517f08c379a000000000000000000000000000000000000000000000000000000000815260040161097d906117c5565b60405180910390fd5b60008360405161099691906116f1565b908152602001604051809103902060030160019054906101000a900473ffffffffffffffffffffffffffffffffffffffff16915050919050565b60008060018111156109e5576109e461144a565b5b6000836040516109f591906116f1565b908152602001604051809103902060030160009054906101000a900460ff166001811115610a2657610a2561144a565b5b03610a345760019050610a39565b600090505b919050565b610a46610f70565b8160008082604051610a5891906116f1565b90815260200160405180910390206000018054610a7490611737565b905003610ab6576040517f08c379a0000000000000000000000000000000000000000000000000000000008152600401610aad906117c5565b60405180910390fd5b600083604051610ac691906116f1565b90815260200160405180910390206040518060a0016040529081600082018054610aef90611737565b80601f0160208091040260200160405190810160405280929190818152602001828054610b1b90611737565b8015610b685780601f10610b3d57610100808354040283529160200191610b68565b820191906000526020600020905b815481529060010190602001808311610b4b57829003601f168201915b50505050508152602001600182018054610b8190611737565b80601f0160208091040260200160405190810160405280929190818152602001828054610bad90611737565b8015610bfa5780601f10610bcf57610100808354040283529160200191610bfa565b820191906000526020600020905b815481529060010190602001808311610bdd57829003601f168201915b50505050508152602001600282015481526020016003820160009054906101000a900460ff166001811115610c3257610c3161144a565b5b6001811115610c4457610c4361144a565b5b81526020016003820160019054906101000a900473ffffffffffffffffffffffffffffffffffffffff1673ffffffffffffffffffffffffffffffffffffffff1673ffffffffffffffffffffffffffffffffffffffff1681525050915050919050565b8460008082604051610cb891906116f1565b90815260200160405180910390206000018054610cd490611737565b905003610d16576040517f08c379a0000000000000000000000000000000000000000000000000000000008152600401610d0d906117c5565b60405180910390fd5b84600087604051610d2791906116f1565b90815260200160405180910390206001019081610d4491906119ec565b5083600087604051610d5691906116f1565b90815260200160405180910390206002018190555082600087604051610d7c91906116f1565b908152602001604051809103902060030160006101000a81548160ff02191690836001811115610daf57610dae61144a565b5b021790555081600087604051610dc591906116f1565b908152602001604051809103902060030160016101000a81548173ffffffffffffffffffffffffffffffffffffffff021916908373ffffffffffffffffffffffffffffffffffffffff1602179055507fbbff4946f1c731f905e39df875134a38f27b2585272dc14e0bfda05d54c56f4f8686868686604051610e4b959493929190611cd6565b60405180910390a1505050505050565b8160008082604051610e6d91906116f1565b90815260200160405180910390206000018054610e8990611737565b905003610ecb576040517f08c379a0000000000000000000000000000000000000000000000000000000008152600401610ec2906117c5565b60405180910390fd5b81600084604051610edc91906116f1565b908152602001604051809103902060030160016101000a81548173ffffffffffffffffffffffffffffffffffffffff021916908373ffffffffffffffffffffffffffffffffffffffff160217905550505050565b508054610f3c90611737565b6000825580601f10610f4e5750610f6d565b601f016020900490600052602060002090810190610f6c9190610fc7565b5b50565b6040518060a0016040528060608152602001606081526020016000815260200160006001811115610fa457610fa361144a565b5b8152602001600073ffffffffffffffffffffffffffffffffffffffff1681525090565b5b80821115610fe0576000816000905550600101610fc8565b5090565b6000604051905090565b600080fd5b600080fd5b600080fd5b600080fd5b6000601f19601f8301169050919050565b7f4e487b7100000000000000000000000000000000000000000000000000000000600052604160045260246000fd5b61104b82611002565b810181811067ffffffffffffffff8211171561106a57611069611013565b5b80604052505050565b600061107d610fe4565b90506110898282611042565b919050565b600067ffffffffffffffff8211156110a9576110a8611013565b5b6110b282611002565b9050602081019050919050565b82818337600083830152505050565b60006110e16110dc8461108e565b611073565b9050828152602081018484840111156110fd576110fc610ffd565b5b6111088482856110bf565b509392505050565b600082601f83011261112557611124610ff8565b5b81356111358482602086016110ce565b91505092915050565b60006020828403121561115457611153610fee565b5b600082013567ffffffffffffffff81111561117257611171610ff3565b5b61117e84828501611110565b91505092915050565b6000819050919050565b61119a81611187565b82525050565b60006020820190506111b56000830184611191565b92915050565b600080604083850312156111d2576111d1610fee565b5b600083013567ffffffffffffffff8111156111f0576111ef610ff3565b5b6111fc85828601611110565b925050602083013567ffffffffffffffff81111561121d5761121c610ff3565b5b61122985828601611110565b9150509250929050565b60008115159050919050565b61124881611233565b82525050565b6000602082019050611263600083018461123f565b92915050565b61127281611187565b811461127d57600080fd5b50565b60008135905061128f81611269565b92915050565b600073ffffffffffffffffffffffffffffffffffffffff82169050919050565b60006112c082611295565b9050919050565b6112d0816112b5565b81146112db57600080fd5b50565b6000813590506112ed816112c7565b92915050565b6000806000806080858703121561130d5761130c610fee565b5b600085013567ffffffffffffffff81111561132b5761132a610ff3565b5b61133787828801611110565b945050602085013567ffffffffffffffff81111561135857611357610ff3565b5b61136487828801611110565b935050604061137587828801611280565b9250506060611386878288016112de565b91505092959194509250565b61139b816112b5565b82525050565b60006020820190506113b66000830184611392565b92915050565b600081519050919050565b600082825260208201905092915050565b60005b838110156113f65780820151818401526020810190506113db565b60008484015250505050565b600061140d826113bc565b61141781856113c7565b93506114278185602086016113d8565b61143081611002565b840191505092915050565b61144481611187565b82525050565b7f4e487b7100000000000000000000000000000000000000000000000000000000600052602160045260246000fd5b6002811061148a5761148961144a565b5b50565b600081905061149b82611479565b919050565b60006114ab8261148d565b9050919050565b6114bb816114a0565b82525050565b60006114cc82611295565b9050919050565b6114dc816114c1565b82525050565b600060a08301600083015184820360008601526114ff8282611402565b915050602083015184820360208601526115198282611402565b915050604083015161152e604086018261143b565b50606083015161154160608601826114b2565b50608083015161155460808601826114d3565b508091505092915050565b6000602082019050818103600083015261157981846114e2565b905092915050565b6002811061158e57600080fd5b50565b6000813590506115a081611581565b92915050565b600080600080600060a086880312156115c2576115c1610fee565b5b600086013567ffffffffffffffff8111156115e0576115df610ff3565b5b6115ec88828901611110565b955050602086013567ffffffffffffffff81111561160d5761160c610ff3565b5b61161988828901611110565b945050604061162a88828901611280565b935050606061163b88828901611591565b925050608061164c888289016112de565b9150509295509295909350565b600080604083850312156116705761166f610fee565b5b600083013567ffffffffffffffff81111561168e5761168d610ff3565b5b61169a85828601611110565b92505060206116ab858286016112de565b9150509250929050565b600081905092915050565b60006116cb826113bc565b6116d581856116b5565b93506116e58185602086016113d8565b80840191505092915050565b60006116fd82846116c0565b915081905092915050565b7f4e487b7100000000000000000000000000000000000000000000000000000000600052602260045260246000fd5b6000600282049050600182168061174f57607f821691505b60208210810361176257611761611708565b5b50919050565b600082825260208201905092915050565b7f41706172746d656e7420646f6573206e6f742065786973742100000000000000600082015250565b60006117af601983611768565b91506117ba82611779565b602082019050919050565b600060208201905081810360008301526117de816117a2565b9050919050565b60006117f0826113bc565b6117fa8185611768565b935061180a8185602086016113d8565b61181381611002565b840191505092915050565b6000602082019050818103600083015261183881846117e5565b905092915050565b60008190508160005260206000209050919050565b60006020601f8301049050919050565b600082821b905092915050565b6000600883026118a27fffffffffffffffffffffffffffffffffffffffffffffffffffffffffffffffff82611865565b6118ac8683611865565b95508019841693508086168417925050509392505050565b6000819050919050565b60006118e96118e46118df84611187565b6118c4565b611187565b9050919050565b6000819050919050565b611903836118ce565b61191761190f826118f0565b848454611872565b825550505050565b600090565b61192c61191f565b6119378184846118fa565b505050565b5b8181101561195b57611950600082611924565b60018101905061193d565b5050565b601f8211156119a05761197181611840565b61197a84611855565b81016020851015611989578190505b61199d61199585611855565b83018261193c565b50505b505050565b600082821c905092915050565b60006119c3600019846008026119a5565b1980831691505092915050565b60006119dc83836119b2565b9150826002028217905092915050565b6119f5826113bc565b67ffffffffffffffff811115611a0e57611a0d611013565b5b611a188254611737565b611a2382828561195f565b600060209050601f831160018114611a565760008415611a44578287015190505b611a4e85826119d0565b865550611ab6565b601f198416611a6486611840565b60005b82811015611a8c57848901518255600182019150602085019450602081019050611a67565b86831015611aa95784890151611aa5601f8916826119b2565b8355505b6001600288020188555050505b505050505050565b600081549050611acd81611737565b9050919050565b60008190508160005260206000209050919050565b818103611af7575050611bcf565b611b0082611abe565b67ffffffffffffffff811115611b1957611b18611013565b5b611b238254611737565b611b2e82828561195f565b6000601f831160018114611b5d5760008415611b4b578287015490505b611b5585826119d0565b865550611bc8565b601f198416611b6b87611ad4565b9650611b7686611840565b60005b82811015611b9e57848901548255600182019150600185019450602081019050611b79565b86831015611bbb5784890154611bb7601f8916826119b2565b8355505b6001600288020188555050505b5050505050505b565b60006040820190508181036000830152611beb81856117e5565b90508181036020830152611bff81846117e5565b90509392505050565b7f41706172746d656e7420616c7265616479206578697374732100000000000000600082015250565b6000611c3e601983611768565b9150611c4982611c08565b602082019050919050565b60006020820190508181036000830152611c6d81611c31565b9050919050565b60006080820190508181036000830152611c8e81876117e5565b90508181036020830152611ca281866117e5565b9050611cb16040830185611191565b611cbe6060830184611392565b95945050505050565b611cd0816114a0565b82525050565b600060a0820190508181036000830152611cf081886117e5565b90508181036020830152611d0481876117e5565b9050611d136040830186611191565b611d206060830185611cc7565b611d2d6080830184611392565b969550505050505056fea2646970667358221220dd5a9c9846ef1b8a29bdbff4ab09b17f19bf3d19f350e223e4389d431e60130764736f6c63430008120033","opcodes":"PUSH1 0x80 PUSH1 0x40 MSTORE CALLVALUE DUP1 ISZERO PUSH2 0x10 JUMPI PUSH1 0x0 DUP1 REVERT JUMPDEST POP PUSH2 0x1D6D DUP1 PUSH2 0x20 PUSH1 0x0 CODECOPY PUSH1 0x0 RETURN INVALID PUSH1 0x80 PUSH1 0x40 MSTORE CALLVALUE DUP1 ISZERO PUSH2 0x10 JUMPI PUSH1 0x0 DUP1 REVERT JUMPDEST POP PUSH1 0x4 CALLDATASIZE LT PUSH2 0x9E JUMPI PUSH1 0x0 CALLDATALOAD PUSH1 0xE0 SHR DUP1 PUSH4 0x5CF8A03F GT PUSH2 0x66 JUMPI DUP1 PUSH4 0x5CF8A03F EQ PUSH2 0x157 JUMPI DUP1 PUSH4 0x71902A4C EQ PUSH2 0x187 JUMPI DUP1 PUSH4 0x77E06199 EQ PUSH2 0x1B7 JUMPI DUP1 PUSH4 0xCBF9AAA7 EQ PUSH2 0x1E7 JUMPI DUP1 PUSH4 0xF5F4998B EQ PUSH2 0x203 JUMPI PUSH2 0x9E JUMP JUMPDEST DUP1 PUSH4 0x408B887 EQ PUSH2 0xA3 JUMPI DUP1 PUSH4 0xA277FE3 EQ PUSH2 0xBF JUMPI DUP1 PUSH4 0x2719BE0B EQ PUSH2 0xEF JUMPI DUP1 PUSH4 0x2D4B4953 EQ PUSH2 0x10B JUMPI DUP1 PUSH4 0x467FC8F8 EQ PUSH2 0x13B JUMPI JUMPDEST PUSH1 0x0 DUP1 REVERT JUMPDEST PUSH2 0xBD PUSH1 0x4 DUP1 CALLDATASIZE SUB DUP2 ADD SWAP1 PUSH2 0xB8 SWAP2 SWAP1 PUSH2 0x113E JUMP JUMPDEST PUSH2 0x21F JUMP JUMPDEST STOP JUMPDEST PUSH2 0xD9 PUSH1 0x4 DUP1 CALLDATASIZE SUB DUP2 ADD SWAP1 PUSH2 0xD4 SWAP2 SWAP1 PUSH2 0x113E JUMP JUMPDEST PUSH2 0x34E JUMP JUMPDEST PUSH1 0x40 MLOAD PUSH2 0xE6 SWAP2 SWAP1 PUSH2 0x11A0 JUMP JUMPDEST PUSH1 0x40 MLOAD DUP1 SWAP2 SUB SWAP1 RETURN JUMPDEST PUSH2 0x109 PUSH1 0x4 DUP1 CALLDATASIZE SUB DUP2 ADD SWAP1 PUSH2 0x104 SWAP2 SWAP1 PUSH2 0x11BB JUMP JUMPDEST PUSH2 0x3EA JUMP JUMPDEST STOP JUMPDEST PUSH2 0x125 PUSH1 0x4 DUP1 CALLDATASIZE SUB DUP2 ADD SWAP1 PUSH2 0x120 SWAP2 SWAP1 PUSH2 0x113E JUMP JUMPDEST PUSH2 0x6F9 JUMP JUMPDEST PUSH1 0x40 MLOAD PUSH2 0x132 SWAP2 SWAP1 PUSH2 0x124E JUMP JUMPDEST PUSH1 0x40 MLOAD DUP1 SWAP2 SUB SWAP1 RETURN JUMPDEST PUSH2 0x155 PUSH1 0x4 DUP1 CALLDATASIZE SUB DUP2 ADD SWAP1 PUSH2 0x150 SWAP2 SWAP1 PUSH2 0x12F3 JUMP JUMPDEST PUSH2 0x742 JUMP JUMPDEST STOP JUMPDEST PUSH2 0x171 PUSH1 0x4 DUP1 CALLDATASIZE SUB DUP2 ADD SWAP1 PUSH2 0x16C SWAP2 SWAP1 PUSH2 0x113E JUMP JUMPDEST PUSH2 0x914 JUMP JUMPDEST PUSH1 0x40 MLOAD PUSH2 0x17E SWAP2 SWAP1 PUSH2 0x13A1 JUMP JUMPDEST PUSH1 0x40 MLOAD DUP1 SWAP2 SUB SWAP1 RETURN JUMPDEST PUSH2 0x1A1 PUSH1 0x4 DUP1 CALLDATASIZE SUB DUP2 ADD SWAP1 PUSH2 0x19C SWAP2 SWAP1 PUSH2 0x113E JUMP JUMPDEST PUSH2 0x9D0 JUMP JUMPDEST PUSH1 0x40 MLOAD PUSH2 0x1AE SWAP2 SWAP1 PUSH2 0x124E JUMP JUMPDEST PUSH1 0x40 MLOAD DUP1 SWAP2 SUB SWAP1 RETURN JUMPDEST PUSH2 0x1D1 PUSH1 0x4 DUP1 CALLDATASIZE SUB DUP2 ADD SWAP1 PUSH2 0x1CC SWAP2 SWAP1 PUSH2 0x113E JUMP JUMPDEST PUSH2 0xA3E JUMP JUMPDEST PUSH1 0x40 MLOAD PUSH2 0x1DE SWAP2 SWAP1 PUSH2 0x155F JUMP JUMPDEST PUSH1 0x40 MLOAD DUP1 SWAP2 SUB SWAP1 RETURN JUMPDEST PUSH2 0x201 PUSH1 0x4 DUP1 CALLDATASIZE SUB DUP2 ADD SWAP1 PUSH2 0x1FC SWAP2 SWAP1 PUSH2 0x15A6 JUMP JUMPDEST PUSH2 0xCA6 JUMP JUMPDEST STOP JUMPDEST PUSH2 0x21D PUSH1 0x4 DUP1 CALLDATASIZE SUB DUP2 ADD SWAP1 PUSH2 0x218 SWAP2 SWAP1 PUSH2 0x1659 JUMP JUMPDEST PUSH2 0xE5B JUMP JUMPDEST STOP JUMPDEST DUP1 PUSH1 0x0 DUP1 DUP3 PUSH1 0x40 MLOAD PUSH2 0x231 SWAP2 SWAP1 PUSH2 0x16F1 JUMP JUMPDEST SWAP1 DUP2 MSTORE PUSH1 0x20 ADD PUSH1 0x40 MLOAD DUP1 SWAP2 SUB SWAP1 KECCAK256 PUSH1 0x0 ADD DUP1 SLOAD PUSH2 0x24D SWAP1 PUSH2 0x1737 JUMP JUMPDEST SWAP1 POP SUB PUSH2 0x28F JUMPI PUSH1 0x40 MLOAD PUSH32 0x8C379A000000000000000000000000000000000000000000000000000000000 DUP2 MSTORE PUSH1 0x4 ADD PUSH2 0x286 SWAP1 PUSH2 0x17C5 JUMP JUMPDEST PUSH1 0x40 MLOAD DUP1 SWAP2 SUB SWAP1 REVERT JUMPDEST PUSH1 0x0 DUP3 PUSH1 0x40 MLOAD PUSH2 0x29F SWAP2 SWAP1 PUSH2 0x16F1 JUMP JUMPDEST SWAP1 DUP2 MSTORE PUSH1 0x20 ADD PUSH1 0x40 MLOAD DUP1 SWAP2 SUB SWAP1 KECCAK256 PUSH1 0x0 DUP1 DUP3 ADD PUSH1 0x0 PUSH2 0x2BE SWAP2 SWAP1 PUSH2 0xF30 JUMP JUMPDEST PUSH1 0x1 DUP3 ADD PUSH1 0x0 PUSH2 0x2CE SWAP2 SWAP1 PUSH2 0xF30 JUMP JUMPDEST PUSH1 0x2 DUP3 ADD PUSH1 0x0 SWAP1 SSTORE PUSH1 0x3 DUP3 ADD PUSH1 0x0 PUSH2 0x100 EXP DUP2 SLOAD SWAP1 PUSH1 0xFF MUL NOT AND SWAP1 SSTORE PUSH1 0x3 DUP3 ADD PUSH1 0x1 PUSH2 0x100 EXP DUP2 SLOAD SWAP1 PUSH20 0xFFFFFFFFFFFFFFFFFFFFFFFFFFFFFFFFFFFFFFFF MUL NOT AND SWAP1 SSTORE POP POP PUSH32 0x77DA8EDFFC46A52004D8DDEF94207A420FF6F69D7CB832B0031F438F2763B4CA DUP3 PUSH1 0x40 MLOAD PUSH2 0x342 SWAP2 SWAP1 PUSH2 0x181E JUMP JUMPDEST PUSH1 0x40 MLOAD DUP1 SWAP2 SUB SWAP1 LOG1 POP POP JUMP JUMPDEST PUSH1 0x0 DUP2 PUSH1 0x0 DUP1 DUP3 PUSH1 0x40 MLOAD PUSH2 0x362 SWAP2 SWAP1 PUSH2 0x16F1 JUMP JUMPDEST SWAP1 DUP2 MSTORE PUSH1 0x20 ADD PUSH1 0x40 MLOAD DUP1 SWAP2 SUB SWAP1 KECCAK256 PUSH1 0x0 ADD DUP1 SLOAD PUSH2 0x37E SWAP1 PUSH2 0x1737 JUMP JUMPDEST SWAP1 POP SUB PUSH2 0x3C0 JUMPI PUSH1 0x40 MLOAD PUSH32 0x8C379A000000000000000000000000000000000000000000000000000000000 DUP2 MSTORE PUSH1 0x4 ADD PUSH2 0x3B7 SWAP1 PUSH2 0x17C5 JUMP JUMPDEST PUSH1 0x40 MLOAD DUP1 SWAP2 SUB SWAP1 REVERT JUMPDEST PUSH1 0x0 DUP4 PUSH1 0x40 MLOAD PUSH2 0x3D0 SWAP2 SWAP1 PUSH2 0x16F1 JUMP JUMPDEST SWAP1 DUP2 MSTORE PUSH1 0x20 ADD PUSH1 0x40 MLOAD DUP1 SWAP2 SUB SWAP1 KECCAK256 PUSH1 0x2 ADD SLOAD SWAP2 POP POP SWAP2 SWAP1 POP JUMP JUMPDEST DUP2 PUSH1 0x0 DUP1 DUP3 PUSH1 0x40 MLOAD PUSH2 0x3FC SWAP2 SWAP1 PUSH2 0x16F1 JUMP JUMPDEST SWAP1 DUP2 MSTORE PUSH1 0x20 ADD PUSH1 0x40 MLOAD DUP1 SWAP2 SUB SWAP1 KECCAK256 PUSH1 0x0 ADD DUP1 SLOAD PUSH2 0x418 SWAP1 PUSH2 0x1737 JUMP JUMPDEST SWAP1 POP SUB PUSH2 0x45A JUMPI PUSH1 0x40 MLOAD PUSH32 0x8C379A000000000000000000000000000000000000000000000000000000000 DUP2 MSTORE PUSH1 0x4 ADD PUSH2 0x451 SWAP1 PUSH2 0x17C5 JUMP JUMPDEST PUSH1 0x40 MLOAD DUP1 SWAP2 SUB SWAP1 REVERT JUMPDEST DUP2 PUSH1 0x0 DUP4 PUSH1 0x40 MLOAD PUSH2 0x46B SWAP2 SWAP1 PUSH2 0x16F1 JUMP JUMPDEST SWAP1 DUP2 MSTORE PUSH1 0x20 ADD PUSH1 0x40 MLOAD DUP1 SWAP2 SUB SWAP1 KECCAK256 PUSH1 0x0 ADD SWAP1 DUP2 PUSH2 0x488 SWAP2 SWAP1 PUSH2 0x19EC JUMP JUMPDEST POP PUSH1 0x0 DUP4 PUSH1 0x40 MLOAD PUSH2 0x499 SWAP2 SWAP1 PUSH2 0x16F1 JUMP JUMPDEST SWAP1 DUP2 MSTORE PUSH1 0x20 ADD PUSH1 0x40 MLOAD DUP1 SWAP2 SUB SWAP1 KECCAK256 PUSH1 0x1 ADD PUSH1 0x0 DUP4 PUSH1 0x40 MLOAD PUSH2 0x4BA SWAP2 SWAP1 PUSH2 0x16F1 JUMP JUMPDEST SWAP1 DUP2 MSTORE PUSH1 0x20 ADD PUSH1 0x40 MLOAD DUP1 SWAP2 SUB SWAP1 KECCAK256 PUSH1 0x1 ADD SWAP1 DUP2 PUSH2 0x4D7 SWAP2 SWAP1 PUSH2 0x1AE9 JUMP JUMPDEST POP PUSH1 0x0 DUP4 PUSH1 0x40 MLOAD PUSH2 0x4E8 SWAP2 SWAP1 PUSH2 0x16F1 JUMP JUMPDEST SWAP1 DUP2 MSTORE PUSH1 0x20 ADD PUSH1 0x40 MLOAD DUP1 SWAP2 SUB SWAP1 KECCAK256 PUSH1 0x2 ADD SLOAD PUSH1 0x0 DUP4 PUSH1 0x40 MLOAD PUSH2 0x50A SWAP2 SWAP1 PUSH2 0x16F1 JUMP JUMPDEST SWAP1 DUP2 MSTORE PUSH1 0x20 ADD PUSH1 0x40 MLOAD DUP1 SWAP2 SUB SWAP1 KECCAK256 PUSH1 0x2 ADD DUP2 SWAP1 SSTORE POP PUSH1 0x0 DUP4 PUSH1 0x40 MLOAD PUSH2 0x52F SWAP2 SWAP1 PUSH2 0x16F1 JUMP JUMPDEST SWAP1 DUP2 MSTORE PUSH1 0x20 ADD PUSH1 0x40 MLOAD DUP1 SWAP2 SUB SWAP1 KECCAK256 PUSH1 0x3 ADD PUSH1 0x0 SWAP1 SLOAD SWAP1 PUSH2 0x100 EXP SWAP1 DIV PUSH1 0xFF AND PUSH1 0x0 DUP4 PUSH1 0x40 MLOAD PUSH2 0x55E SWAP2 SWAP1 PUSH2 0x16F1 JUMP JUMPDEST SWAP1 DUP2 MSTORE PUSH1 0x20 ADD PUSH1 0x40 MLOAD DUP1 SWAP2 SUB SWAP1 KECCAK256 PUSH1 0x3 ADD PUSH1 0x0 PUSH2 0x100 EXP DUP2 SLOAD DUP2 PUSH1 0xFF MUL NOT AND SWAP1 DUP4 PUSH1 0x1 DUP2 GT ISZERO PUSH2 0x591 JUMPI PUSH2 0x590 PUSH2 0x144A JUMP JUMPDEST JUMPDEST MUL OR SWAP1 SSTORE POP PUSH1 0x0 DUP4 PUSH1 0x40 MLOAD PUSH2 0x5A6 SWAP2 SWAP1 PUSH2 0x16F1 JUMP JUMPDEST SWAP1 DUP2 MSTORE PUSH1 0x20 ADD PUSH1 0x40 MLOAD DUP1 SWAP2 SUB SWAP1 KECCAK256 PUSH1 0x3 ADD PUSH1 0x1 SWAP1 SLOAD SWAP1 PUSH2 0x100 EXP SWAP1 DIV PUSH20 0xFFFFFFFFFFFFFFFFFFFFFFFFFFFFFFFFFFFFFFFF AND PUSH1 0x0 DUP4 PUSH1 0x40 MLOAD PUSH2 0x5E8 SWAP2 SWAP1 PUSH2 0x16F1 JUMP JUMPDEST SWAP1 DUP2 MSTORE PUSH1 0x20 ADD PUSH1 0x40 MLOAD DUP1 SWAP2 SUB SWAP1 KECCAK256 PUSH1 0x3 ADD PUSH1 0x1 PUSH2 0x100 EXP DUP2 SLOAD DUP2 PUSH20 0xFFFFFFFFFFFFFFFFFFFFFFFFFFFFFFFFFFFFFFFF MUL NOT AND SWAP1 DUP4 PUSH20 0xFFFFFFFFFFFFFFFFFFFFFFFFFFFFFFFFFFFFFFFF AND MUL OR SWAP1 SSTORE POP PUSH1 0x0 DUP4 PUSH1 0x40 MLOAD PUSH2 0x647 SWAP2 SWAP1 PUSH2 0x16F1 JUMP JUMPDEST SWAP1 DUP2 MSTORE PUSH1 0x20 ADD PUSH1 0x40 MLOAD DUP1 SWAP2 SUB SWAP1 KECCAK256 PUSH1 0x0 DUP1 DUP3 ADD PUSH1 0x0 PUSH2 0x666 SWAP2 SWAP1 PUSH2 0xF30 JUMP JUMPDEST PUSH1 0x1 DUP3 ADD PUSH1 0x0 PUSH2 0x676 SWAP2 SWAP1 PUSH2 0xF30 JUMP JUMPDEST PUSH1 0x2 DUP3 ADD PUSH1 0x0 SWAP1 SSTORE PUSH1 0x3 DUP3 ADD PUSH1 0x0 PUSH2 0x100 EXP DUP2 SLOAD SWAP1 PUSH1 0xFF MUL NOT AND SWAP1 SSTORE PUSH1 0x3 DUP3 ADD PUSH1 0x1 PUSH2 0x100 EXP DUP2 SLOAD SWAP1 PUSH20 0xFFFFFFFFFFFFFFFFFFFFFFFFFFFFFFFFFFFFFFFF MUL NOT AND SWAP1 SSTORE POP POP PUSH32 0x90EF2C1ACF9194023BFD5A9880E914A11BA47F8A582A1A4B6BA173E16D2E23B8 DUP4 DUP4 PUSH1 0x40 MLOAD PUSH2 0x6EC SWAP3 SWAP2 SWAP1 PUSH2 0x1BD1 JUMP JUMPDEST PUSH1 0x40 MLOAD DUP1 SWAP2 SUB SWAP1 LOG1 POP POP POP JUMP JUMPDEST PUSH1 0x0 DUP1 PUSH1 0x0 DUP4 PUSH1 0x40 MLOAD PUSH2 0x70C SWAP2 SWAP1 PUSH2 0x16F1 JUMP JUMPDEST SWAP1 DUP2 MSTORE PUSH1 0x20 ADD PUSH1 0x40 MLOAD DUP1 SWAP2 SUB SWAP1 KECCAK256 PUSH1 0x0 ADD DUP1 SLOAD PUSH2 0x728 SWAP1 PUSH2 0x1737 JUMP JUMPDEST SWAP1 POP EQ PUSH2 0x738 JUMPI PUSH1 0x1 SWAP1 POP PUSH2 0x73D JUMP JUMPDEST PUSH1 0x0 SWAP1 POP JUMPDEST SWAP2 SWAP1 POP JUMP JUMPDEST DUP4 PUSH1 0x0 DUP1 DUP3 PUSH1 0x40 MLOAD PUSH2 0x754 SWAP2 SWAP1 PUSH2 0x16F1 JUMP JUMPDEST SWAP1 DUP2 MSTORE PUSH1 0x20 ADD PUSH1 0x40 MLOAD DUP1 SWAP2 SUB SWAP1 KECCAK256 PUSH1 0x0 ADD DUP1 SLOAD PUSH2 0x770 SWAP1 PUSH2 0x1737 JUMP JUMPDEST SWAP1 POP EQ PUSH2 0x7B2 JUMPI PUSH1 0x40 MLOAD PUSH32 0x8C379A000000000000000000000000000000000000000000000000000000000 DUP2 MSTORE PUSH1 0x4 ADD PUSH2 0x7A9 SWAP1 PUSH2 0x1C54 JUMP JUMPDEST PUSH1 0x40 MLOAD DUP1 SWAP2 SUB SWAP1 REVERT JUMPDEST PUSH1 0x40 MLOAD DUP1 PUSH1 0xA0 ADD PUSH1 0x40 MSTORE DUP1 DUP7 DUP2 MSTORE PUSH1 0x20 ADD DUP6 DUP2 MSTORE PUSH1 0x20 ADD DUP5 DUP2 MSTORE PUSH1 0x20 ADD PUSH1 0x0 PUSH1 0x1 DUP2 GT ISZERO PUSH2 0x7E3 JUMPI PUSH2 0x7E2 PUSH2 0x144A JUMP JUMPDEST JUMPDEST DUP2 MSTORE PUSH1 0x20 ADD DUP4 PUSH20 0xFFFFFFFFFFFFFFFFFFFFFFFFFFFFFFFFFFFFFFFF AND DUP2 MSTORE POP PUSH1 0x0 DUP7 PUSH1 0x40 MLOAD PUSH2 0x812 SWAP2 SWAP1 PUSH2 0x16F1 JUMP JUMPDEST SWAP1 DUP2 MSTORE PUSH1 0x20 ADD PUSH1 0x40 MLOAD DUP1 SWAP2 SUB SWAP1 KECCAK256 PUSH1 0x0 DUP3 ADD MLOAD DUP2 PUSH1 0x0 ADD SWAP1 DUP2 PUSH2 0x835 SWAP2 SWAP1 PUSH2 0x19EC JUMP JUMPDEST POP PUSH1 0x20 DUP3 ADD MLOAD DUP2 PUSH1 0x1 ADD SWAP1 DUP2 PUSH2 0x84B SWAP2 SWAP1 PUSH2 0x19EC JUMP JUMPDEST POP PUSH1 0x40 DUP3 ADD MLOAD DUP2 PUSH1 0x2 ADD SSTORE PUSH1 0x60 DUP3 ADD MLOAD DUP2 PUSH1 0x3 ADD PUSH1 0x0 PUSH2 0x100 EXP DUP2 SLOAD DUP2 PUSH1 0xFF MUL NOT AND SWAP1 DUP4 PUSH1 0x1 DUP2 GT ISZERO PUSH2 0x881 JUMPI PUSH2 0x880 PUSH2 0x144A JUMP JUMPDEST JUMPDEST MUL OR SWAP1 SSTORE POP PUSH1 0x80 DUP3 ADD MLOAD DUP2 PUSH1 0x3 ADD PUSH1 0x1 PUSH2 0x100 EXP DUP2 SLOAD DUP2 PUSH20 0xFFFFFFFFFFFFFFFFFFFFFFFFFFFFFFFFFFFFFFFF MUL NOT AND SWAP1 DUP4 PUSH20 0xFFFFFFFFFFFFFFFFFFFFFFFFFFFFFFFFFFFFFFFF AND MUL OR SWAP1 SSTORE POP SWAP1 POP POP PUSH32 0x24C1440985100E55DA65BD1F885CEAFACB77EB75E90CA41028FBD9620AFC9A4B DUP6 DUP6 DUP6 DUP6 PUSH1 0x40 MLOAD PUSH2 0x905 SWAP5 SWAP4 SWAP3 SWAP2 SWAP1 PUSH2 0x1C74 JUMP JUMPDEST PUSH1 0x40 MLOAD DUP1 SWAP2 SUB SWAP1 LOG1 POP POP POP POP POP JUMP JUMPDEST PUSH1 0x0 DUP2 PUSH1 0x0 DUP1 DUP3 PUSH1 0x40 MLOAD PUSH2 0x928 SWAP2 SWAP1 PUSH2 0x16F1 JUMP JUMPDEST SWAP1 DUP2 MSTORE PUSH1 0x20 ADD PUSH1 0x40 MLOAD DUP1 SWAP2 SUB SWAP1 KECCAK256 PUSH1 0x0 ADD DUP1 SLOAD PUSH2 0x944 SWAP1 PUSH2 0x1737 JUMP JUMPDEST SWAP1 POP SUB PUSH2 0x986 JUMPI PUSH1 0x40 MLOAD PUSH32 0x8C379A000000000000000000000000000000000000000000000000000000000 DUP2 MSTORE PUSH1 0x4 ADD PUSH2 0x97D SWAP1 PUSH2 0x17C5 JUMP JUMPDEST PUSH1 0x40 MLOAD DUP1 SWAP2 SUB SWAP1 REVERT JUMPDEST PUSH1 0x0 DUP4 PUSH1 0x40 MLOAD PUSH2 0x996 SWAP2 SWAP1 PUSH2 0x16F1 JUMP JUMPDEST SWAP1 DUP2 MSTORE PUSH1 0x20 ADD PUSH1 0x40 MLOAD DUP1 SWAP2 SUB SWAP1 KECCAK256 PUSH1 0x3 ADD PUSH1 0x1 SWAP1 SLOAD SWAP1 PUSH2 0x100 EXP SWAP1 DIV PUSH20 0xFFFFFFFFFFFFFFFFFFFFFFFFFFFFFFFFFFFFFFFF AND SWAP2 POP POP SWAP2 SWAP1 POP JUMP JUMPDEST PUSH1 0x0 DUP1 PUSH1 0x1 DUP2 GT ISZERO PUSH2 0x9E5 JUMPI PUSH2 0x9E4 PUSH2 0x144A JUMP JUMPDEST JUMPDEST PUSH1 0x0 DUP4 PUSH1 0x40 MLOAD PUSH2 0x9F5 SWAP2 SWAP1 PUSH2 0x16F1 JUMP JUMPDEST SWAP1 DUP2 MSTORE PUSH1 0x20 ADD PUSH1 0x40 MLOAD DUP1 SWAP2 SUB SWAP1 KECCAK256 PUSH1 0x3 ADD PUSH1 0x0 SWAP1 SLOAD SWAP1 PUSH2 0x100 EXP SWAP1 DIV PUSH1 0xFF AND PUSH1 0x1 DUP2 GT ISZERO PUSH2 0xA26 JUMPI PUSH2 0xA25 PUSH2 0x144A JUMP JUMPDEST JUMPDEST SUB PUSH2 0xA34 JUMPI PUSH1 0x1 SWAP1 POP PUSH2 0xA39 JUMP JUMPDEST PUSH1 0x0 SWAP1 POP JUMPDEST SWAP2 SWAP1 POP JUMP JUMPDEST PUSH2 0xA46 PUSH2 0xF70 JUMP JUMPDEST DUP2 PUSH1 0x0 DUP1 DUP3 PUSH1 0x40 MLOAD PUSH2 0xA58 SWAP2 SWAP1 PUSH2 0x16F1 JUMP JUMPDEST SWAP1 DUP2 MSTORE PUSH1 0x20 ADD PUSH1 0x40 MLOAD DUP1 SWAP2 SUB SWAP1 KECCAK256 PUSH1 0x0 ADD DUP1 SLOAD PUSH2 0xA74 SWAP1 PUSH2 0x1737 JUMP JUMPDEST SWAP1 POP SUB PUSH2 0xAB6 JUMPI PUSH1 0x40 MLOAD PUSH32 0x8C379A000000000000000000000000000000000000000000000000000000000 DUP2 MSTORE PUSH1 0x4 ADD PUSH2 0xAAD SWAP1 PUSH2 0x17C5 JUMP JUMPDEST PUSH1 0x40 MLOAD DUP1 SWAP2 SUB SWAP1 REVERT JUMPDEST PUSH1 0x0 DUP4 PUSH1 0x40 MLOAD PUSH2 0xAC6 SWAP2 SWAP1 PUSH2 0x16F1 JUMP JUMPDEST SWAP1 DUP2 MSTORE PUSH1 0x20 ADD PUSH1 0x40 MLOAD DUP1 SWAP2 SUB SWAP1 KECCAK256 PUSH1 0x40 MLOAD DUP1 PUSH1 0xA0 ADD PUSH1 0x40 MSTORE SWAP1 DUP2 PUSH1 0x0 DUP3 ADD DUP1 SLOAD PUSH2 0xAEF SWAP1 PUSH2 0x1737 JUMP JUMPDEST DUP1 PUSH1 0x1F ADD PUSH1 0x20 DUP1 SWAP2 DIV MUL PUSH1 0x20 ADD PUSH1 0x40 MLOAD SWAP1 DUP2 ADD PUSH1 0x40 MSTORE DUP1 SWAP3 SWAP2 SWAP1 DUP2 DUP2 MSTORE PUSH1 0x20 ADD DUP3 DUP1 SLOAD PUSH2 0xB1B SWAP1 PUSH2 0x1737 JUMP JUMPDEST DUP1 ISZERO PUSH2 0xB68 JUMPI DUP1 PUSH1 0x1F LT PUSH2 0xB3D JUMPI PUSH2 0x100 DUP1 DUP4 SLOAD DIV MUL DUP4 MSTORE SWAP2 PUSH1 0x20 ADD SWAP2 PUSH2 0xB68 JUMP JUMPDEST DUP3 ADD SWAP2 SWAP1 PUSH1 0x0 MSTORE PUSH1 0x20 PUSH1 0x0 KECCAK256 SWAP1 JUMPDEST DUP2 SLOAD DUP2 MSTORE SWAP1 PUSH1 0x1 ADD SWAP1 PUSH1 0x20 ADD DUP1 DUP4 GT PUSH2 0xB4B JUMPI DUP3 SWAP1 SUB PUSH1 0x1F AND DUP3 ADD SWAP2 JUMPDEST POP POP POP POP POP DUP2 MSTORE PUSH1 0x20 ADD PUSH1 0x1 DUP3 ADD DUP1 SLOAD PUSH2 0xB81 SWAP1 PUSH2 0x1737 JUMP JUMPDEST DUP1 PUSH1 0x1F ADD PUSH1 0x20 DUP1 SWAP2 DIV MUL PUSH1 0x20 ADD PUSH1 0x40 MLOAD SWAP1 DUP2 ADD PUSH1 0x40 MSTORE DUP1 SWAP3 SWAP2 SWAP1 DUP2 DUP2 MSTORE PUSH1 0x20 ADD DUP3 DUP1 SLOAD PUSH2 0xBAD SWAP1 PUSH2 0x1737 JUMP JUMPDEST DUP1 ISZERO PUSH2 0xBFA JUMPI DUP1 PUSH1 0x1F LT PUSH2 0xBCF JUMPI PUSH2 0x100 DUP1 DUP4 SLOAD DIV MUL DUP4 MSTORE SWAP2 PUSH1 0x20 ADD SWAP2 PUSH2 0xBFA JUMP JUMPDEST DUP3 ADD SWAP2 SWAP1 PUSH1 0x0 MSTORE PUSH1 0x20 PUSH1 0x0 KECCAK256 SWAP1 JUMPDEST DUP2 SLOAD DUP2 MSTORE SWAP1 PUSH1 0x1 ADD SWAP1 PUSH1 0x20 ADD DUP1 DUP4 GT PUSH2 0xBDD JUMPI DUP3 SWAP1 SUB PUSH1 0x1F AND DUP3 ADD SWAP2 JUMPDEST POP POP POP POP POP DUP2 MSTORE PUSH1 0x20 ADD PUSH1 0x2 DUP3 ADD SLOAD DUP2 MSTORE PUSH1 0x20 ADD PUSH1 0x3 DUP3 ADD PUSH1 0x0 SWAP1 SLOAD SWAP1 PUSH2 0x100 EXP SWAP1 DIV PUSH1 0xFF AND PUSH1 0x1 DUP2 GT ISZERO PUSH2 0xC32 JUMPI PUSH2 0xC31 PUSH2 0x144A JUMP JUMPDEST JUMPDEST PUSH1 0x1 DUP2 GT ISZERO PUSH2 0xC44 JUMPI PUSH2 0xC43 PUSH2 0x144A JUMP JUMPDEST JUMPDEST DUP2 MSTORE PUSH1 0x20 ADD PUSH1 0x3 DUP3 ADD PUSH1 0x1 SWAP1 SLOAD SWAP1 PUSH2 0x100 EXP SWAP1 DIV PUSH20 0xFFFFFFFFFFFFFFFFFFFFFFFFFFFFFFFFFFFFFFFF AND PUSH20 0xFFFFFFFFFFFFFFFFFFFFFFFFFFFFFFFFFFFFFFFF AND PUSH20 0xFFFFFFFFFFFFFFFFFFFFFFFFFFFFFFFFFFFFFFFF AND DUP2 MSTORE POP POP SWAP2 POP POP SWAP2 SWAP1 POP JUMP JUMPDEST DUP5 PUSH1 0x0 DUP1 DUP3 PUSH1 0x40 MLOAD PUSH2 0xCB8 SWAP2 SWAP1 PUSH2 0x16F1 JUMP JUMPDEST SWAP1 DUP2 MSTORE PUSH1 0x20 ADD PUSH1 0x40 MLOAD DUP1 SWAP2 SUB SWAP1 KECCAK256 PUSH1 0x0 ADD DUP1 SLOAD PUSH2 0xCD4 SWAP1 PUSH2 0x1737 JUMP JUMPDEST SWAP1 POP SUB PUSH2 0xD16 JUMPI PUSH1 0x40 MLOAD PUSH32 0x8C379A000000000000000000000000000000000000000000000000000000000 DUP2 MSTORE PUSH1 0x4 ADD PUSH2 0xD0D SWAP1 PUSH2 0x17C5 JUMP JUMPDEST PUSH1 0x40 MLOAD DUP1 SWAP2 SUB SWAP1 REVERT JUMPDEST DUP5 PUSH1 0x0 DUP8 PUSH1 0x40 MLOAD PUSH2 0xD27 SWAP2 SWAP1 PUSH2 0x16F1 JUMP JUMPDEST SWAP1 DUP2 MSTORE PUSH1 0x20 ADD PUSH1 0x40 MLOAD DUP1 SWAP2 SUB SWAP1 KECCAK256 PUSH1 0x1 ADD SWAP1 DUP2 PUSH2 0xD44 SWAP2 SWAP1 PUSH2 0x19EC JUMP JUMPDEST POP DUP4 PUSH1 0x0 DUP8 PUSH1 0x40 MLOAD PUSH2 0xD56 SWAP2 SWAP1 PUSH2 0x16F1 JUMP JUMPDEST SWAP1 DUP2 MSTORE PUSH1 0x20 ADD PUSH1 0x40 MLOAD DUP1 SWAP2 SUB SWAP1 KECCAK256 PUSH1 0x2 ADD DUP2 SWAP1 SSTORE POP DUP3 PUSH1 0x0 DUP8 PUSH1 0x40 MLOAD PUSH2 0xD7C SWAP2 SWAP1 PUSH2 0x16F1 JUMP JUMPDEST SWAP1 DUP2 MSTORE PUSH1 0x20 ADD PUSH1 0x40 MLOAD DUP1 SWAP2 SUB SWAP1 KECCAK256 PUSH1 0x3 ADD PUSH1 0x0 PUSH2 0x100 EXP DUP2 SLOAD DUP2 PUSH1 0xFF MUL NOT AND SWAP1 DUP4 PUSH1 0x1 DUP2 GT ISZERO PUSH2 0xDAF JUMPI PUSH2 0xDAE PUSH2 0x144A JUMP JUMPDEST JUMPDEST MUL OR SWAP1 SSTORE POP DUP2 PUSH1 0x0 DUP8 PUSH1 0x40 MLOAD PUSH2 0xDC5 SWAP2 SWAP1 PUSH2 0x16F1 JUMP JUMPDEST SWAP1 DUP2 MSTORE PUSH1 0x20 ADD PUSH1 0x40 MLOAD DUP1 SWAP2 SUB SWAP1 KECCAK256 PUSH1 0x3 ADD PUSH1 0x1 PUSH2 0x100 EXP DUP2 SLOAD DUP2 PUSH20 0xFFFFFFFFFFFFFFFFFFFFFFFFFFFFFFFFFFFFFFFF MUL NOT AND SWAP1 DUP4 PUSH20 0xFFFFFFFFFFFFFFFFFFFFFFFFFFFFFFFFFFFFFFFF AND MUL OR SWAP1 SSTORE POP PUSH32 0xBBFF4946F1C731F905E39DF875134A38F27B2585272DC14E0BFDA05D54C56F4F DUP7 DUP7 DUP7 DUP7 DUP7 PUSH1 0x40 MLOAD PUSH2 0xE4B SWAP6 SWAP5 SWAP4 SWAP3 SWAP2 SWAP1 PUSH2 0x1CD6 JUMP JUMPDEST PUSH1 0x40 MLOAD DUP1 SWAP2 SUB SWAP1 LOG1 POP POP POP POP POP POP JUMP JUMPDEST DUP2 PUSH1 0x0 DUP1 DUP3 PUSH1 0x40 MLOAD PUSH2 0xE6D SWAP2 SWAP1 PUSH2 0x16F1 JUMP JUMPDEST SWAP1 DUP2 MSTORE PUSH1 0x20 ADD PUSH1 0x40 MLOAD DUP1 SWAP2 SUB SWAP1 KECCAK256 PUSH1 0x0 ADD DUP1 SLOAD PUSH2 0xE89 SWAP1 PUSH2 0x1737 JUMP JUMPDEST SWAP1 POP SUB PUSH2 0xECB JUMPI PUSH1 0x40 MLOAD PUSH32 0x8C379A000000000000000000000000000000000000000000000000000000000 DUP2 MSTORE PUSH1 0x4 ADD PUSH2 0xEC2 SWAP1 PUSH2 0x17C5 JUMP JUMPDEST PUSH1 0x40 MLOAD DUP1 SWAP2 SUB SWAP1 REVERT JUMPDEST DUP2 PUSH1 0x0 DUP5 PUSH1 0x40 MLOAD PUSH2 0xEDC SWAP2 SWAP1 PUSH2 0x16F1 JUMP JUMPDEST SWAP1 DUP2 MSTORE PUSH1 0x20 ADD PUSH1 0x40 MLOAD DUP1 SWAP2 SUB SWAP1 KECCAK256 PUSH1 0x3 ADD PUSH1 0x1 PUSH2 0x100 EXP DUP2 SLOAD DUP2 PUSH20 0xFFFFFFFFFFFFFFFFFFFFFFFFFFFFFFFFFFFFFFFF MUL NOT AND SWAP1 DUP4 PUSH20 0xFFFFFFFFFFFFFFFFFFFFFFFFFFFFFFFFFFFFFFFF AND MUL OR SWAP1 SSTORE POP POP POP POP JUMP JUMPDEST POP DUP1 SLOAD PUSH2 0xF3C SWAP1 PUSH2 0x1737 JUMP JUMPDEST PUSH1 0x0 DUP3 SSTORE DUP1 PUSH1 0x1F LT PUSH2 0xF4E JUMPI POP PUSH2 0xF6D JUMP JUMPDEST PUSH1 0x1F ADD PUSH1 0x20 SWAP1 DIV SWAP1 PUSH1 0x0 MSTORE PUSH1 0x20 PUSH1 0x0 KECCAK256 SWAP1 DUP2 ADD SWAP1 PUSH2 0xF6C SWAP2 SWAP1 PUSH2 0xFC7 JUMP JUMPDEST JUMPDEST POP JUMP JUMPDEST PUSH1 0x40 MLOAD DUP1 PUSH1 0xA0 ADD PUSH1 0x40 MSTORE DUP1 PUSH1 0x60 DUP2 MSTORE PUSH1 0x20 ADD PUSH1 0x60 DUP2 MSTORE PUSH1 0x20 ADD PUSH1 0x0 DUP2 MSTORE PUSH1 0x20 ADD PUSH1 0x0 PUSH1 0x1 DUP2 GT ISZERO PUSH2 0xFA4 JUMPI PUSH2 0xFA3 PUSH2 0x144A JUMP JUMPDEST JUMPDEST DUP2 MSTORE PUSH1 0x20 ADD PUSH1 0x0 PUSH20 0xFFFFFFFFFFFFFFFFFFFFFFFFFFFFFFFFFFFFFFFF AND DUP2 MSTORE POP SWAP1 JUMP JUMPDEST JUMPDEST DUP1 DUP3 GT ISZERO PUSH2 0xFE0 JUMPI PUSH1 0x0 DUP2 PUSH1 0x0 SWAP1 SSTORE POP PUSH1 0x1 ADD PUSH2 0xFC8 JUMP JUMPDEST POP SWAP1 JUMP JUMPDEST PUSH1 0x0 PUSH1 0x40 MLOAD SWAP1 POP SWAP1 JUMP JUMPDEST PUSH1 0x0 DUP1 REVERT JUMPDEST PUSH1 0x0 DUP1 REVERT JUMPDEST PUSH1 0x0 DUP1 REVERT JUMPDEST PUSH1 0x0 DUP1 REVERT JUMPDEST PUSH1 0x0 PUSH1 0x1F NOT PUSH1 0x1F DUP4 ADD AND SWAP1 POP SWAP2 SWAP1 POP JUMP JUMPDEST PUSH32 0x4E487B7100000000000000000000000000000000000000000000000000000000 PUSH1 0x0 MSTORE PUSH1 0x41 PUSH1 0x4 MSTORE PUSH1 0x24 PUSH1 0x0 REVERT JUMPDEST PUSH2 0x104B DUP3 PUSH2 0x1002 JUMP JUMPDEST DUP2 ADD DUP2 DUP2 LT PUSH8 0xFFFFFFFFFFFFFFFF DUP3 GT OR ISZERO PUSH2 0x106A JUMPI PUSH2 0x1069 PUSH2 0x1013 JUMP JUMPDEST JUMPDEST DUP1 PUSH1 0x40 MSTORE POP POP POP JUMP JUMPDEST PUSH1 0x0 PUSH2 0x107D PUSH2 0xFE4 JUMP JUMPDEST SWAP1 POP PUSH2 0x1089 DUP3 DUP3 PUSH2 0x1042 JUMP JUMPDEST SWAP2 SWAP1 POP JUMP JUMPDEST PUSH1 0x0 PUSH8 0xFFFFFFFFFFFFFFFF DUP3 GT ISZERO PUSH2 0x10A9 JUMPI PUSH2 0x10A8 PUSH2 0x1013 JUMP JUMPDEST JUMPDEST PUSH2 0x10B2 DUP3 PUSH2 0x1002 JUMP JUMPDEST SWAP1 POP PUSH1 0x20 DUP2 ADD SWAP1 POP SWAP2 SWAP1 POP JUMP JUMPDEST DUP3 DUP2 DUP4 CALLDATACOPY PUSH1 0x0 DUP4 DUP4 ADD MSTORE POP POP POP JUMP JUMPDEST PUSH1 0x0 PUSH2 0x10E1 PUSH2 0x10DC DUP5 PUSH2 0x108E JUMP JUMPDEST PUSH2 0x1073 JUMP JUMPDEST SWAP1 POP DUP3 DUP2 MSTORE PUSH1 0x20 DUP2 ADD DUP5 DUP5 DUP5 ADD GT ISZERO PUSH2 0x10FD JUMPI PUSH2 0x10FC PUSH2 0xFFD JUMP JUMPDEST JUMPDEST PUSH2 0x1108 DUP5 DUP3 DUP6 PUSH2 0x10BF JUMP JUMPDEST POP SWAP4 SWAP3 POP POP POP JUMP JUMPDEST PUSH1 0x0 DUP3 PUSH1 0x1F DUP4 ADD SLT PUSH2 0x1125 JUMPI PUSH2 0x1124 PUSH2 0xFF8 JUMP JUMPDEST JUMPDEST DUP2 CALLDATALOAD PUSH2 0x1135 DUP5 DUP3 PUSH1 0x20 DUP7 ADD PUSH2 0x10CE JUMP JUMPDEST SWAP2 POP POP SWAP3 SWAP2 POP POP JUMP JUMPDEST PUSH1 0x0 PUSH1 0x20 DUP3 DUP5 SUB SLT ISZERO PUSH2 0x1154 JUMPI PUSH2 0x1153 PUSH2 0xFEE JUMP JUMPDEST JUMPDEST PUSH1 0x0 DUP3 ADD CALLDATALOAD PUSH8 0xFFFFFFFFFFFFFFFF DUP2 GT ISZERO PUSH2 0x1172 JUMPI PUSH2 0x1171 PUSH2 0xFF3 JUMP JUMPDEST JUMPDEST PUSH2 0x117E DUP5 DUP3 DUP6 ADD PUSH2 0x1110 JUMP JUMPDEST SWAP2 POP POP SWAP3 SWAP2 POP POP JUMP JUMPDEST PUSH1 0x0 DUP2 SWAP1 POP SWAP2 SWAP1 POP JUMP JUMPDEST PUSH2 0x119A DUP2 PUSH2 0x1187 JUMP JUMPDEST DUP3 MSTORE POP POP JUMP JUMPDEST PUSH1 0x0 PUSH1 0x20 DUP3 ADD SWAP1 POP PUSH2 0x11B5 PUSH1 0x0 DUP4 ADD DUP5 PUSH2 0x1191 JUMP JUMPDEST SWAP3 SWAP2 POP POP JUMP JUMPDEST PUSH1 0x0 DUP1 PUSH1 0x40 DUP4 DUP6 SUB SLT ISZERO PUSH2 0x11D2 JUMPI PUSH2 0x11D1 PUSH2 0xFEE JUMP JUMPDEST JUMPDEST PUSH1 0x0 DUP4 ADD CALLDATALOAD PUSH8 0xFFFFFFFFFFFFFFFF DUP2 GT ISZERO PUSH2 0x11F0 JUMPI PUSH2 0x11EF PUSH2 0xFF3 JUMP JUMPDEST JUMPDEST PUSH2 0x11FC DUP6 DUP3 DUP7 ADD PUSH2 0x1110 JUMP JUMPDEST SWAP3 POP POP PUSH1 0x20 DUP4 ADD CALLDATALOAD PUSH8 0xFFFFFFFFFFFFFFFF DUP2 GT ISZERO PUSH2 0x121D JUMPI PUSH2 0x121C PUSH2 0xFF3 JUMP JUMPDEST JUMPDEST PUSH2 0x1229 DUP6 DUP3 DUP7 ADD PUSH2 0x1110 JUMP JUMPDEST SWAP2 POP POP SWAP3 POP SWAP3 SWAP1 POP JUMP JUMPDEST PUSH1 0x0 DUP2 ISZERO ISZERO SWAP1 POP SWAP2 SWAP1 POP JUMP JUMPDEST PUSH2 0x1248 DUP2 PUSH2 0x1233 JUMP JUMPDEST DUP3 MSTORE POP POP JUMP JUMPDEST PUSH1 0x0 PUSH1 0x20 DUP3 ADD SWAP1 POP PUSH2 0x1263 PUSH1 0x0 DUP4 ADD DUP5 PUSH2 0x123F JUMP JUMPDEST SWAP3 SWAP2 POP POP JUMP JUMPDEST PUSH2 0x1272 DUP2 PUSH2 0x1187 JUMP JUMPDEST DUP2 EQ PUSH2 0x127D JUMPI PUSH1 0x0 DUP1 REVERT JUMPDEST POP JUMP JUMPDEST PUSH1 0x0 DUP2 CALLDATALOAD SWAP1 POP PUSH2 0x128F DUP2 PUSH2 0x1269 JUMP JUMPDEST SWAP3 SWAP2 POP POP JUMP JUMPDEST PUSH1 0x0 PUSH20 0xFFFFFFFFFFFFFFFFFFFFFFFFFFFFFFFFFFFFFFFF DUP3 AND SWAP1 POP SWAP2 SWAP1 POP JUMP JUMPDEST PUSH1 0x0 PUSH2 0x12C0 DUP3 PUSH2 0x1295 JUMP JUMPDEST SWAP1 POP SWAP2 SWAP1 POP JUMP JUMPDEST PUSH2 0x12D0 DUP2 PUSH2 0x12B5 JUMP JUMPDEST DUP2 EQ PUSH2 0x12DB JUMPI PUSH1 0x0 DUP1 REVERT JUMPDEST POP JUMP JUMPDEST PUSH1 0x0 DUP2 CALLDATALOAD SWAP1 POP PUSH2 0x12ED DUP2 PUSH2 0x12C7 JUMP JUMPDEST SWAP3 SWAP2 POP POP JUMP JUMPDEST PUSH1 0x0 DUP1 PUSH1 0x0 DUP1 PUSH1 0x80 DUP6 DUP8 SUB SLT ISZERO PUSH2 0x130D JUMPI PUSH2 0x130C PUSH2 0xFEE JUMP JUMPDEST JUMPDEST PUSH1 0x0 DUP6 ADD CALLDATALOAD PUSH8 0xFFFFFFFFFFFFFFFF DUP2 GT ISZERO PUSH2 0x132B JUMPI PUSH2 0x132A PUSH2 0xFF3 JUMP JUMPDEST JUMPDEST PUSH2 0x1337 DUP8 DUP3 DUP9 ADD PUSH2 0x1110 JUMP JUMPDEST SWAP5 POP POP PUSH1 0x20 DUP6 ADD CALLDATALOAD PUSH8 0xFFFFFFFFFFFFFFFF DUP2 GT ISZERO PUSH2 0x1358 JUMPI PUSH2 0x1357 PUSH2 0xFF3 JUMP JUMPDEST JUMPDEST PUSH2 0x1364 DUP8 DUP3 DUP9 ADD PUSH2 0x1110 JUMP JUMPDEST SWAP4 POP POP PUSH1 0x40 PUSH2 0x1375 DUP8 DUP3 DUP9 ADD PUSH2 0x1280 JUMP JUMPDEST SWAP3 POP POP PUSH1 0x60 PUSH2 0x1386 DUP8 DUP3 DUP9 ADD PUSH2 0x12DE JUMP JUMPDEST SWAP2 POP POP SWAP3 SWAP6 SWAP2 SWAP5 POP SWAP3 POP JUMP JUMPDEST PUSH2 0x139B DUP2 PUSH2 0x12B5 JUMP JUMPDEST DUP3 MSTORE POP POP JUMP JUMPDEST PUSH1 0x0 PUSH1 0x20 DUP3 ADD SWAP1 POP PUSH2 0x13B6 PUSH1 0x0 DUP4 ADD DUP5 PUSH2 0x1392 JUMP JUMPDEST SWAP3 SWAP2 POP POP JUMP JUMPDEST PUSH1 0x0 DUP2 MLOAD SWAP1 POP SWAP2 SWAP1 POP JUMP JUMPDEST PUSH1 0x0 DUP3 DUP3 MSTORE PUSH1 0x20 DUP3 ADD SWAP1 POP SWAP3 SWAP2 POP POP JUMP JUMPDEST PUSH1 0x0 JUMPDEST DUP4 DUP2 LT ISZERO PUSH2 0x13F6 JUMPI DUP1 DUP3 ADD MLOAD DUP2 DUP5 ADD MSTORE PUSH1 0x20 DUP2 ADD SWAP1 POP PUSH2 0x13DB JUMP JUMPDEST PUSH1 0x0 DUP5 DUP5 ADD MSTORE POP POP POP POP JUMP JUMPDEST PUSH1 0x0 PUSH2 0x140D DUP3 PUSH2 0x13BC JUMP JUMPDEST PUSH2 0x1417 DUP2 DUP6 PUSH2 0x13C7 JUMP JUMPDEST SWAP4 POP PUSH2 0x1427 DUP2 DUP6 PUSH1 0x20 DUP7 ADD PUSH2 0x13D8 JUMP JUMPDEST PUSH2 0x1430 DUP2 PUSH2 0x1002 JUMP JUMPDEST DUP5 ADD SWAP2 POP POP SWAP3 SWAP2 POP POP JUMP JUMPDEST PUSH2 0x1444 DUP2 PUSH2 0x1187 JUMP JUMPDEST DUP3 MSTORE POP POP JUMP JUMPDEST PUSH32 0x4E487B7100000000000000000000000000000000000000000000000000000000 PUSH1 0x0 MSTORE PUSH1 0x21 PUSH1 0x4 MSTORE PUSH1 0x24 PUSH1 0x0 REVERT JUMPDEST PUSH1 0x2 DUP2 LT PUSH2 0x148A JUMPI PUSH2 0x1489 PUSH2 0x144A JUMP JUMPDEST JUMPDEST POP JUMP JUMPDEST PUSH1 0x0 DUP2 SWAP1 POP PUSH2 0x149B DUP3 PUSH2 0x1479 JUMP JUMPDEST SWAP2 SWAP1 POP JUMP JUMPDEST PUSH1 0x0 PUSH2 0x14AB DUP3 PUSH2 0x148D JUMP JUMPDEST SWAP1 POP SWAP2 SWAP1 POP JUMP JUMPDEST PUSH2 0x14BB DUP2 PUSH2 0x14A0 JUMP JUMPDEST DUP3 MSTORE POP POP JUMP JUMPDEST PUSH1 0x0 PUSH2 0x14CC DUP3 PUSH2 0x1295 JUMP JUMPDEST SWAP1 POP SWAP2 SWAP1 POP JUMP JUMPDEST PUSH2 0x14DC DUP2 PUSH2 0x14C1 JUMP JUMPDEST DUP3 MSTORE POP POP JUMP JUMPDEST PUSH1 0x0 PUSH1 0xA0 DUP4 ADD PUSH1 0x0 DUP4 ADD MLOAD DUP5 DUP3 SUB PUSH1 0x0 DUP7 ADD MSTORE PUSH2 0x14FF DUP3 DUP3 PUSH2 0x1402 JUMP JUMPDEST SWAP2 POP POP PUSH1 0x20 DUP4 ADD MLOAD DUP5 DUP3 SUB PUSH1 0x20 DUP7 ADD MSTORE PUSH2 0x1519 DUP3 DUP3 PUSH2 0x1402 JUMP JUMPDEST SWAP2 POP POP PUSH1 0x40 DUP4 ADD MLOAD PUSH2 0x152E PUSH1 0x40 DUP7 ADD DUP3 PUSH2 0x143B JUMP JUMPDEST POP PUSH1 0x60 DUP4 ADD MLOAD PUSH2 0x1541 PUSH1 0x60 DUP7 ADD DUP3 PUSH2 0x14B2 JUMP JUMPDEST POP PUSH1 0x80 DUP4 ADD MLOAD PUSH2 0x1554 PUSH1 0x80 DUP7 ADD DUP3 PUSH2 0x14D3 JUMP JUMPDEST POP DUP1 SWAP2 POP POP SWAP3 SWAP2 POP POP JUMP JUMPDEST PUSH1 0x0 PUSH1 0x20 DUP3 ADD SWAP1 POP DUP2 DUP2 SUB PUSH1 0x0 DUP4 ADD MSTORE PUSH2 0x1579 DUP2 DUP5 PUSH2 0x14E2 JUMP JUMPDEST SWAP1 POP SWAP3 SWAP2 POP POP JUMP JUMPDEST PUSH1 0x2 DUP2 LT PUSH2 0x158E JUMPI PUSH1 0x0 DUP1 REVERT JUMPDEST POP JUMP JUMPDEST PUSH1 0x0 DUP2 CALLDATALOAD SWAP1 POP PUSH2 0x15A0 DUP2 PUSH2 0x1581 JUMP JUMPDEST SWAP3 SWAP2 POP POP JUMP JUMPDEST PUSH1 0x0 DUP1 PUSH1 0x0 DUP1 PUSH1 0x0 PUSH1 0xA0 DUP7 DUP9 SUB SLT ISZERO PUSH2 0x15C2 JUMPI PUSH2 0x15C1 PUSH2 0xFEE JUMP JUMPDEST JUMPDEST PUSH1 0x0 DUP7 ADD CALLDATALOAD PUSH8 0xFFFFFFFFFFFFFFFF DUP2 GT ISZERO PUSH2 0x15E0 JUMPI PUSH2 0x15DF PUSH2 0xFF3 JUMP JUMPDEST JUMPDEST PUSH2 0x15EC DUP9 DUP3 DUP10 ADD PUSH2 0x1110 JUMP JUMPDEST SWAP6 POP POP PUSH1 0x20 DUP7 ADD CALLDATALOAD PUSH8 0xFFFFFFFFFFFFFFFF DUP2 GT ISZERO PUSH2 0x160D JUMPI PUSH2 0x160C PUSH2 0xFF3 JUMP JUMPDEST JUMPDEST PUSH2 0x1619 DUP9 DUP3 DUP10 ADD PUSH2 0x1110 JUMP JUMPDEST SWAP5 POP POP PUSH1 0x40 PUSH2 0x162A DUP9 DUP3 DUP10 ADD PUSH2 0x1280 JUMP JUMPDEST SWAP4 POP POP PUSH1 0x60 PUSH2 0x163B DUP9 DUP3 DUP10 ADD PUSH2 0x1591 JUMP JUMPDEST SWAP3 POP POP PUSH1 0x80 PUSH2 0x164C DUP9 DUP3 DUP10 ADD PUSH2 0x12DE JUMP JUMPDEST SWAP2 POP POP SWAP3 SWAP6 POP SWAP3 SWAP6 SWAP1 SWAP4 POP JUMP JUMPDEST PUSH1 0x0 DUP1 PUSH1 0x40 DUP4 DUP6 SUB SLT ISZERO PUSH2 0x1670 JUMPI PUSH2 0x166F PUSH2 0xFEE JUMP JUMPDEST JUMPDEST PUSH1 0x0 DUP4 ADD CALLDATALOAD PUSH8 0xFFFFFFFFFFFFFFFF DUP2 GT ISZERO PUSH2 0x168E JUMPI PUSH2 0x168D PUSH2 0xFF3 JUMP JUMPDEST JUMPDEST PUSH2 0x169A DUP6 DUP3 DUP7 ADD PUSH2 0x1110 JUMP JUMPDEST SWAP3 POP POP PUSH1 0x20 PUSH2 0x16AB DUP6 DUP3 DUP7 ADD PUSH2 0x12DE JUMP JUMPDEST SWAP2 POP POP SWAP3 POP SWAP3 SWAP1 POP JUMP JUMPDEST PUSH1 0x0 DUP2 SWAP1 POP SWAP3 SWAP2 POP POP JUMP JUMPDEST PUSH1 0x0 PUSH2 0x16CB DUP3 PUSH2 0x13BC JUMP JUMPDEST PUSH2 0x16D5 DUP2 DUP6 PUSH2 0x16B5 JUMP JUMPDEST SWAP4 POP PUSH2 0x16E5 DUP2 DUP6 PUSH1 0x20 DUP7 ADD PUSH2 0x13D8 JUMP JUMPDEST DUP1 DUP5 ADD SWAP2 POP POP SWAP3 SWAP2 POP POP JUMP JUMPDEST PUSH1 0x0 PUSH2 0x16FD DUP3 DUP5 PUSH2 0x16C0 JUMP JUMPDEST SWAP2 POP DUP2 SWAP1 POP SWAP3 SWAP2 POP POP JUMP JUMPDEST PUSH32 0x4E487B7100000000000000000000000000000000000000000000000000000000 PUSH1 0x0 MSTORE PUSH1 0x22 PUSH1 0x4 MSTORE PUSH1 0x24 PUSH1 0x0 REVERT JUMPDEST PUSH1 0x0 PUSH1 0x2 DUP3 DIV SWAP1 POP PUSH1 0x1 DUP3 AND DUP1 PUSH2 0x174F JUMPI PUSH1 0x7F DUP3 AND SWAP2 POP JUMPDEST PUSH1 0x20 DUP3 LT DUP2 SUB PUSH2 0x1762 JUMPI PUSH2 0x1761 PUSH2 0x1708 JUMP JUMPDEST JUMPDEST POP SWAP2 SWAP1 POP JUMP JUMPDEST PUSH1 0x0 DUP3 DUP3 MSTORE PUSH1 0x20 DUP3 ADD SWAP1 POP SWAP3 SWAP2 POP POP JUMP JUMPDEST PUSH32 0x41706172746D656E7420646F6573206E6F742065786973742100000000000000 PUSH1 0x0 DUP3 ADD MSTORE POP JUMP JUMPDEST PUSH1 0x0 PUSH2 0x17AF PUSH1 0x19 DUP4 PUSH2 0x1768 JUMP JUMPDEST SWAP2 POP PUSH2 0x17BA DUP3 PUSH2 0x1779 JUMP JUMPDEST PUSH1 0x20 DUP3 ADD SWAP1 POP SWAP2 SWAP1 POP JUMP JUMPDEST PUSH1 0x0 PUSH1 0x20 DUP3 ADD SWAP1 POP DUP2 DUP2 SUB PUSH1 0x0 DUP4 ADD MSTORE PUSH2 0x17DE DUP2 PUSH2 0x17A2 JUMP JUMPDEST SWAP1 POP SWAP2 SWAP1 POP JUMP JUMPDEST PUSH1 0x0 PUSH2 0x17F0 DUP3 PUSH2 0x13BC JUMP JUMPDEST PUSH2 0x17FA DUP2 DUP6 PUSH2 0x1768 JUMP JUMPDEST SWAP4 POP PUSH2 0x180A DUP2 DUP6 PUSH1 0x20 DUP7 ADD PUSH2 0x13D8 JUMP JUMPDEST PUSH2 0x1813 DUP2 PUSH2 0x1002 JUMP JUMPDEST DUP5 ADD SWAP2 POP POP SWAP3 SWAP2 POP POP JUMP JUMPDEST PUSH1 0x0 PUSH1 0x20 DUP3 ADD SWAP1 POP DUP2 DUP2 SUB PUSH1 0x0 DUP4 ADD MSTORE PUSH2 0x1838 DUP2 DUP5 PUSH2 0x17E5 JUMP JUMPDEST SWAP1 POP SWAP3 SWAP2 POP POP JUMP JUMPDEST PUSH1 0x0 DUP2 SWAP1 POP DUP2 PUSH1 0x0 MSTORE PUSH1 0x20 PUSH1 0x0 KECCAK256 SWAP1 POP SWAP2 SWAP1 POP JUMP JUMPDEST PUSH1 0x0 PUSH1 0x20 PUSH1 0x1F DUP4 ADD DIV SWAP1 POP SWAP2 SWAP1 POP JUMP JUMPDEST PUSH1 0x0 DUP3 DUP3 SHL SWAP1 POP SWAP3 SWAP2 POP POP JUMP JUMPDEST PUSH1 0x0 PUSH1 0x8 DUP4 MUL PUSH2 0x18A2 PUSH32 0xFFFFFFFFFFFFFFFFFFFFFFFFFFFFFFFFFFFFFFFFFFFFFFFFFFFFFFFFFFFFFFFF DUP3 PUSH2 0x1865 JUMP JUMPDEST PUSH2 0x18AC DUP7 DUP4 PUSH2 0x1865 JUMP JUMPDEST SWAP6 POP DUP1 NOT DUP5 AND SWAP4 POP DUP1 DUP7 AND DUP5 OR SWAP3 POP POP POP SWAP4 SWAP3 POP POP POP JUMP JUMPDEST PUSH1 0x0 DUP2 SWAP1 POP SWAP2 SWAP1 POP JUMP JUMPDEST PUSH1 0x0 PUSH2 0x18E9 PUSH2 0x18E4 PUSH2 0x18DF DUP5 PUSH2 0x1187 JUMP JUMPDEST PUSH2 0x18C4 JUMP JUMPDEST PUSH2 0x1187 JUMP JUMPDEST SWAP1 POP SWAP2 SWAP1 POP JUMP JUMPDEST PUSH1 0x0 DUP2 SWAP1 POP SWAP2 SWAP1 POP JUMP JUMPDEST PUSH2 0x1903 DUP4 PUSH2 0x18CE JUMP JUMPDEST PUSH2 0x1917 PUSH2 0x190F DUP3 PUSH2 0x18F0 JUMP JUMPDEST DUP5 DUP5 SLOAD PUSH2 0x1872 JUMP JUMPDEST DUP3 SSTORE POP POP POP POP JUMP JUMPDEST PUSH1 0x0 SWAP1 JUMP JUMPDEST PUSH2 0x192C PUSH2 0x191F JUMP JUMPDEST PUSH2 0x1937 DUP2 DUP5 DUP5 PUSH2 0x18FA JUMP JUMPDEST POP POP POP JUMP JUMPDEST JUMPDEST DUP2 DUP2 LT ISZERO PUSH2 0x195B JUMPI PUSH2 0x1950 PUSH1 0x0 DUP3 PUSH2 0x1924 JUMP JUMPDEST PUSH1 0x1 DUP2 ADD SWAP1 POP PUSH2 0x193D JUMP JUMPDEST POP POP JUMP JUMPDEST PUSH1 0x1F DUP3 GT ISZERO PUSH2 0x19A0 JUMPI PUSH2 0x1971 DUP2 PUSH2 0x1840 JUMP JUMPDEST PUSH2 0x197A DUP5 PUSH2 0x1855 JUMP JUMPDEST DUP2 ADD PUSH1 0x20 DUP6 LT ISZERO PUSH2 0x1989 JUMPI DUP2 SWAP1 POP JUMPDEST PUSH2 0x199D PUSH2 0x1995 DUP6 PUSH2 0x1855 JUMP JUMPDEST DUP4 ADD DUP3 PUSH2 0x193C JUMP JUMPDEST POP POP JUMPDEST POP POP POP JUMP JUMPDEST PUSH1 0x0 DUP3 DUP3 SHR SWAP1 POP SWAP3 SWAP2 POP POP JUMP JUMPDEST PUSH1 0x0 PUSH2 0x19C3 PUSH1 0x0 NOT DUP5 PUSH1 0x8 MUL PUSH2 0x19A5 JUMP JUMPDEST NOT DUP1 DUP4 AND SWAP2 POP POP SWAP3 SWAP2 POP POP JUMP JUMPDEST PUSH1 0x0 PUSH2 0x19DC DUP4 DUP4 PUSH2 0x19B2 JUMP JUMPDEST SWAP2 POP DUP3 PUSH1 0x2 MUL DUP3 OR SWAP1 POP SWAP3 SWAP2 POP POP JUMP JUMPDEST PUSH2 0x19F5 DUP3 PUSH2 0x13BC JUMP JUMPDEST PUSH8 0xFFFFFFFFFFFFFFFF DUP2 GT ISZERO PUSH2 0x1A0E JUMPI PUSH2 0x1A0D PUSH2 0x1013 JUMP JUMPDEST JUMPDEST PUSH2 0x1A18 DUP3 SLOAD PUSH2 0x1737 JUMP JUMPDEST PUSH2 0x1A23 DUP3 DUP3 DUP6 PUSH2 0x195F JUMP JUMPDEST PUSH1 0x0 PUSH1 0x20 SWAP1 POP PUSH1 0x1F DUP4 GT PUSH1 0x1 DUP2 EQ PUSH2 0x1A56 JUMPI PUSH1 0x0 DUP5 ISZERO PUSH2 0x1A44 JUMPI DUP3 DUP8 ADD MLOAD SWAP1 POP JUMPDEST PUSH2 0x1A4E DUP6 DUP3 PUSH2 0x19D0 JUMP JUMPDEST DUP7 SSTORE POP PUSH2 0x1AB6 JUMP JUMPDEST PUSH1 0x1F NOT DUP5 AND PUSH2 0x1A64 DUP7 PUSH2 0x1840 JUMP JUMPDEST PUSH1 0x0 JUMPDEST DUP3 DUP2 LT ISZERO PUSH2 0x1A8C JUMPI DUP5 DUP10 ADD MLOAD DUP3 SSTORE PUSH1 0x1 DUP3 ADD SWAP2 POP PUSH1 0x20 DUP6 ADD SWAP5 POP PUSH1 0x20 DUP2 ADD SWAP1 POP PUSH2 0x1A67 JUMP JUMPDEST DUP7 DUP4 LT ISZERO PUSH2 0x1AA9 JUMPI DUP5 DUP10 ADD MLOAD PUSH2 0x1AA5 PUSH1 0x1F DUP10 AND DUP3 PUSH2 0x19B2 JUMP JUMPDEST DUP4 SSTORE POP JUMPDEST PUSH1 0x1 PUSH1 0x2 DUP9 MUL ADD DUP9 SSTORE POP POP POP JUMPDEST POP POP POP POP POP POP JUMP JUMPDEST PUSH1 0x0 DUP2 SLOAD SWAP1 POP PUSH2 0x1ACD DUP2 PUSH2 0x1737 JUMP JUMPDEST SWAP1 POP SWAP2 SWAP1 POP JUMP JUMPDEST PUSH1 0x0 DUP2 SWAP1 POP DUP2 PUSH1 0x0 MSTORE PUSH1 0x20 PUSH1 0x0 KECCAK256 SWAP1 POP SWAP2 SWAP1 POP JUMP JUMPDEST DUP2 DUP2 SUB PUSH2 0x1AF7 JUMPI POP POP PUSH2 0x1BCF JUMP JUMPDEST PUSH2 0x1B00 DUP3 PUSH2 0x1ABE JUMP JUMPDEST PUSH8 0xFFFFFFFFFFFFFFFF DUP2 GT ISZERO PUSH2 0x1B19 JUMPI PUSH2 0x1B18 PUSH2 0x1013 JUMP JUMPDEST JUMPDEST PUSH2 0x1B23 DUP3 SLOAD PUSH2 0x1737 JUMP JUMPDEST PUSH2 0x1B2E DUP3 DUP3 DUP6 PUSH2 0x195F JUMP JUMPDEST PUSH1 0x0 PUSH1 0x1F DUP4 GT PUSH1 0x1 DUP2 EQ PUSH2 0x1B5D JUMPI PUSH1 0x0 DUP5 ISZERO PUSH2 0x1B4B JUMPI DUP3 DUP8 ADD SLOAD SWAP1 POP JUMPDEST PUSH2 0x1B55 DUP6 DUP3 PUSH2 0x19D0 JUMP JUMPDEST DUP7 SSTORE POP PUSH2 0x1BC8 JUMP JUMPDEST PUSH1 0x1F NOT DUP5 AND PUSH2 0x1B6B DUP8 PUSH2 0x1AD4 JUMP JUMPDEST SWAP7 POP PUSH2 0x1B76 DUP7 PUSH2 0x1840 JUMP JUMPDEST PUSH1 0x0 JUMPDEST DUP3 DUP2 LT ISZERO PUSH2 0x1B9E JUMPI DUP5 DUP10 ADD SLOAD DUP3 SSTORE PUSH1 0x1 DUP3 ADD SWAP2 POP PUSH1 0x1 DUP6 ADD SWAP5 POP PUSH1 0x20 DUP2 ADD SWAP1 POP PUSH2 0x1B79 JUMP JUMPDEST DUP7 DUP4 LT ISZERO PUSH2 0x1BBB JUMPI DUP5 DUP10 ADD SLOAD PUSH2 0x1BB7 PUSH1 0x1F DUP10 AND DUP3 PUSH2 0x19B2 JUMP JUMPDEST DUP4 SSTORE POP JUMPDEST PUSH1 0x1 PUSH1 0x2 DUP9 MUL ADD DUP9 SSTORE POP POP POP JUMPDEST POP POP POP POP POP POP JUMPDEST JUMP JUMPDEST PUSH1 0x0 PUSH1 0x40 DUP3 ADD SWAP1 POP DUP2 DUP2 SUB PUSH1 0x0 DUP4 ADD MSTORE PUSH2 0x1BEB DUP2 DUP6 PUSH2 0x17E5 JUMP JUMPDEST SWAP1 POP DUP2 DUP2 SUB PUSH1 0x20 DUP4 ADD MSTORE PUSH2 0x1BFF DUP2 DUP5 PUSH2 0x17E5 JUMP JUMPDEST SWAP1 POP SWAP4 SWAP3 POP POP POP JUMP JUMPDEST PUSH32 0x41706172746D656E7420616C7265616479206578697374732100000000000000 PUSH1 0x0 DUP3 ADD MSTORE POP JUMP JUMPDEST PUSH1 0x0 PUSH2 0x1C3E PUSH1 0x19 DUP4 PUSH2 0x1768 JUMP JUMPDEST SWAP2 POP PUSH2 0x1C49 DUP3 PUSH2 0x1C08 JUMP JUMPDEST PUSH1 0x20 DUP3 ADD SWAP1 POP SWAP2 SWAP1 POP JUMP JUMPDEST PUSH1 0x0 PUSH1 0x20 DUP3 ADD SWAP1 POP DUP2 DUP2 SUB PUSH1 0x0 DUP4 ADD MSTORE PUSH2 0x1C6D DUP2 PUSH2 0x1C31 JUMP JUMPDEST SWAP1 POP SWAP2 SWAP1 POP JUMP JUMPDEST PUSH1 0x0 PUSH1 0x80 DUP3 ADD SWAP1 POP DUP2 DUP2 SUB PUSH1 0x0 DUP4 ADD MSTORE PUSH2 0x1C8E DUP2 DUP8 PUSH2 0x17E5 JUMP JUMPDEST SWAP1 POP DUP2 DUP2 SUB PUSH1 0x20 DUP4 ADD MSTORE PUSH2 0x1CA2 DUP2 DUP7 PUSH2 0x17E5 JUMP JUMPDEST SWAP1 POP PUSH2 0x1CB1 PUSH1 0x40 DUP4 ADD DUP6 PUSH2 0x1191 JUMP JUMPDEST PUSH2 0x1CBE PUSH1 0x60 DUP4 ADD DUP5 PUSH2 0x1392 JUMP JUMPDEST SWAP6 SWAP5 POP POP POP POP POP JUMP JUMPDEST PUSH2 0x1CD0 DUP2 PUSH2 0x14A0 JUMP JUMPDEST DUP3 MSTORE POP POP JUMP JUMPDEST PUSH1 0x0 PUSH1 0xA0 DUP3 ADD SWAP1 POP DUP2 DUP2 SUB PUSH1 0x0 DUP4 ADD MSTORE PUSH2 0x1CF0 DUP2 DUP9 PUSH2 0x17E5 JUMP JUMPDEST SWAP1 POP DUP2 DUP2 SUB PUSH1 0x20 DUP4 ADD MSTORE PUSH2 0x1D04 DUP2 DUP8 PUSH2 0x17E5 JUMP JUMPDEST SWAP1 POP PUSH2 0x1D13 PUSH1 0x40 DUP4 ADD DUP7 PUSH2 0x1191 JUMP JUMPDEST PUSH2 0x1D20 PUSH1 0x60 DUP4 ADD DUP6 PUSH2 0x1CC7 JUMP JUMPDEST PUSH2 0x1D2D PUSH1 0x80 DUP4 ADD DUP5 PUSH2 0x1392 JUMP JUMPDEST SWAP7 SWAP6 POP POP POP POP POP POP JUMP INVALID LOG2 PUSH5 0x6970667358 0x22 SLT KECCAK256 0xDD GAS SWAP13 SWAP9 CHAINID 0xEF SHL DUP11 0x29 0xBD 0xBF DELEGATECALL 0xAB MULMOD 0xB1 PUSH32 0x19BF3D19F350E223E4389D431E60130764736F6C634300081200330000000000 "},"methodIdentifiers":{"addApartment(string,string,uint256,address)":"467fc8f8","changeAparmentOwner(string,address)":"f5f4998b","deleteApartment(string)":"0408b887","getApartment(string)":"77e06199","getApartmentOwner(string)":"5cf8a03f","getApartmentPrice(string)":"0a277fe3","isApartmentVacant(string)":"71902a4c","searchIfApartmentExists(string)":"2d4b4953","updateApartmentDirection(string,string)":"2719be0b","updateApartmentParams(string,string,uint256,uint8,address)":"cbf9aaa7"}}}}}