{"contracts/Apartment.sol":{"Apartment":{"abi":[{"inputs":[{"internalType":"address","name":"apartmentNFTDeployedAddress","type":"address"}],"stateMutability":"nonpayable","type":"constructor"},{"inputs":[{"internalType":"uint256","name":"apartmentID","type":"uint256"}],"name":"apartmetnDoesNotExist","type":"error"},{"inputs":[{"internalType":"address","name":"_user","type":"address"}],"name":"userNotAuthorized","type":"error"},{"anonymous":false,"inputs":[{"indexed":false,"internalType":"uint256","name":"apartmentID","type":"uint256"},{"indexed":false,"internalType":"uint256","name":"nftTokenID","type":"uint256"},{"indexed":false,"internalType":"string","name":"ipfsHash","type":"string"},{"indexed":false,"internalType":"address","name":"owner","type":"address"},{"indexed":false,"internalType":"uint256","name":"ethPrice","type":"uint256"}],"name":"apartmentAdded","type":"event"},{"anonymous":false,"inputs":[{"indexed":false,"internalType":"uint256","name":"ntfTokenID","type":"uint256"},{"indexed":false,"internalType":"uint256","name":"apartmentId","type":"uint256"}],"name":"apartmentDeleted","type":"event"},{"anonymous":false,"inputs":[{"indexed":false,"internalType":"uint256","name":"apartmentID","type":"uint256"},{"indexed":false,"internalType":"uint256","name":"nftTokenId","type":"uint256"},{"indexed":false,"internalType":"string","name":"ipfsHash","type":"string"},{"indexed":false,"internalType":"uint256","name":"ethPrice","type":"uint256"}],"name":"apartmentUpdated","type":"event"},{"inputs":[{"internalType":"string","name":"_ipfsHash","type":"string"},{"internalType":"uint256","name":"_ethPrice","type":"uint256"}],"name":"addApartment","outputs":[],"stateMutability":"nonpayable","type":"function"},{"inputs":[],"name":"apartmentCounter","outputs":[{"internalType":"uint256","name":"","type":"uint256"}],"stateMutability":"view","type":"function"},{"inputs":[{"internalType":"uint256","name":"_apartmentID","type":"uint256"}],"name":"apartmentExists","outputs":[{"internalType":"bool","name":"","type":"bool"}],"stateMutability":"view","type":"function"},{"inputs":[{"internalType":"uint256","name":"","type":"uint256"}],"name":"apartments","outputs":[{"internalType":"string","name":"ipfsHash","type":"string"},{"internalType":"uint256","name":"nftTokenId","type":"uint256"},{"internalType":"address","name":"owner","type":"address"},{"internalType":"uint256","name":"ethPrice","type":"uint256"}],"stateMutability":"view","type":"function"},{"inputs":[],"name":"aptNFT","outputs":[{"internalType":"contract apartmentNFT","name":"","type":"address"}],"stateMutability":"view","type":"function"},{"inputs":[{"internalType":"uint256","name":"_apartmentID","type":"uint256"}],"name":"deleteApartment","outputs":[],"stateMutability":"nonpayable","type":"function"},{"inputs":[{"internalType":"uint256","name":"_apartmentID","type":"uint256"}],"name":"getApartmentEthPrice","outputs":[{"internalType":"uint256","name":"","type":"uint256"}],"stateMutability":"view","type":"function"},{"inputs":[{"internalType":"uint256","name":"_apartmentID","type":"uint256"}],"name":"getApartmentInfo","outputs":[{"components":[{"internalType":"string","name":"ipfsHash","type":"string"},{"internalType":"uint256","name":"nftTokenId","type":"uint256"},{"internalType":"address","name":"owner","type":"address"},{"internalType":"uint256","name":"ethPrice","type":"uint256"}],"internalType":"struct Apartment.apartmentInfo","name":"","type":"tuple"}],"stateMutability":"view","type":"function"},{"inputs":[{"internalType":"uint256","name":"_apartmentID","type":"uint256"}],"name":"getApartmentNftTokenID","outputs":[{"internalType":"uint256","name":"","type":"uint256"}],"stateMutability":"view","type":"function"},{"inputs":[{"internalType":"uint256","name":"_apartmentID","type":"uint256"},{"internalType":"string","name":"_newIpfsHash","type":"string"},{"internalType":"uint256","name":"_ethPrice","type":"uint256"}],"name":"updateApartmentParams","outputs":[],"stateMutability":"nonpayable","type":"function"}],"evm":{"bytecode":{"linkReferences":{},"object":"608060405260006002553480156200001657600080fd5b50604051620018153803806200181583398181016040528101906200003c9190620000ed565b806000806101000a81548173ffffffffffffffffffffffffffffffffffffffff021916908373ffffffffffffffffffffffffffffffffffffffff160217905550506200011f565b600080fd5b600073ffffffffffffffffffffffffffffffffffffffff82169050919050565b6000620000b58262000088565b9050919050565b620000c781620000a8565b8114620000d357600080fd5b50565b600081519050620000e781620000bc565b92915050565b60006020828403121562000106576200010562000083565b5b60006200011684828501620000d6565b91505092915050565b6116e6806200012f6000396000f3fe608060405234801561001057600080fd5b506004361061009e5760003560e01c80635f0667f4116100665780635f0667f41461014757806375788d7914610177578063909735ce146101a757806393353038146101d7578063abb8be17146101f35761009e565b80632fac5ab3146100a35780633263ab26146100bf5780634c5ea5d9146100dd57806355c3fbfb1461010d5780635ee763e014610129575b600080fd5b6100bd60048036038101906100b89190610de5565b610226565b005b6100c76103eb565b6040516100d49190610ec0565b60405180910390f35b6100f760048036038101906100f29190610edb565b61040f565b6040516101049190610f17565b60405180910390f35b61012760048036038101906101229190610edb565b61042f565b005b6101316106e8565b60405161013e9190610f17565b60405180910390f35b610161600480360381019061015c9190610edb565b6106ee565b60405161016e9190610f4d565b60405180910390f35b610191600480360381019061018c9190610edb565b61076c565b60405161019e9190610f17565b60405180910390f35b6101c160048036038101906101bc9190610edb565b61078c565b6040516101ce919061107a565b60405180910390f35b6101f160048036038101906101ec919061109c565b6108fd565b005b61020d60048036038101906102089190610edb565b610ae2565b60405161021d9493929190611164565b60405180910390f35b6000600254905060008060009054906101000a900473ffffffffffffffffffffffffffffffffffffffff1673ffffffffffffffffffffffffffffffffffffffff166373a68b8d33866040518363ffffffff1660e01b815260040161028b9291906111b0565b6020604051808303816000875af11580156102aa573d6000803e3d6000fd5b505050506040513d601f19601f820116820180604052508101906102ce91906111f5565b905060405180608001604052808581526020018281526020013373ffffffffffffffffffffffffffffffffffffffff1681526020018481525060016000848152602001908152602001600020600082015181600001908161032f9190611424565b506020820151816001015560408201518160020160006101000a81548173ffffffffffffffffffffffffffffffffffffffff021916908373ffffffffffffffffffffffffffffffffffffffff16021790555060608201518160030155905050600260008154809291906103a190611525565b91905055507fb1dd8166e9630471c4f50086f293a6aaa5ffac12a8e7eece775410c4ec204e6882828633876040516103dd95949392919061156d565b60405180910390a150505050565b60008054906101000a900473ffffffffffffffffffffffffffffffffffffffff1681565b600060016000838152602001908152602001600020600301549050919050565b80600254811061047657806040517f6a6d371700000000000000000000000000000000000000000000000000000000815260040161046d9190610f17565b60405180910390fd5b813373ffffffffffffffffffffffffffffffffffffffff1660008054906101000a900473ffffffffffffffffffffffffffffffffffffffff1673ffffffffffffffffffffffffffffffffffffffff16636352211e60016000858152602001908152602001600020600101546040518263ffffffff1660e01b81526004016104fd9190610f17565b602060405180830381865afa15801561051a573d6000803e3d6000fd5b505050506040513d601f19601f8201168201806040525081019061053e91906115f3565b73ffffffffffffffffffffffffffffffffffffffff161461059657336040517fbcc40a4600000000000000000000000000000000000000000000000000000000815260040161058d9190611620565b60405180910390fd5b60008054906101000a900473ffffffffffffffffffffffffffffffffffffffff1673ffffffffffffffffffffffffffffffffffffffff16632890e0d760016000868152602001908152602001600020600101546040518263ffffffff1660e01b81526004016106059190610f17565b600060405180830381600087803b15801561061f57600080fd5b505af1158015610633573d6000803e3d6000fd5b505050507fd9bf993771d269d554c0f26629c5391b1ca6f34d95109b2998a43920bf7ad1c060016000858152602001908152602001600020600101548460405161067e92919061163b565b60405180910390a160016000848152602001908152602001600020600080820160006106aa9190610bba565b60018201600090556002820160006101000a81549073ffffffffffffffffffffffffffffffffffffffff021916905560038201600090555050505050565b60025481565b60008073ffffffffffffffffffffffffffffffffffffffff166001600084815260200190815260200160002060020160009054906101000a900473ffffffffffffffffffffffffffffffffffffffff1673ffffffffffffffffffffffffffffffffffffffff16146107625760019050610767565b600090505b919050565b600060016000838152602001908152602001600020600101549050919050565b610794610bfa565b8160025481106107db57806040517f6a6d37170000000000000000000000000000000000000000000000000000000081526004016107d29190610f17565b60405180910390fd5b6001600084815260200190815260200160002060405180608001604052908160008201805461080990611251565b80601f016020809104026020016040519081016040528092919081815260200182805461083590611251565b80156108825780601f1061085757610100808354040283529160200191610882565b820191906000526020600020905b81548152906001019060200180831161086557829003601f168201915b50505050508152602001600182015481526020016002820160009054906101000a900473ffffffffffffffffffffffffffffffffffffffff1673ffffffffffffffffffffffffffffffffffffffff1673ffffffffffffffffffffffffffffffffffffffff168152602001600382015481525050915050919050565b82600254811061094457806040517f6a6d371700000000000000000000000000000000000000000000000000000000815260040161093b9190610f17565b60405180910390fd5b833373ffffffffffffffffffffffffffffffffffffffff1660008054906101000a900473ffffffffffffffffffffffffffffffffffffffff1673ffffffffffffffffffffffffffffffffffffffff16636352211e60016000858152602001908152602001600020600101546040518263ffffffff1660e01b81526004016109cb9190610f17565b602060405180830381865afa1580156109e8573d6000803e3d6000fd5b505050506040513d601f19601f82011682018060405250810190610a0c91906115f3565b73ffffffffffffffffffffffffffffffffffffffff1614610a6457336040517fbcc40a46000000000000000000000000000000000000000000000000000000008152600401610a5b9190611620565b60405180910390fd5b83600160008781526020019081526020016000206000019081610a879190611424565b507fba60be1102048dc0d3f82f8f31c1823e3c98f8f75dd8e0f202c2504e2c343d218560016000888152602001908152602001600020600101548686604051610ad39493929190611664565b60405180910390a15050505050565b6001602052806000526040600020600091509050806000018054610b0590611251565b80601f0160208091040260200160405190810160405280929190818152602001828054610b3190611251565b8015610b7e5780601f10610b5357610100808354040283529160200191610b7e565b820191906000526020600020905b815481529060010190602001808311610b6157829003601f168201915b5050505050908060010154908060020160009054906101000a900473ffffffffffffffffffffffffffffffffffffffff16908060030154905084565b508054610bc690611251565b6000825580601f10610bd85750610bf7565b601f016020900490600052602060002090810190610bf69190610c38565b5b50565b60405180608001604052806060815260200160008152602001600073ffffffffffffffffffffffffffffffffffffffff168152602001600081525090565b5b80821115610c51576000816000905550600101610c39565b5090565b6000604051905090565b600080fd5b600080fd5b600080fd5b600080fd5b6000601f19601f8301169050919050565b7f4e487b7100000000000000000000000000000000000000000000000000000000600052604160045260246000fd5b610cbc82610c73565b810181811067ffffffffffffffff82111715610cdb57610cda610c84565b5b80604052505050565b6000610cee610c55565b9050610cfa8282610cb3565b919050565b600067ffffffffffffffff821115610d1a57610d19610c84565b5b610d2382610c73565b9050602081019050919050565b82818337600083830152505050565b6000610d52610d4d84610cff565b610ce4565b905082815260208101848484011115610d6e57610d6d610c6e565b5b610d79848285610d30565b509392505050565b600082601f830112610d9657610d95610c69565b5b8135610da6848260208601610d3f565b91505092915050565b6000819050919050565b610dc281610daf565b8114610dcd57600080fd5b50565b600081359050610ddf81610db9565b92915050565b60008060408385031215610dfc57610dfb610c5f565b5b600083013567ffffffffffffffff811115610e1a57610e19610c64565b5b610e2685828601610d81565b9250506020610e3785828601610dd0565b9150509250929050565b600073ffffffffffffffffffffffffffffffffffffffff82169050919050565b6000819050919050565b6000610e86610e81610e7c84610e41565b610e61565b610e41565b9050919050565b6000610e9882610e6b565b9050919050565b6000610eaa82610e8d565b9050919050565b610eba81610e9f565b82525050565b6000602082019050610ed56000830184610eb1565b92915050565b600060208284031215610ef157610ef0610c5f565b5b6000610eff84828501610dd0565b91505092915050565b610f1181610daf565b82525050565b6000602082019050610f2c6000830184610f08565b92915050565b60008115159050919050565b610f4781610f32565b82525050565b6000602082019050610f626000830184610f3e565b92915050565b600081519050919050565b600082825260208201905092915050565b60005b83811015610fa2578082015181840152602081019050610f87565b60008484015250505050565b6000610fb982610f68565b610fc38185610f73565b9350610fd3818560208601610f84565b610fdc81610c73565b840191505092915050565b610ff081610daf565b82525050565b600061100182610e41565b9050919050565b61101181610ff6565b82525050565b600060808301600083015184820360008601526110348282610fae565b91505060208301516110496020860182610fe7565b50604083015161105c6040860182611008565b50606083015161106f6060860182610fe7565b508091505092915050565b600060208201905081810360008301526110948184611017565b905092915050565b6000806000606084860312156110b5576110b4610c5f565b5b60006110c386828701610dd0565b935050602084013567ffffffffffffffff8111156110e4576110e3610c64565b5b6110f086828701610d81565b925050604061110186828701610dd0565b9150509250925092565b600082825260208201905092915050565b600061112782610f68565b611131818561110b565b9350611141818560208601610f84565b61114a81610c73565b840191505092915050565b61115e81610ff6565b82525050565b6000608082019050818103600083015261117e818761111c565b905061118d6020830186610f08565b61119a6040830185611155565b6111a76060830184610f08565b95945050505050565b60006040820190506111c56000830185611155565b81810360208301526111d7818461111c565b90509392505050565b6000815190506111ef81610db9565b92915050565b60006020828403121561120b5761120a610c5f565b5b6000611219848285016111e0565b91505092915050565b7f4e487b7100000000000000000000000000000000000000000000000000000000600052602260045260246000fd5b6000600282049050600182168061126957607f821691505b60208210810361127c5761127b611222565b5b50919050565b60008190508160005260206000209050919050565b60006020601f8301049050919050565b600082821b905092915050565b6000600883026112e47fffffffffffffffffffffffffffffffffffffffffffffffffffffffffffffffff826112a7565b6112ee86836112a7565b95508019841693508086168417925050509392505050565b600061132161131c61131784610daf565b610e61565b610daf565b9050919050565b6000819050919050565b61133b83611306565b61134f61134782611328565b8484546112b4565b825550505050565b600090565b611364611357565b61136f818484611332565b505050565b5b818110156113935761138860008261135c565b600181019050611375565b5050565b601f8211156113d8576113a981611282565b6113b284611297565b810160208510156113c1578190505b6113d56113cd85611297565b830182611374565b50505b505050565b600082821c905092915050565b60006113fb600019846008026113dd565b1980831691505092915050565b600061141483836113ea565b9150826002028217905092915050565b61142d82610f68565b67ffffffffffffffff81111561144657611445610c84565b5b6114508254611251565b61145b828285611397565b600060209050601f83116001811461148e576000841561147c578287015190505b6114868582611408565b8655506114ee565b601f19841661149c86611282565b60005b828110156114c45784890151825560018201915060208501945060208101905061149f565b868310156114e157848901516114dd601f8916826113ea565b8355505b6001600288020188555050505b505050505050565b7f4e487b7100000000000000000000000000000000000000000000000000000000600052601160045260246000fd5b600061153082610daf565b91507fffffffffffffffffffffffffffffffffffffffffffffffffffffffffffffffff8203611562576115616114f6565b5b600182019050919050565b600060a0820190506115826000830188610f08565b61158f6020830187610f08565b81810360408301526115a1818661111c565b90506115b06060830185611155565b6115bd6080830184610f08565b9695505050505050565b6115d081610ff6565b81146115db57600080fd5b50565b6000815190506115ed816115c7565b92915050565b60006020828403121561160957611608610c5f565b5b6000611617848285016115de565b91505092915050565b60006020820190506116356000830184611155565b92915050565b60006040820190506116506000830185610f08565b61165d6020830184610f08565b9392505050565b60006080820190506116796000830187610f08565b6116866020830186610f08565b8181036040830152611698818561111c565b90506116a76060830184610f08565b9594505050505056fea26469706673582212203e7b929ee285997c132d5e0191f5dc30de088075bd03baa83be758a9bb15d75c64736f6c63430008140033","opcodes":"PUSH1 0x80 PUSH1 0x40 MSTORE PUSH1 0x0 PUSH1 0x2 SSTORE CALLVALUE DUP1 ISZERO PUSH3 0x16 JUMPI PUSH1 0x0 DUP1 REVERT JUMPDEST POP PUSH1 0x40 MLOAD PUSH3 0x1815 CODESIZE SUB DUP1 PUSH3 0x1815 DUP4 CODECOPY DUP2 DUP2 ADD PUSH1 0x40 MSTORE DUP2 ADD SWAP1 PUSH3 0x3C SWAP2 SWAP1 PUSH3 0xED JUMP JUMPDEST DUP1 PUSH1 0x0 DUP1 PUSH2 0x100 EXP DUP2 SLOAD DUP2 PUSH20 0xFFFFFFFFFFFFFFFFFFFFFFFFFFFFFFFFFFFFFFFF MUL NOT AND SWAP1 DUP4 PUSH20 0xFFFFFFFFFFFFFFFFFFFFFFFFFFFFFFFFFFFFFFFF AND MUL OR SWAP1 SSTORE POP POP PUSH3 0x11F JUMP JUMPDEST PUSH1 0x0 DUP1 REVERT JUMPDEST PUSH1 0x0 PUSH20 0xFFFFFFFFFFFFFFFFFFFFFFFFFFFFFFFFFFFFFFFF DUP3 AND SWAP1 POP SWAP2 SWAP1 POP JUMP JUMPDEST PUSH1 0x0 PUSH3 0xB5 DUP3 PUSH3 0x88 JUMP JUMPDEST SWAP1 POP SWAP2 SWAP1 POP JUMP JUMPDEST PUSH3 0xC7 DUP2 PUSH3 0xA8 JUMP JUMPDEST DUP2 EQ PUSH3 0xD3 JUMPI PUSH1 0x0 DUP1 REVERT JUMPDEST POP JUMP JUMPDEST PUSH1 0x0 DUP2 MLOAD SWAP1 POP PUSH3 0xE7 DUP2 PUSH3 0xBC JUMP JUMPDEST SWAP3 SWAP2 POP POP JUMP JUMPDEST PUSH1 0x0 PUSH1 0x20 DUP3 DUP5 SUB SLT ISZERO PUSH3 0x106 JUMPI PUSH3 0x105 PUSH3 0x83 JUMP JUMPDEST JUMPDEST PUSH1 0x0 PUSH3 0x116 DUP5 DUP3 DUP6 ADD PUSH3 0xD6 JUMP JUMPDEST SWAP2 POP POP SWAP3 SWAP2 POP POP JUMP JUMPDEST PUSH2 0x16E6 DUP1 PUSH3 0x12F PUSH1 0x0 CODECOPY PUSH1 0x0 RETURN INVALID PUSH1 0x80 PUSH1 0x40 MSTORE CALLVALUE DUP1 ISZERO PUSH2 0x10 JUMPI PUSH1 0x0 DUP1 REVERT JUMPDEST POP PUSH1 0x4 CALLDATASIZE LT PUSH2 0x9E JUMPI PUSH1 0x0 CALLDATALOAD PUSH1 0xE0 SHR DUP1 PUSH4 0x5F0667F4 GT PUSH2 0x66 JUMPI DUP1 PUSH4 0x5F0667F4 EQ PUSH2 0x147 JUMPI DUP1 PUSH4 0x75788D79 EQ PUSH2 0x177 JUMPI DUP1 PUSH4 0x909735CE EQ PUSH2 0x1A7 JUMPI DUP1 PUSH4 0x93353038 EQ PUSH2 0x1D7 JUMPI DUP1 PUSH4 0xABB8BE17 EQ PUSH2 0x1F3 JUMPI PUSH2 0x9E JUMP JUMPDEST DUP1 PUSH4 0x2FAC5AB3 EQ PUSH2 0xA3 JUMPI DUP1 PUSH4 0x3263AB26 EQ PUSH2 0xBF JUMPI DUP1 PUSH4 0x4C5EA5D9 EQ PUSH2 0xDD JUMPI DUP1 PUSH4 0x55C3FBFB EQ PUSH2 0x10D JUMPI DUP1 PUSH4 0x5EE763E0 EQ PUSH2 0x129 JUMPI JUMPDEST PUSH1 0x0 DUP1 REVERT JUMPDEST PUSH2 0xBD PUSH1 0x4 DUP1 CALLDATASIZE SUB DUP2 ADD SWAP1 PUSH2 0xB8 SWAP2 SWAP1 PUSH2 0xDE5 JUMP JUMPDEST PUSH2 0x226 JUMP JUMPDEST STOP JUMPDEST PUSH2 0xC7 PUSH2 0x3EB JUMP JUMPDEST PUSH1 0x40 MLOAD PUSH2 0xD4 SWAP2 SWAP1 PUSH2 0xEC0 JUMP JUMPDEST PUSH1 0x40 MLOAD DUP1 SWAP2 SUB SWAP1 RETURN JUMPDEST PUSH2 0xF7 PUSH1 0x4 DUP1 CALLDATASIZE SUB DUP2 ADD SWAP1 PUSH2 0xF2 SWAP2 SWAP1 PUSH2 0xEDB JUMP JUMPDEST PUSH2 0x40F JUMP JUMPDEST PUSH1 0x40 MLOAD PUSH2 0x104 SWAP2 SWAP1 PUSH2 0xF17 JUMP JUMPDEST PUSH1 0x40 MLOAD DUP1 SWAP2 SUB SWAP1 RETURN JUMPDEST PUSH2 0x127 PUSH1 0x4 DUP1 CALLDATASIZE SUB DUP2 ADD SWAP1 PUSH2 0x122 SWAP2 SWAP1 PUSH2 0xEDB JUMP JUMPDEST PUSH2 0x42F JUMP JUMPDEST STOP JUMPDEST PUSH2 0x131 PUSH2 0x6E8 JUMP JUMPDEST PUSH1 0x40 MLOAD PUSH2 0x13E SWAP2 SWAP1 PUSH2 0xF17 JUMP JUMPDEST PUSH1 0x40 MLOAD DUP1 SWAP2 SUB SWAP1 RETURN JUMPDEST PUSH2 0x161 PUSH1 0x4 DUP1 CALLDATASIZE SUB DUP2 ADD SWAP1 PUSH2 0x15C SWAP2 SWAP1 PUSH2 0xEDB JUMP JUMPDEST PUSH2 0x6EE JUMP JUMPDEST PUSH1 0x40 MLOAD PUSH2 0x16E SWAP2 SWAP1 PUSH2 0xF4D JUMP JUMPDEST PUSH1 0x40 MLOAD DUP1 SWAP2 SUB SWAP1 RETURN JUMPDEST PUSH2 0x191 PUSH1 0x4 DUP1 CALLDATASIZE SUB DUP2 ADD SWAP1 PUSH2 0x18C SWAP2 SWAP1 PUSH2 0xEDB JUMP JUMPDEST PUSH2 0x76C JUMP JUMPDEST PUSH1 0x40 MLOAD PUSH2 0x19E SWAP2 SWAP1 PUSH2 0xF17 JUMP JUMPDEST PUSH1 0x40 MLOAD DUP1 SWAP2 SUB SWAP1 RETURN JUMPDEST PUSH2 0x1C1 PUSH1 0x4 DUP1 CALLDATASIZE SUB DUP2 ADD SWAP1 PUSH2 0x1BC SWAP2 SWAP1 PUSH2 0xEDB JUMP JUMPDEST PUSH2 0x78C JUMP JUMPDEST PUSH1 0x40 MLOAD PUSH2 0x1CE SWAP2 SWAP1 PUSH2 0x107A JUMP JUMPDEST PUSH1 0x40 MLOAD DUP1 SWAP2 SUB SWAP1 RETURN JUMPDEST PUSH2 0x1F1 PUSH1 0x4 DUP1 CALLDATASIZE SUB DUP2 ADD SWAP1 PUSH2 0x1EC SWAP2 SWAP1 PUSH2 0x109C JUMP JUMPDEST PUSH2 0x8FD JUMP JUMPDEST STOP JUMPDEST PUSH2 0x20D PUSH1 0x4 DUP1 CALLDATASIZE SUB DUP2 ADD SWAP1 PUSH2 0x208 SWAP2 SWAP1 PUSH2 0xEDB JUMP JUMPDEST PUSH2 0xAE2 JUMP JUMPDEST PUSH1 0x40 MLOAD PUSH2 0x21D SWAP5 SWAP4 SWAP3 SWAP2 SWAP1 PUSH2 0x1164 JUMP JUMPDEST PUSH1 0x40 MLOAD DUP1 SWAP2 SUB SWAP1 RETURN JUMPDEST PUSH1 0x0 PUSH1 0x2 SLOAD SWAP1 POP PUSH1 0x0 DUP1 PUSH1 0x0 SWAP1 SLOAD SWAP1 PUSH2 0x100 EXP SWAP1 DIV PUSH20 0xFFFFFFFFFFFFFFFFFFFFFFFFFFFFFFFFFFFFFFFF AND PUSH20 0xFFFFFFFFFFFFFFFFFFFFFFFFFFFFFFFFFFFFFFFF AND PUSH4 0x73A68B8D CALLER DUP7 PUSH1 0x40 MLOAD DUP4 PUSH4 0xFFFFFFFF AND PUSH1 0xE0 SHL DUP2 MSTORE PUSH1 0x4 ADD PUSH2 0x28B SWAP3 SWAP2 SWAP1 PUSH2 0x11B0 JUMP JUMPDEST PUSH1 0x20 PUSH1 0x40 MLOAD DUP1 DUP4 SUB DUP2 PUSH1 0x0 DUP8 GAS CALL ISZERO DUP1 ISZERO PUSH2 0x2AA JUMPI RETURNDATASIZE PUSH1 0x0 DUP1 RETURNDATACOPY RETURNDATASIZE PUSH1 0x0 REVERT JUMPDEST POP POP POP POP PUSH1 0x40 MLOAD RETURNDATASIZE PUSH1 0x1F NOT PUSH1 0x1F DUP3 ADD AND DUP3 ADD DUP1 PUSH1 0x40 MSTORE POP DUP2 ADD SWAP1 PUSH2 0x2CE SWAP2 SWAP1 PUSH2 0x11F5 JUMP JUMPDEST SWAP1 POP PUSH1 0x40 MLOAD DUP1 PUSH1 0x80 ADD PUSH1 0x40 MSTORE DUP1 DUP6 DUP2 MSTORE PUSH1 0x20 ADD DUP3 DUP2 MSTORE PUSH1 0x20 ADD CALLER PUSH20 0xFFFFFFFFFFFFFFFFFFFFFFFFFFFFFFFFFFFFFFFF AND DUP2 MSTORE PUSH1 0x20 ADD DUP5 DUP2 MSTORE POP PUSH1 0x1 PUSH1 0x0 DUP5 DUP2 MSTORE PUSH1 0x20 ADD SWAP1 DUP2 MSTORE PUSH1 0x20 ADD PUSH1 0x0 KECCAK256 PUSH1 0x0 DUP3 ADD MLOAD DUP2 PUSH1 0x0 ADD SWAP1 DUP2 PUSH2 0x32F SWAP2 SWAP1 PUSH2 0x1424 JUMP JUMPDEST POP PUSH1 0x20 DUP3 ADD MLOAD DUP2 PUSH1 0x1 ADD SSTORE PUSH1 0x40 DUP3 ADD MLOAD DUP2 PUSH1 0x2 ADD PUSH1 0x0 PUSH2 0x100 EXP DUP2 SLOAD DUP2 PUSH20 0xFFFFFFFFFFFFFFFFFFFFFFFFFFFFFFFFFFFFFFFF MUL NOT AND SWAP1 DUP4 PUSH20 0xFFFFFFFFFFFFFFFFFFFFFFFFFFFFFFFFFFFFFFFF AND MUL OR SWAP1 SSTORE POP PUSH1 0x60 DUP3 ADD MLOAD DUP2 PUSH1 0x3 ADD SSTORE SWAP1 POP POP PUSH1 0x2 PUSH1 0x0 DUP2 SLOAD DUP1 SWAP3 SWAP2 SWAP1 PUSH2 0x3A1 SWAP1 PUSH2 0x1525 JUMP JUMPDEST SWAP2 SWAP1 POP SSTORE POP PUSH32 0xB1DD8166E9630471C4F50086F293A6AAA5FFAC12A8E7EECE775410C4EC204E68 DUP3 DUP3 DUP7 CALLER DUP8 PUSH1 0x40 MLOAD PUSH2 0x3DD SWAP6 SWAP5 SWAP4 SWAP3 SWAP2 SWAP1 PUSH2 0x156D JUMP JUMPDEST PUSH1 0x40 MLOAD DUP1 SWAP2 SUB SWAP1 LOG1 POP POP POP POP JUMP JUMPDEST PUSH1 0x0 DUP1 SLOAD SWAP1 PUSH2 0x100 EXP SWAP1 DIV PUSH20 0xFFFFFFFFFFFFFFFFFFFFFFFFFFFFFFFFFFFFFFFF AND DUP2 JUMP JUMPDEST PUSH1 0x0 PUSH1 0x1 PUSH1 0x0 DUP4 DUP2 MSTORE PUSH1 0x20 ADD SWAP1 DUP2 MSTORE PUSH1 0x20 ADD PUSH1 0x0 KECCAK256 PUSH1 0x3 ADD SLOAD SWAP1 POP SWAP2 SWAP1 POP JUMP JUMPDEST DUP1 PUSH1 0x2 SLOAD DUP2 LT PUSH2 0x476 JUMPI DUP1 PUSH1 0x40 MLOAD PUSH32 0x6A6D371700000000000000000000000000000000000000000000000000000000 DUP2 MSTORE PUSH1 0x4 ADD PUSH2 0x46D SWAP2 SWAP1 PUSH2 0xF17 JUMP JUMPDEST PUSH1 0x40 MLOAD DUP1 SWAP2 SUB SWAP1 REVERT JUMPDEST DUP2 CALLER PUSH20 0xFFFFFFFFFFFFFFFFFFFFFFFFFFFFFFFFFFFFFFFF AND PUSH1 0x0 DUP1 SLOAD SWAP1 PUSH2 0x100 EXP SWAP1 DIV PUSH20 0xFFFFFFFFFFFFFFFFFFFFFFFFFFFFFFFFFFFFFFFF AND PUSH20 0xFFFFFFFFFFFFFFFFFFFFFFFFFFFFFFFFFFFFFFFF AND PUSH4 0x6352211E PUSH1 0x1 PUSH1 0x0 DUP6 DUP2 MSTORE PUSH1 0x20 ADD SWAP1 DUP2 MSTORE PUSH1 0x20 ADD PUSH1 0x0 KECCAK256 PUSH1 0x1 ADD SLOAD PUSH1 0x40 MLOAD DUP3 PUSH4 0xFFFFFFFF AND PUSH1 0xE0 SHL DUP2 MSTORE PUSH1 0x4 ADD PUSH2 0x4FD SWAP2 SWAP1 PUSH2 0xF17 JUMP JUMPDEST PUSH1 0x20 PUSH1 0x40 MLOAD DUP1 DUP4 SUB DUP2 DUP7 GAS STATICCALL ISZERO DUP1 ISZERO PUSH2 0x51A JUMPI RETURNDATASIZE PUSH1 0x0 DUP1 RETURNDATACOPY RETURNDATASIZE PUSH1 0x0 REVERT JUMPDEST POP POP POP POP PUSH1 0x40 MLOAD RETURNDATASIZE PUSH1 0x1F NOT PUSH1 0x1F DUP3 ADD AND DUP3 ADD DUP1 PUSH1 0x40 MSTORE POP DUP2 ADD SWAP1 PUSH2 0x53E SWAP2 SWAP1 PUSH2 0x15F3 JUMP JUMPDEST PUSH20 0xFFFFFFFFFFFFFFFFFFFFFFFFFFFFFFFFFFFFFFFF AND EQ PUSH2 0x596 JUMPI CALLER PUSH1 0x40 MLOAD PUSH32 0xBCC40A4600000000000000000000000000000000000000000000000000000000 DUP2 MSTORE PUSH1 0x4 ADD PUSH2 0x58D SWAP2 SWAP1 PUSH2 0x1620 JUMP JUMPDEST PUSH1 0x40 MLOAD DUP1 SWAP2 SUB SWAP1 REVERT JUMPDEST PUSH1 0x0 DUP1 SLOAD SWAP1 PUSH2 0x100 EXP SWAP1 DIV PUSH20 0xFFFFFFFFFFFFFFFFFFFFFFFFFFFFFFFFFFFFFFFF AND PUSH20 0xFFFFFFFFFFFFFFFFFFFFFFFFFFFFFFFFFFFFFFFF AND PUSH4 0x2890E0D7 PUSH1 0x1 PUSH1 0x0 DUP7 DUP2 MSTORE PUSH1 0x20 ADD SWAP1 DUP2 MSTORE PUSH1 0x20 ADD PUSH1 0x0 KECCAK256 PUSH1 0x1 ADD SLOAD PUSH1 0x40 MLOAD DUP3 PUSH4 0xFFFFFFFF AND PUSH1 0xE0 SHL DUP2 MSTORE PUSH1 0x4 ADD PUSH2 0x605 SWAP2 SWAP1 PUSH2 0xF17 JUMP JUMPDEST PUSH1 0x0 PUSH1 0x40 MLOAD DUP1 DUP4 SUB DUP2 PUSH1 0x0 DUP8 DUP1 EXTCODESIZE ISZERO DUP1 ISZERO PUSH2 0x61F JUMPI PUSH1 0x0 DUP1 REVERT JUMPDEST POP GAS CALL ISZERO DUP1 ISZERO PUSH2 0x633 JUMPI RETURNDATASIZE PUSH1 0x0 DUP1 RETURNDATACOPY RETURNDATASIZE PUSH1 0x0 REVERT JUMPDEST POP POP POP POP PUSH32 0xD9BF993771D269D554C0F26629C5391B1CA6F34D95109B2998A43920BF7AD1C0 PUSH1 0x1 PUSH1 0x0 DUP6 DUP2 MSTORE PUSH1 0x20 ADD SWAP1 DUP2 MSTORE PUSH1 0x20 ADD PUSH1 0x0 KECCAK256 PUSH1 0x1 ADD SLOAD DUP5 PUSH1 0x40 MLOAD PUSH2 0x67E SWAP3 SWAP2 SWAP1 PUSH2 0x163B JUMP JUMPDEST PUSH1 0x40 MLOAD DUP1 SWAP2 SUB SWAP1 LOG1 PUSH1 0x1 PUSH1 0x0 DUP5 DUP2 MSTORE PUSH1 0x20 ADD SWAP1 DUP2 MSTORE PUSH1 0x20 ADD PUSH1 0x0 KECCAK256 PUSH1 0x0 DUP1 DUP3 ADD PUSH1 0x0 PUSH2 0x6AA SWAP2 SWAP1 PUSH2 0xBBA JUMP JUMPDEST PUSH1 0x1 DUP3 ADD PUSH1 0x0 SWAP1 SSTORE PUSH1 0x2 DUP3 ADD PUSH1 0x0 PUSH2 0x100 EXP DUP2 SLOAD SWAP1 PUSH20 0xFFFFFFFFFFFFFFFFFFFFFFFFFFFFFFFFFFFFFFFF MUL NOT AND SWAP1 SSTORE PUSH1 0x3 DUP3 ADD PUSH1 0x0 SWAP1 SSTORE POP POP POP POP POP JUMP JUMPDEST PUSH1 0x2 SLOAD DUP2 JUMP JUMPDEST PUSH1 0x0 DUP1 PUSH20 0xFFFFFFFFFFFFFFFFFFFFFFFFFFFFFFFFFFFFFFFF AND PUSH1 0x1 PUSH1 0x0 DUP5 DUP2 MSTORE PUSH1 0x20 ADD SWAP1 DUP2 MSTORE PUSH1 0x20 ADD PUSH1 0x0 KECCAK256 PUSH1 0x2 ADD PUSH1 0x0 SWAP1 SLOAD SWAP1 PUSH2 0x100 EXP SWAP1 DIV PUSH20 0xFFFFFFFFFFFFFFFFFFFFFFFFFFFFFFFFFFFFFFFF AND PUSH20 0xFFFFFFFFFFFFFFFFFFFFFFFFFFFFFFFFFFFFFFFF AND EQ PUSH2 0x762 JUMPI PUSH1 0x1 SWAP1 POP PUSH2 0x767 JUMP JUMPDEST PUSH1 0x0 SWAP1 POP JUMPDEST SWAP2 SWAP1 POP JUMP JUMPDEST PUSH1 0x0 PUSH1 0x1 PUSH1 0x0 DUP4 DUP2 MSTORE PUSH1 0x20 ADD SWAP1 DUP2 MSTORE PUSH1 0x20 ADD PUSH1 0x0 KECCAK256 PUSH1 0x1 ADD SLOAD SWAP1 POP SWAP2 SWAP1 POP JUMP JUMPDEST PUSH2 0x794 PUSH2 0xBFA JUMP JUMPDEST DUP2 PUSH1 0x2 SLOAD DUP2 LT PUSH2 0x7DB JUMPI DUP1 PUSH1 0x40 MLOAD PUSH32 0x6A6D371700000000000000000000000000000000000000000000000000000000 DUP2 MSTORE PUSH1 0x4 ADD PUSH2 0x7D2 SWAP2 SWAP1 PUSH2 0xF17 JUMP JUMPDEST PUSH1 0x40 MLOAD DUP1 SWAP2 SUB SWAP1 REVERT JUMPDEST PUSH1 0x1 PUSH1 0x0 DUP5 DUP2 MSTORE PUSH1 0x20 ADD SWAP1 DUP2 MSTORE PUSH1 0x20 ADD PUSH1 0x0 KECCAK256 PUSH1 0x40 MLOAD DUP1 PUSH1 0x80 ADD PUSH1 0x40 MSTORE SWAP1 DUP2 PUSH1 0x0 DUP3 ADD DUP1 SLOAD PUSH2 0x809 SWAP1 PUSH2 0x1251 JUMP JUMPDEST DUP1 PUSH1 0x1F ADD PUSH1 0x20 DUP1 SWAP2 DIV MUL PUSH1 0x20 ADD PUSH1 0x40 MLOAD SWAP1 DUP2 ADD PUSH1 0x40 MSTORE DUP1 SWAP3 SWAP2 SWAP1 DUP2 DUP2 MSTORE PUSH1 0x20 ADD DUP3 DUP1 SLOAD PUSH2 0x835 SWAP1 PUSH2 0x1251 JUMP JUMPDEST DUP1 ISZERO PUSH2 0x882 JUMPI DUP1 PUSH1 0x1F LT PUSH2 0x857 JUMPI PUSH2 0x100 DUP1 DUP4 SLOAD DIV MUL DUP4 MSTORE SWAP2 PUSH1 0x20 ADD SWAP2 PUSH2 0x882 JUMP JUMPDEST DUP3 ADD SWAP2 SWAP1 PUSH1 0x0 MSTORE PUSH1 0x20 PUSH1 0x0 KECCAK256 SWAP1 JUMPDEST DUP2 SLOAD DUP2 MSTORE SWAP1 PUSH1 0x1 ADD SWAP1 PUSH1 0x20 ADD DUP1 DUP4 GT PUSH2 0x865 JUMPI DUP3 SWAP1 SUB PUSH1 0x1F AND DUP3 ADD SWAP2 JUMPDEST POP POP POP POP POP DUP2 MSTORE PUSH1 0x20 ADD PUSH1 0x1 DUP3 ADD SLOAD DUP2 MSTORE PUSH1 0x20 ADD PUSH1 0x2 DUP3 ADD PUSH1 0x0 SWAP1 SLOAD SWAP1 PUSH2 0x100 EXP SWAP1 DIV PUSH20 0xFFFFFFFFFFFFFFFFFFFFFFFFFFFFFFFFFFFFFFFF AND PUSH20 0xFFFFFFFFFFFFFFFFFFFFFFFFFFFFFFFFFFFFFFFF AND PUSH20 0xFFFFFFFFFFFFFFFFFFFFFFFFFFFFFFFFFFFFFFFF AND DUP2 MSTORE PUSH1 0x20 ADD PUSH1 0x3 DUP3 ADD SLOAD DUP2 MSTORE POP POP SWAP2 POP POP SWAP2 SWAP1 POP JUMP JUMPDEST DUP3 PUSH1 0x2 SLOAD DUP2 LT PUSH2 0x944 JUMPI DUP1 PUSH1 0x40 MLOAD PUSH32 0x6A6D371700000000000000000000000000000000000000000000000000000000 DUP2 MSTORE PUSH1 0x4 ADD PUSH2 0x93B SWAP2 SWAP1 PUSH2 0xF17 JUMP JUMPDEST PUSH1 0x40 MLOAD DUP1 SWAP2 SUB SWAP1 REVERT JUMPDEST DUP4 CALLER PUSH20 0xFFFFFFFFFFFFFFFFFFFFFFFFFFFFFFFFFFFFFFFF AND PUSH1 0x0 DUP1 SLOAD SWAP1 PUSH2 0x100 EXP SWAP1 DIV PUSH20 0xFFFFFFFFFFFFFFFFFFFFFFFFFFFFFFFFFFFFFFFF AND PUSH20 0xFFFFFFFFFFFFFFFFFFFFFFFFFFFFFFFFFFFFFFFF AND PUSH4 0x6352211E PUSH1 0x1 PUSH1 0x0 DUP6 DUP2 MSTORE PUSH1 0x20 ADD SWAP1 DUP2 MSTORE PUSH1 0x20 ADD PUSH1 0x0 KECCAK256 PUSH1 0x1 ADD SLOAD PUSH1 0x40 MLOAD DUP3 PUSH4 0xFFFFFFFF AND PUSH1 0xE0 SHL DUP2 MSTORE PUSH1 0x4 ADD PUSH2 0x9CB SWAP2 SWAP1 PUSH2 0xF17 JUMP JUMPDEST PUSH1 0x20 PUSH1 0x40 MLOAD DUP1 DUP4 SUB DUP2 DUP7 GAS STATICCALL ISZERO DUP1 ISZERO PUSH2 0x9E8 JUMPI RETURNDATASIZE PUSH1 0x0 DUP1 RETURNDATACOPY RETURNDATASIZE PUSH1 0x0 REVERT JUMPDEST POP POP POP POP PUSH1 0x40 MLOAD RETURNDATASIZE PUSH1 0x1F NOT PUSH1 0x1F DUP3 ADD AND DUP3 ADD DUP1 PUSH1 0x40 MSTORE POP DUP2 ADD SWAP1 PUSH2 0xA0C SWAP2 SWAP1 PUSH2 0x15F3 JUMP JUMPDEST PUSH20 0xFFFFFFFFFFFFFFFFFFFFFFFFFFFFFFFFFFFFFFFF AND EQ PUSH2 0xA64 JUMPI CALLER PUSH1 0x40 MLOAD PUSH32 0xBCC40A4600000000000000000000000000000000000000000000000000000000 DUP2 MSTORE PUSH1 0x4 ADD PUSH2 0xA5B SWAP2 SWAP1 PUSH2 0x1620 JUMP JUMPDEST PUSH1 0x40 MLOAD DUP1 SWAP2 SUB SWAP1 REVERT JUMPDEST DUP4 PUSH1 0x1 PUSH1 0x0 DUP8 DUP2 MSTORE PUSH1 0x20 ADD SWAP1 DUP2 MSTORE PUSH1 0x20 ADD PUSH1 0x0 KECCAK256 PUSH1 0x0 ADD SWAP1 DUP2 PUSH2 0xA87 SWAP2 SWAP1 PUSH2 0x1424 JUMP JUMPDEST POP PUSH32 0xBA60BE1102048DC0D3F82F8F31C1823E3C98F8F75DD8E0F202C2504E2C343D21 DUP6 PUSH1 0x1 PUSH1 0x0 DUP9 DUP2 MSTORE PUSH1 0x20 ADD SWAP1 DUP2 MSTORE PUSH1 0x20 ADD PUSH1 0x0 KECCAK256 PUSH1 0x1 ADD SLOAD DUP7 DUP7 PUSH1 0x40 MLOAD PUSH2 0xAD3 SWAP5 SWAP4 SWAP3 SWAP2 SWAP1 PUSH2 0x1664 JUMP JUMPDEST PUSH1 0x40 MLOAD DUP1 SWAP2 SUB SWAP1 LOG1 POP POP POP POP POP JUMP JUMPDEST PUSH1 0x1 PUSH1 0x20 MSTORE DUP1 PUSH1 0x0 MSTORE PUSH1 0x40 PUSH1 0x0 KECCAK256 PUSH1 0x0 SWAP2 POP SWAP1 POP DUP1 PUSH1 0x0 ADD DUP1 SLOAD PUSH2 0xB05 SWAP1 PUSH2 0x1251 JUMP JUMPDEST DUP1 PUSH1 0x1F ADD PUSH1 0x20 DUP1 SWAP2 DIV MUL PUSH1 0x20 ADD PUSH1 0x40 MLOAD SWAP1 DUP2 ADD PUSH1 0x40 MSTORE DUP1 SWAP3 SWAP2 SWAP1 DUP2 DUP2 MSTORE PUSH1 0x20 ADD DUP3 DUP1 SLOAD PUSH2 0xB31 SWAP1 PUSH2 0x1251 JUMP JUMPDEST DUP1 ISZERO PUSH2 0xB7E JUMPI DUP1 PUSH1 0x1F LT PUSH2 0xB53 JUMPI PUSH2 0x100 DUP1 DUP4 SLOAD DIV MUL DUP4 MSTORE SWAP2 PUSH1 0x20 ADD SWAP2 PUSH2 0xB7E JUMP JUMPDEST DUP3 ADD SWAP2 SWAP1 PUSH1 0x0 MSTORE PUSH1 0x20 PUSH1 0x0 KECCAK256 SWAP1 JUMPDEST DUP2 SLOAD DUP2 MSTORE SWAP1 PUSH1 0x1 ADD SWAP1 PUSH1 0x20 ADD DUP1 DUP4 GT PUSH2 0xB61 JUMPI DUP3 SWAP1 SUB PUSH1 0x1F AND DUP3 ADD SWAP2 JUMPDEST POP POP POP POP POP SWAP1 DUP1 PUSH1 0x1 ADD SLOAD SWAP1 DUP1 PUSH1 0x2 ADD PUSH1 0x0 SWAP1 SLOAD SWAP1 PUSH2 0x100 EXP SWAP1 DIV PUSH20 0xFFFFFFFFFFFFFFFFFFFFFFFFFFFFFFFFFFFFFFFF AND SWAP1 DUP1 PUSH1 0x3 ADD SLOAD SWAP1 POP DUP5 JUMP JUMPDEST POP DUP1 SLOAD PUSH2 0xBC6 SWAP1 PUSH2 0x1251 JUMP JUMPDEST PUSH1 0x0 DUP3 SSTORE DUP1 PUSH1 0x1F LT PUSH2 0xBD8 JUMPI POP PUSH2 0xBF7 JUMP JUMPDEST PUSH1 0x1F ADD PUSH1 0x20 SWAP1 DIV SWAP1 PUSH1 0x0 MSTORE PUSH1 0x20 PUSH1 0x0 KECCAK256 SWAP1 DUP2 ADD SWAP1 PUSH2 0xBF6 SWAP2 SWAP1 PUSH2 0xC38 JUMP JUMPDEST JUMPDEST POP JUMP JUMPDEST PUSH1 0x40 MLOAD DUP1 PUSH1 0x80 ADD PUSH1 0x40 MSTORE DUP1 PUSH1 0x60 DUP2 MSTORE PUSH1 0x20 ADD PUSH1 0x0 DUP2 MSTORE PUSH1 0x20 ADD PUSH1 0x0 PUSH20 0xFFFFFFFFFFFFFFFFFFFFFFFFFFFFFFFFFFFFFFFF AND DUP2 MSTORE PUSH1 0x20 ADD PUSH1 0x0 DUP2 MSTORE POP SWAP1 JUMP JUMPDEST JUMPDEST DUP1 DUP3 GT ISZERO PUSH2 0xC51 JUMPI PUSH1 0x0 DUP2 PUSH1 0x0 SWAP1 SSTORE POP PUSH1 0x1 ADD PUSH2 0xC39 JUMP JUMPDEST POP SWAP1 JUMP JUMPDEST PUSH1 0x0 PUSH1 0x40 MLOAD SWAP1 POP SWAP1 JUMP JUMPDEST PUSH1 0x0 DUP1 REVERT JUMPDEST PUSH1 0x0 DUP1 REVERT JUMPDEST PUSH1 0x0 DUP1 REVERT JUMPDEST PUSH1 0x0 DUP1 REVERT JUMPDEST PUSH1 0x0 PUSH1 0x1F NOT PUSH1 0x1F DUP4 ADD AND SWAP1 POP SWAP2 SWAP1 POP JUMP JUMPDEST PUSH32 0x4E487B7100000000000000000000000000000000000000000000000000000000 PUSH1 0x0 MSTORE PUSH1 0x41 PUSH1 0x4 MSTORE PUSH1 0x24 PUSH1 0x0 REVERT JUMPDEST PUSH2 0xCBC DUP3 PUSH2 0xC73 JUMP JUMPDEST DUP2 ADD DUP2 DUP2 LT PUSH8 0xFFFFFFFFFFFFFFFF DUP3 GT OR ISZERO PUSH2 0xCDB JUMPI PUSH2 0xCDA PUSH2 0xC84 JUMP JUMPDEST JUMPDEST DUP1 PUSH1 0x40 MSTORE POP POP POP JUMP JUMPDEST PUSH1 0x0 PUSH2 0xCEE PUSH2 0xC55 JUMP JUMPDEST SWAP1 POP PUSH2 0xCFA DUP3 DUP3 PUSH2 0xCB3 JUMP JUMPDEST SWAP2 SWAP1 POP JUMP JUMPDEST PUSH1 0x0 PUSH8 0xFFFFFFFFFFFFFFFF DUP3 GT ISZERO PUSH2 0xD1A JUMPI PUSH2 0xD19 PUSH2 0xC84 JUMP JUMPDEST JUMPDEST PUSH2 0xD23 DUP3 PUSH2 0xC73 JUMP JUMPDEST SWAP1 POP PUSH1 0x20 DUP2 ADD SWAP1 POP SWAP2 SWAP1 POP JUMP JUMPDEST DUP3 DUP2 DUP4 CALLDATACOPY PUSH1 0x0 DUP4 DUP4 ADD MSTORE POP POP POP JUMP JUMPDEST PUSH1 0x0 PUSH2 0xD52 PUSH2 0xD4D DUP5 PUSH2 0xCFF JUMP JUMPDEST PUSH2 0xCE4 JUMP JUMPDEST SWAP1 POP DUP3 DUP2 MSTORE PUSH1 0x20 DUP2 ADD DUP5 DUP5 DUP5 ADD GT ISZERO PUSH2 0xD6E JUMPI PUSH2 0xD6D PUSH2 0xC6E JUMP JUMPDEST JUMPDEST PUSH2 0xD79 DUP5 DUP3 DUP6 PUSH2 0xD30 JUMP JUMPDEST POP SWAP4 SWAP3 POP POP POP JUMP JUMPDEST PUSH1 0x0 DUP3 PUSH1 0x1F DUP4 ADD SLT PUSH2 0xD96 JUMPI PUSH2 0xD95 PUSH2 0xC69 JUMP JUMPDEST JUMPDEST DUP2 CALLDATALOAD PUSH2 0xDA6 DUP5 DUP3 PUSH1 0x20 DUP7 ADD PUSH2 0xD3F JUMP JUMPDEST SWAP2 POP POP SWAP3 SWAP2 POP POP JUMP JUMPDEST PUSH1 0x0 DUP2 SWAP1 POP SWAP2 SWAP1 POP JUMP JUMPDEST PUSH2 0xDC2 DUP2 PUSH2 0xDAF JUMP JUMPDEST DUP2 EQ PUSH2 0xDCD JUMPI PUSH1 0x0 DUP1 REVERT JUMPDEST POP JUMP JUMPDEST PUSH1 0x0 DUP2 CALLDATALOAD SWAP1 POP PUSH2 0xDDF DUP2 PUSH2 0xDB9 JUMP JUMPDEST SWAP3 SWAP2 POP POP JUMP JUMPDEST PUSH1 0x0 DUP1 PUSH1 0x40 DUP4 DUP6 SUB SLT ISZERO PUSH2 0xDFC JUMPI PUSH2 0xDFB PUSH2 0xC5F JUMP JUMPDEST JUMPDEST PUSH1 0x0 DUP4 ADD CALLDATALOAD PUSH8 0xFFFFFFFFFFFFFFFF DUP2 GT ISZERO PUSH2 0xE1A JUMPI PUSH2 0xE19 PUSH2 0xC64 JUMP JUMPDEST JUMPDEST PUSH2 0xE26 DUP6 DUP3 DUP7 ADD PUSH2 0xD81 JUMP JUMPDEST SWAP3 POP POP PUSH1 0x20 PUSH2 0xE37 DUP6 DUP3 DUP7 ADD PUSH2 0xDD0 JUMP JUMPDEST SWAP2 POP POP SWAP3 POP SWAP3 SWAP1 POP JUMP JUMPDEST PUSH1 0x0 PUSH20 0xFFFFFFFFFFFFFFFFFFFFFFFFFFFFFFFFFFFFFFFF DUP3 AND SWAP1 POP SWAP2 SWAP1 POP JUMP JUMPDEST PUSH1 0x0 DUP2 SWAP1 POP SWAP2 SWAP1 POP JUMP JUMPDEST PUSH1 0x0 PUSH2 0xE86 PUSH2 0xE81 PUSH2 0xE7C DUP5 PUSH2 0xE41 JUMP JUMPDEST PUSH2 0xE61 JUMP JUMPDEST PUSH2 0xE41 JUMP JUMPDEST SWAP1 POP SWAP2 SWAP1 POP JUMP JUMPDEST PUSH1 0x0 PUSH2 0xE98 DUP3 PUSH2 0xE6B JUMP JUMPDEST SWAP1 POP SWAP2 SWAP1 POP JUMP JUMPDEST PUSH1 0x0 PUSH2 0xEAA DUP3 PUSH2 0xE8D JUMP JUMPDEST SWAP1 POP SWAP2 SWAP1 POP JUMP JUMPDEST PUSH2 0xEBA DUP2 PUSH2 0xE9F JUMP JUMPDEST DUP3 MSTORE POP POP JUMP JUMPDEST PUSH1 0x0 PUSH1 0x20 DUP3 ADD SWAP1 POP PUSH2 0xED5 PUSH1 0x0 DUP4 ADD DUP5 PUSH2 0xEB1 JUMP JUMPDEST SWAP3 SWAP2 POP POP JUMP JUMPDEST PUSH1 0x0 PUSH1 0x20 DUP3 DUP5 SUB SLT ISZERO PUSH2 0xEF1 JUMPI PUSH2 0xEF0 PUSH2 0xC5F JUMP JUMPDEST JUMPDEST PUSH1 0x0 PUSH2 0xEFF DUP5 DUP3 DUP6 ADD PUSH2 0xDD0 JUMP JUMPDEST SWAP2 POP POP SWAP3 SWAP2 POP POP JUMP JUMPDEST PUSH2 0xF11 DUP2 PUSH2 0xDAF JUMP JUMPDEST DUP3 MSTORE POP POP JUMP JUMPDEST PUSH1 0x0 PUSH1 0x20 DUP3 ADD SWAP1 POP PUSH2 0xF2C PUSH1 0x0 DUP4 ADD DUP5 PUSH2 0xF08 JUMP JUMPDEST SWAP3 SWAP2 POP POP JUMP JUMPDEST PUSH1 0x0 DUP2 ISZERO ISZERO SWAP1 POP SWAP2 SWAP1 POP JUMP JUMPDEST PUSH2 0xF47 DUP2 PUSH2 0xF32 JUMP JUMPDEST DUP3 MSTORE POP POP JUMP JUMPDEST PUSH1 0x0 PUSH1 0x20 DUP3 ADD SWAP1 POP PUSH2 0xF62 PUSH1 0x0 DUP4 ADD DUP5 PUSH2 0xF3E JUMP JUMPDEST SWAP3 SWAP2 POP POP JUMP JUMPDEST PUSH1 0x0 DUP2 MLOAD SWAP1 POP SWAP2 SWAP1 POP JUMP JUMPDEST PUSH1 0x0 DUP3 DUP3 MSTORE PUSH1 0x20 DUP3 ADD SWAP1 POP SWAP3 SWAP2 POP POP JUMP JUMPDEST PUSH1 0x0 JUMPDEST DUP4 DUP2 LT ISZERO PUSH2 0xFA2 JUMPI DUP1 DUP3 ADD MLOAD DUP2 DUP5 ADD MSTORE PUSH1 0x20 DUP2 ADD SWAP1 POP PUSH2 0xF87 JUMP JUMPDEST PUSH1 0x0 DUP5 DUP5 ADD MSTORE POP POP POP POP JUMP JUMPDEST PUSH1 0x0 PUSH2 0xFB9 DUP3 PUSH2 0xF68 JUMP JUMPDEST PUSH2 0xFC3 DUP2 DUP6 PUSH2 0xF73 JUMP JUMPDEST SWAP4 POP PUSH2 0xFD3 DUP2 DUP6 PUSH1 0x20 DUP7 ADD PUSH2 0xF84 JUMP JUMPDEST PUSH2 0xFDC DUP2 PUSH2 0xC73 JUMP JUMPDEST DUP5 ADD SWAP2 POP POP SWAP3 SWAP2 POP POP JUMP JUMPDEST PUSH2 0xFF0 DUP2 PUSH2 0xDAF JUMP JUMPDEST DUP3 MSTORE POP POP JUMP JUMPDEST PUSH1 0x0 PUSH2 0x1001 DUP3 PUSH2 0xE41 JUMP JUMPDEST SWAP1 POP SWAP2 SWAP1 POP JUMP JUMPDEST PUSH2 0x1011 DUP2 PUSH2 0xFF6 JUMP JUMPDEST DUP3 MSTORE POP POP JUMP JUMPDEST PUSH1 0x0 PUSH1 0x80 DUP4 ADD PUSH1 0x0 DUP4 ADD MLOAD DUP5 DUP3 SUB PUSH1 0x0 DUP7 ADD MSTORE PUSH2 0x1034 DUP3 DUP3 PUSH2 0xFAE JUMP JUMPDEST SWAP2 POP POP PUSH1 0x20 DUP4 ADD MLOAD PUSH2 0x1049 PUSH1 0x20 DUP7 ADD DUP3 PUSH2 0xFE7 JUMP JUMPDEST POP PUSH1 0x40 DUP4 ADD MLOAD PUSH2 0x105C PUSH1 0x40 DUP7 ADD DUP3 PUSH2 0x1008 JUMP JUMPDEST POP PUSH1 0x60 DUP4 ADD MLOAD PUSH2 0x106F PUSH1 0x60 DUP7 ADD DUP3 PUSH2 0xFE7 JUMP JUMPDEST POP DUP1 SWAP2 POP POP SWAP3 SWAP2 POP POP JUMP JUMPDEST PUSH1 0x0 PUSH1 0x20 DUP3 ADD SWAP1 POP DUP2 DUP2 SUB PUSH1 0x0 DUP4 ADD MSTORE PUSH2 0x1094 DUP2 DUP5 PUSH2 0x1017 JUMP JUMPDEST SWAP1 POP SWAP3 SWAP2 POP POP JUMP JUMPDEST PUSH1 0x0 DUP1 PUSH1 0x0 PUSH1 0x60 DUP5 DUP7 SUB SLT ISZERO PUSH2 0x10B5 JUMPI PUSH2 0x10B4 PUSH2 0xC5F JUMP JUMPDEST JUMPDEST PUSH1 0x0 PUSH2 0x10C3 DUP7 DUP3 DUP8 ADD PUSH2 0xDD0 JUMP JUMPDEST SWAP4 POP POP PUSH1 0x20 DUP5 ADD CALLDATALOAD PUSH8 0xFFFFFFFFFFFFFFFF DUP2 GT ISZERO PUSH2 0x10E4 JUMPI PUSH2 0x10E3 PUSH2 0xC64 JUMP JUMPDEST JUMPDEST PUSH2 0x10F0 DUP7 DUP3 DUP8 ADD PUSH2 0xD81 JUMP JUMPDEST SWAP3 POP POP PUSH1 0x40 PUSH2 0x1101 DUP7 DUP3 DUP8 ADD PUSH2 0xDD0 JUMP JUMPDEST SWAP2 POP POP SWAP3 POP SWAP3 POP SWAP3 JUMP JUMPDEST PUSH1 0x0 DUP3 DUP3 MSTORE PUSH1 0x20 DUP3 ADD SWAP1 POP SWAP3 SWAP2 POP POP JUMP JUMPDEST PUSH1 0x0 PUSH2 0x1127 DUP3 PUSH2 0xF68 JUMP JUMPDEST PUSH2 0x1131 DUP2 DUP6 PUSH2 0x110B JUMP JUMPDEST SWAP4 POP PUSH2 0x1141 DUP2 DUP6 PUSH1 0x20 DUP7 ADD PUSH2 0xF84 JUMP JUMPDEST PUSH2 0x114A DUP2 PUSH2 0xC73 JUMP JUMPDEST DUP5 ADD SWAP2 POP POP SWAP3 SWAP2 POP POP JUMP JUMPDEST PUSH2 0x115E DUP2 PUSH2 0xFF6 JUMP JUMPDEST DUP3 MSTORE POP POP JUMP JUMPDEST PUSH1 0x0 PUSH1 0x80 DUP3 ADD SWAP1 POP DUP2 DUP2 SUB PUSH1 0x0 DUP4 ADD MSTORE PUSH2 0x117E DUP2 DUP8 PUSH2 0x111C JUMP JUMPDEST SWAP1 POP PUSH2 0x118D PUSH1 0x20 DUP4 ADD DUP7 PUSH2 0xF08 JUMP JUMPDEST PUSH2 0x119A PUSH1 0x40 DUP4 ADD DUP6 PUSH2 0x1155 JUMP JUMPDEST PUSH2 0x11A7 PUSH1 0x60 DUP4 ADD DUP5 PUSH2 0xF08 JUMP JUMPDEST SWAP6 SWAP5 POP POP POP POP POP JUMP JUMPDEST PUSH1 0x0 PUSH1 0x40 DUP3 ADD SWAP1 POP PUSH2 0x11C5 PUSH1 0x0 DUP4 ADD DUP6 PUSH2 0x1155 JUMP JUMPDEST DUP2 DUP2 SUB PUSH1 0x20 DUP4 ADD MSTORE PUSH2 0x11D7 DUP2 DUP5 PUSH2 0x111C JUMP JUMPDEST SWAP1 POP SWAP4 SWAP3 POP POP POP JUMP JUMPDEST PUSH1 0x0 DUP2 MLOAD SWAP1 POP PUSH2 0x11EF DUP2 PUSH2 0xDB9 JUMP JUMPDEST SWAP3 SWAP2 POP POP JUMP JUMPDEST PUSH1 0x0 PUSH1 0x20 DUP3 DUP5 SUB SLT ISZERO PUSH2 0x120B JUMPI PUSH2 0x120A PUSH2 0xC5F JUMP JUMPDEST JUMPDEST PUSH1 0x0 PUSH2 0x1219 DUP5 DUP3 DUP6 ADD PUSH2 0x11E0 JUMP JUMPDEST SWAP2 POP POP SWAP3 SWAP2 POP POP JUMP JUMPDEST PUSH32 0x4E487B7100000000000000000000000000000000000000000000000000000000 PUSH1 0x0 MSTORE PUSH1 0x22 PUSH1 0x4 MSTORE PUSH1 0x24 PUSH1 0x0 REVERT JUMPDEST PUSH1 0x0 PUSH1 0x2 DUP3 DIV SWAP1 POP PUSH1 0x1 DUP3 AND DUP1 PUSH2 0x1269 JUMPI PUSH1 0x7F DUP3 AND SWAP2 POP JUMPDEST PUSH1 0x20 DUP3 LT DUP2 SUB PUSH2 0x127C JUMPI PUSH2 0x127B PUSH2 0x1222 JUMP JUMPDEST JUMPDEST POP SWAP2 SWAP1 POP JUMP JUMPDEST PUSH1 0x0 DUP2 SWAP1 POP DUP2 PUSH1 0x0 MSTORE PUSH1 0x20 PUSH1 0x0 KECCAK256 SWAP1 POP SWAP2 SWAP1 POP JUMP JUMPDEST PUSH1 0x0 PUSH1 0x20 PUSH1 0x1F DUP4 ADD DIV SWAP1 POP SWAP2 SWAP1 POP JUMP JUMPDEST PUSH1 0x0 DUP3 DUP3 SHL SWAP1 POP SWAP3 SWAP2 POP POP JUMP JUMPDEST PUSH1 0x0 PUSH1 0x8 DUP4 MUL PUSH2 0x12E4 PUSH32 0xFFFFFFFFFFFFFFFFFFFFFFFFFFFFFFFFFFFFFFFFFFFFFFFFFFFFFFFFFFFFFFFF DUP3 PUSH2 0x12A7 JUMP JUMPDEST PUSH2 0x12EE DUP7 DUP4 PUSH2 0x12A7 JUMP JUMPDEST SWAP6 POP DUP1 NOT DUP5 AND SWAP4 POP DUP1 DUP7 AND DUP5 OR SWAP3 POP POP POP SWAP4 SWAP3 POP POP POP JUMP JUMPDEST PUSH1 0x0 PUSH2 0x1321 PUSH2 0x131C PUSH2 0x1317 DUP5 PUSH2 0xDAF JUMP JUMPDEST PUSH2 0xE61 JUMP JUMPDEST PUSH2 0xDAF JUMP JUMPDEST SWAP1 POP SWAP2 SWAP1 POP JUMP JUMPDEST PUSH1 0x0 DUP2 SWAP1 POP SWAP2 SWAP1 POP JUMP JUMPDEST PUSH2 0x133B DUP4 PUSH2 0x1306 JUMP JUMPDEST PUSH2 0x134F PUSH2 0x1347 DUP3 PUSH2 0x1328 JUMP JUMPDEST DUP5 DUP5 SLOAD PUSH2 0x12B4 JUMP JUMPDEST DUP3 SSTORE POP POP POP POP JUMP JUMPDEST PUSH1 0x0 SWAP1 JUMP JUMPDEST PUSH2 0x1364 PUSH2 0x1357 JUMP JUMPDEST PUSH2 0x136F DUP2 DUP5 DUP5 PUSH2 0x1332 JUMP JUMPDEST POP POP POP JUMP JUMPDEST JUMPDEST DUP2 DUP2 LT ISZERO PUSH2 0x1393 JUMPI PUSH2 0x1388 PUSH1 0x0 DUP3 PUSH2 0x135C JUMP JUMPDEST PUSH1 0x1 DUP2 ADD SWAP1 POP PUSH2 0x1375 JUMP JUMPDEST POP POP JUMP JUMPDEST PUSH1 0x1F DUP3 GT ISZERO PUSH2 0x13D8 JUMPI PUSH2 0x13A9 DUP2 PUSH2 0x1282 JUMP JUMPDEST PUSH2 0x13B2 DUP5 PUSH2 0x1297 JUMP JUMPDEST DUP2 ADD PUSH1 0x20 DUP6 LT ISZERO PUSH2 0x13C1 JUMPI DUP2 SWAP1 POP JUMPDEST PUSH2 0x13D5 PUSH2 0x13CD DUP6 PUSH2 0x1297 JUMP JUMPDEST DUP4 ADD DUP3 PUSH2 0x1374 JUMP JUMPDEST POP POP JUMPDEST POP POP POP JUMP JUMPDEST PUSH1 0x0 DUP3 DUP3 SHR SWAP1 POP SWAP3 SWAP2 POP POP JUMP JUMPDEST PUSH1 0x0 PUSH2 0x13FB PUSH1 0x0 NOT DUP5 PUSH1 0x8 MUL PUSH2 0x13DD JUMP JUMPDEST NOT DUP1 DUP4 AND SWAP2 POP POP SWAP3 SWAP2 POP POP JUMP JUMPDEST PUSH1 0x0 PUSH2 0x1414 DUP4 DUP4 PUSH2 0x13EA JUMP JUMPDEST SWAP2 POP DUP3 PUSH1 0x2 MUL DUP3 OR SWAP1 POP SWAP3 SWAP2 POP POP JUMP JUMPDEST PUSH2 0x142D DUP3 PUSH2 0xF68 JUMP JUMPDEST PUSH8 0xFFFFFFFFFFFFFFFF DUP2 GT ISZERO PUSH2 0x1446 JUMPI PUSH2 0x1445 PUSH2 0xC84 JUMP JUMPDEST JUMPDEST PUSH2 0x1450 DUP3 SLOAD PUSH2 0x1251 JUMP JUMPDEST PUSH2 0x145B DUP3 DUP3 DUP6 PUSH2 0x1397 JUMP JUMPDEST PUSH1 0x0 PUSH1 0x20 SWAP1 POP PUSH1 0x1F DUP4 GT PUSH1 0x1 DUP2 EQ PUSH2 0x148E JUMPI PUSH1 0x0 DUP5 ISZERO PUSH2 0x147C JUMPI DUP3 DUP8 ADD MLOAD SWAP1 POP JUMPDEST PUSH2 0x1486 DUP6 DUP3 PUSH2 0x1408 JUMP JUMPDEST DUP7 SSTORE POP PUSH2 0x14EE JUMP JUMPDEST PUSH1 0x1F NOT DUP5 AND PUSH2 0x149C DUP7 PUSH2 0x1282 JUMP JUMPDEST PUSH1 0x0 JUMPDEST DUP3 DUP2 LT ISZERO PUSH2 0x14C4 JUMPI DUP5 DUP10 ADD MLOAD DUP3 SSTORE PUSH1 0x1 DUP3 ADD SWAP2 POP PUSH1 0x20 DUP6 ADD SWAP5 POP PUSH1 0x20 DUP2 ADD SWAP1 POP PUSH2 0x149F JUMP JUMPDEST DUP7 DUP4 LT ISZERO PUSH2 0x14E1 JUMPI DUP5 DUP10 ADD MLOAD PUSH2 0x14DD PUSH1 0x1F DUP10 AND DUP3 PUSH2 0x13EA JUMP JUMPDEST DUP4 SSTORE POP JUMPDEST PUSH1 0x1 PUSH1 0x2 DUP9 MUL ADD DUP9 SSTORE POP POP POP JUMPDEST POP POP POP POP POP POP JUMP JUMPDEST PUSH32 0x4E487B7100000000000000000000000000000000000000000000000000000000 PUSH1 0x0 MSTORE PUSH1 0x11 PUSH1 0x4 MSTORE PUSH1 0x24 PUSH1 0x0 REVERT JUMPDEST PUSH1 0x0 PUSH2 0x1530 DUP3 PUSH2 0xDAF JUMP JUMPDEST SWAP2 POP PUSH32 0xFFFFFFFFFFFFFFFFFFFFFFFFFFFFFFFFFFFFFFFFFFFFFFFFFFFFFFFFFFFFFFFF DUP3 SUB PUSH2 0x1562 JUMPI PUSH2 0x1561 PUSH2 0x14F6 JUMP JUMPDEST JUMPDEST PUSH1 0x1 DUP3 ADD SWAP1 POP SWAP2 SWAP1 POP JUMP JUMPDEST PUSH1 0x0 PUSH1 0xA0 DUP3 ADD SWAP1 POP PUSH2 0x1582 PUSH1 0x0 DUP4 ADD DUP9 PUSH2 0xF08 JUMP JUMPDEST PUSH2 0x158F PUSH1 0x20 DUP4 ADD DUP8 PUSH2 0xF08 JUMP JUMPDEST DUP2 DUP2 SUB PUSH1 0x40 DUP4 ADD MSTORE PUSH2 0x15A1 DUP2 DUP7 PUSH2 0x111C JUMP JUMPDEST SWAP1 POP PUSH2 0x15B0 PUSH1 0x60 DUP4 ADD DUP6 PUSH2 0x1155 JUMP JUMPDEST PUSH2 0x15BD PUSH1 0x80 DUP4 ADD DUP5 PUSH2 0xF08 JUMP JUMPDEST SWAP7 SWAP6 POP POP POP POP POP POP JUMP JUMPDEST PUSH2 0x15D0 DUP2 PUSH2 0xFF6 JUMP JUMPDEST DUP2 EQ PUSH2 0x15DB JUMPI PUSH1 0x0 DUP1 REVERT JUMPDEST POP JUMP JUMPDEST PUSH1 0x0 DUP2 MLOAD SWAP1 POP PUSH2 0x15ED DUP2 PUSH2 0x15C7 JUMP JUMPDEST SWAP3 SWAP2 POP POP JUMP JUMPDEST PUSH1 0x0 PUSH1 0x20 DUP3 DUP5 SUB SLT ISZERO PUSH2 0x1609 JUMPI PUSH2 0x1608 PUSH2 0xC5F JUMP JUMPDEST JUMPDEST PUSH1 0x0 PUSH2 0x1617 DUP5 DUP3 DUP6 ADD PUSH2 0x15DE JUMP JUMPDEST SWAP2 POP POP SWAP3 SWAP2 POP POP JUMP JUMPDEST PUSH1 0x0 PUSH1 0x20 DUP3 ADD SWAP1 POP PUSH2 0x1635 PUSH1 0x0 DUP4 ADD DUP5 PUSH2 0x1155 JUMP JUMPDEST SWAP3 SWAP2 POP POP JUMP JUMPDEST PUSH1 0x0 PUSH1 0x40 DUP3 ADD SWAP1 POP PUSH2 0x1650 PUSH1 0x0 DUP4 ADD DUP6 PUSH2 0xF08 JUMP JUMPDEST PUSH2 0x165D PUSH1 0x20 DUP4 ADD DUP5 PUSH2 0xF08 JUMP JUMPDEST SWAP4 SWAP3 POP POP POP JUMP JUMPDEST PUSH1 0x0 PUSH1 0x80 DUP3 ADD SWAP1 POP PUSH2 0x1679 PUSH1 0x0 DUP4 ADD DUP8 PUSH2 0xF08 JUMP JUMPDEST PUSH2 0x1686 PUSH1 0x20 DUP4 ADD DUP7 PUSH2 0xF08 JUMP JUMPDEST DUP2 DUP2 SUB PUSH1 0x40 DUP4 ADD MSTORE PUSH2 0x1698 DUP2 DUP6 PUSH2 0x111C JUMP JUMPDEST SWAP1 POP PUSH2 0x16A7 PUSH1 0x60 DUP4 ADD DUP5 PUSH2 0xF08 JUMP JUMPDEST SWAP6 SWAP5 POP POP POP POP POP JUMP INVALID LOG2 PUSH5 0x6970667358 0x22 SLT KECCAK256 RETURNDATACOPY PUSH28 0x929EE285997C132D5E0191F5DC30DE088075BD03BAA83BE758A9BB15 0xD7 0x5C PUSH5 0x736F6C6343 STOP ADDMOD EQ STOP CALLER "},"methodIdentifiers":{"addApartment(string,uint256)":"2fac5ab3","apartmentCounter()":"5ee763e0","apartmentExists(uint256)":"5f0667f4","apartments(uint256)":"abb8be17","aptNFT()":"3263ab26","deleteApartment(uint256)":"55c3fbfb","getApartmentEthPrice(uint256)":"4c5ea5d9","getApartmentInfo(uint256)":"909735ce","getApartmentNftTokenID(uint256)":"75788d79","updateApartmentParams(uint256,string,uint256)":"93353038"}}}}}