{
  "_format": "hh-sol-artifact-1",
  "contractName": "apartmentContract",
  "sourceName": "contracts/apartmentContract.sol",
  "abi": [
    {
      "inputs": [
        {
          "internalType": "string",
          "name": "owner",
          "type": "string"
        },
        {
          "internalType": "address",
          "name": "apartmentOwner",
          "type": "address"
        }
      ],
      "name": "apartmentFound",
      "type": "error"
    },
    {
      "inputs": [
        {
          "internalType": "string",
          "name": "apartmentAddress",
          "type": "string"
        }
      ],
      "name": "apartmentNotFound",
      "type": "error"
    },
    {
      "anonymous": false,
      "inputs": [
        {
          "indexed": false,
          "internalType": "string",
          "name": "_apartmentAddress",
          "type": "string"
        }
      ],
      "name": "ApartmentDeleted",
      "type": "event"
    },
    {
      "anonymous": false,
      "inputs": [
        {
          "indexed": false,
          "internalType": "string",
          "name": "_oldApartmentAddress",
          "type": "string"
        },
        {
          "indexed": false,
          "internalType": "string",
          "name": "_newApartmentAdress",
          "type": "string"
        }
      ],
      "name": "ApartmentDirectionChanged",
      "type": "event"
    },
    {
      "anonymous": false,
      "inputs": [
        {
          "indexed": false,
          "internalType": "string",
          "name": "_apartmentAddress",
          "type": "string"
        },
        {
          "indexed": false,
          "internalType": "string",
          "name": "_description",
          "type": "string"
        },
        {
          "indexed": false,
          "internalType": "uint256",
          "name": "_price",
          "type": "uint256"
        },
        {
          "indexed": false,
          "internalType": "enum apartmentContract.ApartmentState",
          "name": "_aptState",
          "type": "uint8"
        },
        {
          "indexed": false,
          "internalType": "address",
          "name": "_apartmentOwner",
          "type": "address"
        }
      ],
      "name": "ApartmentUpdated",
      "type": "event"
    },
    {
      "anonymous": false,
      "inputs": [
        {
          "indexed": false,
          "internalType": "string",
          "name": "_apartmentAddress",
          "type": "string"
        },
        {
          "indexed": false,
          "internalType": "string",
          "name": "_description",
          "type": "string"
        },
        {
          "indexed": false,
          "internalType": "uint256",
          "name": "_price",
          "type": "uint256"
        },
        {
          "indexed": false,
          "internalType": "address",
          "name": "_apartmentOwner",
          "type": "address"
        }
      ],
      "name": "NewApartmentAdded",
      "type": "event"
    },
    {
      "inputs": [
        {
          "internalType": "string",
          "name": "_apartmentAddress",
          "type": "string"
        },
        {
          "internalType": "string",
          "name": "_description",
          "type": "string"
        },
        {
          "internalType": "uint256",
          "name": "_price",
          "type": "uint256"
        },
        {
          "internalType": "address",
          "name": "_apartmentOwner",
          "type": "address"
        }
      ],
      "name": "addApartment",
      "outputs": [],
      "stateMutability": "nonpayable",
      "type": "function"
    },
    {
      "inputs": [
        {
          "internalType": "string",
          "name": "_apartmentAddress",
          "type": "string"
        },
        {
          "internalType": "address",
          "name": "_newOwner",
          "type": "address"
        }
      ],
      "name": "changeAparmentOwner",
      "outputs": [],
      "stateMutability": "nonpayable",
      "type": "function"
    },
    {
      "inputs": [
        {
          "internalType": "string",
          "name": "_apartmentAddress",
          "type": "string"
        }
      ],
      "name": "deleteApartment",
      "outputs": [],
      "stateMutability": "nonpayable",
      "type": "function"
    },
    {
      "inputs": [
        {
          "internalType": "string",
          "name": "_apartmentAddress",
          "type": "string"
        }
      ],
      "name": "getApartment",
      "outputs": [
        {
          "components": [
            {
              "internalType": "string",
              "name": "apartmentAddress",
              "type": "string"
            },
            {
              "internalType": "string",
              "name": "description",
              "type": "string"
            },
            {
              "internalType": "uint256",
              "name": "price",
              "type": "uint256"
            },
            {
              "internalType": "enum apartmentContract.ApartmentState",
              "name": "aptState",
              "type": "uint8"
            },
            {
              "internalType": "address payable",
              "name": "apartmentOwner",
              "type": "address"
            }
          ],
          "internalType": "struct apartmentContract.Apartment",
          "name": "",
          "type": "tuple"
        }
      ],
      "stateMutability": "view",
      "type": "function"
    },
    {
      "inputs": [
        {
          "internalType": "string",
          "name": "_apartmentAddress",
          "type": "string"
        }
      ],
      "name": "getApartmentOwner",
      "outputs": [
        {
          "internalType": "address",
          "name": "",
          "type": "address"
        }
      ],
      "stateMutability": "view",
      "type": "function"
    },
    {
      "inputs": [
        {
          "internalType": "string",
          "name": "_apartmentAddress",
          "type": "string"
        }
      ],
      "name": "getApartmentPrice",
      "outputs": [
        {
          "internalType": "uint256",
          "name": "",
          "type": "uint256"
        }
      ],
      "stateMutability": "view",
      "type": "function"
    },
    {
      "inputs": [
        {
          "internalType": "string",
          "name": "_apartmentAddress",
          "type": "string"
        }
      ],
      "name": "isApartmentVacant",
      "outputs": [
        {
          "internalType": "bool",
          "name": "",
          "type": "bool"
        }
      ],
      "stateMutability": "view",
      "type": "function"
    },
    {
      "inputs": [
        {
          "internalType": "string",
          "name": "_apartmentAddress",
          "type": "string"
        }
      ],
      "name": "searchIfApartmentExists",
      "outputs": [
        {
          "internalType": "bool",
          "name": "",
          "type": "bool"
        }
      ],
      "stateMutability": "view",
      "type": "function"
    },
    {
      "inputs": [
        {
          "internalType": "string",
          "name": "_oldApartmentAddress",
          "type": "string"
        },
        {
          "internalType": "string",
          "name": "_newApartmentAdress",
          "type": "string"
        }
      ],
      "name": "updateApartmentDirection",
      "outputs": [],
      "stateMutability": "nonpayable",
      "type": "function"
    },
    {
      "inputs": [
        {
          "internalType": "string",
          "name": "_apartmentAddress",
          "type": "string"
        },
        {
          "internalType": "string",
          "name": "_description",
          "type": "string"
        },
        {
          "internalType": "uint256",
          "name": "_price",
          "type": "uint256"
        },
        {
          "internalType": "enum apartmentContract.ApartmentState",
          "name": "_aptState",
          "type": "uint8"
        },
        {
          "internalType": "address",
          "name": "_apartmentOwner",
          "type": "address"
        }
      ],
      "name": "updateApartmentParams",
      "outputs": [],
      "stateMutability": "nonpayable",
      "type": "function"
    }
  ],
  "bytecode": "0x608060405234801561001057600080fd5b50611db5806100206000396000f3fe608060405234801561001057600080fd5b506004361061009e5760003560e01c80635cf8a03f116100665780635cf8a03f1461015757806371902a4c1461018757806377e06199146101b7578063cbf9aaa7146101e7578063f5f4998b146102035761009e565b80630408b887146100a35780630a277fe3146100bf5780632719be0b146100ef5780632d4b49531461010b578063467fc8f81461013b575b600080fd5b6100bd60048036038101906100b8919061118f565b61021f565b005b6100d960048036038101906100d4919061118f565b610350565b6040516100e691906111f1565b60405180910390f35b6101096004803603810190610104919061120c565b6103ee565b005b6101256004803603810190610120919061118f565b6106ff565b604051610132919061129f565b60405180910390f35b61015560048036038101906101509190611344565b610748565b005b610171600480360381019061016c919061118f565b61095d565b60405161017e91906113f2565b60405180910390f35b6101a1600480360381019061019c919061118f565b610a1b565b6040516101ae919061129f565b60405180910390f35b6101d160048036038101906101cc919061118f565b610a89565b6040516101de91906115b0565b60405180910390f35b61020160048036038101906101fc91906115f7565b610cf3565b005b61021d600480360381019061021891906116aa565b610eaa565b005b80600080826040516102319190611742565b9081526020016040518091039020600001805461024d90611788565b90500361029157806040517ff786e77f0000000000000000000000000000000000000000000000000000000081526004016102889190611803565b60405180910390fd5b6000826040516102a19190611742565b9081526020016040518091039020600080820160006102c09190610f81565b6001820160006102d09190610f81565b60028201600090556003820160006101000a81549060ff02191690556003820160016101000a81549073ffffffffffffffffffffffffffffffffffffffff021916905550507f77da8edffc46a52004d8ddef94207a420ff6f69d7cb832b0031f438f2763b4ca826040516103449190611803565b60405180910390a15050565b600081600080826040516103649190611742565b9081526020016040518091039020600001805461038090611788565b9050036103c457806040517ff786e77f0000000000000000000000000000000000000000000000000000000081526004016103bb9190611803565b60405180910390fd5b6000836040516103d49190611742565b908152602001604051809103902060020154915050919050565b81600080826040516104009190611742565b9081526020016040518091039020600001805461041c90611788565b90500361046057806040517ff786e77f0000000000000000000000000000000000000000000000000000000081526004016104579190611803565b60405180910390fd5b816000836040516104719190611742565b9081526020016040518091039020600001908161048e91906119d1565b5060008360405161049f9190611742565b90815260200160405180910390206001016000836040516104c09190611742565b908152602001604051809103902060010190816104dd9190611ace565b506000836040516104ee9190611742565b9081526020016040518091039020600201546000836040516105109190611742565b9081526020016040518091039020600201819055506000836040516105359190611742565b908152602001604051809103902060030160009054906101000a900460ff166000836040516105649190611742565b908152602001604051809103902060030160006101000a81548160ff021916908360018111156105975761059661149b565b5b02179055506000836040516105ac9190611742565b908152602001604051809103902060030160019054906101000a900473ffffffffffffffffffffffffffffffffffffffff166000836040516105ee9190611742565b908152602001604051809103902060030160016101000a81548173ffffffffffffffffffffffffffffffffffffffff021916908373ffffffffffffffffffffffffffffffffffffffff16021790555060008360405161064d9190611742565b90815260200160405180910390206000808201600061066c9190610f81565b60018201600061067c9190610f81565b60028201600090556003820160006101000a81549060ff02191690556003820160016101000a81549073ffffffffffffffffffffffffffffffffffffffff021916905550507f90ef2c1acf9194023bfd5a9880e914a11ba47f8a582a1a4b6ba173e16d2e23b883836040516106f2929190611bb6565b60405180910390a1505050565b6000806000836040516107129190611742565b9081526020016040518091039020600001805461072e90611788565b90501461073e5760019050610743565b600090505b919050565b836000808260405161075a9190611742565b9081526020016040518091039020600001805461077690611788565b9050146107fb5760008160405161078d9190611742565b908152602001604051809103902060030160019054906101000a900473ffffffffffffffffffffffffffffffffffffffff166040517ff79f248b0000000000000000000000000000000000000000000000000000000081526004016107f29190611c8e565b60405180910390fd5b6040518060a001604052808681526020018581526020018481526020016000600181111561082c5761082b61149b565b5b81526020018373ffffffffffffffffffffffffffffffffffffffff1681525060008660405161085b9190611742565b9081526020016040518091039020600082015181600001908161087e91906119d1565b50602082015181600101908161089491906119d1565b506040820151816002015560608201518160030160006101000a81548160ff021916908360018111156108ca576108c961149b565b5b021790555060808201518160030160016101000a81548173ffffffffffffffffffffffffffffffffffffffff021916908373ffffffffffffffffffffffffffffffffffffffff1602179055509050507f24c1440985100e55da65bd1f885ceafacb77eb75e90ca41028fbd9620afc9a4b8585858560405161094e9493929190611cbc565b60405180910390a15050505050565b600081600080826040516109719190611742565b9081526020016040518091039020600001805461098d90611788565b9050036109d157806040517ff786e77f0000000000000000000000000000000000000000000000000000000081526004016109c89190611803565b60405180910390fd5b6000836040516109e19190611742565b908152602001604051809103902060030160019054906101000a900473ffffffffffffffffffffffffffffffffffffffff16915050919050565b6000806001811115610a3057610a2f61149b565b5b600083604051610a409190611742565b908152602001604051809103902060030160009054906101000a900460ff166001811115610a7157610a7061149b565b5b03610a7f5760019050610a84565b600090505b919050565b610a91610fc1565b8160008082604051610aa39190611742565b90815260200160405180910390206000018054610abf90611788565b905003610b0357806040517ff786e77f000000000000000000000000000000000000000000000000000000008152600401610afa9190611803565b60405180910390fd5b600083604051610b139190611742565b90815260200160405180910390206040518060a0016040529081600082018054610b3c90611788565b80601f0160208091040260200160405190810160405280929190818152602001828054610b6890611788565b8015610bb55780601f10610b8a57610100808354040283529160200191610bb5565b820191906000526020600020905b815481529060010190602001808311610b9857829003601f168201915b50505050508152602001600182018054610bce90611788565b80601f0160208091040260200160405190810160405280929190818152602001828054610bfa90611788565b8015610c475780601f10610c1c57610100808354040283529160200191610c47565b820191906000526020600020905b815481529060010190602001808311610c2a57829003601f168201915b50505050508152602001600282015481526020016003820160009054906101000a900460ff166001811115610c7f57610c7e61149b565b5b6001811115610c9157610c9061149b565b5b81526020016003820160019054906101000a900473ffffffffffffffffffffffffffffffffffffffff1673ffffffffffffffffffffffffffffffffffffffff1673ffffffffffffffffffffffffffffffffffffffff1681525050915050919050565b8460008082604051610d059190611742565b90815260200160405180910390206000018054610d2190611788565b905003610d6557806040517ff786e77f000000000000000000000000000000000000000000000000000000008152600401610d5c9190611803565b60405180910390fd5b84600087604051610d769190611742565b90815260200160405180910390206001019081610d9391906119d1565b5083600087604051610da59190611742565b90815260200160405180910390206002018190555082600087604051610dcb9190611742565b908152602001604051809103902060030160006101000a81548160ff02191690836001811115610dfe57610dfd61149b565b5b021790555081600087604051610e149190611742565b908152602001604051809103902060030160016101000a81548173ffffffffffffffffffffffffffffffffffffffff021916908373ffffffffffffffffffffffffffffffffffffffff1602179055507fbbff4946f1c731f905e39df875134a38f27b2585272dc14e0bfda05d54c56f4f8686868686604051610e9a959493929190611d1e565b60405180910390a1505050505050565b8160008082604051610ebc9190611742565b90815260200160405180910390206000018054610ed890611788565b905003610f1c57806040517ff786e77f000000000000000000000000000000000000000000000000000000008152600401610f139190611803565b60405180910390fd5b81600084604051610f2d9190611742565b908152602001604051809103902060030160016101000a81548173ffffffffffffffffffffffffffffffffffffffff021916908373ffffffffffffffffffffffffffffffffffffffff160217905550505050565b508054610f8d90611788565b6000825580601f10610f9f5750610fbe565b601f016020900490600052602060002090810190610fbd9190611018565b5b50565b6040518060a0016040528060608152602001606081526020016000815260200160006001811115610ff557610ff461149b565b5b8152602001600073ffffffffffffffffffffffffffffffffffffffff1681525090565b5b80821115611031576000816000905550600101611019565b5090565b6000604051905090565b600080fd5b600080fd5b600080fd5b600080fd5b6000601f19601f8301169050919050565b7f4e487b7100000000000000000000000000000000000000000000000000000000600052604160045260246000fd5b61109c82611053565b810181811067ffffffffffffffff821117156110bb576110ba611064565b5b80604052505050565b60006110ce611035565b90506110da8282611093565b919050565b600067ffffffffffffffff8211156110fa576110f9611064565b5b61110382611053565b9050602081019050919050565b82818337600083830152505050565b600061113261112d846110df565b6110c4565b90508281526020810184848401111561114e5761114d61104e565b5b611159848285611110565b509392505050565b600082601f83011261117657611175611049565b5b813561118684826020860161111f565b91505092915050565b6000602082840312156111a5576111a461103f565b5b600082013567ffffffffffffffff8111156111c3576111c2611044565b5b6111cf84828501611161565b91505092915050565b6000819050919050565b6111eb816111d8565b82525050565b600060208201905061120660008301846111e2565b92915050565b600080604083850312156112235761122261103f565b5b600083013567ffffffffffffffff81111561124157611240611044565b5b61124d85828601611161565b925050602083013567ffffffffffffffff81111561126e5761126d611044565b5b61127a85828601611161565b9150509250929050565b60008115159050919050565b61129981611284565b82525050565b60006020820190506112b46000830184611290565b92915050565b6112c3816111d8565b81146112ce57600080fd5b50565b6000813590506112e0816112ba565b92915050565b600073ffffffffffffffffffffffffffffffffffffffff82169050919050565b6000611311826112e6565b9050919050565b61132181611306565b811461132c57600080fd5b50565b60008135905061133e81611318565b92915050565b6000806000806080858703121561135e5761135d61103f565b5b600085013567ffffffffffffffff81111561137c5761137b611044565b5b61138887828801611161565b945050602085013567ffffffffffffffff8111156113a9576113a8611044565b5b6113b587828801611161565b93505060406113c6878288016112d1565b92505060606113d78782880161132f565b91505092959194509250565b6113ec81611306565b82525050565b600060208201905061140760008301846113e3565b92915050565b600081519050919050565b600082825260208201905092915050565b60005b8381101561144757808201518184015260208101905061142c565b60008484015250505050565b600061145e8261140d565b6114688185611418565b9350611478818560208601611429565b61148181611053565b840191505092915050565b611495816111d8565b82525050565b7f4e487b7100000000000000000000000000000000000000000000000000000000600052602160045260246000fd5b600281106114db576114da61149b565b5b50565b60008190506114ec826114ca565b919050565b60006114fc826114de565b9050919050565b61150c816114f1565b82525050565b600061151d826112e6565b9050919050565b61152d81611512565b82525050565b600060a08301600083015184820360008601526115508282611453565b9150506020830151848203602086015261156a8282611453565b915050604083015161157f604086018261148c565b5060608301516115926060860182611503565b5060808301516115a56080860182611524565b508091505092915050565b600060208201905081810360008301526115ca8184611533565b905092915050565b600281106115df57600080fd5b50565b6000813590506115f1816115d2565b92915050565b600080600080600060a086880312156116135761161261103f565b5b600086013567ffffffffffffffff81111561163157611630611044565b5b61163d88828901611161565b955050602086013567ffffffffffffffff81111561165e5761165d611044565b5b61166a88828901611161565b945050604061167b888289016112d1565b935050606061168c888289016115e2565b925050608061169d8882890161132f565b9150509295509295909350565b600080604083850312156116c1576116c061103f565b5b600083013567ffffffffffffffff8111156116df576116de611044565b5b6116eb85828601611161565b92505060206116fc8582860161132f565b9150509250929050565b600081905092915050565b600061171c8261140d565b6117268185611706565b9350611736818560208601611429565b80840191505092915050565b600061174e8284611711565b915081905092915050565b7f4e487b7100000000000000000000000000000000000000000000000000000000600052602260045260246000fd5b600060028204905060018216806117a057607f821691505b6020821081036117b3576117b2611759565b5b50919050565b600082825260208201905092915050565b60006117d58261140d565b6117df81856117b9565b93506117ef818560208601611429565b6117f881611053565b840191505092915050565b6000602082019050818103600083015261181d81846117ca565b905092915050565b60008190508160005260206000209050919050565b60006020601f8301049050919050565b600082821b905092915050565b6000600883026118877fffffffffffffffffffffffffffffffffffffffffffffffffffffffffffffffff8261184a565b611891868361184a565b95508019841693508086168417925050509392505050565b6000819050919050565b60006118ce6118c96118c4846111d8565b6118a9565b6111d8565b9050919050565b6000819050919050565b6118e8836118b3565b6118fc6118f4826118d5565b848454611857565b825550505050565b600090565b611911611904565b61191c8184846118df565b505050565b5b8181101561194057611935600082611909565b600181019050611922565b5050565b601f8211156119855761195681611825565b61195f8461183a565b8101602085101561196e578190505b61198261197a8561183a565b830182611921565b50505b505050565b600082821c905092915050565b60006119a86000198460080261198a565b1980831691505092915050565b60006119c18383611997565b9150826002028217905092915050565b6119da8261140d565b67ffffffffffffffff8111156119f3576119f2611064565b5b6119fd8254611788565b611a08828285611944565b600060209050601f831160018114611a3b5760008415611a29578287015190505b611a3385826119b5565b865550611a9b565b601f198416611a4986611825565b60005b82811015611a7157848901518255600182019150602085019450602081019050611a4c565b86831015611a8e5784890151611a8a601f891682611997565b8355505b6001600288020188555050505b505050505050565b600081549050611ab281611788565b9050919050565b60008190508160005260206000209050919050565b818103611adc575050611bb4565b611ae582611aa3565b67ffffffffffffffff811115611afe57611afd611064565b5b611b088254611788565b611b13828285611944565b6000601f831160018114611b425760008415611b30578287015490505b611b3a85826119b5565b865550611bad565b601f198416611b5087611ab9565b9650611b5b86611825565b60005b82811015611b8357848901548255600182019150600185019450602081019050611b5e565b86831015611ba05784890154611b9c601f891682611997565b8355505b6001600288020188555050505b5050505050505b565b60006040820190508181036000830152611bd081856117ca565b90508181036020830152611be481846117ca565b90509392505050565b7f4f776e65723a2000000000000000000000000000000000000000000000000000600082015250565b6000611c236007836117b9565b9150611c2e82611bed565b602082019050919050565b6000611c54611c4f611c4a846112e6565b6118a9565b6112e6565b9050919050565b6000611c6682611c39565b9050919050565b6000611c7882611c5b565b9050919050565b611c8881611c6d565b82525050565b60006040820190508181036000830152611ca781611c16565b9050611cb66020830184611c7f565b92915050565b60006080820190508181036000830152611cd681876117ca565b90508181036020830152611cea81866117ca565b9050611cf960408301856111e2565b611d0660608301846113e3565b95945050505050565b611d18816114f1565b82525050565b600060a0820190508181036000830152611d3881886117ca565b90508181036020830152611d4c81876117ca565b9050611d5b60408301866111e2565b611d686060830185611d0f565b611d7560808301846113e3565b969550505050505056fea2646970667358221220f9c91e130581985623b93d2f2af8d41ee572b8e041c8e35c55b38ee23283aa1164736f6c63430008120033",
  "linkReferences": {},
  "deployedLinkReferences": {}
}