{
  "_format": "hh-sol-artifact-1",
  "contractName": "apartmentContract",
  "sourceName": "contracts/apartmentContract.sol",
  "abi": [
    {
      "anonymous": false,
      "inputs": [
        {
          "indexed": false,
          "internalType": "string",
          "name": "_apartmentAddress",
          "type": "string"
        }
      ],
      "name": "ApartmentDeleted",
      "type": "event"
    },
    {
      "anonymous": false,
      "inputs": [
        {
          "indexed": false,
          "internalType": "string",
          "name": "_oldApartmentAddress",
          "type": "string"
        },
        {
          "indexed": false,
          "internalType": "string",
          "name": "_newApartmentAdress",
          "type": "string"
        }
      ],
      "name": "ApartmentDirectionChanged",
      "type": "event"
    },
    {
      "anonymous": false,
      "inputs": [
        {
          "indexed": false,
          "internalType": "string",
          "name": "_apartmentAddress",
          "type": "string"
        },
        {
          "indexed": false,
          "internalType": "string",
          "name": "_description",
          "type": "string"
        },
        {
          "indexed": false,
          "internalType": "uint256",
          "name": "_price",
          "type": "uint256"
        },
        {
          "indexed": false,
          "internalType": "enum apartmentContract.ApartmentState",
          "name": "_aptState",
          "type": "uint8"
        },
        {
          "indexed": false,
          "internalType": "address",
          "name": "_apartmentOwner",
          "type": "address"
        }
      ],
      "name": "ApartmentUpdated",
      "type": "event"
    },
    {
      "anonymous": false,
      "inputs": [
        {
          "indexed": false,
          "internalType": "string",
          "name": "_apartmentAddress",
          "type": "string"
        },
        {
          "indexed": false,
          "internalType": "string",
          "name": "_description",
          "type": "string"
        },
        {
          "indexed": false,
          "internalType": "uint256",
          "name": "_price",
          "type": "uint256"
        },
        {
          "indexed": false,
          "internalType": "address",
          "name": "_apartmentOwner",
          "type": "address"
        }
      ],
      "name": "NewApartmentAdded",
      "type": "event"
    },
    {
      "inputs": [
        {
          "internalType": "string",
          "name": "_apartmentAddress",
          "type": "string"
        },
        {
          "internalType": "string",
          "name": "_description",
          "type": "string"
        },
        {
          "internalType": "uint256",
          "name": "_price",
          "type": "uint256"
        },
        {
          "internalType": "address",
          "name": "_apartmentOwner",
          "type": "address"
        }
      ],
      "name": "addApartment",
      "outputs": [],
      "stateMutability": "nonpayable",
      "type": "function"
    },
    {
      "inputs": [
        {
          "internalType": "string",
          "name": "_apartmentAddress",
          "type": "string"
        },
        {
          "internalType": "address",
          "name": "_newOwner",
          "type": "address"
        }
      ],
      "name": "changeAparmentOwner",
      "outputs": [],
      "stateMutability": "nonpayable",
      "type": "function"
    },
    {
      "inputs": [
        {
          "internalType": "string",
          "name": "_apartmentAddress",
          "type": "string"
        }
      ],
      "name": "deleteApartment",
      "outputs": [],
      "stateMutability": "nonpayable",
      "type": "function"
    },
    {
      "inputs": [
        {
          "internalType": "string",
          "name": "_apartmentAddress",
          "type": "string"
        }
      ],
      "name": "getApartment",
      "outputs": [
        {
          "components": [
            {
              "internalType": "string",
              "name": "apartmentAddress",
              "type": "string"
            },
            {
              "internalType": "string",
              "name": "description",
              "type": "string"
            },
            {
              "internalType": "uint256",
              "name": "price",
              "type": "uint256"
            },
            {
              "internalType": "enum apartmentContract.ApartmentState",
              "name": "aptState",
              "type": "uint8"
            },
            {
              "internalType": "address payable",
              "name": "apartmentOwner",
              "type": "address"
            }
          ],
          "internalType": "struct apartmentContract.Apartment",
          "name": "",
          "type": "tuple"
        }
      ],
      "stateMutability": "view",
      "type": "function"
    },
    {
      "inputs": [
        {
          "internalType": "string",
          "name": "_apartmentAddress",
          "type": "string"
        }
      ],
      "name": "getApartmentOwner",
      "outputs": [
        {
          "internalType": "address",
          "name": "",
          "type": "address"
        }
      ],
      "stateMutability": "view",
      "type": "function"
    },
    {
      "inputs": [
        {
          "internalType": "string",
          "name": "_apartmentAddress",
          "type": "string"
        }
      ],
      "name": "getApartmentPrice",
      "outputs": [
        {
          "internalType": "uint256",
          "name": "",
          "type": "uint256"
        }
      ],
      "stateMutability": "view",
      "type": "function"
    },
    {
      "inputs": [
        {
          "internalType": "string",
          "name": "_apartmentAddress",
          "type": "string"
        }
      ],
      "name": "isApartmentVacant",
      "outputs": [
        {
          "internalType": "bool",
          "name": "",
          "type": "bool"
        }
      ],
      "stateMutability": "view",
      "type": "function"
    },
    {
      "inputs": [
        {
          "internalType": "string",
          "name": "_apartmentAddress",
          "type": "string"
        }
      ],
      "name": "searchIfApartmentExists",
      "outputs": [
        {
          "internalType": "bool",
          "name": "",
          "type": "bool"
        }
      ],
      "stateMutability": "view",
      "type": "function"
    },
    {
      "inputs": [
        {
          "internalType": "string",
          "name": "_oldApartmentAddress",
          "type": "string"
        },
        {
          "internalType": "string",
          "name": "_newApartmentAdress",
          "type": "string"
        }
      ],
      "name": "updateApartmentDirection",
      "outputs": [],
      "stateMutability": "nonpayable",
      "type": "function"
    },
    {
      "inputs": [
        {
          "internalType": "string",
          "name": "_apartmentAddress",
          "type": "string"
        },
        {
          "internalType": "string",
          "name": "_description",
          "type": "string"
        },
        {
          "internalType": "uint256",
          "name": "_price",
          "type": "uint256"
        },
        {
          "internalType": "enum apartmentContract.ApartmentState",
          "name": "_aptState",
          "type": "uint8"
        },
        {
          "internalType": "address",
          "name": "_apartmentOwner",
          "type": "address"
        }
      ],
      "name": "updateApartmentParams",
      "outputs": [],
      "stateMutability": "nonpayable",
      "type": "function"
    }
  ],
  "bytecode": "0x608060405234801561001057600080fd5b50611d6d806100206000396000f3fe608060405234801561001057600080fd5b506004361061009e5760003560e01c80635cf8a03f116100665780635cf8a03f1461015757806371902a4c1461018757806377e06199146101b7578063cbf9aaa7146101e7578063f5f4998b146102035761009e565b80630408b887146100a35780630a277fe3146100bf5780632719be0b146100ef5780632d4b49531461010b578063467fc8f81461013b575b600080fd5b6100bd60048036038101906100b8919061113e565b61021f565b005b6100d960048036038101906100d4919061113e565b61034e565b6040516100e691906111a0565b60405180910390f35b610109600480360381019061010491906111bb565b6103ea565b005b6101256004803603810190610120919061113e565b6106f9565b604051610132919061124e565b60405180910390f35b610155600480360381019061015091906112f3565b610742565b005b610171600480360381019061016c919061113e565b610914565b60405161017e91906113a1565b60405180910390f35b6101a1600480360381019061019c919061113e565b6109d0565b6040516101ae919061124e565b60405180910390f35b6101d160048036038101906101cc919061113e565b610a3e565b6040516101de919061155f565b60405180910390f35b61020160048036038101906101fc91906115a6565b610ca6565b005b61021d60048036038101906102189190611659565b610e5b565b005b806000808260405161023191906116f1565b9081526020016040518091039020600001805461024d90611737565b90500361028f576040517f08c379a0000000000000000000000000000000000000000000000000000000008152600401610286906117c5565b60405180910390fd5b60008260405161029f91906116f1565b9081526020016040518091039020600080820160006102be9190610f30565b6001820160006102ce9190610f30565b60028201600090556003820160006101000a81549060ff02191690556003820160016101000a81549073ffffffffffffffffffffffffffffffffffffffff021916905550507f77da8edffc46a52004d8ddef94207a420ff6f69d7cb832b0031f438f2763b4ca82604051610342919061181e565b60405180910390a15050565b6000816000808260405161036291906116f1565b9081526020016040518091039020600001805461037e90611737565b9050036103c0576040517f08c379a00000000000000000000000000000000000000000000000000000000081526004016103b7906117c5565b60405180910390fd5b6000836040516103d091906116f1565b908152602001604051809103902060020154915050919050565b81600080826040516103fc91906116f1565b9081526020016040518091039020600001805461041890611737565b90500361045a576040517f08c379a0000000000000000000000000000000000000000000000000000000008152600401610451906117c5565b60405180910390fd5b8160008360405161046b91906116f1565b9081526020016040518091039020600001908161048891906119ec565b5060008360405161049991906116f1565b90815260200160405180910390206001016000836040516104ba91906116f1565b908152602001604051809103902060010190816104d79190611ae9565b506000836040516104e891906116f1565b90815260200160405180910390206002015460008360405161050a91906116f1565b90815260200160405180910390206002018190555060008360405161052f91906116f1565b908152602001604051809103902060030160009054906101000a900460ff1660008360405161055e91906116f1565b908152602001604051809103902060030160006101000a81548160ff021916908360018111156105915761059061144a565b5b02179055506000836040516105a691906116f1565b908152602001604051809103902060030160019054906101000a900473ffffffffffffffffffffffffffffffffffffffff166000836040516105e891906116f1565b908152602001604051809103902060030160016101000a81548173ffffffffffffffffffffffffffffffffffffffff021916908373ffffffffffffffffffffffffffffffffffffffff16021790555060008360405161064791906116f1565b9081526020016040518091039020600080820160006106669190610f30565b6001820160006106769190610f30565b60028201600090556003820160006101000a81549060ff02191690556003820160016101000a81549073ffffffffffffffffffffffffffffffffffffffff021916905550507f90ef2c1acf9194023bfd5a9880e914a11ba47f8a582a1a4b6ba173e16d2e23b883836040516106ec929190611bd1565b60405180910390a1505050565b60008060008360405161070c91906116f1565b9081526020016040518091039020600001805461072890611737565b905014610738576001905061073d565b600090505b919050565b836000808260405161075491906116f1565b9081526020016040518091039020600001805461077090611737565b9050146107b2576040517f08c379a00000000000000000000000000000000000000000000000000000000081526004016107a990611c54565b60405180910390fd5b6040518060a00160405280868152602001858152602001848152602001600060018111156107e3576107e261144a565b5b81526020018373ffffffffffffffffffffffffffffffffffffffff1681525060008660405161081291906116f1565b9081526020016040518091039020600082015181600001908161083591906119ec565b50602082015181600101908161084b91906119ec565b506040820151816002015560608201518160030160006101000a81548160ff021916908360018111156108815761088061144a565b5b021790555060808201518160030160016101000a81548173ffffffffffffffffffffffffffffffffffffffff021916908373ffffffffffffffffffffffffffffffffffffffff1602179055509050507f24c1440985100e55da65bd1f885ceafacb77eb75e90ca41028fbd9620afc9a4b858585856040516109059493929190611c74565b60405180910390a15050505050565b6000816000808260405161092891906116f1565b9081526020016040518091039020600001805461094490611737565b905003610986576040517f08c379a000000000000000000000000000000000000000000000000000000000815260040161097d906117c5565b60405180910390fd5b60008360405161099691906116f1565b908152602001604051809103902060030160019054906101000a900473ffffffffffffffffffffffffffffffffffffffff16915050919050565b60008060018111156109e5576109e461144a565b5b6000836040516109f591906116f1565b908152602001604051809103902060030160009054906101000a900460ff166001811115610a2657610a2561144a565b5b03610a345760019050610a39565b600090505b919050565b610a46610f70565b8160008082604051610a5891906116f1565b90815260200160405180910390206000018054610a7490611737565b905003610ab6576040517f08c379a0000000000000000000000000000000000000000000000000000000008152600401610aad906117c5565b60405180910390fd5b600083604051610ac691906116f1565b90815260200160405180910390206040518060a0016040529081600082018054610aef90611737565b80601f0160208091040260200160405190810160405280929190818152602001828054610b1b90611737565b8015610b685780601f10610b3d57610100808354040283529160200191610b68565b820191906000526020600020905b815481529060010190602001808311610b4b57829003601f168201915b50505050508152602001600182018054610b8190611737565b80601f0160208091040260200160405190810160405280929190818152602001828054610bad90611737565b8015610bfa5780601f10610bcf57610100808354040283529160200191610bfa565b820191906000526020600020905b815481529060010190602001808311610bdd57829003601f168201915b50505050508152602001600282015481526020016003820160009054906101000a900460ff166001811115610c3257610c3161144a565b5b6001811115610c4457610c4361144a565b5b81526020016003820160019054906101000a900473ffffffffffffffffffffffffffffffffffffffff1673ffffffffffffffffffffffffffffffffffffffff1673ffffffffffffffffffffffffffffffffffffffff1681525050915050919050565b8460008082604051610cb891906116f1565b90815260200160405180910390206000018054610cd490611737565b905003610d16576040517f08c379a0000000000000000000000000000000000000000000000000000000008152600401610d0d906117c5565b60405180910390fd5b84600087604051610d2791906116f1565b90815260200160405180910390206001019081610d4491906119ec565b5083600087604051610d5691906116f1565b90815260200160405180910390206002018190555082600087604051610d7c91906116f1565b908152602001604051809103902060030160006101000a81548160ff02191690836001811115610daf57610dae61144a565b5b021790555081600087604051610dc591906116f1565b908152602001604051809103902060030160016101000a81548173ffffffffffffffffffffffffffffffffffffffff021916908373ffffffffffffffffffffffffffffffffffffffff1602179055507fbbff4946f1c731f905e39df875134a38f27b2585272dc14e0bfda05d54c56f4f8686868686604051610e4b959493929190611cd6565b60405180910390a1505050505050565b8160008082604051610e6d91906116f1565b90815260200160405180910390206000018054610e8990611737565b905003610ecb576040517f08c379a0000000000000000000000000000000000000000000000000000000008152600401610ec2906117c5565b60405180910390fd5b81600084604051610edc91906116f1565b908152602001604051809103902060030160016101000a81548173ffffffffffffffffffffffffffffffffffffffff021916908373ffffffffffffffffffffffffffffffffffffffff160217905550505050565b508054610f3c90611737565b6000825580601f10610f4e5750610f6d565b601f016020900490600052602060002090810190610f6c9190610fc7565b5b50565b6040518060a0016040528060608152602001606081526020016000815260200160006001811115610fa457610fa361144a565b5b8152602001600073ffffffffffffffffffffffffffffffffffffffff1681525090565b5b80821115610fe0576000816000905550600101610fc8565b5090565b6000604051905090565b600080fd5b600080fd5b600080fd5b600080fd5b6000601f19601f8301169050919050565b7f4e487b7100000000000000000000000000000000000000000000000000000000600052604160045260246000fd5b61104b82611002565b810181811067ffffffffffffffff8211171561106a57611069611013565b5b80604052505050565b600061107d610fe4565b90506110898282611042565b919050565b600067ffffffffffffffff8211156110a9576110a8611013565b5b6110b282611002565b9050602081019050919050565b82818337600083830152505050565b60006110e16110dc8461108e565b611073565b9050828152602081018484840111156110fd576110fc610ffd565b5b6111088482856110bf565b509392505050565b600082601f83011261112557611124610ff8565b5b81356111358482602086016110ce565b91505092915050565b60006020828403121561115457611153610fee565b5b600082013567ffffffffffffffff81111561117257611171610ff3565b5b61117e84828501611110565b91505092915050565b6000819050919050565b61119a81611187565b82525050565b60006020820190506111b56000830184611191565b92915050565b600080604083850312156111d2576111d1610fee565b5b600083013567ffffffffffffffff8111156111f0576111ef610ff3565b5b6111fc85828601611110565b925050602083013567ffffffffffffffff81111561121d5761121c610ff3565b5b61122985828601611110565b9150509250929050565b60008115159050919050565b61124881611233565b82525050565b6000602082019050611263600083018461123f565b92915050565b61127281611187565b811461127d57600080fd5b50565b60008135905061128f81611269565b92915050565b600073ffffffffffffffffffffffffffffffffffffffff82169050919050565b60006112c082611295565b9050919050565b6112d0816112b5565b81146112db57600080fd5b50565b6000813590506112ed816112c7565b92915050565b6000806000806080858703121561130d5761130c610fee565b5b600085013567ffffffffffffffff81111561132b5761132a610ff3565b5b61133787828801611110565b945050602085013567ffffffffffffffff81111561135857611357610ff3565b5b61136487828801611110565b935050604061137587828801611280565b9250506060611386878288016112de565b91505092959194509250565b61139b816112b5565b82525050565b60006020820190506113b66000830184611392565b92915050565b600081519050919050565b600082825260208201905092915050565b60005b838110156113f65780820151818401526020810190506113db565b60008484015250505050565b600061140d826113bc565b61141781856113c7565b93506114278185602086016113d8565b61143081611002565b840191505092915050565b61144481611187565b82525050565b7f4e487b7100000000000000000000000000000000000000000000000000000000600052602160045260246000fd5b6002811061148a5761148961144a565b5b50565b600081905061149b82611479565b919050565b60006114ab8261148d565b9050919050565b6114bb816114a0565b82525050565b60006114cc82611295565b9050919050565b6114dc816114c1565b82525050565b600060a08301600083015184820360008601526114ff8282611402565b915050602083015184820360208601526115198282611402565b915050604083015161152e604086018261143b565b50606083015161154160608601826114b2565b50608083015161155460808601826114d3565b508091505092915050565b6000602082019050818103600083015261157981846114e2565b905092915050565b6002811061158e57600080fd5b50565b6000813590506115a081611581565b92915050565b600080600080600060a086880312156115c2576115c1610fee565b5b600086013567ffffffffffffffff8111156115e0576115df610ff3565b5b6115ec88828901611110565b955050602086013567ffffffffffffffff81111561160d5761160c610ff3565b5b61161988828901611110565b945050604061162a88828901611280565b935050606061163b88828901611591565b925050608061164c888289016112de565b9150509295509295909350565b600080604083850312156116705761166f610fee565b5b600083013567ffffffffffffffff81111561168e5761168d610ff3565b5b61169a85828601611110565b92505060206116ab858286016112de565b9150509250929050565b600081905092915050565b60006116cb826113bc565b6116d581856116b5565b93506116e58185602086016113d8565b80840191505092915050565b60006116fd82846116c0565b915081905092915050565b7f4e487b7100000000000000000000000000000000000000000000000000000000600052602260045260246000fd5b6000600282049050600182168061174f57607f821691505b60208210810361176257611761611708565b5b50919050565b600082825260208201905092915050565b7f41706172746d656e7420646f6573206e6f742065786973742100000000000000600082015250565b60006117af601983611768565b91506117ba82611779565b602082019050919050565b600060208201905081810360008301526117de816117a2565b9050919050565b60006117f0826113bc565b6117fa8185611768565b935061180a8185602086016113d8565b61181381611002565b840191505092915050565b6000602082019050818103600083015261183881846117e5565b905092915050565b60008190508160005260206000209050919050565b60006020601f8301049050919050565b600082821b905092915050565b6000600883026118a27fffffffffffffffffffffffffffffffffffffffffffffffffffffffffffffffff82611865565b6118ac8683611865565b95508019841693508086168417925050509392505050565b6000819050919050565b60006118e96118e46118df84611187565b6118c4565b611187565b9050919050565b6000819050919050565b611903836118ce565b61191761190f826118f0565b848454611872565b825550505050565b600090565b61192c61191f565b6119378184846118fa565b505050565b5b8181101561195b57611950600082611924565b60018101905061193d565b5050565b601f8211156119a05761197181611840565b61197a84611855565b81016020851015611989578190505b61199d61199585611855565b83018261193c565b50505b505050565b600082821c905092915050565b60006119c3600019846008026119a5565b1980831691505092915050565b60006119dc83836119b2565b9150826002028217905092915050565b6119f5826113bc565b67ffffffffffffffff811115611a0e57611a0d611013565b5b611a188254611737565b611a2382828561195f565b600060209050601f831160018114611a565760008415611a44578287015190505b611a4e85826119d0565b865550611ab6565b601f198416611a6486611840565b60005b82811015611a8c57848901518255600182019150602085019450602081019050611a67565b86831015611aa95784890151611aa5601f8916826119b2565b8355505b6001600288020188555050505b505050505050565b600081549050611acd81611737565b9050919050565b60008190508160005260206000209050919050565b818103611af7575050611bcf565b611b0082611abe565b67ffffffffffffffff811115611b1957611b18611013565b5b611b238254611737565b611b2e82828561195f565b6000601f831160018114611b5d5760008415611b4b578287015490505b611b5585826119d0565b865550611bc8565b601f198416611b6b87611ad4565b9650611b7686611840565b60005b82811015611b9e57848901548255600182019150600185019450602081019050611b79565b86831015611bbb5784890154611bb7601f8916826119b2565b8355505b6001600288020188555050505b5050505050505b565b60006040820190508181036000830152611beb81856117e5565b90508181036020830152611bff81846117e5565b90509392505050565b7f41706172746d656e7420616c7265616479206578697374732100000000000000600082015250565b6000611c3e601983611768565b9150611c4982611c08565b602082019050919050565b60006020820190508181036000830152611c6d81611c31565b9050919050565b60006080820190508181036000830152611c8e81876117e5565b90508181036020830152611ca281866117e5565b9050611cb16040830185611191565b611cbe6060830184611392565b95945050505050565b611cd0816114a0565b82525050565b600060a0820190508181036000830152611cf081886117e5565b90508181036020830152611d0481876117e5565b9050611d136040830186611191565b611d206060830185611cc7565b611d2d6080830184611392565b969550505050505056fea2646970667358221220dd5a9c9846ef1b8a29bdbff4ab09b17f19bf3d19f350e223e4389d431e60130764736f6c63430008120033",
  "linkReferences": {},
  "deployedLinkReferences": {}
}