{
  "_format": "hh-sol-artifact-1",
  "contractName": "apartmentNFT",
  "sourceName": "contracts/apartmentNFT.sol",
  "abi": [
    {
      "inputs": [],
      "stateMutability": "nonpayable",
      "type": "constructor"
    },
    {
      "inputs": [
        {
          "internalType": "address",
          "name": "sender",
          "type": "address"
        },
        {
          "internalType": "uint256",
          "name": "tokenId",
          "type": "uint256"
        },
        {
          "internalType": "address",
          "name": "owner",
          "type": "address"
        }
      ],
      "name": "ERC721IncorrectOwner",
      "type": "error"
    },
    {
      "inputs": [
        {
          "internalType": "address",
          "name": "operator",
          "type": "address"
        },
        {
          "internalType": "uint256",
          "name": "tokenId",
          "type": "uint256"
        }
      ],
      "name": "ERC721InsufficientApproval",
      "type": "error"
    },
    {
      "inputs": [
        {
          "internalType": "address",
          "name": "approver",
          "type": "address"
        }
      ],
      "name": "ERC721InvalidApprover",
      "type": "error"
    },
    {
      "inputs": [
        {
          "internalType": "address",
          "name": "operator",
          "type": "address"
        }
      ],
      "name": "ERC721InvalidOperator",
      "type": "error"
    },
    {
      "inputs": [
        {
          "internalType": "address",
          "name": "owner",
          "type": "address"
        }
      ],
      "name": "ERC721InvalidOwner",
      "type": "error"
    },
    {
      "inputs": [
        {
          "internalType": "address",
          "name": "receiver",
          "type": "address"
        }
      ],
      "name": "ERC721InvalidReceiver",
      "type": "error"
    },
    {
      "inputs": [
        {
          "internalType": "address",
          "name": "sender",
          "type": "address"
        }
      ],
      "name": "ERC721InvalidSender",
      "type": "error"
    },
    {
      "inputs": [
        {
          "internalType": "uint256",
          "name": "tokenId",
          "type": "uint256"
        }
      ],
      "name": "ERC721NonexistentToken",
      "type": "error"
    },
    {
      "anonymous": false,
      "inputs": [
        {
          "indexed": true,
          "internalType": "address",
          "name": "owner",
          "type": "address"
        },
        {
          "indexed": true,
          "internalType": "address",
          "name": "approved",
          "type": "address"
        },
        {
          "indexed": true,
          "internalType": "uint256",
          "name": "tokenId",
          "type": "uint256"
        }
      ],
      "name": "Approval",
      "type": "event"
    },
    {
      "anonymous": false,
      "inputs": [
        {
          "indexed": true,
          "internalType": "address",
          "name": "owner",
          "type": "address"
        },
        {
          "indexed": true,
          "internalType": "address",
          "name": "operator",
          "type": "address"
        },
        {
          "indexed": false,
          "internalType": "bool",
          "name": "approved",
          "type": "bool"
        }
      ],
      "name": "ApprovalForAll",
      "type": "event"
    },
    {
      "anonymous": false,
      "inputs": [
        {
          "indexed": false,
          "internalType": "uint256",
          "name": "_fromTokenId",
          "type": "uint256"
        },
        {
          "indexed": false,
          "internalType": "uint256",
          "name": "_toTokenId",
          "type": "uint256"
        }
      ],
      "name": "BatchMetadataUpdate",
      "type": "event"
    },
    {
      "anonymous": false,
      "inputs": [
        {
          "indexed": false,
          "internalType": "uint256",
          "name": "_tokenId",
          "type": "uint256"
        }
      ],
      "name": "MetadataUpdate",
      "type": "event"
    },
    {
      "anonymous": false,
      "inputs": [
        {
          "indexed": true,
          "internalType": "address",
          "name": "from",
          "type": "address"
        },
        {
          "indexed": true,
          "internalType": "address",
          "name": "to",
          "type": "address"
        },
        {
          "indexed": true,
          "internalType": "uint256",
          "name": "tokenId",
          "type": "uint256"
        }
      ],
      "name": "Transfer",
      "type": "event"
    },
    {
      "inputs": [
        {
          "internalType": "address",
          "name": "to",
          "type": "address"
        },
        {
          "internalType": "uint256",
          "name": "tokenId",
          "type": "uint256"
        }
      ],
      "name": "approve",
      "outputs": [],
      "stateMutability": "nonpayable",
      "type": "function"
    },
    {
      "inputs": [
        {
          "internalType": "address",
          "name": "owner",
          "type": "address"
        }
      ],
      "name": "balanceOf",
      "outputs": [
        {
          "internalType": "uint256",
          "name": "",
          "type": "uint256"
        }
      ],
      "stateMutability": "view",
      "type": "function"
    },
    {
      "inputs": [
        {
          "internalType": "uint256",
          "name": "_nftTokenID",
          "type": "uint256"
        }
      ],
      "name": "burnNFT",
      "outputs": [],
      "stateMutability": "nonpayable",
      "type": "function"
    },
    {
      "inputs": [
        {
          "internalType": "uint256",
          "name": "tokenId",
          "type": "uint256"
        }
      ],
      "name": "getApproved",
      "outputs": [
        {
          "internalType": "address",
          "name": "",
          "type": "address"
        }
      ],
      "stateMutability": "view",
      "type": "function"
    },
    {
      "inputs": [
        {
          "internalType": "uint256",
          "name": "_nftTokenID",
          "type": "uint256"
        }
      ],
      "name": "getNftOwner",
      "outputs": [
        {
          "internalType": "address",
          "name": "",
          "type": "address"
        }
      ],
      "stateMutability": "view",
      "type": "function"
    },
    {
      "inputs": [
        {
          "internalType": "address",
          "name": "owner",
          "type": "address"
        },
        {
          "internalType": "address",
          "name": "operator",
          "type": "address"
        }
      ],
      "name": "isApprovedForAll",
      "outputs": [
        {
          "internalType": "bool",
          "name": "",
          "type": "bool"
        }
      ],
      "stateMutability": "view",
      "type": "function"
    },
    {
      "inputs": [
        {
          "internalType": "address",
          "name": "to",
          "type": "address"
        },
        {
          "internalType": "string",
          "name": "tokenURI",
          "type": "string"
        }
      ],
      "name": "mintApartmentNFT",
      "outputs": [
        {
          "internalType": "uint256",
          "name": "",
          "type": "uint256"
        }
      ],
      "stateMutability": "nonpayable",
      "type": "function"
    },
    {
      "inputs": [],
      "name": "name",
      "outputs": [
        {
          "internalType": "string",
          "name": "",
          "type": "string"
        }
      ],
      "stateMutability": "view",
      "type": "function"
    },
    {
      "inputs": [
        {
          "internalType": "uint256",
          "name": "tokenId",
          "type": "uint256"
        }
      ],
      "name": "ownerOf",
      "outputs": [
        {
          "internalType": "address",
          "name": "",
          "type": "address"
        }
      ],
      "stateMutability": "view",
      "type": "function"
    },
    {
      "inputs": [
        {
          "internalType": "address",
          "name": "from",
          "type": "address"
        },
        {
          "internalType": "address",
          "name": "to",
          "type": "address"
        },
        {
          "internalType": "uint256",
          "name": "tokenId",
          "type": "uint256"
        }
      ],
      "name": "safeTransferFrom",
      "outputs": [],
      "stateMutability": "nonpayable",
      "type": "function"
    },
    {
      "inputs": [
        {
          "internalType": "address",
          "name": "from",
          "type": "address"
        },
        {
          "internalType": "address",
          "name": "to",
          "type": "address"
        },
        {
          "internalType": "uint256",
          "name": "tokenId",
          "type": "uint256"
        },
        {
          "internalType": "bytes",
          "name": "data",
          "type": "bytes"
        }
      ],
      "name": "safeTransferFrom",
      "outputs": [],
      "stateMutability": "nonpayable",
      "type": "function"
    },
    {
      "inputs": [
        {
          "internalType": "address",
          "name": "operator",
          "type": "address"
        },
        {
          "internalType": "bool",
          "name": "approved",
          "type": "bool"
        }
      ],
      "name": "setApprovalForAll",
      "outputs": [],
      "stateMutability": "nonpayable",
      "type": "function"
    },
    {
      "inputs": [
        {
          "internalType": "bytes4",
          "name": "interfaceId",
          "type": "bytes4"
        }
      ],
      "name": "supportsInterface",
      "outputs": [
        {
          "internalType": "bool",
          "name": "",
          "type": "bool"
        }
      ],
      "stateMutability": "view",
      "type": "function"
    },
    {
      "inputs": [],
      "name": "symbol",
      "outputs": [
        {
          "internalType": "string",
          "name": "",
          "type": "string"
        }
      ],
      "stateMutability": "view",
      "type": "function"
    },
    {
      "inputs": [],
      "name": "tokenCounter",
      "outputs": [
        {
          "internalType": "uint256",
          "name": "",
          "type": "uint256"
        }
      ],
      "stateMutability": "view",
      "type": "function"
    },
    {
      "inputs": [
        {
          "internalType": "uint256",
          "name": "tokenId",
          "type": "uint256"
        }
      ],
      "name": "tokenURI",
      "outputs": [
        {
          "internalType": "string",
          "name": "",
          "type": "string"
        }
      ],
      "stateMutability": "view",
      "type": "function"
    },
    {
      "inputs": [
        {
          "internalType": "address",
          "name": "from",
          "type": "address"
        },
        {
          "internalType": "address",
          "name": "to",
          "type": "address"
        },
        {
          "internalType": "uint256",
          "name": "tokenId",
          "type": "uint256"
        }
      ],
      "name": "transferFrom",
      "outputs": [],
      "stateMutability": "nonpayable",
      "type": "function"
    }
  ],
  "bytecode": "0x60806040523480156200001157600080fd5b506040518060400160405280600c81526020017f41706172746d656e744e465400000000000000000000000000000000000000008152506040518060400160405280600381526020017f415054000000000000000000000000000000000000000000000000000000000081525081600090816200008f91906200032c565b508060019081620000a191906200032c565b505050600060078190555062000413565b600081519050919050565b7f4e487b7100000000000000000000000000000000000000000000000000000000600052604160045260246000fd5b7f4e487b7100000000000000000000000000000000000000000000000000000000600052602260045260246000fd5b600060028204905060018216806200013457607f821691505b6020821081036200014a5762000149620000ec565b5b50919050565b60008190508160005260206000209050919050565b60006020601f8301049050919050565b600082821b905092915050565b600060088302620001b47fffffffffffffffffffffffffffffffffffffffffffffffffffffffffffffffff8262000175565b620001c0868362000175565b95508019841693508086168417925050509392505050565b6000819050919050565b6000819050919050565b60006200020d620002076200020184620001d8565b620001e2565b620001d8565b9050919050565b6000819050919050565b6200022983620001ec565b62000241620002388262000214565b84845462000182565b825550505050565b600090565b6200025862000249565b620002658184846200021e565b505050565b5b818110156200028d57620002816000826200024e565b6001810190506200026b565b5050565b601f821115620002dc57620002a68162000150565b620002b18462000165565b81016020851015620002c1578190505b620002d9620002d08562000165565b8301826200026a565b50505b505050565b600082821c905092915050565b60006200030160001984600802620002e1565b1980831691505092915050565b60006200031c8383620002ee565b9150826002028217905092915050565b6200033782620000b2565b67ffffffffffffffff811115620003535762000352620000bd565b5b6200035f82546200011b565b6200036c82828562000291565b600060209050601f831160018114620003a457600084156200038f578287015190505b6200039b85826200030e565b8655506200040b565b601f198416620003b48662000150565b60005b82811015620003de57848901518255600182019150602085019450602081019050620003b7565b86831015620003fe5784890151620003fa601f891682620002ee565b8355505b6001600288020188555050505b505050505050565b61261180620004236000396000f3fe608060405234801561001057600080fd5b506004361061010b5760003560e01c806370a08231116100a2578063a22cb46511610071578063a22cb465146102dc578063b88d4fde146102f8578063c87b56dd14610314578063d082e38114610344578063e985e9c5146103625761010b565b806370a082311461022e57806373a68b8d1461025e5780638ad2d5a71461028e57806395d89b41146102be5761010b565b806323b872dd116100de57806323b872dd146101aa5780632890e0d7146101c657806342842e0e146101e25780636352211e146101fe5761010b565b806301ffc9a71461011057806306fdde0314610140578063081812fc1461015e578063095ea7b31461018e575b600080fd5b61012a600480360381019061012591906119fd565b610392565b6040516101379190611a45565b60405180910390f35b6101486103f3565b6040516101559190611af0565b60405180910390f35b61017860048036038101906101739190611b48565b610485565b6040516101859190611bb6565b60405180910390f35b6101a860048036038101906101a39190611bfd565b6104a1565b005b6101c460048036038101906101bf9190611c3d565b6104b7565b005b6101e060048036038101906101db9190611b48565b6105b9565b005b6101fc60048036038101906101f79190611c3d565b61063b565b005b61021860048036038101906102139190611b48565b61065b565b6040516102259190611bb6565b60405180910390f35b61024860048036038101906102439190611c90565b61066d565b6040516102559190611ccc565b60405180910390f35b61027860048036038101906102739190611e1c565b610727565b6040516102859190611ccc565b60405180910390f35b6102a860048036038101906102a39190611b48565b610765565b6040516102b59190611bb6565b60405180910390f35b6102c6610777565b6040516102d39190611af0565b60405180910390f35b6102f660048036038101906102f19190611ea4565b610809565b005b610312600480360381019061030d9190611f85565b61081f565b005b61032e60048036038101906103299190611b48565b61083c565b60405161033b9190611af0565b60405180910390f35b61034c61094f565b6040516103599190611ccc565b60405180910390f35b61037c60048036038101906103779190612008565b610955565b6040516103899190611a45565b60405180910390f35b6000634906490660e01b7bffffffffffffffffffffffffffffffffffffffffffffffffffffffff1916827bffffffffffffffffffffffffffffffffffffffffffffffffffffffff191614806103ec57506103eb826109e9565b5b9050919050565b60606000805461040290612077565b80601f016020809104026020016040519081016040528092919081815260200182805461042e90612077565b801561047b5780601f106104505761010080835404028352916020019161047b565b820191906000526020600020905b81548152906001019060200180831161045e57829003601f168201915b5050505050905090565b600061049082610acb565b5061049a82610b53565b9050919050565b6104b382826104ae610b90565b610b98565b5050565b600073ffffffffffffffffffffffffffffffffffffffff168273ffffffffffffffffffffffffffffffffffffffff16036105295760006040517f64a0ae920000000000000000000000000000000000000000000000000000000081526004016105209190611bb6565b60405180910390fd5b600061053d8383610538610b90565b610baa565b90508373ffffffffffffffffffffffffffffffffffffffff168173ffffffffffffffffffffffffffffffffffffffff16146105b3578382826040517f64283d7b0000000000000000000000000000000000000000000000000000000081526004016105aa939291906120a8565b60405180910390fd5b50505050565b3373ffffffffffffffffffffffffffffffffffffffff166105d982610485565b73ffffffffffffffffffffffffffffffffffffffff161461062f576040517f08c379a00000000000000000000000000000000000000000000000000000000081526004016106269061212b565b60405180910390fd5b61063881610dc4565b50565b6106568383836040518060200160405280600081525061081f565b505050565b600061066682610acb565b9050919050565b60008073ffffffffffffffffffffffffffffffffffffffff168273ffffffffffffffffffffffffffffffffffffffff16036106e05760006040517f89c62b640000000000000000000000000000000000000000000000000000000081526004016106d79190611bb6565b60405180910390fd5b600360008373ffffffffffffffffffffffffffffffffffffffff1673ffffffffffffffffffffffffffffffffffffffff168152602001908152602001600020549050919050565b60008060075490506107398482610e4a565b6107438184610e68565b600760008154809291906107569061217a565b91905055508091505092915050565b60006107708261065b565b9050919050565b60606001805461078690612077565b80601f01602080910402602001604051908101604052809291908181526020018280546107b290612077565b80156107ff5780601f106107d4576101008083540402835291602001916107ff565b820191906000526020600020905b8154815290600101906020018083116107e257829003601f168201915b5050505050905090565b61081b610814610b90565b8383610ec4565b5050565b61082a8484846104b7565b61083684848484611033565b50505050565b606061084782610acb565b50600060066000848152602001908152602001600020805461086890612077565b80601f016020809104026020016040519081016040528092919081815260200182805461089490612077565b80156108e15780601f106108b6576101008083540402835291602001916108e1565b820191906000526020600020905b8154815290600101906020018083116108c457829003601f168201915b5050505050905060006108f26111ea565b9050600081510361090757819250505061094a565b60008251111561093c5780826040516020016109249291906121fe565b6040516020818303038152906040529250505061094a565b61094584611201565b925050505b919050565b60075481565b6000600560008473ffffffffffffffffffffffffffffffffffffffff1673ffffffffffffffffffffffffffffffffffffffff16815260200190815260200160002060008373ffffffffffffffffffffffffffffffffffffffff1673ffffffffffffffffffffffffffffffffffffffff16815260200190815260200160002060009054906101000a900460ff16905092915050565b60007f80ac58cd000000000000000000000000000000000000000000000000000000007bffffffffffffffffffffffffffffffffffffffffffffffffffffffff1916827bffffffffffffffffffffffffffffffffffffffffffffffffffffffff19161480610ab457507f5b5e139f000000000000000000000000000000000000000000000000000000007bffffffffffffffffffffffffffffffffffffffffffffffffffffffff1916827bffffffffffffffffffffffffffffffffffffffffffffffffffffffff1916145b80610ac45750610ac38261126a565b5b9050919050565b600080610ad7836112d4565b9050600073ffffffffffffffffffffffffffffffffffffffff168173ffffffffffffffffffffffffffffffffffffffff1603610b4a57826040517f7e273289000000000000000000000000000000000000000000000000000000008152600401610b419190611ccc565b60405180910390fd5b80915050919050565b60006004600083815260200190815260200160002060009054906101000a900473ffffffffffffffffffffffffffffffffffffffff169050919050565b600033905090565b610ba58383836001611311565b505050565b600080610bb6846112d4565b9050600073ffffffffffffffffffffffffffffffffffffffff168373ffffffffffffffffffffffffffffffffffffffff1614610bf857610bf78184866114d6565b5b600073ffffffffffffffffffffffffffffffffffffffff168173ffffffffffffffffffffffffffffffffffffffff1614610c8957610c3a600085600080611311565b6001600360008373ffffffffffffffffffffffffffffffffffffffff1673ffffffffffffffffffffffffffffffffffffffff168152602001908152602001600020600082825403925050819055505b600073ffffffffffffffffffffffffffffffffffffffff168573ffffffffffffffffffffffffffffffffffffffff1614610d0c576001600360008773ffffffffffffffffffffffffffffffffffffffff1673ffffffffffffffffffffffffffffffffffffffff168152602001908152602001600020600082825401925050819055505b846002600086815260200190815260200160002060006101000a81548173ffffffffffffffffffffffffffffffffffffffff021916908373ffffffffffffffffffffffffffffffffffffffff160217905550838573ffffffffffffffffffffffffffffffffffffffff168273ffffffffffffffffffffffffffffffffffffffff167fddf252ad1be2c89b69c2b068fc378daa952ba7f163c4a11628f55a4df523b3ef60405160405180910390a4809150509392505050565b6000610dd36000836000610baa565b9050600073ffffffffffffffffffffffffffffffffffffffff168173ffffffffffffffffffffffffffffffffffffffff1603610e4657816040517f7e273289000000000000000000000000000000000000000000000000000000008152600401610e3d9190611ccc565b60405180910390fd5b5050565b610e6482826040518060200160405280600081525061159a565b5050565b80600660008481526020019081526020016000209081610e8891906123ce565b507ff8e1a15aba9398e019f0b49df1a4fde98ee17ae345cb5f6b5e2c27f5033e8ce782604051610eb89190611ccc565b60405180910390a15050565b600073ffffffffffffffffffffffffffffffffffffffff168273ffffffffffffffffffffffffffffffffffffffff1603610f3557816040517f5b08ba18000000000000000000000000000000000000000000000000000000008152600401610f2c9190611bb6565b60405180910390fd5b80600560008573ffffffffffffffffffffffffffffffffffffffff1673ffffffffffffffffffffffffffffffffffffffff16815260200190815260200160002060008473ffffffffffffffffffffffffffffffffffffffff1673ffffffffffffffffffffffffffffffffffffffff16815260200190815260200160002060006101000a81548160ff0219169083151502179055508173ffffffffffffffffffffffffffffffffffffffff168373ffffffffffffffffffffffffffffffffffffffff167f17307eab39ab6107e8899845ad3d59bd9653f200f220920489ca2b5937696c31836040516110269190611a45565b60405180910390a3505050565b60008373ffffffffffffffffffffffffffffffffffffffff163b11156111e4578273ffffffffffffffffffffffffffffffffffffffff1663150b7a02611077610b90565b8685856040518563ffffffff1660e01b815260040161109994939291906124f5565b6020604051808303816000875af19250505080156110d557506040513d601f19601f820116820180604052508101906110d29190612556565b60015b611159573d8060008114611105576040519150601f19603f3d011682016040523d82523d6000602084013e61110a565b606091505b50600081510361115157836040517f64a0ae920000000000000000000000000000000000000000000000000000000081526004016111489190611bb6565b60405180910390fd5b805181602001fd5b63150b7a0260e01b7bffffffffffffffffffffffffffffffffffffffffffffffffffffffff1916817bffffffffffffffffffffffffffffffffffffffffffffffffffffffff1916146111e257836040517f64a0ae920000000000000000000000000000000000000000000000000000000081526004016111d99190611bb6565b60405180910390fd5b505b50505050565b606060405180602001604052806000815250905090565b606061120c82610acb565b5060006112176111ea565b905060008151116112375760405180602001604052806000815250611262565b80611241846115b6565b6040516020016112529291906121fe565b6040516020818303038152906040525b915050919050565b60007f01ffc9a7000000000000000000000000000000000000000000000000000000007bffffffffffffffffffffffffffffffffffffffffffffffffffffffff1916827bffffffffffffffffffffffffffffffffffffffffffffffffffffffff1916149050919050565b60006002600083815260200190815260200160002060009054906101000a900473ffffffffffffffffffffffffffffffffffffffff169050919050565b808061134a5750600073ffffffffffffffffffffffffffffffffffffffff168273ffffffffffffffffffffffffffffffffffffffff1614155b1561147e57600061135a84610acb565b9050600073ffffffffffffffffffffffffffffffffffffffff168373ffffffffffffffffffffffffffffffffffffffff16141580156113c557508273ffffffffffffffffffffffffffffffffffffffff168173ffffffffffffffffffffffffffffffffffffffff1614155b80156113d857506113d68184610955565b155b1561141a57826040517fa9fbf51f0000000000000000000000000000000000000000000000000000000081526004016114119190611bb6565b60405180910390fd5b811561147c57838573ffffffffffffffffffffffffffffffffffffffff168273ffffffffffffffffffffffffffffffffffffffff167f8c5be1e5ebec7d5bd14f71427d1e84f3dd0314c0f7b2291e5b200ac8c7c3b92560405160405180910390a45b505b836004600085815260200190815260200160002060006101000a81548173ffffffffffffffffffffffffffffffffffffffff021916908373ffffffffffffffffffffffffffffffffffffffff16021790555050505050565b6114e1838383611684565b61159557600073ffffffffffffffffffffffffffffffffffffffff168373ffffffffffffffffffffffffffffffffffffffff160361155657806040517f7e27328900000000000000000000000000000000000000000000000000000000815260040161154d9190611ccc565b60405180910390fd5b81816040517f177e802f00000000000000000000000000000000000000000000000000000000815260040161158c929190612583565b60405180910390fd5b505050565b6115a48383611745565b6115b16000848484611033565b505050565b6060600060016115c58461183e565b01905060008167ffffffffffffffff8111156115e4576115e3611cf1565b5b6040519080825280601f01601f1916602001820160405280156116165781602001600182028036833780820191505090505b509050600082602001820190505b600115611679578080600190039150507f3031323334353637383961626364656600000000000000000000000000000000600a86061a8153600a858161166d5761166c6125ac565b5b04945060008503611624575b819350505050919050565b60008073ffffffffffffffffffffffffffffffffffffffff168373ffffffffffffffffffffffffffffffffffffffff161415801561173c57508273ffffffffffffffffffffffffffffffffffffffff168473ffffffffffffffffffffffffffffffffffffffff1614806116fd57506116fc8484610955565b5b8061173b57508273ffffffffffffffffffffffffffffffffffffffff1661172383610b53565b73ffffffffffffffffffffffffffffffffffffffff16145b5b90509392505050565b600073ffffffffffffffffffffffffffffffffffffffff168273ffffffffffffffffffffffffffffffffffffffff16036117b75760006040517f64a0ae920000000000000000000000000000000000000000000000000000000081526004016117ae9190611bb6565b60405180910390fd5b60006117c583836000610baa565b9050600073ffffffffffffffffffffffffffffffffffffffff168173ffffffffffffffffffffffffffffffffffffffff16146118395760006040517f73c6ac6e0000000000000000000000000000000000000000000000000000000081526004016118309190611bb6565b60405180910390fd5b505050565b600080600090507a184f03e93ff9f4daa797ed6e38ed64bf6a1f010000000000000000831061189c577a184f03e93ff9f4daa797ed6e38ed64bf6a1f0100000000000000008381611892576118916125ac565b5b0492506040810190505b6d04ee2d6d415b85acef810000000083106118d9576d04ee2d6d415b85acef810000000083816118cf576118ce6125ac565b5b0492506020810190505b662386f26fc10000831061190857662386f26fc1000083816118fe576118fd6125ac565b5b0492506010810190505b6305f5e1008310611931576305f5e1008381611927576119266125ac565b5b0492506008810190505b612710831061195657612710838161194c5761194b6125ac565b5b0492506004810190505b60648310611979576064838161196f5761196e6125ac565b5b0492506002810190505b600a8310611988576001810190505b80915050919050565b6000604051905090565b600080fd5b600080fd5b60007fffffffff0000000000000000000000000000000000000000000000000000000082169050919050565b6119da816119a5565b81146119e557600080fd5b50565b6000813590506119f7816119d1565b92915050565b600060208284031215611a1357611a1261199b565b5b6000611a21848285016119e8565b91505092915050565b60008115159050919050565b611a3f81611a2a565b82525050565b6000602082019050611a5a6000830184611a36565b92915050565b600081519050919050565b600082825260208201905092915050565b60005b83811015611a9a578082015181840152602081019050611a7f565b60008484015250505050565b6000601f19601f8301169050919050565b6000611ac282611a60565b611acc8185611a6b565b9350611adc818560208601611a7c565b611ae581611aa6565b840191505092915050565b60006020820190508181036000830152611b0a8184611ab7565b905092915050565b6000819050919050565b611b2581611b12565b8114611b3057600080fd5b50565b600081359050611b4281611b1c565b92915050565b600060208284031215611b5e57611b5d61199b565b5b6000611b6c84828501611b33565b91505092915050565b600073ffffffffffffffffffffffffffffffffffffffff82169050919050565b6000611ba082611b75565b9050919050565b611bb081611b95565b82525050565b6000602082019050611bcb6000830184611ba7565b92915050565b611bda81611b95565b8114611be557600080fd5b50565b600081359050611bf781611bd1565b92915050565b60008060408385031215611c1457611c1361199b565b5b6000611c2285828601611be8565b9250506020611c3385828601611b33565b9150509250929050565b600080600060608486031215611c5657611c5561199b565b5b6000611c6486828701611be8565b9350506020611c7586828701611be8565b9250506040611c8686828701611b33565b9150509250925092565b600060208284031215611ca657611ca561199b565b5b6000611cb484828501611be8565b91505092915050565b611cc681611b12565b82525050565b6000602082019050611ce16000830184611cbd565b92915050565b600080fd5b600080fd5b7f4e487b7100000000000000000000000000000000000000000000000000000000600052604160045260246000fd5b611d2982611aa6565b810181811067ffffffffffffffff82111715611d4857611d47611cf1565b5b80604052505050565b6000611d5b611991565b9050611d678282611d20565b919050565b600067ffffffffffffffff821115611d8757611d86611cf1565b5b611d9082611aa6565b9050602081019050919050565b82818337600083830152505050565b6000611dbf611dba84611d6c565b611d51565b905082815260208101848484011115611ddb57611dda611cec565b5b611de6848285611d9d565b509392505050565b600082601f830112611e0357611e02611ce7565b5b8135611e13848260208601611dac565b91505092915050565b60008060408385031215611e3357611e3261199b565b5b6000611e4185828601611be8565b925050602083013567ffffffffffffffff811115611e6257611e616119a0565b5b611e6e85828601611dee565b9150509250929050565b611e8181611a2a565b8114611e8c57600080fd5b50565b600081359050611e9e81611e78565b92915050565b60008060408385031215611ebb57611eba61199b565b5b6000611ec985828601611be8565b9250506020611eda85828601611e8f565b9150509250929050565b600067ffffffffffffffff821115611eff57611efe611cf1565b5b611f0882611aa6565b9050602081019050919050565b6000611f28611f2384611ee4565b611d51565b905082815260208101848484011115611f4457611f43611cec565b5b611f4f848285611d9d565b509392505050565b600082601f830112611f6c57611f6b611ce7565b5b8135611f7c848260208601611f15565b91505092915050565b60008060008060808587031215611f9f57611f9e61199b565b5b6000611fad87828801611be8565b9450506020611fbe87828801611be8565b9350506040611fcf87828801611b33565b925050606085013567ffffffffffffffff811115611ff057611fef6119a0565b5b611ffc87828801611f57565b91505092959194509250565b6000806040838503121561201f5761201e61199b565b5b600061202d85828601611be8565b925050602061203e85828601611be8565b9150509250929050565b7f4e487b7100000000000000000000000000000000000000000000000000000000600052602260045260246000fd5b6000600282049050600182168061208f57607f821691505b6020821081036120a2576120a1612048565b5b50919050565b60006060820190506120bd6000830186611ba7565b6120ca6020830185611cbd565b6120d76040830184611ba7565b949350505050565b7f43616c6c6572206973206e6f74206f776e6572206e6f7220617070726f766500600082015250565b6000612115601f83611a6b565b9150612120826120df565b602082019050919050565b6000602082019050818103600083015261214481612108565b9050919050565b7f4e487b7100000000000000000000000000000000000000000000000000000000600052601160045260246000fd5b600061218582611b12565b91507fffffffffffffffffffffffffffffffffffffffffffffffffffffffffffffffff82036121b7576121b661214b565b5b600182019050919050565b600081905092915050565b60006121d882611a60565b6121e281856121c2565b93506121f2818560208601611a7c565b80840191505092915050565b600061220a82856121cd565b915061221682846121cd565b91508190509392505050565b60008190508160005260206000209050919050565b60006020601f8301049050919050565b600082821b905092915050565b6000600883026122847fffffffffffffffffffffffffffffffffffffffffffffffffffffffffffffffff82612247565b61228e8683612247565b95508019841693508086168417925050509392505050565b6000819050919050565b60006122cb6122c66122c184611b12565b6122a6565b611b12565b9050919050565b6000819050919050565b6122e5836122b0565b6122f96122f1826122d2565b848454612254565b825550505050565b600090565b61230e612301565b6123198184846122dc565b505050565b5b8181101561233d57612332600082612306565b60018101905061231f565b5050565b601f8211156123825761235381612222565b61235c84612237565b8101602085101561236b578190505b61237f61237785612237565b83018261231e565b50505b505050565b600082821c905092915050565b60006123a560001984600802612387565b1980831691505092915050565b60006123be8383612394565b9150826002028217905092915050565b6123d782611a60565b67ffffffffffffffff8111156123f0576123ef611cf1565b5b6123fa8254612077565b612405828285612341565b600060209050601f8311600181146124385760008415612426578287015190505b61243085826123b2565b865550612498565b601f19841661244686612222565b60005b8281101561246e57848901518255600182019150602085019450602081019050612449565b8683101561248b5784890151612487601f891682612394565b8355505b6001600288020188555050505b505050505050565b600081519050919050565b600082825260208201905092915050565b60006124c7826124a0565b6124d181856124ab565b93506124e1818560208601611a7c565b6124ea81611aa6565b840191505092915050565b600060808201905061250a6000830187611ba7565b6125176020830186611ba7565b6125246040830185611cbd565b818103606083015261253681846124bc565b905095945050505050565b600081519050612550816119d1565b92915050565b60006020828403121561256c5761256b61199b565b5b600061257a84828501612541565b91505092915050565b60006040820190506125986000830185611ba7565b6125a56020830184611cbd565b9392505050565b7f4e487b7100000000000000000000000000000000000000000000000000000000600052601260045260246000fdfea26469706673582212202d2b7b4eddafbe18feafffb83ff541d4214c23575f9d5e549c8f7aa6968097be64736f6c63430008140033",
  "linkReferences": {},
  "deployedLinkReferences": {}
}