{
  "_format": "hh-sol-artifact-1",
  "contractName": "apartmentNFT",
  "sourceName": "contracts/apartmentNFT.sol",
  "abi": [
    {
      "inputs": [],
      "stateMutability": "nonpayable",
      "type": "constructor"
    },
    {
      "inputs": [
        {
          "internalType": "address",
          "name": "sender",
          "type": "address"
        },
        {
          "internalType": "uint256",
          "name": "tokenId",
          "type": "uint256"
        },
        {
          "internalType": "address",
          "name": "owner",
          "type": "address"
        }
      ],
      "name": "ERC721IncorrectOwner",
      "type": "error"
    },
    {
      "inputs": [
        {
          "internalType": "address",
          "name": "operator",
          "type": "address"
        },
        {
          "internalType": "uint256",
          "name": "tokenId",
          "type": "uint256"
        }
      ],
      "name": "ERC721InsufficientApproval",
      "type": "error"
    },
    {
      "inputs": [
        {
          "internalType": "address",
          "name": "approver",
          "type": "address"
        }
      ],
      "name": "ERC721InvalidApprover",
      "type": "error"
    },
    {
      "inputs": [
        {
          "internalType": "address",
          "name": "operator",
          "type": "address"
        }
      ],
      "name": "ERC721InvalidOperator",
      "type": "error"
    },
    {
      "inputs": [
        {
          "internalType": "address",
          "name": "owner",
          "type": "address"
        }
      ],
      "name": "ERC721InvalidOwner",
      "type": "error"
    },
    {
      "inputs": [
        {
          "internalType": "address",
          "name": "receiver",
          "type": "address"
        }
      ],
      "name": "ERC721InvalidReceiver",
      "type": "error"
    },
    {
      "inputs": [
        {
          "internalType": "address",
          "name": "sender",
          "type": "address"
        }
      ],
      "name": "ERC721InvalidSender",
      "type": "error"
    },
    {
      "inputs": [
        {
          "internalType": "uint256",
          "name": "tokenId",
          "type": "uint256"
        }
      ],
      "name": "ERC721NonexistentToken",
      "type": "error"
    },
    {
      "anonymous": false,
      "inputs": [
        {
          "indexed": true,
          "internalType": "address",
          "name": "owner",
          "type": "address"
        },
        {
          "indexed": true,
          "internalType": "address",
          "name": "approved",
          "type": "address"
        },
        {
          "indexed": true,
          "internalType": "uint256",
          "name": "tokenId",
          "type": "uint256"
        }
      ],
      "name": "Approval",
      "type": "event"
    },
    {
      "anonymous": false,
      "inputs": [
        {
          "indexed": true,
          "internalType": "address",
          "name": "owner",
          "type": "address"
        },
        {
          "indexed": true,
          "internalType": "address",
          "name": "operator",
          "type": "address"
        },
        {
          "indexed": false,
          "internalType": "bool",
          "name": "approved",
          "type": "bool"
        }
      ],
      "name": "ApprovalForAll",
      "type": "event"
    },
    {
      "anonymous": false,
      "inputs": [
        {
          "indexed": false,
          "internalType": "uint256",
          "name": "_fromTokenId",
          "type": "uint256"
        },
        {
          "indexed": false,
          "internalType": "uint256",
          "name": "_toTokenId",
          "type": "uint256"
        }
      ],
      "name": "BatchMetadataUpdate",
      "type": "event"
    },
    {
      "anonymous": false,
      "inputs": [
        {
          "indexed": false,
          "internalType": "uint256",
          "name": "_tokenId",
          "type": "uint256"
        }
      ],
      "name": "MetadataUpdate",
      "type": "event"
    },
    {
      "anonymous": false,
      "inputs": [
        {
          "indexed": true,
          "internalType": "address",
          "name": "from",
          "type": "address"
        },
        {
          "indexed": true,
          "internalType": "address",
          "name": "to",
          "type": "address"
        },
        {
          "indexed": true,
          "internalType": "uint256",
          "name": "tokenId",
          "type": "uint256"
        }
      ],
      "name": "Transfer",
      "type": "event"
    },
    {
      "inputs": [
        {
          "internalType": "address",
          "name": "to",
          "type": "address"
        },
        {
          "internalType": "uint256",
          "name": "tokenId",
          "type": "uint256"
        }
      ],
      "name": "approve",
      "outputs": [],
      "stateMutability": "nonpayable",
      "type": "function"
    },
    {
      "inputs": [
        {
          "internalType": "address",
          "name": "owner",
          "type": "address"
        }
      ],
      "name": "balanceOf",
      "outputs": [
        {
          "internalType": "uint256",
          "name": "",
          "type": "uint256"
        }
      ],
      "stateMutability": "view",
      "type": "function"
    },
    {
      "inputs": [
        {
          "internalType": "uint256",
          "name": "_nftTokenID",
          "type": "uint256"
        }
      ],
      "name": "burnNFT",
      "outputs": [],
      "stateMutability": "nonpayable",
      "type": "function"
    },
    {
      "inputs": [
        {
          "internalType": "uint256",
          "name": "tokenId",
          "type": "uint256"
        }
      ],
      "name": "getApproved",
      "outputs": [
        {
          "internalType": "address",
          "name": "",
          "type": "address"
        }
      ],
      "stateMutability": "view",
      "type": "function"
    },
    {
      "inputs": [
        {
          "internalType": "address",
          "name": "owner",
          "type": "address"
        },
        {
          "internalType": "address",
          "name": "operator",
          "type": "address"
        }
      ],
      "name": "isApprovedForAll",
      "outputs": [
        {
          "internalType": "bool",
          "name": "",
          "type": "bool"
        }
      ],
      "stateMutability": "view",
      "type": "function"
    },
    {
      "inputs": [
        {
          "internalType": "address",
          "name": "to",
          "type": "address"
        },
        {
          "internalType": "string",
          "name": "tokenURI",
          "type": "string"
        }
      ],
      "name": "mintApartmentNFT",
      "outputs": [
        {
          "internalType": "uint256",
          "name": "",
          "type": "uint256"
        }
      ],
      "stateMutability": "nonpayable",
      "type": "function"
    },
    {
      "inputs": [],
      "name": "name",
      "outputs": [
        {
          "internalType": "string",
          "name": "",
          "type": "string"
        }
      ],
      "stateMutability": "view",
      "type": "function"
    },
    {
      "inputs": [
        {
          "internalType": "uint256",
          "name": "tokenId",
          "type": "uint256"
        }
      ],
      "name": "ownerOf",
      "outputs": [
        {
          "internalType": "address",
          "name": "",
          "type": "address"
        }
      ],
      "stateMutability": "view",
      "type": "function"
    },
    {
      "inputs": [
        {
          "internalType": "address",
          "name": "from",
          "type": "address"
        },
        {
          "internalType": "address",
          "name": "to",
          "type": "address"
        },
        {
          "internalType": "uint256",
          "name": "tokenId",
          "type": "uint256"
        }
      ],
      "name": "safeTransferFrom",
      "outputs": [],
      "stateMutability": "nonpayable",
      "type": "function"
    },
    {
      "inputs": [
        {
          "internalType": "address",
          "name": "from",
          "type": "address"
        },
        {
          "internalType": "address",
          "name": "to",
          "type": "address"
        },
        {
          "internalType": "uint256",
          "name": "tokenId",
          "type": "uint256"
        },
        {
          "internalType": "bytes",
          "name": "data",
          "type": "bytes"
        }
      ],
      "name": "safeTransferFrom",
      "outputs": [],
      "stateMutability": "nonpayable",
      "type": "function"
    },
    {
      "inputs": [
        {
          "internalType": "address",
          "name": "operator",
          "type": "address"
        },
        {
          "internalType": "bool",
          "name": "approved",
          "type": "bool"
        }
      ],
      "name": "setApprovalForAll",
      "outputs": [],
      "stateMutability": "nonpayable",
      "type": "function"
    },
    {
      "inputs": [
        {
          "internalType": "bytes4",
          "name": "interfaceId",
          "type": "bytes4"
        }
      ],
      "name": "supportsInterface",
      "outputs": [
        {
          "internalType": "bool",
          "name": "",
          "type": "bool"
        }
      ],
      "stateMutability": "view",
      "type": "function"
    },
    {
      "inputs": [],
      "name": "symbol",
      "outputs": [
        {
          "internalType": "string",
          "name": "",
          "type": "string"
        }
      ],
      "stateMutability": "view",
      "type": "function"
    },
    {
      "inputs": [],
      "name": "tokenCounter",
      "outputs": [
        {
          "internalType": "uint256",
          "name": "",
          "type": "uint256"
        }
      ],
      "stateMutability": "view",
      "type": "function"
    },
    {
      "inputs": [
        {
          "internalType": "uint256",
          "name": "tokenId",
          "type": "uint256"
        }
      ],
      "name": "tokenURI",
      "outputs": [
        {
          "internalType": "string",
          "name": "",
          "type": "string"
        }
      ],
      "stateMutability": "view",
      "type": "function"
    },
    {
      "inputs": [
        {
          "internalType": "address",
          "name": "from",
          "type": "address"
        },
        {
          "internalType": "address",
          "name": "to",
          "type": "address"
        },
        {
          "internalType": "uint256",
          "name": "tokenId",
          "type": "uint256"
        }
      ],
      "name": "transferFrom",
      "outputs": [],
      "stateMutability": "nonpayable",
      "type": "function"
    }
  ],
  "bytecode": "0x60806040523480156200001157600080fd5b506040518060400160405280600c81526020017f41706172746d656e744e465400000000000000000000000000000000000000008152506040518060400160405280600381526020017f415054000000000000000000000000000000000000000000000000000000000081525081600090816200008f91906200032c565b508060019081620000a191906200032c565b505050600060078190555062000413565b600081519050919050565b7f4e487b7100000000000000000000000000000000000000000000000000000000600052604160045260246000fd5b7f4e487b7100000000000000000000000000000000000000000000000000000000600052602260045260246000fd5b600060028204905060018216806200013457607f821691505b6020821081036200014a5762000149620000ec565b5b50919050565b60008190508160005260206000209050919050565b60006020601f8301049050919050565b600082821b905092915050565b600060088302620001b47fffffffffffffffffffffffffffffffffffffffffffffffffffffffffffffffff8262000175565b620001c0868362000175565b95508019841693508086168417925050509392505050565b6000819050919050565b6000819050919050565b60006200020d620002076200020184620001d8565b620001e2565b620001d8565b9050919050565b6000819050919050565b6200022983620001ec565b62000241620002388262000214565b84845462000182565b825550505050565b600090565b6200025862000249565b620002658184846200021e565b505050565b5b818110156200028d57620002816000826200024e565b6001810190506200026b565b5050565b601f821115620002dc57620002a68162000150565b620002b18462000165565b81016020851015620002c1578190505b620002d9620002d08562000165565b8301826200026a565b50505b505050565b600082821c905092915050565b60006200030160001984600802620002e1565b1980831691505092915050565b60006200031c8383620002ee565b9150826002028217905092915050565b6200033782620000b2565b67ffffffffffffffff811115620003535762000352620000bd565b5b6200035f82546200011b565b6200036c82828562000291565b600060209050601f831160018114620003a457600084156200038f578287015190505b6200039b85826200030e565b8655506200040b565b601f198416620003b48662000150565b60005b82811015620003de57848901518255600182019150602085019450602081019050620003b7565b86831015620003fe5784890151620003fa601f891682620002ee565b8355505b6001600288020188555050505b505050505050565b6124e280620004236000396000f3fe608060405234801561001057600080fd5b50600436106101005760003560e01c806370a0823111610097578063b88d4fde11610066578063b88d4fde146102bd578063c87b56dd146102d9578063d082e38114610309578063e985e9c51461032757610100565b806370a082311461022357806373a68b8d1461025357806395d89b4114610283578063a22cb465146102a157610100565b806323b872dd116100d357806323b872dd1461019f5780632890e0d7146101bb57806342842e0e146101d75780636352211e146101f357610100565b806301ffc9a71461010557806306fdde0314610135578063081812fc14610153578063095ea7b314610183575b600080fd5b61011f600480360381019061011a919061193a565b610357565b60405161012c9190611982565b60405180910390f35b61013d6103b8565b60405161014a9190611a2d565b60405180910390f35b61016d60048036038101906101689190611a85565b61044a565b60405161017a9190611af3565b60405180910390f35b61019d60048036038101906101989190611b3a565b610466565b005b6101b960048036038101906101b49190611b7a565b61047c565b005b6101d560048036038101906101d09190611a85565b61057e565b005b6101f160048036038101906101ec9190611b7a565b61058a565b005b61020d60048036038101906102089190611a85565b6105aa565b60405161021a9190611af3565b60405180910390f35b61023d60048036038101906102389190611bcd565b6105bc565b60405161024a9190611c09565b60405180910390f35b61026d60048036038101906102689190611d59565b610676565b60405161027a9190611c09565b60405180910390f35b61028b6106b4565b6040516102989190611a2d565b60405180910390f35b6102bb60048036038101906102b69190611de1565b610746565b005b6102d760048036038101906102d29190611ec2565b61075c565b005b6102f360048036038101906102ee9190611a85565b610779565b6040516103009190611a2d565b60405180910390f35b61031161088c565b60405161031e9190611c09565b60405180910390f35b610341600480360381019061033c9190611f45565b610892565b60405161034e9190611982565b60405180910390f35b6000634906490660e01b7bffffffffffffffffffffffffffffffffffffffffffffffffffffffff1916827bffffffffffffffffffffffffffffffffffffffffffffffffffffffff191614806103b157506103b082610926565b5b9050919050565b6060600080546103c790611fb4565b80601f01602080910402602001604051908101604052809291908181526020018280546103f390611fb4565b80156104405780601f1061041557610100808354040283529160200191610440565b820191906000526020600020905b81548152906001019060200180831161042357829003601f168201915b5050505050905090565b600061045582610a08565b5061045f82610a90565b9050919050565b6104788282610473610acd565b610ad5565b5050565b600073ffffffffffffffffffffffffffffffffffffffff168273ffffffffffffffffffffffffffffffffffffffff16036104ee5760006040517f64a0ae920000000000000000000000000000000000000000000000000000000081526004016104e59190611af3565b60405180910390fd5b600061050283836104fd610acd565b610ae7565b90508373ffffffffffffffffffffffffffffffffffffffff168173ffffffffffffffffffffffffffffffffffffffff1614610578578382826040517f64283d7b00000000000000000000000000000000000000000000000000000000815260040161056f93929190611fe5565b60405180910390fd5b50505050565b61058781610d01565b50565b6105a58383836040518060200160405280600081525061075c565b505050565b60006105b582610a08565b9050919050565b60008073ffffffffffffffffffffffffffffffffffffffff168273ffffffffffffffffffffffffffffffffffffffff160361062f5760006040517f89c62b640000000000000000000000000000000000000000000000000000000081526004016106269190611af3565b60405180910390fd5b600360008373ffffffffffffffffffffffffffffffffffffffff1673ffffffffffffffffffffffffffffffffffffffff168152602001908152602001600020549050919050565b60008060075490506106888482610d87565b6106928184610da5565b600760008154809291906106a59061204b565b91905055508091505092915050565b6060600180546106c390611fb4565b80601f01602080910402602001604051908101604052809291908181526020018280546106ef90611fb4565b801561073c5780601f106107115761010080835404028352916020019161073c565b820191906000526020600020905b81548152906001019060200180831161071f57829003601f168201915b5050505050905090565b610758610751610acd565b8383610e01565b5050565b61076784848461047c565b61077384848484610f70565b50505050565b606061078482610a08565b5060006006600084815260200190815260200160002080546107a590611fb4565b80601f01602080910402602001604051908101604052809291908181526020018280546107d190611fb4565b801561081e5780601f106107f35761010080835404028352916020019161081e565b820191906000526020600020905b81548152906001019060200180831161080157829003601f168201915b50505050509050600061082f611127565b90506000815103610844578192505050610887565b6000825111156108795780826040516020016108619291906120cf565b60405160208183030381529060405292505050610887565b6108828461113e565b925050505b919050565b60075481565b6000600560008473ffffffffffffffffffffffffffffffffffffffff1673ffffffffffffffffffffffffffffffffffffffff16815260200190815260200160002060008373ffffffffffffffffffffffffffffffffffffffff1673ffffffffffffffffffffffffffffffffffffffff16815260200190815260200160002060009054906101000a900460ff16905092915050565b60007f80ac58cd000000000000000000000000000000000000000000000000000000007bffffffffffffffffffffffffffffffffffffffffffffffffffffffff1916827bffffffffffffffffffffffffffffffffffffffffffffffffffffffff191614806109f157507f5b5e139f000000000000000000000000000000000000000000000000000000007bffffffffffffffffffffffffffffffffffffffffffffffffffffffff1916827bffffffffffffffffffffffffffffffffffffffffffffffffffffffff1916145b80610a015750610a00826111a7565b5b9050919050565b600080610a1483611211565b9050600073ffffffffffffffffffffffffffffffffffffffff168173ffffffffffffffffffffffffffffffffffffffff1603610a8757826040517f7e273289000000000000000000000000000000000000000000000000000000008152600401610a7e9190611c09565b60405180910390fd5b80915050919050565b60006004600083815260200190815260200160002060009054906101000a900473ffffffffffffffffffffffffffffffffffffffff169050919050565b600033905090565b610ae2838383600161124e565b505050565b600080610af384611211565b9050600073ffffffffffffffffffffffffffffffffffffffff168373ffffffffffffffffffffffffffffffffffffffff1614610b3557610b34818486611413565b5b600073ffffffffffffffffffffffffffffffffffffffff168173ffffffffffffffffffffffffffffffffffffffff1614610bc657610b7760008560008061124e565b6001600360008373ffffffffffffffffffffffffffffffffffffffff1673ffffffffffffffffffffffffffffffffffffffff168152602001908152602001600020600082825403925050819055505b600073ffffffffffffffffffffffffffffffffffffffff168573ffffffffffffffffffffffffffffffffffffffff1614610c49576001600360008773ffffffffffffffffffffffffffffffffffffffff1673ffffffffffffffffffffffffffffffffffffffff168152602001908152602001600020600082825401925050819055505b846002600086815260200190815260200160002060006101000a81548173ffffffffffffffffffffffffffffffffffffffff021916908373ffffffffffffffffffffffffffffffffffffffff160217905550838573ffffffffffffffffffffffffffffffffffffffff168273ffffffffffffffffffffffffffffffffffffffff167fddf252ad1be2c89b69c2b068fc378daa952ba7f163c4a11628f55a4df523b3ef60405160405180910390a4809150509392505050565b6000610d106000836000610ae7565b9050600073ffffffffffffffffffffffffffffffffffffffff168173ffffffffffffffffffffffffffffffffffffffff1603610d8357816040517f7e273289000000000000000000000000000000000000000000000000000000008152600401610d7a9190611c09565b60405180910390fd5b5050565b610da18282604051806020016040528060008152506114d7565b5050565b80600660008481526020019081526020016000209081610dc5919061229f565b507ff8e1a15aba9398e019f0b49df1a4fde98ee17ae345cb5f6b5e2c27f5033e8ce782604051610df59190611c09565b60405180910390a15050565b600073ffffffffffffffffffffffffffffffffffffffff168273ffffffffffffffffffffffffffffffffffffffff1603610e7257816040517f5b08ba18000000000000000000000000000000000000000000000000000000008152600401610e699190611af3565b60405180910390fd5b80600560008573ffffffffffffffffffffffffffffffffffffffff1673ffffffffffffffffffffffffffffffffffffffff16815260200190815260200160002060008473ffffffffffffffffffffffffffffffffffffffff1673ffffffffffffffffffffffffffffffffffffffff16815260200190815260200160002060006101000a81548160ff0219169083151502179055508173ffffffffffffffffffffffffffffffffffffffff168373ffffffffffffffffffffffffffffffffffffffff167f17307eab39ab6107e8899845ad3d59bd9653f200f220920489ca2b5937696c3183604051610f639190611982565b60405180910390a3505050565b60008373ffffffffffffffffffffffffffffffffffffffff163b1115611121578273ffffffffffffffffffffffffffffffffffffffff1663150b7a02610fb4610acd565b8685856040518563ffffffff1660e01b8152600401610fd694939291906123c6565b6020604051808303816000875af192505050801561101257506040513d601f19601f8201168201806040525081019061100f9190612427565b60015b611096573d8060008114611042576040519150601f19603f3d011682016040523d82523d6000602084013e611047565b606091505b50600081510361108e57836040517f64a0ae920000000000000000000000000000000000000000000000000000000081526004016110859190611af3565b60405180910390fd5b805181602001fd5b63150b7a0260e01b7bffffffffffffffffffffffffffffffffffffffffffffffffffffffff1916817bffffffffffffffffffffffffffffffffffffffffffffffffffffffff19161461111f57836040517f64a0ae920000000000000000000000000000000000000000000000000000000081526004016111169190611af3565b60405180910390fd5b505b50505050565b606060405180602001604052806000815250905090565b606061114982610a08565b506000611154611127565b90506000815111611174576040518060200160405280600081525061119f565b8061117e846114f3565b60405160200161118f9291906120cf565b6040516020818303038152906040525b915050919050565b60007f01ffc9a7000000000000000000000000000000000000000000000000000000007bffffffffffffffffffffffffffffffffffffffffffffffffffffffff1916827bffffffffffffffffffffffffffffffffffffffffffffffffffffffff1916149050919050565b60006002600083815260200190815260200160002060009054906101000a900473ffffffffffffffffffffffffffffffffffffffff169050919050565b80806112875750600073ffffffffffffffffffffffffffffffffffffffff168273ffffffffffffffffffffffffffffffffffffffff1614155b156113bb57600061129784610a08565b9050600073ffffffffffffffffffffffffffffffffffffffff168373ffffffffffffffffffffffffffffffffffffffff161415801561130257508273ffffffffffffffffffffffffffffffffffffffff168173ffffffffffffffffffffffffffffffffffffffff1614155b801561131557506113138184610892565b155b1561135757826040517fa9fbf51f00000000000000000000000000000000000000000000000000000000815260040161134e9190611af3565b60405180910390fd5b81156113b957838573ffffffffffffffffffffffffffffffffffffffff168273ffffffffffffffffffffffffffffffffffffffff167f8c5be1e5ebec7d5bd14f71427d1e84f3dd0314c0f7b2291e5b200ac8c7c3b92560405160405180910390a45b505b836004600085815260200190815260200160002060006101000a81548173ffffffffffffffffffffffffffffffffffffffff021916908373ffffffffffffffffffffffffffffffffffffffff16021790555050505050565b61141e8383836115c1565b6114d257600073ffffffffffffffffffffffffffffffffffffffff168373ffffffffffffffffffffffffffffffffffffffff160361149357806040517f7e27328900000000000000000000000000000000000000000000000000000000815260040161148a9190611c09565b60405180910390fd5b81816040517f177e802f0000000000000000000000000000000000000000000000000000000081526004016114c9929190612454565b60405180910390fd5b505050565b6114e18383611682565b6114ee6000848484610f70565b505050565b6060600060016115028461177b565b01905060008167ffffffffffffffff81111561152157611520611c2e565b5b6040519080825280601f01601f1916602001820160405280156115535781602001600182028036833780820191505090505b509050600082602001820190505b6001156115b6578080600190039150507f3031323334353637383961626364656600000000000000000000000000000000600a86061a8153600a85816115aa576115a961247d565b5b04945060008503611561575b819350505050919050565b60008073ffffffffffffffffffffffffffffffffffffffff168373ffffffffffffffffffffffffffffffffffffffff161415801561167957508273ffffffffffffffffffffffffffffffffffffffff168473ffffffffffffffffffffffffffffffffffffffff16148061163a57506116398484610892565b5b8061167857508273ffffffffffffffffffffffffffffffffffffffff1661166083610a90565b73ffffffffffffffffffffffffffffffffffffffff16145b5b90509392505050565b600073ffffffffffffffffffffffffffffffffffffffff168273ffffffffffffffffffffffffffffffffffffffff16036116f45760006040517f64a0ae920000000000000000000000000000000000000000000000000000000081526004016116eb9190611af3565b60405180910390fd5b600061170283836000610ae7565b9050600073ffffffffffffffffffffffffffffffffffffffff168173ffffffffffffffffffffffffffffffffffffffff16146117765760006040517f73c6ac6e00000000000000000000000000000000000000000000000000000000815260040161176d9190611af3565b60405180910390fd5b505050565b600080600090507a184f03e93ff9f4daa797ed6e38ed64bf6a1f01000000000000000083106117d9577a184f03e93ff9f4daa797ed6e38ed64bf6a1f01000000000000000083816117cf576117ce61247d565b5b0492506040810190505b6d04ee2d6d415b85acef81000000008310611816576d04ee2d6d415b85acef8100000000838161180c5761180b61247d565b5b0492506020810190505b662386f26fc10000831061184557662386f26fc10000838161183b5761183a61247d565b5b0492506010810190505b6305f5e100831061186e576305f5e10083816118645761186361247d565b5b0492506008810190505b61271083106118935761271083816118895761188861247d565b5b0492506004810190505b606483106118b657606483816118ac576118ab61247d565b5b0492506002810190505b600a83106118c5576001810190505b80915050919050565b6000604051905090565b600080fd5b600080fd5b60007fffffffff0000000000000000000000000000000000000000000000000000000082169050919050565b611917816118e2565b811461192257600080fd5b50565b6000813590506119348161190e565b92915050565b6000602082840312156119505761194f6118d8565b5b600061195e84828501611925565b91505092915050565b60008115159050919050565b61197c81611967565b82525050565b60006020820190506119976000830184611973565b92915050565b600081519050919050565b600082825260208201905092915050565b60005b838110156119d75780820151818401526020810190506119bc565b60008484015250505050565b6000601f19601f8301169050919050565b60006119ff8261199d565b611a0981856119a8565b9350611a198185602086016119b9565b611a22816119e3565b840191505092915050565b60006020820190508181036000830152611a4781846119f4565b905092915050565b6000819050919050565b611a6281611a4f565b8114611a6d57600080fd5b50565b600081359050611a7f81611a59565b92915050565b600060208284031215611a9b57611a9a6118d8565b5b6000611aa984828501611a70565b91505092915050565b600073ffffffffffffffffffffffffffffffffffffffff82169050919050565b6000611add82611ab2565b9050919050565b611aed81611ad2565b82525050565b6000602082019050611b086000830184611ae4565b92915050565b611b1781611ad2565b8114611b2257600080fd5b50565b600081359050611b3481611b0e565b92915050565b60008060408385031215611b5157611b506118d8565b5b6000611b5f85828601611b25565b9250506020611b7085828601611a70565b9150509250929050565b600080600060608486031215611b9357611b926118d8565b5b6000611ba186828701611b25565b9350506020611bb286828701611b25565b9250506040611bc386828701611a70565b9150509250925092565b600060208284031215611be357611be26118d8565b5b6000611bf184828501611b25565b91505092915050565b611c0381611a4f565b82525050565b6000602082019050611c1e6000830184611bfa565b92915050565b600080fd5b600080fd5b7f4e487b7100000000000000000000000000000000000000000000000000000000600052604160045260246000fd5b611c66826119e3565b810181811067ffffffffffffffff82111715611c8557611c84611c2e565b5b80604052505050565b6000611c986118ce565b9050611ca48282611c5d565b919050565b600067ffffffffffffffff821115611cc457611cc3611c2e565b5b611ccd826119e3565b9050602081019050919050565b82818337600083830152505050565b6000611cfc611cf784611ca9565b611c8e565b905082815260208101848484011115611d1857611d17611c29565b5b611d23848285611cda565b509392505050565b600082601f830112611d4057611d3f611c24565b5b8135611d50848260208601611ce9565b91505092915050565b60008060408385031215611d7057611d6f6118d8565b5b6000611d7e85828601611b25565b925050602083013567ffffffffffffffff811115611d9f57611d9e6118dd565b5b611dab85828601611d2b565b9150509250929050565b611dbe81611967565b8114611dc957600080fd5b50565b600081359050611ddb81611db5565b92915050565b60008060408385031215611df857611df76118d8565b5b6000611e0685828601611b25565b9250506020611e1785828601611dcc565b9150509250929050565b600067ffffffffffffffff821115611e3c57611e3b611c2e565b5b611e45826119e3565b9050602081019050919050565b6000611e65611e6084611e21565b611c8e565b905082815260208101848484011115611e8157611e80611c29565b5b611e8c848285611cda565b509392505050565b600082601f830112611ea957611ea8611c24565b5b8135611eb9848260208601611e52565b91505092915050565b60008060008060808587031215611edc57611edb6118d8565b5b6000611eea87828801611b25565b9450506020611efb87828801611b25565b9350506040611f0c87828801611a70565b925050606085013567ffffffffffffffff811115611f2d57611f2c6118dd565b5b611f3987828801611e94565b91505092959194509250565b60008060408385031215611f5c57611f5b6118d8565b5b6000611f6a85828601611b25565b9250506020611f7b85828601611b25565b9150509250929050565b7f4e487b7100000000000000000000000000000000000000000000000000000000600052602260045260246000fd5b60006002820490506001821680611fcc57607f821691505b602082108103611fdf57611fde611f85565b5b50919050565b6000606082019050611ffa6000830186611ae4565b6120076020830185611bfa565b6120146040830184611ae4565b949350505050565b7f4e487b7100000000000000000000000000000000000000000000000000000000600052601160045260246000fd5b600061205682611a4f565b91507fffffffffffffffffffffffffffffffffffffffffffffffffffffffffffffffff82036120885761208761201c565b5b600182019050919050565b600081905092915050565b60006120a98261199d565b6120b38185612093565b93506120c38185602086016119b9565b80840191505092915050565b60006120db828561209e565b91506120e7828461209e565b91508190509392505050565b60008190508160005260206000209050919050565b60006020601f8301049050919050565b600082821b905092915050565b6000600883026121557fffffffffffffffffffffffffffffffffffffffffffffffffffffffffffffffff82612118565b61215f8683612118565b95508019841693508086168417925050509392505050565b6000819050919050565b600061219c61219761219284611a4f565b612177565b611a4f565b9050919050565b6000819050919050565b6121b683612181565b6121ca6121c2826121a3565b848454612125565b825550505050565b600090565b6121df6121d2565b6121ea8184846121ad565b505050565b5b8181101561220e576122036000826121d7565b6001810190506121f0565b5050565b601f82111561225357612224816120f3565b61222d84612108565b8101602085101561223c578190505b61225061224885612108565b8301826121ef565b50505b505050565b600082821c905092915050565b600061227660001984600802612258565b1980831691505092915050565b600061228f8383612265565b9150826002028217905092915050565b6122a88261199d565b67ffffffffffffffff8111156122c1576122c0611c2e565b5b6122cb8254611fb4565b6122d6828285612212565b600060209050601f83116001811461230957600084156122f7578287015190505b6123018582612283565b865550612369565b601f198416612317866120f3565b60005b8281101561233f5784890151825560018201915060208501945060208101905061231a565b8683101561235c5784890151612358601f891682612265565b8355505b6001600288020188555050505b505050505050565b600081519050919050565b600082825260208201905092915050565b600061239882612371565b6123a2818561237c565b93506123b28185602086016119b9565b6123bb816119e3565b840191505092915050565b60006080820190506123db6000830187611ae4565b6123e86020830186611ae4565b6123f56040830185611bfa565b8181036060830152612407818461238d565b905095945050505050565b6000815190506124218161190e565b92915050565b60006020828403121561243d5761243c6118d8565b5b600061244b84828501612412565b91505092915050565b60006040820190506124696000830185611ae4565b6124766020830184611bfa565b9392505050565b7f4e487b7100000000000000000000000000000000000000000000000000000000600052601260045260246000fdfea2646970667358221220982e77d006874cc1ab96e09f978807ca8c9a3fc4633a6552e38df93d44555b9364736f6c63430008140033",
  "linkReferences": {},
  "deployedLinkReferences": {}
}