{
  "_format": "hh-sol-artifact-1",
  "contractName": "apartmentNFT",
  "sourceName": "contracts/apartmentNFT.sol",
  "abi": [
    {
      "inputs": [],
      "stateMutability": "nonpayable",
      "type": "constructor"
    },
    {
      "inputs": [
        {
          "internalType": "address",
          "name": "sender",
          "type": "address"
        },
        {
          "internalType": "uint256",
          "name": "tokenId",
          "type": "uint256"
        },
        {
          "internalType": "address",
          "name": "owner",
          "type": "address"
        }
      ],
      "name": "ERC721IncorrectOwner",
      "type": "error"
    },
    {
      "inputs": [
        {
          "internalType": "address",
          "name": "operator",
          "type": "address"
        },
        {
          "internalType": "uint256",
          "name": "tokenId",
          "type": "uint256"
        }
      ],
      "name": "ERC721InsufficientApproval",
      "type": "error"
    },
    {
      "inputs": [
        {
          "internalType": "address",
          "name": "approver",
          "type": "address"
        }
      ],
      "name": "ERC721InvalidApprover",
      "type": "error"
    },
    {
      "inputs": [
        {
          "internalType": "address",
          "name": "operator",
          "type": "address"
        }
      ],
      "name": "ERC721InvalidOperator",
      "type": "error"
    },
    {
      "inputs": [
        {
          "internalType": "address",
          "name": "owner",
          "type": "address"
        }
      ],
      "name": "ERC721InvalidOwner",
      "type": "error"
    },
    {
      "inputs": [
        {
          "internalType": "address",
          "name": "receiver",
          "type": "address"
        }
      ],
      "name": "ERC721InvalidReceiver",
      "type": "error"
    },
    {
      "inputs": [
        {
          "internalType": "address",
          "name": "sender",
          "type": "address"
        }
      ],
      "name": "ERC721InvalidSender",
      "type": "error"
    },
    {
      "inputs": [
        {
          "internalType": "uint256",
          "name": "tokenId",
          "type": "uint256"
        }
      ],
      "name": "ERC721NonexistentToken",
      "type": "error"
    },
    {
      "anonymous": false,
      "inputs": [
        {
          "indexed": true,
          "internalType": "address",
          "name": "owner",
          "type": "address"
        },
        {
          "indexed": true,
          "internalType": "address",
          "name": "approved",
          "type": "address"
        },
        {
          "indexed": true,
          "internalType": "uint256",
          "name": "tokenId",
          "type": "uint256"
        }
      ],
      "name": "Approval",
      "type": "event"
    },
    {
      "anonymous": false,
      "inputs": [
        {
          "indexed": true,
          "internalType": "address",
          "name": "owner",
          "type": "address"
        },
        {
          "indexed": true,
          "internalType": "address",
          "name": "operator",
          "type": "address"
        },
        {
          "indexed": false,
          "internalType": "bool",
          "name": "approved",
          "type": "bool"
        }
      ],
      "name": "ApprovalForAll",
      "type": "event"
    },
    {
      "anonymous": false,
      "inputs": [
        {
          "indexed": false,
          "internalType": "uint256",
          "name": "_fromTokenId",
          "type": "uint256"
        },
        {
          "indexed": false,
          "internalType": "uint256",
          "name": "_toTokenId",
          "type": "uint256"
        }
      ],
      "name": "BatchMetadataUpdate",
      "type": "event"
    },
    {
      "anonymous": false,
      "inputs": [
        {
          "indexed": false,
          "internalType": "uint256",
          "name": "_tokenId",
          "type": "uint256"
        }
      ],
      "name": "MetadataUpdate",
      "type": "event"
    },
    {
      "anonymous": false,
      "inputs": [
        {
          "indexed": true,
          "internalType": "address",
          "name": "from",
          "type": "address"
        },
        {
          "indexed": true,
          "internalType": "address",
          "name": "to",
          "type": "address"
        },
        {
          "indexed": true,
          "internalType": "uint256",
          "name": "tokenId",
          "type": "uint256"
        }
      ],
      "name": "Transfer",
      "type": "event"
    },
    {
      "inputs": [
        {
          "internalType": "address",
          "name": "to",
          "type": "address"
        },
        {
          "internalType": "uint256",
          "name": "tokenId",
          "type": "uint256"
        }
      ],
      "name": "approve",
      "outputs": [],
      "stateMutability": "nonpayable",
      "type": "function"
    },
    {
      "inputs": [
        {
          "internalType": "address",
          "name": "owner",
          "type": "address"
        }
      ],
      "name": "balanceOf",
      "outputs": [
        {
          "internalType": "uint256",
          "name": "",
          "type": "uint256"
        }
      ],
      "stateMutability": "view",
      "type": "function"
    },
    {
      "inputs": [
        {
          "internalType": "uint256",
          "name": "_nftTokenID",
          "type": "uint256"
        }
      ],
      "name": "burnNFT",
      "outputs": [],
      "stateMutability": "nonpayable",
      "type": "function"
    },
    {
      "inputs": [
        {
          "internalType": "uint256",
          "name": "tokenId",
          "type": "uint256"
        }
      ],
      "name": "getApproved",
      "outputs": [
        {
          "internalType": "address",
          "name": "",
          "type": "address"
        }
      ],
      "stateMutability": "view",
      "type": "function"
    },
    {
      "inputs": [
        {
          "internalType": "uint256",
          "name": "_nftTokenID",
          "type": "uint256"
        }
      ],
      "name": "getNftOwner",
      "outputs": [
        {
          "internalType": "address",
          "name": "",
          "type": "address"
        }
      ],
      "stateMutability": "view",
      "type": "function"
    },
    {
      "inputs": [
        {
          "internalType": "address",
          "name": "owner",
          "type": "address"
        },
        {
          "internalType": "address",
          "name": "operator",
          "type": "address"
        }
      ],
      "name": "isApprovedForAll",
      "outputs": [
        {
          "internalType": "bool",
          "name": "",
          "type": "bool"
        }
      ],
      "stateMutability": "view",
      "type": "function"
    },
    {
      "inputs": [
        {
          "internalType": "address",
          "name": "to",
          "type": "address"
        },
        {
          "internalType": "string",
          "name": "tokenURI",
          "type": "string"
        }
      ],
      "name": "mintApartmentNFT",
      "outputs": [
        {
          "internalType": "uint256",
          "name": "",
          "type": "uint256"
        }
      ],
      "stateMutability": "nonpayable",
      "type": "function"
    },
    {
      "inputs": [],
      "name": "name",
      "outputs": [
        {
          "internalType": "string",
          "name": "",
          "type": "string"
        }
      ],
      "stateMutability": "view",
      "type": "function"
    },
    {
      "inputs": [
        {
          "internalType": "uint256",
          "name": "tokenId",
          "type": "uint256"
        }
      ],
      "name": "ownerOf",
      "outputs": [
        {
          "internalType": "address",
          "name": "",
          "type": "address"
        }
      ],
      "stateMutability": "view",
      "type": "function"
    },
    {
      "inputs": [
        {
          "internalType": "address",
          "name": "from",
          "type": "address"
        },
        {
          "internalType": "address",
          "name": "to",
          "type": "address"
        },
        {
          "internalType": "uint256",
          "name": "tokenId",
          "type": "uint256"
        }
      ],
      "name": "safeTransferFrom",
      "outputs": [],
      "stateMutability": "nonpayable",
      "type": "function"
    },
    {
      "inputs": [
        {
          "internalType": "address",
          "name": "from",
          "type": "address"
        },
        {
          "internalType": "address",
          "name": "to",
          "type": "address"
        },
        {
          "internalType": "uint256",
          "name": "tokenId",
          "type": "uint256"
        },
        {
          "internalType": "bytes",
          "name": "data",
          "type": "bytes"
        }
      ],
      "name": "safeTransferFrom",
      "outputs": [],
      "stateMutability": "nonpayable",
      "type": "function"
    },
    {
      "inputs": [
        {
          "internalType": "address",
          "name": "operator",
          "type": "address"
        },
        {
          "internalType": "bool",
          "name": "approved",
          "type": "bool"
        }
      ],
      "name": "setApprovalForAll",
      "outputs": [],
      "stateMutability": "nonpayable",
      "type": "function"
    },
    {
      "inputs": [
        {
          "internalType": "bytes4",
          "name": "interfaceId",
          "type": "bytes4"
        }
      ],
      "name": "supportsInterface",
      "outputs": [
        {
          "internalType": "bool",
          "name": "",
          "type": "bool"
        }
      ],
      "stateMutability": "view",
      "type": "function"
    },
    {
      "inputs": [],
      "name": "symbol",
      "outputs": [
        {
          "internalType": "string",
          "name": "",
          "type": "string"
        }
      ],
      "stateMutability": "view",
      "type": "function"
    },
    {
      "inputs": [],
      "name": "tokenCounter",
      "outputs": [
        {
          "internalType": "uint256",
          "name": "",
          "type": "uint256"
        }
      ],
      "stateMutability": "view",
      "type": "function"
    },
    {
      "inputs": [
        {
          "internalType": "uint256",
          "name": "tokenId",
          "type": "uint256"
        }
      ],
      "name": "tokenURI",
      "outputs": [
        {
          "internalType": "string",
          "name": "",
          "type": "string"
        }
      ],
      "stateMutability": "view",
      "type": "function"
    },
    {
      "inputs": [
        {
          "internalType": "address",
          "name": "from",
          "type": "address"
        },
        {
          "internalType": "address",
          "name": "to",
          "type": "address"
        },
        {
          "internalType": "uint256",
          "name": "tokenId",
          "type": "uint256"
        }
      ],
      "name": "transferFrom",
      "outputs": [],
      "stateMutability": "nonpayable",
      "type": "function"
    },
    {
      "inputs": [
        {
          "internalType": "uint256",
          "name": "_nftTokenID",
          "type": "uint256"
        }
      ],
      "name": "transferNftProperty",
      "outputs": [],
      "stateMutability": "nonpayable",
      "type": "function"
    }
  ],
  "bytecode": "0x60806040523480156200001157600080fd5b506040518060400160405280600c81526020017f41706172746d656e744e465400000000000000000000000000000000000000008152506040518060400160405280600381526020017f415054000000000000000000000000000000000000000000000000000000000081525081600090816200008f91906200032c565b508060019081620000a191906200032c565b505050600060078190555062000413565b600081519050919050565b7f4e487b7100000000000000000000000000000000000000000000000000000000600052604160045260246000fd5b7f4e487b7100000000000000000000000000000000000000000000000000000000600052602260045260246000fd5b600060028204905060018216806200013457607f821691505b6020821081036200014a5762000149620000ec565b5b50919050565b60008190508160005260206000209050919050565b60006020601f8301049050919050565b600082821b905092915050565b600060088302620001b47fffffffffffffffffffffffffffffffffffffffffffffffffffffffffffffffff8262000175565b620001c0868362000175565b95508019841693508086168417925050509392505050565b6000819050919050565b6000819050919050565b60006200020d620002076200020184620001d8565b620001e2565b620001d8565b9050919050565b6000819050919050565b6200022983620001ec565b62000241620002388262000214565b84845462000182565b825550505050565b600090565b6200025862000249565b620002658184846200021e565b505050565b5b818110156200028d57620002816000826200024e565b6001810190506200026b565b5050565b601f821115620002dc57620002a68162000150565b620002b18462000165565b81016020851015620002c1578190505b620002d9620002d08562000165565b8301826200026a565b50505b505050565b600082821c905092915050565b60006200030160001984600802620002e1565b1980831691505092915050565b60006200031c8383620002ee565b9150826002028217905092915050565b6200033782620000b2565b67ffffffffffffffff811115620003535762000352620000bd565b5b6200035f82546200011b565b6200036c82828562000291565b600060209050601f831160018114620003a457600084156200038f578287015190505b6200039b85826200030e565b8655506200040b565b601f198416620003b48662000150565b60005b82811015620003de57848901518255600182019150602085019450602081019050620003b7565b86831015620003fe5784890151620003fa601f891682620002ee565b8355505b6001600288020188555050505b505050505050565b61256c80620004236000396000f3fe608060405234801561001057600080fd5b50600436106101165760003560e01c806370a08231116100a2578063a22cb46511610071578063a22cb46514610303578063b88d4fde1461031f578063c87b56dd1461033b578063d082e3811461036b578063e985e9c51461038957610116565b806370a082311461025557806373a68b8d146102855780638ad2d5a7146102b557806395d89b41146102e557610116565b806323b872dd116100e957806323b872dd146101b55780632890e0d7146101d1578063390aad4e146101ed57806342842e0e146102095780636352211e1461022557610116565b806301ffc9a71461011b57806306fdde031461014b578063081812fc14610169578063095ea7b314610199575b600080fd5b610135600480360381019061013091906119c4565b6103b9565b6040516101429190611a0c565b60405180910390f35b61015361041a565b6040516101609190611ab7565b60405180910390f35b610183600480360381019061017e9190611b0f565b6104ac565b6040516101909190611b7d565b60405180910390f35b6101b360048036038101906101ae9190611bc4565b6104c8565b005b6101cf60048036038101906101ca9190611c04565b6104de565b005b6101eb60048036038101906101e69190611b0f565b6105e0565b005b61020760048036038101906102029190611b0f565b6105ec565b005b610223600480360381019061021e9190611c04565b610602565b005b61023f600480360381019061023a9190611b0f565b610622565b60405161024c9190611b7d565b60405180910390f35b61026f600480360381019061026a9190611c57565b610634565b60405161027c9190611c93565b60405180910390f35b61029f600480360381019061029a9190611de3565b6106ee565b6040516102ac9190611c93565b60405180910390f35b6102cf60048036038101906102ca9190611b0f565b61072c565b6040516102dc9190611b7d565b60405180910390f35b6102ed61073e565b6040516102fa9190611ab7565b60405180910390f35b61031d60048036038101906103189190611e6b565b6107d0565b005b61033960048036038101906103349190611f4c565b6107e6565b005b61035560048036038101906103509190611b0f565b610803565b6040516103629190611ab7565b60405180910390f35b610373610916565b6040516103809190611c93565b60405180910390f35b6103a3600480360381019061039e9190611fcf565b61091c565b6040516103b09190611a0c565b60405180910390f35b6000634906490660e01b7bffffffffffffffffffffffffffffffffffffffffffffffffffffffff1916827bffffffffffffffffffffffffffffffffffffffffffffffffffffffff191614806104135750610412826109b0565b5b9050919050565b6060600080546104299061203e565b80601f01602080910402602001604051908101604052809291908181526020018280546104559061203e565b80156104a25780601f10610477576101008083540402835291602001916104a2565b820191906000526020600020905b81548152906001019060200180831161048557829003601f168201915b5050505050905090565b60006104b782610a92565b506104c182610b1a565b9050919050565b6104da82826104d5610b57565b610b5f565b5050565b600073ffffffffffffffffffffffffffffffffffffffff168273ffffffffffffffffffffffffffffffffffffffff16036105505760006040517f64a0ae920000000000000000000000000000000000000000000000000000000081526004016105479190611b7d565b60405180910390fd5b6000610564838361055f610b57565b610b71565b90508373ffffffffffffffffffffffffffffffffffffffff168173ffffffffffffffffffffffffffffffffffffffff16146105da578382826040517f64283d7b0000000000000000000000000000000000000000000000000000000081526004016105d19392919061206f565b60405180910390fd5b50505050565b6105e981610d8b565b50565b6105ff6105f882610622565b3383610602565b50565b61061d838383604051806020016040528060008152506107e6565b505050565b600061062d82610a92565b9050919050565b60008073ffffffffffffffffffffffffffffffffffffffff168273ffffffffffffffffffffffffffffffffffffffff16036106a75760006040517f89c62b6400000000000000000000000000000000000000000000000000000000815260040161069e9190611b7d565b60405180910390fd5b600360008373ffffffffffffffffffffffffffffffffffffffff1673ffffffffffffffffffffffffffffffffffffffff168152602001908152602001600020549050919050565b60008060075490506107008482610e11565b61070a8184610e2f565b6007600081548092919061071d906120d5565b91905055508091505092915050565b600061073782610622565b9050919050565b60606001805461074d9061203e565b80601f01602080910402602001604051908101604052809291908181526020018280546107799061203e565b80156107c65780601f1061079b576101008083540402835291602001916107c6565b820191906000526020600020905b8154815290600101906020018083116107a957829003601f168201915b5050505050905090565b6107e26107db610b57565b8383610e8b565b5050565b6107f18484846104de565b6107fd84848484610ffa565b50505050565b606061080e82610a92565b50600060066000848152602001908152602001600020805461082f9061203e565b80601f016020809104026020016040519081016040528092919081815260200182805461085b9061203e565b80156108a85780601f1061087d576101008083540402835291602001916108a8565b820191906000526020600020905b81548152906001019060200180831161088b57829003601f168201915b5050505050905060006108b96111b1565b905060008151036108ce578192505050610911565b6000825111156109035780826040516020016108eb929190612159565b60405160208183030381529060405292505050610911565b61090c846111c8565b925050505b919050565b60075481565b6000600560008473ffffffffffffffffffffffffffffffffffffffff1673ffffffffffffffffffffffffffffffffffffffff16815260200190815260200160002060008373ffffffffffffffffffffffffffffffffffffffff1673ffffffffffffffffffffffffffffffffffffffff16815260200190815260200160002060009054906101000a900460ff16905092915050565b60007f80ac58cd000000000000000000000000000000000000000000000000000000007bffffffffffffffffffffffffffffffffffffffffffffffffffffffff1916827bffffffffffffffffffffffffffffffffffffffffffffffffffffffff19161480610a7b57507f5b5e139f000000000000000000000000000000000000000000000000000000007bffffffffffffffffffffffffffffffffffffffffffffffffffffffff1916827bffffffffffffffffffffffffffffffffffffffffffffffffffffffff1916145b80610a8b5750610a8a82611231565b5b9050919050565b600080610a9e8361129b565b9050600073ffffffffffffffffffffffffffffffffffffffff168173ffffffffffffffffffffffffffffffffffffffff1603610b1157826040517f7e273289000000000000000000000000000000000000000000000000000000008152600401610b089190611c93565b60405180910390fd5b80915050919050565b60006004600083815260200190815260200160002060009054906101000a900473ffffffffffffffffffffffffffffffffffffffff169050919050565b600033905090565b610b6c83838360016112d8565b505050565b600080610b7d8461129b565b9050600073ffffffffffffffffffffffffffffffffffffffff168373ffffffffffffffffffffffffffffffffffffffff1614610bbf57610bbe81848661149d565b5b600073ffffffffffffffffffffffffffffffffffffffff168173ffffffffffffffffffffffffffffffffffffffff1614610c5057610c016000856000806112d8565b6001600360008373ffffffffffffffffffffffffffffffffffffffff1673ffffffffffffffffffffffffffffffffffffffff168152602001908152602001600020600082825403925050819055505b600073ffffffffffffffffffffffffffffffffffffffff168573ffffffffffffffffffffffffffffffffffffffff1614610cd3576001600360008773ffffffffffffffffffffffffffffffffffffffff1673ffffffffffffffffffffffffffffffffffffffff168152602001908152602001600020600082825401925050819055505b846002600086815260200190815260200160002060006101000a81548173ffffffffffffffffffffffffffffffffffffffff021916908373ffffffffffffffffffffffffffffffffffffffff160217905550838573ffffffffffffffffffffffffffffffffffffffff168273ffffffffffffffffffffffffffffffffffffffff167fddf252ad1be2c89b69c2b068fc378daa952ba7f163c4a11628f55a4df523b3ef60405160405180910390a4809150509392505050565b6000610d9a6000836000610b71565b9050600073ffffffffffffffffffffffffffffffffffffffff168173ffffffffffffffffffffffffffffffffffffffff1603610e0d57816040517f7e273289000000000000000000000000000000000000000000000000000000008152600401610e049190611c93565b60405180910390fd5b5050565b610e2b828260405180602001604052806000815250611561565b5050565b80600660008481526020019081526020016000209081610e4f9190612329565b507ff8e1a15aba9398e019f0b49df1a4fde98ee17ae345cb5f6b5e2c27f5033e8ce782604051610e7f9190611c93565b60405180910390a15050565b600073ffffffffffffffffffffffffffffffffffffffff168273ffffffffffffffffffffffffffffffffffffffff1603610efc57816040517f5b08ba18000000000000000000000000000000000000000000000000000000008152600401610ef39190611b7d565b60405180910390fd5b80600560008573ffffffffffffffffffffffffffffffffffffffff1673ffffffffffffffffffffffffffffffffffffffff16815260200190815260200160002060008473ffffffffffffffffffffffffffffffffffffffff1673ffffffffffffffffffffffffffffffffffffffff16815260200190815260200160002060006101000a81548160ff0219169083151502179055508173ffffffffffffffffffffffffffffffffffffffff168373ffffffffffffffffffffffffffffffffffffffff167f17307eab39ab6107e8899845ad3d59bd9653f200f220920489ca2b5937696c3183604051610fed9190611a0c565b60405180910390a3505050565b60008373ffffffffffffffffffffffffffffffffffffffff163b11156111ab578273ffffffffffffffffffffffffffffffffffffffff1663150b7a0261103e610b57565b8685856040518563ffffffff1660e01b81526004016110609493929190612450565b6020604051808303816000875af192505050801561109c57506040513d601f19601f8201168201806040525081019061109991906124b1565b60015b611120573d80600081146110cc576040519150601f19603f3d011682016040523d82523d6000602084013e6110d1565b606091505b50600081510361111857836040517f64a0ae9200000000000000000000000000000000000000000000000000000000815260040161110f9190611b7d565b60405180910390fd5b805181602001fd5b63150b7a0260e01b7bffffffffffffffffffffffffffffffffffffffffffffffffffffffff1916817bffffffffffffffffffffffffffffffffffffffffffffffffffffffff1916146111a957836040517f64a0ae920000000000000000000000000000000000000000000000000000000081526004016111a09190611b7d565b60405180910390fd5b505b50505050565b606060405180602001604052806000815250905090565b60606111d382610a92565b5060006111de6111b1565b905060008151116111fe5760405180602001604052806000815250611229565b806112088461157d565b604051602001611219929190612159565b6040516020818303038152906040525b915050919050565b60007f01ffc9a7000000000000000000000000000000000000000000000000000000007bffffffffffffffffffffffffffffffffffffffffffffffffffffffff1916827bffffffffffffffffffffffffffffffffffffffffffffffffffffffff1916149050919050565b60006002600083815260200190815260200160002060009054906101000a900473ffffffffffffffffffffffffffffffffffffffff169050919050565b80806113115750600073ffffffffffffffffffffffffffffffffffffffff168273ffffffffffffffffffffffffffffffffffffffff1614155b1561144557600061132184610a92565b9050600073ffffffffffffffffffffffffffffffffffffffff168373ffffffffffffffffffffffffffffffffffffffff161415801561138c57508273ffffffffffffffffffffffffffffffffffffffff168173ffffffffffffffffffffffffffffffffffffffff1614155b801561139f575061139d818461091c565b155b156113e157826040517fa9fbf51f0000000000000000000000000000000000000000000000000000000081526004016113d89190611b7d565b60405180910390fd5b811561144357838573ffffffffffffffffffffffffffffffffffffffff168273ffffffffffffffffffffffffffffffffffffffff167f8c5be1e5ebec7d5bd14f71427d1e84f3dd0314c0f7b2291e5b200ac8c7c3b92560405160405180910390a45b505b836004600085815260200190815260200160002060006101000a81548173ffffffffffffffffffffffffffffffffffffffff021916908373ffffffffffffffffffffffffffffffffffffffff16021790555050505050565b6114a883838361164b565b61155c57600073ffffffffffffffffffffffffffffffffffffffff168373ffffffffffffffffffffffffffffffffffffffff160361151d57806040517f7e2732890000000000000000000000000000000000000000000000000000000081526004016115149190611c93565b60405180910390fd5b81816040517f177e802f0000000000000000000000000000000000000000000000000000000081526004016115539291906124de565b60405180910390fd5b505050565b61156b838361170c565b6115786000848484610ffa565b505050565b60606000600161158c84611805565b01905060008167ffffffffffffffff8111156115ab576115aa611cb8565b5b6040519080825280601f01601f1916602001820160405280156115dd5781602001600182028036833780820191505090505b509050600082602001820190505b600115611640578080600190039150507f3031323334353637383961626364656600000000000000000000000000000000600a86061a8153600a858161163457611633612507565b5b049450600085036115eb575b819350505050919050565b60008073ffffffffffffffffffffffffffffffffffffffff168373ffffffffffffffffffffffffffffffffffffffff161415801561170357508273ffffffffffffffffffffffffffffffffffffffff168473ffffffffffffffffffffffffffffffffffffffff1614806116c457506116c3848461091c565b5b8061170257508273ffffffffffffffffffffffffffffffffffffffff166116ea83610b1a565b73ffffffffffffffffffffffffffffffffffffffff16145b5b90509392505050565b600073ffffffffffffffffffffffffffffffffffffffff168273ffffffffffffffffffffffffffffffffffffffff160361177e5760006040517f64a0ae920000000000000000000000000000000000000000000000000000000081526004016117759190611b7d565b60405180910390fd5b600061178c83836000610b71565b9050600073ffffffffffffffffffffffffffffffffffffffff168173ffffffffffffffffffffffffffffffffffffffff16146118005760006040517f73c6ac6e0000000000000000000000000000000000000000000000000000000081526004016117f79190611b7d565b60405180910390fd5b505050565b600080600090507a184f03e93ff9f4daa797ed6e38ed64bf6a1f0100000000000000008310611863577a184f03e93ff9f4daa797ed6e38ed64bf6a1f010000000000000000838161185957611858612507565b5b0492506040810190505b6d04ee2d6d415b85acef810000000083106118a0576d04ee2d6d415b85acef8100000000838161189657611895612507565b5b0492506020810190505b662386f26fc1000083106118cf57662386f26fc1000083816118c5576118c4612507565b5b0492506010810190505b6305f5e10083106118f8576305f5e10083816118ee576118ed612507565b5b0492506008810190505b612710831061191d57612710838161191357611912612507565b5b0492506004810190505b60648310611940576064838161193657611935612507565b5b0492506002810190505b600a831061194f576001810190505b80915050919050565b6000604051905090565b600080fd5b600080fd5b60007fffffffff0000000000000000000000000000000000000000000000000000000082169050919050565b6119a18161196c565b81146119ac57600080fd5b50565b6000813590506119be81611998565b92915050565b6000602082840312156119da576119d9611962565b5b60006119e8848285016119af565b91505092915050565b60008115159050919050565b611a06816119f1565b82525050565b6000602082019050611a2160008301846119fd565b92915050565b600081519050919050565b600082825260208201905092915050565b60005b83811015611a61578082015181840152602081019050611a46565b60008484015250505050565b6000601f19601f8301169050919050565b6000611a8982611a27565b611a938185611a32565b9350611aa3818560208601611a43565b611aac81611a6d565b840191505092915050565b60006020820190508181036000830152611ad18184611a7e565b905092915050565b6000819050919050565b611aec81611ad9565b8114611af757600080fd5b50565b600081359050611b0981611ae3565b92915050565b600060208284031215611b2557611b24611962565b5b6000611b3384828501611afa565b91505092915050565b600073ffffffffffffffffffffffffffffffffffffffff82169050919050565b6000611b6782611b3c565b9050919050565b611b7781611b5c565b82525050565b6000602082019050611b926000830184611b6e565b92915050565b611ba181611b5c565b8114611bac57600080fd5b50565b600081359050611bbe81611b98565b92915050565b60008060408385031215611bdb57611bda611962565b5b6000611be985828601611baf565b9250506020611bfa85828601611afa565b9150509250929050565b600080600060608486031215611c1d57611c1c611962565b5b6000611c2b86828701611baf565b9350506020611c3c86828701611baf565b9250506040611c4d86828701611afa565b9150509250925092565b600060208284031215611c6d57611c6c611962565b5b6000611c7b84828501611baf565b91505092915050565b611c8d81611ad9565b82525050565b6000602082019050611ca86000830184611c84565b92915050565b600080fd5b600080fd5b7f4e487b7100000000000000000000000000000000000000000000000000000000600052604160045260246000fd5b611cf082611a6d565b810181811067ffffffffffffffff82111715611d0f57611d0e611cb8565b5b80604052505050565b6000611d22611958565b9050611d2e8282611ce7565b919050565b600067ffffffffffffffff821115611d4e57611d4d611cb8565b5b611d5782611a6d565b9050602081019050919050565b82818337600083830152505050565b6000611d86611d8184611d33565b611d18565b905082815260208101848484011115611da257611da1611cb3565b5b611dad848285611d64565b509392505050565b600082601f830112611dca57611dc9611cae565b5b8135611dda848260208601611d73565b91505092915050565b60008060408385031215611dfa57611df9611962565b5b6000611e0885828601611baf565b925050602083013567ffffffffffffffff811115611e2957611e28611967565b5b611e3585828601611db5565b9150509250929050565b611e48816119f1565b8114611e5357600080fd5b50565b600081359050611e6581611e3f565b92915050565b60008060408385031215611e8257611e81611962565b5b6000611e9085828601611baf565b9250506020611ea185828601611e56565b9150509250929050565b600067ffffffffffffffff821115611ec657611ec5611cb8565b5b611ecf82611a6d565b9050602081019050919050565b6000611eef611eea84611eab565b611d18565b905082815260208101848484011115611f0b57611f0a611cb3565b5b611f16848285611d64565b509392505050565b600082601f830112611f3357611f32611cae565b5b8135611f43848260208601611edc565b91505092915050565b60008060008060808587031215611f6657611f65611962565b5b6000611f7487828801611baf565b9450506020611f8587828801611baf565b9350506040611f9687828801611afa565b925050606085013567ffffffffffffffff811115611fb757611fb6611967565b5b611fc387828801611f1e565b91505092959194509250565b60008060408385031215611fe657611fe5611962565b5b6000611ff485828601611baf565b925050602061200585828601611baf565b9150509250929050565b7f4e487b7100000000000000000000000000000000000000000000000000000000600052602260045260246000fd5b6000600282049050600182168061205657607f821691505b6020821081036120695761206861200f565b5b50919050565b60006060820190506120846000830186611b6e565b6120916020830185611c84565b61209e6040830184611b6e565b949350505050565b7f4e487b7100000000000000000000000000000000000000000000000000000000600052601160045260246000fd5b60006120e082611ad9565b91507fffffffffffffffffffffffffffffffffffffffffffffffffffffffffffffffff8203612112576121116120a6565b5b600182019050919050565b600081905092915050565b600061213382611a27565b61213d818561211d565b935061214d818560208601611a43565b80840191505092915050565b60006121658285612128565b91506121718284612128565b91508190509392505050565b60008190508160005260206000209050919050565b60006020601f8301049050919050565b600082821b905092915050565b6000600883026121df7fffffffffffffffffffffffffffffffffffffffffffffffffffffffffffffffff826121a2565b6121e986836121a2565b95508019841693508086168417925050509392505050565b6000819050919050565b600061222661222161221c84611ad9565b612201565b611ad9565b9050919050565b6000819050919050565b6122408361220b565b61225461224c8261222d565b8484546121af565b825550505050565b600090565b61226961225c565b612274818484612237565b505050565b5b818110156122985761228d600082612261565b60018101905061227a565b5050565b601f8211156122dd576122ae8161217d565b6122b784612192565b810160208510156122c6578190505b6122da6122d285612192565b830182612279565b50505b505050565b600082821c905092915050565b6000612300600019846008026122e2565b1980831691505092915050565b600061231983836122ef565b9150826002028217905092915050565b61233282611a27565b67ffffffffffffffff81111561234b5761234a611cb8565b5b612355825461203e565b61236082828561229c565b600060209050601f8311600181146123935760008415612381578287015190505b61238b858261230d565b8655506123f3565b601f1984166123a18661217d565b60005b828110156123c9578489015182556001820191506020850194506020810190506123a4565b868310156123e657848901516123e2601f8916826122ef565b8355505b6001600288020188555050505b505050505050565b600081519050919050565b600082825260208201905092915050565b6000612422826123fb565b61242c8185612406565b935061243c818560208601611a43565b61244581611a6d565b840191505092915050565b60006080820190506124656000830187611b6e565b6124726020830186611b6e565b61247f6040830185611c84565b81810360608301526124918184612417565b905095945050505050565b6000815190506124ab81611998565b92915050565b6000602082840312156124c7576124c6611962565b5b60006124d58482850161249c565b91505092915050565b60006040820190506124f36000830185611b6e565b6125006020830184611c84565b9392505050565b7f4e487b7100000000000000000000000000000000000000000000000000000000600052601260045260246000fdfea2646970667358221220abf8b602c870d8e23e1157722cbb2a56b3aa757db8e8aecddba08a541789a40964736f6c63430008140033",
  "linkReferences": {},
  "deployedLinkReferences": {}
}