{
  "_format": "hh-sol-artifact-1",
  "contractName": "apartmentNFT",
  "sourceName": "contracts/apartmentNFT.sol",
  "abi": [
    {
      "inputs": [],
      "stateMutability": "nonpayable",
      "type": "constructor"
    },
    {
      "inputs": [
        {
          "internalType": "address",
          "name": "sender",
          "type": "address"
        },
        {
          "internalType": "uint256",
          "name": "tokenId",
          "type": "uint256"
        },
        {
          "internalType": "address",
          "name": "owner",
          "type": "address"
        }
      ],
      "name": "ERC721IncorrectOwner",
      "type": "error"
    },
    {
      "inputs": [
        {
          "internalType": "address",
          "name": "operator",
          "type": "address"
        },
        {
          "internalType": "uint256",
          "name": "tokenId",
          "type": "uint256"
        }
      ],
      "name": "ERC721InsufficientApproval",
      "type": "error"
    },
    {
      "inputs": [
        {
          "internalType": "address",
          "name": "approver",
          "type": "address"
        }
      ],
      "name": "ERC721InvalidApprover",
      "type": "error"
    },
    {
      "inputs": [
        {
          "internalType": "address",
          "name": "operator",
          "type": "address"
        }
      ],
      "name": "ERC721InvalidOperator",
      "type": "error"
    },
    {
      "inputs": [
        {
          "internalType": "address",
          "name": "owner",
          "type": "address"
        }
      ],
      "name": "ERC721InvalidOwner",
      "type": "error"
    },
    {
      "inputs": [
        {
          "internalType": "address",
          "name": "receiver",
          "type": "address"
        }
      ],
      "name": "ERC721InvalidReceiver",
      "type": "error"
    },
    {
      "inputs": [
        {
          "internalType": "address",
          "name": "sender",
          "type": "address"
        }
      ],
      "name": "ERC721InvalidSender",
      "type": "error"
    },
    {
      "inputs": [
        {
          "internalType": "uint256",
          "name": "tokenId",
          "type": "uint256"
        }
      ],
      "name": "ERC721NonexistentToken",
      "type": "error"
    },
    {
      "anonymous": false,
      "inputs": [
        {
          "indexed": true,
          "internalType": "address",
          "name": "owner",
          "type": "address"
        },
        {
          "indexed": true,
          "internalType": "address",
          "name": "approved",
          "type": "address"
        },
        {
          "indexed": true,
          "internalType": "uint256",
          "name": "tokenId",
          "type": "uint256"
        }
      ],
      "name": "Approval",
      "type": "event"
    },
    {
      "anonymous": false,
      "inputs": [
        {
          "indexed": true,
          "internalType": "address",
          "name": "owner",
          "type": "address"
        },
        {
          "indexed": true,
          "internalType": "address",
          "name": "operator",
          "type": "address"
        },
        {
          "indexed": false,
          "internalType": "bool",
          "name": "approved",
          "type": "bool"
        }
      ],
      "name": "ApprovalForAll",
      "type": "event"
    },
    {
      "anonymous": false,
      "inputs": [
        {
          "indexed": false,
          "internalType": "uint256",
          "name": "_fromTokenId",
          "type": "uint256"
        },
        {
          "indexed": false,
          "internalType": "uint256",
          "name": "_toTokenId",
          "type": "uint256"
        }
      ],
      "name": "BatchMetadataUpdate",
      "type": "event"
    },
    {
      "anonymous": false,
      "inputs": [
        {
          "indexed": false,
          "internalType": "uint256",
          "name": "_tokenId",
          "type": "uint256"
        }
      ],
      "name": "MetadataUpdate",
      "type": "event"
    },
    {
      "anonymous": false,
      "inputs": [
        {
          "indexed": true,
          "internalType": "address",
          "name": "from",
          "type": "address"
        },
        {
          "indexed": true,
          "internalType": "address",
          "name": "to",
          "type": "address"
        },
        {
          "indexed": true,
          "internalType": "uint256",
          "name": "tokenId",
          "type": "uint256"
        }
      ],
      "name": "Transfer",
      "type": "event"
    },
    {
      "inputs": [
        {
          "internalType": "address",
          "name": "to",
          "type": "address"
        },
        {
          "internalType": "uint256",
          "name": "tokenId",
          "type": "uint256"
        }
      ],
      "name": "approve",
      "outputs": [],
      "stateMutability": "nonpayable",
      "type": "function"
    },
    {
      "inputs": [
        {
          "internalType": "address",
          "name": "owner",
          "type": "address"
        }
      ],
      "name": "balanceOf",
      "outputs": [
        {
          "internalType": "uint256",
          "name": "",
          "type": "uint256"
        }
      ],
      "stateMutability": "view",
      "type": "function"
    },
    {
      "inputs": [
        {
          "internalType": "uint256",
          "name": "_nftTokenID",
          "type": "uint256"
        }
      ],
      "name": "burnNFT",
      "outputs": [],
      "stateMutability": "nonpayable",
      "type": "function"
    },
    {
      "inputs": [
        {
          "internalType": "uint256",
          "name": "tokenId",
          "type": "uint256"
        }
      ],
      "name": "getApproved",
      "outputs": [
        {
          "internalType": "address",
          "name": "",
          "type": "address"
        }
      ],
      "stateMutability": "view",
      "type": "function"
    },
    {
      "inputs": [
        {
          "internalType": "address",
          "name": "owner",
          "type": "address"
        },
        {
          "internalType": "address",
          "name": "operator",
          "type": "address"
        }
      ],
      "name": "isApprovedForAll",
      "outputs": [
        {
          "internalType": "bool",
          "name": "",
          "type": "bool"
        }
      ],
      "stateMutability": "view",
      "type": "function"
    },
    {
      "inputs": [
        {
          "internalType": "address",
          "name": "to",
          "type": "address"
        },
        {
          "internalType": "string",
          "name": "tokenURI",
          "type": "string"
        }
      ],
      "name": "mintApartmentNFT",
      "outputs": [
        {
          "internalType": "uint256",
          "name": "",
          "type": "uint256"
        }
      ],
      "stateMutability": "nonpayable",
      "type": "function"
    },
    {
      "inputs": [],
      "name": "name",
      "outputs": [
        {
          "internalType": "string",
          "name": "",
          "type": "string"
        }
      ],
      "stateMutability": "view",
      "type": "function"
    },
    {
      "inputs": [
        {
          "internalType": "uint256",
          "name": "tokenId",
          "type": "uint256"
        }
      ],
      "name": "ownerOf",
      "outputs": [
        {
          "internalType": "address",
          "name": "",
          "type": "address"
        }
      ],
      "stateMutability": "view",
      "type": "function"
    },
    {
      "inputs": [
        {
          "internalType": "address",
          "name": "from",
          "type": "address"
        },
        {
          "internalType": "address",
          "name": "to",
          "type": "address"
        },
        {
          "internalType": "uint256",
          "name": "tokenId",
          "type": "uint256"
        }
      ],
      "name": "safeTransferFrom",
      "outputs": [],
      "stateMutability": "nonpayable",
      "type": "function"
    },
    {
      "inputs": [
        {
          "internalType": "address",
          "name": "from",
          "type": "address"
        },
        {
          "internalType": "address",
          "name": "to",
          "type": "address"
        },
        {
          "internalType": "uint256",
          "name": "tokenId",
          "type": "uint256"
        },
        {
          "internalType": "bytes",
          "name": "data",
          "type": "bytes"
        }
      ],
      "name": "safeTransferFrom",
      "outputs": [],
      "stateMutability": "nonpayable",
      "type": "function"
    },
    {
      "inputs": [
        {
          "internalType": "address",
          "name": "operator",
          "type": "address"
        },
        {
          "internalType": "bool",
          "name": "approved",
          "type": "bool"
        }
      ],
      "name": "setApprovalForAll",
      "outputs": [],
      "stateMutability": "nonpayable",
      "type": "function"
    },
    {
      "inputs": [
        {
          "internalType": "bytes4",
          "name": "interfaceId",
          "type": "bytes4"
        }
      ],
      "name": "supportsInterface",
      "outputs": [
        {
          "internalType": "bool",
          "name": "",
          "type": "bool"
        }
      ],
      "stateMutability": "view",
      "type": "function"
    },
    {
      "inputs": [],
      "name": "symbol",
      "outputs": [
        {
          "internalType": "string",
          "name": "",
          "type": "string"
        }
      ],
      "stateMutability": "view",
      "type": "function"
    },
    {
      "inputs": [],
      "name": "tokenCounter",
      "outputs": [
        {
          "internalType": "uint256",
          "name": "",
          "type": "uint256"
        }
      ],
      "stateMutability": "view",
      "type": "function"
    },
    {
      "inputs": [
        {
          "internalType": "uint256",
          "name": "tokenId",
          "type": "uint256"
        }
      ],
      "name": "tokenURI",
      "outputs": [
        {
          "internalType": "string",
          "name": "",
          "type": "string"
        }
      ],
      "stateMutability": "view",
      "type": "function"
    },
    {
      "inputs": [
        {
          "internalType": "address",
          "name": "from",
          "type": "address"
        },
        {
          "internalType": "address",
          "name": "to",
          "type": "address"
        },
        {
          "internalType": "uint256",
          "name": "tokenId",
          "type": "uint256"
        }
      ],
      "name": "transferFrom",
      "outputs": [],
      "stateMutability": "nonpayable",
      "type": "function"
    }
  ],
  "bytecode": "0x60806040523480156200001157600080fd5b506040518060400160405280600c81526020017f41706172746d656e744e465400000000000000000000000000000000000000008152506040518060400160405280600381526020017f415054000000000000000000000000000000000000000000000000000000000081525081600090816200008f91906200032c565b508060019081620000a191906200032c565b505050600060078190555062000413565b600081519050919050565b7f4e487b7100000000000000000000000000000000000000000000000000000000600052604160045260246000fd5b7f4e487b7100000000000000000000000000000000000000000000000000000000600052602260045260246000fd5b600060028204905060018216806200013457607f821691505b6020821081036200014a5762000149620000ec565b5b50919050565b60008190508160005260206000209050919050565b60006020601f8301049050919050565b600082821b905092915050565b600060088302620001b47fffffffffffffffffffffffffffffffffffffffffffffffffffffffffffffffff8262000175565b620001c0868362000175565b95508019841693508086168417925050509392505050565b6000819050919050565b6000819050919050565b60006200020d620002076200020184620001d8565b620001e2565b620001d8565b9050919050565b6000819050919050565b6200022983620001ec565b62000241620002388262000214565b84845462000182565b825550505050565b600090565b6200025862000249565b620002658184846200021e565b505050565b5b818110156200028d57620002816000826200024e565b6001810190506200026b565b5050565b601f821115620002dc57620002a68162000150565b620002b18462000165565b81016020851015620002c1578190505b620002d9620002d08562000165565b8301826200026a565b50505b505050565b600082821c905092915050565b60006200030160001984600802620002e1565b1980831691505092915050565b60006200031c8383620002ee565b9150826002028217905092915050565b6200033782620000b2565b67ffffffffffffffff811115620003535762000352620000bd565b5b6200035f82546200011b565b6200036c82828562000291565b600060209050601f831160018114620003a457600084156200038f578287015190505b6200039b85826200030e565b8655506200040b565b601f198416620003b48662000150565b60005b82811015620003de57848901518255600182019150602085019450602081019050620003b7565b86831015620003fe5784890151620003fa601f891682620002ee565b8355505b6001600288020188555050505b505050505050565b6125ea80620004236000396000f3fe608060405234801561001057600080fd5b50600436106101005760003560e01c806370a0823111610097578063b88d4fde11610066578063b88d4fde146102bd578063c87b56dd146102d9578063d082e38114610309578063e985e9c51461032757610100565b806370a082311461022357806373a68b8d1461025357806395d89b4114610283578063a22cb465146102a157610100565b806323b872dd116100d357806323b872dd1461019f5780632890e0d7146101bb57806342842e0e146101d75780636352211e146101f357610100565b806301ffc9a71461010557806306fdde0314610135578063081812fc14610153578063095ea7b314610183575b600080fd5b61011f600480360381019061011a91906119b0565b610357565b60405161012c91906119f8565b60405180910390f35b61013d6103b8565b60405161014a9190611aa3565b60405180910390f35b61016d60048036038101906101689190611afb565b61044a565b60405161017a9190611b69565b60405180910390f35b61019d60048036038101906101989190611bb0565b610466565b005b6101b960048036038101906101b49190611bf0565b61047c565b005b6101d560048036038101906101d09190611afb565b61057e565b005b6101f160048036038101906101ec9190611bf0565b610600565b005b61020d60048036038101906102089190611afb565b610620565b60405161021a9190611b69565b60405180910390f35b61023d60048036038101906102389190611c43565b610632565b60405161024a9190611c7f565b60405180910390f35b61026d60048036038101906102689190611dcf565b6106ec565b60405161027a9190611c7f565b60405180910390f35b61028b61072a565b6040516102989190611aa3565b60405180910390f35b6102bb60048036038101906102b69190611e57565b6107bc565b005b6102d760048036038101906102d29190611f38565b6107d2565b005b6102f360048036038101906102ee9190611afb565b6107ef565b6040516103009190611aa3565b60405180910390f35b610311610902565b60405161031e9190611c7f565b60405180910390f35b610341600480360381019061033c9190611fbb565b610908565b60405161034e91906119f8565b60405180910390f35b6000634906490660e01b7bffffffffffffffffffffffffffffffffffffffffffffffffffffffff1916827bffffffffffffffffffffffffffffffffffffffffffffffffffffffff191614806103b157506103b08261099c565b5b9050919050565b6060600080546103c79061202a565b80601f01602080910402602001604051908101604052809291908181526020018280546103f39061202a565b80156104405780601f1061041557610100808354040283529160200191610440565b820191906000526020600020905b81548152906001019060200180831161042357829003601f168201915b5050505050905090565b600061045582610a7e565b5061045f82610b06565b9050919050565b6104788282610473610b43565b610b4b565b5050565b600073ffffffffffffffffffffffffffffffffffffffff168273ffffffffffffffffffffffffffffffffffffffff16036104ee5760006040517f64a0ae920000000000000000000000000000000000000000000000000000000081526004016104e59190611b69565b60405180910390fd5b600061050283836104fd610b43565b610b5d565b90508373ffffffffffffffffffffffffffffffffffffffff168173ffffffffffffffffffffffffffffffffffffffff1614610578578382826040517f64283d7b00000000000000000000000000000000000000000000000000000000815260040161056f9392919061205b565b60405180910390fd5b50505050565b61058781610620565b73ffffffffffffffffffffffffffffffffffffffff163373ffffffffffffffffffffffffffffffffffffffff16146105f4576040517f08c379a00000000000000000000000000000000000000000000000000000000081526004016105eb90612104565b60405180910390fd5b6105fd81610d77565b50565b61061b838383604051806020016040528060008152506107d2565b505050565b600061062b82610a7e565b9050919050565b60008073ffffffffffffffffffffffffffffffffffffffff168273ffffffffffffffffffffffffffffffffffffffff16036106a55760006040517f89c62b6400000000000000000000000000000000000000000000000000000000815260040161069c9190611b69565b60405180910390fd5b600360008373ffffffffffffffffffffffffffffffffffffffff1673ffffffffffffffffffffffffffffffffffffffff168152602001908152602001600020549050919050565b60008060075490506106fe8482610dfd565b6107088184610e1b565b6007600081548092919061071b90612153565b91905055508091505092915050565b6060600180546107399061202a565b80601f01602080910402602001604051908101604052809291908181526020018280546107659061202a565b80156107b25780601f10610787576101008083540402835291602001916107b2565b820191906000526020600020905b81548152906001019060200180831161079557829003601f168201915b5050505050905090565b6107ce6107c7610b43565b8383610e77565b5050565b6107dd84848461047c565b6107e984848484610fe6565b50505050565b60606107fa82610a7e565b50600060066000848152602001908152602001600020805461081b9061202a565b80601f01602080910402602001604051908101604052809291908181526020018280546108479061202a565b80156108945780601f1061086957610100808354040283529160200191610894565b820191906000526020600020905b81548152906001019060200180831161087757829003601f168201915b5050505050905060006108a561119d565b905060008151036108ba5781925050506108fd565b6000825111156108ef5780826040516020016108d79291906121d7565b604051602081830303815290604052925050506108fd565b6108f8846111b4565b925050505b919050565b60075481565b6000600560008473ffffffffffffffffffffffffffffffffffffffff1673ffffffffffffffffffffffffffffffffffffffff16815260200190815260200160002060008373ffffffffffffffffffffffffffffffffffffffff1673ffffffffffffffffffffffffffffffffffffffff16815260200190815260200160002060009054906101000a900460ff16905092915050565b60007f80ac58cd000000000000000000000000000000000000000000000000000000007bffffffffffffffffffffffffffffffffffffffffffffffffffffffff1916827bffffffffffffffffffffffffffffffffffffffffffffffffffffffff19161480610a6757507f5b5e139f000000000000000000000000000000000000000000000000000000007bffffffffffffffffffffffffffffffffffffffffffffffffffffffff1916827bffffffffffffffffffffffffffffffffffffffffffffffffffffffff1916145b80610a775750610a768261121d565b5b9050919050565b600080610a8a83611287565b9050600073ffffffffffffffffffffffffffffffffffffffff168173ffffffffffffffffffffffffffffffffffffffff1603610afd57826040517f7e273289000000000000000000000000000000000000000000000000000000008152600401610af49190611c7f565b60405180910390fd5b80915050919050565b60006004600083815260200190815260200160002060009054906101000a900473ffffffffffffffffffffffffffffffffffffffff169050919050565b600033905090565b610b5883838360016112c4565b505050565b600080610b6984611287565b9050600073ffffffffffffffffffffffffffffffffffffffff168373ffffffffffffffffffffffffffffffffffffffff1614610bab57610baa818486611489565b5b600073ffffffffffffffffffffffffffffffffffffffff168173ffffffffffffffffffffffffffffffffffffffff1614610c3c57610bed6000856000806112c4565b6001600360008373ffffffffffffffffffffffffffffffffffffffff1673ffffffffffffffffffffffffffffffffffffffff168152602001908152602001600020600082825403925050819055505b600073ffffffffffffffffffffffffffffffffffffffff168573ffffffffffffffffffffffffffffffffffffffff1614610cbf576001600360008773ffffffffffffffffffffffffffffffffffffffff1673ffffffffffffffffffffffffffffffffffffffff168152602001908152602001600020600082825401925050819055505b846002600086815260200190815260200160002060006101000a81548173ffffffffffffffffffffffffffffffffffffffff021916908373ffffffffffffffffffffffffffffffffffffffff160217905550838573ffffffffffffffffffffffffffffffffffffffff168273ffffffffffffffffffffffffffffffffffffffff167fddf252ad1be2c89b69c2b068fc378daa952ba7f163c4a11628f55a4df523b3ef60405160405180910390a4809150509392505050565b6000610d866000836000610b5d565b9050600073ffffffffffffffffffffffffffffffffffffffff168173ffffffffffffffffffffffffffffffffffffffff1603610df957816040517f7e273289000000000000000000000000000000000000000000000000000000008152600401610df09190611c7f565b60405180910390fd5b5050565b610e1782826040518060200160405280600081525061154d565b5050565b80600660008481526020019081526020016000209081610e3b91906123a7565b507ff8e1a15aba9398e019f0b49df1a4fde98ee17ae345cb5f6b5e2c27f5033e8ce782604051610e6b9190611c7f565b60405180910390a15050565b600073ffffffffffffffffffffffffffffffffffffffff168273ffffffffffffffffffffffffffffffffffffffff1603610ee857816040517f5b08ba18000000000000000000000000000000000000000000000000000000008152600401610edf9190611b69565b60405180910390fd5b80600560008573ffffffffffffffffffffffffffffffffffffffff1673ffffffffffffffffffffffffffffffffffffffff16815260200190815260200160002060008473ffffffffffffffffffffffffffffffffffffffff1673ffffffffffffffffffffffffffffffffffffffff16815260200190815260200160002060006101000a81548160ff0219169083151502179055508173ffffffffffffffffffffffffffffffffffffffff168373ffffffffffffffffffffffffffffffffffffffff167f17307eab39ab6107e8899845ad3d59bd9653f200f220920489ca2b5937696c3183604051610fd991906119f8565b60405180910390a3505050565b60008373ffffffffffffffffffffffffffffffffffffffff163b1115611197578273ffffffffffffffffffffffffffffffffffffffff1663150b7a0261102a610b43565b8685856040518563ffffffff1660e01b815260040161104c94939291906124ce565b6020604051808303816000875af192505050801561108857506040513d601f19601f82011682018060405250810190611085919061252f565b60015b61110c573d80600081146110b8576040519150601f19603f3d011682016040523d82523d6000602084013e6110bd565b606091505b50600081510361110457836040517f64a0ae920000000000000000000000000000000000000000000000000000000081526004016110fb9190611b69565b60405180910390fd5b805181602001fd5b63150b7a0260e01b7bffffffffffffffffffffffffffffffffffffffffffffffffffffffff1916817bffffffffffffffffffffffffffffffffffffffffffffffffffffffff19161461119557836040517f64a0ae9200000000000000000000000000000000000000000000000000000000815260040161118c9190611b69565b60405180910390fd5b505b50505050565b606060405180602001604052806000815250905090565b60606111bf82610a7e565b5060006111ca61119d565b905060008151116111ea5760405180602001604052806000815250611215565b806111f484611569565b6040516020016112059291906121d7565b6040516020818303038152906040525b915050919050565b60007f01ffc9a7000000000000000000000000000000000000000000000000000000007bffffffffffffffffffffffffffffffffffffffffffffffffffffffff1916827bffffffffffffffffffffffffffffffffffffffffffffffffffffffff1916149050919050565b60006002600083815260200190815260200160002060009054906101000a900473ffffffffffffffffffffffffffffffffffffffff169050919050565b80806112fd5750600073ffffffffffffffffffffffffffffffffffffffff168273ffffffffffffffffffffffffffffffffffffffff1614155b1561143157600061130d84610a7e565b9050600073ffffffffffffffffffffffffffffffffffffffff168373ffffffffffffffffffffffffffffffffffffffff161415801561137857508273ffffffffffffffffffffffffffffffffffffffff168173ffffffffffffffffffffffffffffffffffffffff1614155b801561138b57506113898184610908565b155b156113cd57826040517fa9fbf51f0000000000000000000000000000000000000000000000000000000081526004016113c49190611b69565b60405180910390fd5b811561142f57838573ffffffffffffffffffffffffffffffffffffffff168273ffffffffffffffffffffffffffffffffffffffff167f8c5be1e5ebec7d5bd14f71427d1e84f3dd0314c0f7b2291e5b200ac8c7c3b92560405160405180910390a45b505b836004600085815260200190815260200160002060006101000a81548173ffffffffffffffffffffffffffffffffffffffff021916908373ffffffffffffffffffffffffffffffffffffffff16021790555050505050565b611494838383611637565b61154857600073ffffffffffffffffffffffffffffffffffffffff168373ffffffffffffffffffffffffffffffffffffffff160361150957806040517f7e2732890000000000000000000000000000000000000000000000000000000081526004016115009190611c7f565b60405180910390fd5b81816040517f177e802f00000000000000000000000000000000000000000000000000000000815260040161153f92919061255c565b60405180910390fd5b505050565b61155783836116f8565b6115646000848484610fe6565b505050565b606060006001611578846117f1565b01905060008167ffffffffffffffff81111561159757611596611ca4565b5b6040519080825280601f01601f1916602001820160405280156115c95781602001600182028036833780820191505090505b509050600082602001820190505b60011561162c578080600190039150507f3031323334353637383961626364656600000000000000000000000000000000600a86061a8153600a85816116205761161f612585565b5b049450600085036115d7575b819350505050919050565b60008073ffffffffffffffffffffffffffffffffffffffff168373ffffffffffffffffffffffffffffffffffffffff16141580156116ef57508273ffffffffffffffffffffffffffffffffffffffff168473ffffffffffffffffffffffffffffffffffffffff1614806116b057506116af8484610908565b5b806116ee57508273ffffffffffffffffffffffffffffffffffffffff166116d683610b06565b73ffffffffffffffffffffffffffffffffffffffff16145b5b90509392505050565b600073ffffffffffffffffffffffffffffffffffffffff168273ffffffffffffffffffffffffffffffffffffffff160361176a5760006040517f64a0ae920000000000000000000000000000000000000000000000000000000081526004016117619190611b69565b60405180910390fd5b600061177883836000610b5d565b9050600073ffffffffffffffffffffffffffffffffffffffff168173ffffffffffffffffffffffffffffffffffffffff16146117ec5760006040517f73c6ac6e0000000000000000000000000000000000000000000000000000000081526004016117e39190611b69565b60405180910390fd5b505050565b600080600090507a184f03e93ff9f4daa797ed6e38ed64bf6a1f010000000000000000831061184f577a184f03e93ff9f4daa797ed6e38ed64bf6a1f010000000000000000838161184557611844612585565b5b0492506040810190505b6d04ee2d6d415b85acef8100000000831061188c576d04ee2d6d415b85acef8100000000838161188257611881612585565b5b0492506020810190505b662386f26fc1000083106118bb57662386f26fc1000083816118b1576118b0612585565b5b0492506010810190505b6305f5e10083106118e4576305f5e10083816118da576118d9612585565b5b0492506008810190505b61271083106119095761271083816118ff576118fe612585565b5b0492506004810190505b6064831061192c576064838161192257611921612585565b5b0492506002810190505b600a831061193b576001810190505b80915050919050565b6000604051905090565b600080fd5b600080fd5b60007fffffffff0000000000000000000000000000000000000000000000000000000082169050919050565b61198d81611958565b811461199857600080fd5b50565b6000813590506119aa81611984565b92915050565b6000602082840312156119c6576119c561194e565b5b60006119d48482850161199b565b91505092915050565b60008115159050919050565b6119f2816119dd565b82525050565b6000602082019050611a0d60008301846119e9565b92915050565b600081519050919050565b600082825260208201905092915050565b60005b83811015611a4d578082015181840152602081019050611a32565b60008484015250505050565b6000601f19601f8301169050919050565b6000611a7582611a13565b611a7f8185611a1e565b9350611a8f818560208601611a2f565b611a9881611a59565b840191505092915050565b60006020820190508181036000830152611abd8184611a6a565b905092915050565b6000819050919050565b611ad881611ac5565b8114611ae357600080fd5b50565b600081359050611af581611acf565b92915050565b600060208284031215611b1157611b1061194e565b5b6000611b1f84828501611ae6565b91505092915050565b600073ffffffffffffffffffffffffffffffffffffffff82169050919050565b6000611b5382611b28565b9050919050565b611b6381611b48565b82525050565b6000602082019050611b7e6000830184611b5a565b92915050565b611b8d81611b48565b8114611b9857600080fd5b50565b600081359050611baa81611b84565b92915050565b60008060408385031215611bc757611bc661194e565b5b6000611bd585828601611b9b565b9250506020611be685828601611ae6565b9150509250929050565b600080600060608486031215611c0957611c0861194e565b5b6000611c1786828701611b9b565b9350506020611c2886828701611b9b565b9250506040611c3986828701611ae6565b9150509250925092565b600060208284031215611c5957611c5861194e565b5b6000611c6784828501611b9b565b91505092915050565b611c7981611ac5565b82525050565b6000602082019050611c946000830184611c70565b92915050565b600080fd5b600080fd5b7f4e487b7100000000000000000000000000000000000000000000000000000000600052604160045260246000fd5b611cdc82611a59565b810181811067ffffffffffffffff82111715611cfb57611cfa611ca4565b5b80604052505050565b6000611d0e611944565b9050611d1a8282611cd3565b919050565b600067ffffffffffffffff821115611d3a57611d39611ca4565b5b611d4382611a59565b9050602081019050919050565b82818337600083830152505050565b6000611d72611d6d84611d1f565b611d04565b905082815260208101848484011115611d8e57611d8d611c9f565b5b611d99848285611d50565b509392505050565b600082601f830112611db657611db5611c9a565b5b8135611dc6848260208601611d5f565b91505092915050565b60008060408385031215611de657611de561194e565b5b6000611df485828601611b9b565b925050602083013567ffffffffffffffff811115611e1557611e14611953565b5b611e2185828601611da1565b9150509250929050565b611e34816119dd565b8114611e3f57600080fd5b50565b600081359050611e5181611e2b565b92915050565b60008060408385031215611e6e57611e6d61194e565b5b6000611e7c85828601611b9b565b9250506020611e8d85828601611e42565b9150509250929050565b600067ffffffffffffffff821115611eb257611eb1611ca4565b5b611ebb82611a59565b9050602081019050919050565b6000611edb611ed684611e97565b611d04565b905082815260208101848484011115611ef757611ef6611c9f565b5b611f02848285611d50565b509392505050565b600082601f830112611f1f57611f1e611c9a565b5b8135611f2f848260208601611ec8565b91505092915050565b60008060008060808587031215611f5257611f5161194e565b5b6000611f6087828801611b9b565b9450506020611f7187828801611b9b565b9350506040611f8287828801611ae6565b925050606085013567ffffffffffffffff811115611fa357611fa2611953565b5b611faf87828801611f0a565b91505092959194509250565b60008060408385031215611fd257611fd161194e565b5b6000611fe085828601611b9b565b9250506020611ff185828601611b9b565b9150509250929050565b7f4e487b7100000000000000000000000000000000000000000000000000000000600052602260045260246000fd5b6000600282049050600182168061204257607f821691505b60208210810361205557612054611ffb565b5b50919050565b60006060820190506120706000830186611b5a565b61207d6020830185611c70565b61208a6040830184611b5a565b949350505050565b7f596f7520646f206e6f742068617665207065726d697373696f6e7320746f206260008201527f75726e2074686973204e46540000000000000000000000000000000000000000602082015250565b60006120ee602c83611a1e565b91506120f982612092565b604082019050919050565b6000602082019050818103600083015261211d816120e1565b9050919050565b7f4e487b7100000000000000000000000000000000000000000000000000000000600052601160045260246000fd5b600061215e82611ac5565b91507fffffffffffffffffffffffffffffffffffffffffffffffffffffffffffffffff82036121905761218f612124565b5b600182019050919050565b600081905092915050565b60006121b182611a13565b6121bb818561219b565b93506121cb818560208601611a2f565b80840191505092915050565b60006121e382856121a6565b91506121ef82846121a6565b91508190509392505050565b60008190508160005260206000209050919050565b60006020601f8301049050919050565b600082821b905092915050565b60006008830261225d7fffffffffffffffffffffffffffffffffffffffffffffffffffffffffffffffff82612220565b6122678683612220565b95508019841693508086168417925050509392505050565b6000819050919050565b60006122a461229f61229a84611ac5565b61227f565b611ac5565b9050919050565b6000819050919050565b6122be83612289565b6122d26122ca826122ab565b84845461222d565b825550505050565b600090565b6122e76122da565b6122f28184846122b5565b505050565b5b818110156123165761230b6000826122df565b6001810190506122f8565b5050565b601f82111561235b5761232c816121fb565b61233584612210565b81016020851015612344578190505b61235861235085612210565b8301826122f7565b50505b505050565b600082821c905092915050565b600061237e60001984600802612360565b1980831691505092915050565b6000612397838361236d565b9150826002028217905092915050565b6123b082611a13565b67ffffffffffffffff8111156123c9576123c8611ca4565b5b6123d3825461202a565b6123de82828561231a565b600060209050601f83116001811461241157600084156123ff578287015190505b612409858261238b565b865550612471565b601f19841661241f866121fb565b60005b8281101561244757848901518255600182019150602085019450602081019050612422565b868310156124645784890151612460601f89168261236d565b8355505b6001600288020188555050505b505050505050565b600081519050919050565b600082825260208201905092915050565b60006124a082612479565b6124aa8185612484565b93506124ba818560208601611a2f565b6124c381611a59565b840191505092915050565b60006080820190506124e36000830187611b5a565b6124f06020830186611b5a565b6124fd6040830185611c70565b818103606083015261250f8184612495565b905095945050505050565b60008151905061252981611984565b92915050565b6000602082840312156125455761254461194e565b5b60006125538482850161251a565b91505092915050565b60006040820190506125716000830185611b5a565b61257e6020830184611c70565b9392505050565b7f4e487b7100000000000000000000000000000000000000000000000000000000600052601260045260246000fdfea264697066735822122026a9e1b98a2a837fdd39e3e1253309371ebdaaaf4b75b44fc873d3dda968e83164736f6c63430008140033",
  "linkReferences": {},
  "deployedLinkReferences": {}
}