{
  "_format": "hh-sol-artifact-1",
  "contractName": "ListAndSellApartment",
  "sourceName": "contracts/ListAndSellApartment.sol",
  "abi": [
    {
      "inputs": [
        {
          "internalType": "address",
          "name": "_aptDeployedAddress",
          "type": "address"
        },
        {
          "internalType": "address",
          "name": "_aptNFTDeployedAddress",
          "type": "address"
        },
        {
          "internalType": "address",
          "name": "_userDeployedAddress",
          "type": "address"
        }
      ],
      "stateMutability": "nonpayable",
      "type": "constructor"
    },
    {
      "inputs": [
        {
          "internalType": "uint256",
          "name": "eth",
          "type": "uint256"
        }
      ],
      "name": "NotEnoughEther",
      "type": "error"
    },
    {
      "inputs": [
        {
          "internalType": "address",
          "name": "user",
          "type": "address"
        }
      ],
      "name": "UserIsNotRegistered",
      "type": "error"
    },
    {
      "inputs": [
        {
          "internalType": "uint256",
          "name": "_apartmentID",
          "type": "uint256"
        }
      ],
      "name": "apartmentNotFound",
      "type": "error"
    },
    {
      "inputs": [
        {
          "internalType": "address",
          "name": "user",
          "type": "address"
        }
      ],
      "name": "notTheOwner",
      "type": "error"
    },
    {
      "anonymous": false,
      "inputs": [
        {
          "indexed": false,
          "internalType": "uint256",
          "name": "apartmentID",
          "type": "uint256"
        },
        {
          "indexed": false,
          "internalType": "address",
          "name": "newOwner",
          "type": "address"
        }
      ],
      "name": "ApartmentBought",
      "type": "event"
    },
    {
      "anonymous": false,
      "inputs": [
        {
          "indexed": false,
          "internalType": "address",
          "name": "sender",
          "type": "address"
        },
        {
          "indexed": false,
          "internalType": "uint256",
          "name": "value",
          "type": "uint256"
        }
      ],
      "name": "EtherReceived",
      "type": "event"
    },
    {
      "anonymous": false,
      "inputs": [
        {
          "indexed": false,
          "internalType": "address",
          "name": "sender",
          "type": "address"
        },
        {
          "indexed": false,
          "internalType": "uint256",
          "name": "value",
          "type": "uint256"
        },
        {
          "indexed": false,
          "internalType": "bytes",
          "name": "data",
          "type": "bytes"
        }
      ],
      "name": "FallbackCalled",
      "type": "event"
    },
    {
      "anonymous": false,
      "inputs": [
        {
          "indexed": false,
          "internalType": "address",
          "name": "from",
          "type": "address"
        },
        {
          "indexed": false,
          "internalType": "address",
          "name": "to",
          "type": "address"
        },
        {
          "indexed": false,
          "internalType": "uint256",
          "name": "tokenId",
          "type": "uint256"
        },
        {
          "indexed": false,
          "internalType": "bytes",
          "name": "data",
          "type": "bytes"
        }
      ],
      "name": "NFTReceived",
      "type": "event"
    },
    {
      "stateMutability": "payable",
      "type": "fallback"
    },
    {
      "inputs": [],
      "name": "apartmenOwner",
      "outputs": [
        {
          "internalType": "address payable",
          "name": "",
          "type": "address"
        }
      ],
      "stateMutability": "view",
      "type": "function"
    },
    {
      "inputs": [],
      "name": "apartment",
      "outputs": [
        {
          "internalType": "contract Apartment",
          "name": "",
          "type": "address"
        }
      ],
      "stateMutability": "view",
      "type": "function"
    },
    {
      "inputs": [],
      "name": "aptNFT",
      "outputs": [
        {
          "internalType": "contract apartmentNFT",
          "name": "",
          "type": "address"
        }
      ],
      "stateMutability": "view",
      "type": "function"
    },
    {
      "inputs": [
        {
          "internalType": "uint256",
          "name": "_apartmentID",
          "type": "uint256"
        }
      ],
      "name": "buyApartment",
      "outputs": [],
      "stateMutability": "payable",
      "type": "function"
    },
    {
      "inputs": [
        {
          "internalType": "string",
          "name": "_IPFSHash",
          "type": "string"
        },
        {
          "internalType": "uint256",
          "name": "_ethPrice",
          "type": "uint256"
        }
      ],
      "name": "listApartmentForSale",
      "outputs": [],
      "stateMutability": "nonpayable",
      "type": "function"
    },
    {
      "inputs": [
        {
          "internalType": "address",
          "name": "operator",
          "type": "address"
        },
        {
          "internalType": "address",
          "name": "from",
          "type": "address"
        },
        {
          "internalType": "uint256",
          "name": "tokenId",
          "type": "uint256"
        },
        {
          "internalType": "bytes",
          "name": "data",
          "type": "bytes"
        }
      ],
      "name": "onERC721Received",
      "outputs": [
        {
          "internalType": "bytes4",
          "name": "",
          "type": "bytes4"
        }
      ],
      "stateMutability": "nonpayable",
      "type": "function"
    },
    {
      "inputs": [
        {
          "internalType": "uint256",
          "name": "_apartmentID",
          "type": "uint256"
        }
      ],
      "name": "removeApartment",
      "outputs": [],
      "stateMutability": "nonpayable",
      "type": "function"
    },
    {
      "inputs": [],
      "name": "user",
      "outputs": [
        {
          "internalType": "contract userContract",
          "name": "",
          "type": "address"
        }
      ],
      "stateMutability": "view",
      "type": "function"
    },
    {
      "stateMutability": "payable",
      "type": "receive"
    }
  ],
  "bytecode": "0x60806040523480156200001157600080fd5b50604051620018fd380380620018fd8339818101604052810190620000379190620001ad565b826000806101000a81548173ffffffffffffffffffffffffffffffffffffffff021916908373ffffffffffffffffffffffffffffffffffffffff16021790555081600260006101000a81548173ffffffffffffffffffffffffffffffffffffffff021916908373ffffffffffffffffffffffffffffffffffffffff16021790555080600160006101000a81548173ffffffffffffffffffffffffffffffffffffffff021916908373ffffffffffffffffffffffffffffffffffffffff16021790555033600360006101000a81548173ffffffffffffffffffffffffffffffffffffffff021916908373ffffffffffffffffffffffffffffffffffffffff16021790555050505062000209565b600080fd5b600073ffffffffffffffffffffffffffffffffffffffff82169050919050565b6000620001758262000148565b9050919050565b620001878162000168565b81146200019357600080fd5b50565b600081519050620001a7816200017c565b92915050565b600080600060608486031215620001c957620001c862000143565b5b6000620001d98682870162000196565b9350506020620001ec8682870162000196565b9250506040620001ff8682870162000196565b9150509250925092565b6116e480620002196000396000f3fe60806040526004361061007f5760003560e01c8063976f11191161004e578063976f1119146101f4578063c18658a51461021f578063d791441b1461024a578063fc6d7ce114610273576100bf565b8063150b7a02146101385780633263ab261461017557806340aa24dd146101a05780634f8632ba146101c9576100bf565b366100bf577f1e57e3bb474320be3d2c77138f75b7c3941292d647f5f9634e33a8e94e0e069b33346040516100b5929190610df4565b60405180910390a1005b7faca09dd456ca888dccf8cc966e382e6e3042bb7e4d2d7815015f844edeafce4233346000366040516100f59493929190610e7b565b60405180910390a16040517f08c379a000000000000000000000000000000000000000000000000000000000815260040161012f90610f64565b60405180910390fd5b34801561014457600080fd5b5061015f600480360381019061015a9190611055565b61028f565b60405161016c9190611118565b60405180910390f35b34801561018157600080fd5b5061018a6102e3565b6040516101979190611192565b60405180910390f35b3480156101ac57600080fd5b506101c760048036038101906101c291906112ce565b610309565b005b3480156101d557600080fd5b506101de610514565b6040516101eb919061134b565b60405180910390f35b34801561020057600080fd5b5061020961053a565b6040516102169190611387565b60405180910390f35b34801561022b57600080fd5b50610234610560565b60405161024191906113c3565b60405180910390f35b34801561025657600080fd5b50610271600480360381019061026c91906113de565b610584565b005b61028d600480360381019061028891906113de565b610807565b005b60007f1d823cdc8f0514a95b53538df2d2f3deaf98d1c534c6e750daa593173c27f8f085878686866040516102c895949392919061140b565b60405180910390a163150b7a0260e01b905095945050505050565b600260009054906101000a900473ffffffffffffffffffffffffffffffffffffffff1681565b6000600160009054906101000a900473ffffffffffffffffffffffffffffffffffffffff1673ffffffffffffffffffffffffffffffffffffffff16631abf86a8336040518263ffffffff1660e01b81526004016103669190611459565b602060405180830381865afa158015610383573d6000803e3d6000fd5b505050506040513d601f19601f820116820180604052508101906103a791906114ac565b905060001515811515036103f257336040517fb78b26800000000000000000000000000000000000000000000000000000000081526004016103e99190611459565b60405180910390fd5b60008054906101000a900473ffffffffffffffffffffffffffffffffffffffff1673ffffffffffffffffffffffffffffffffffffffff16632fac5ab384846040518363ffffffff1660e01b815260040161044d929190611547565b600060405180830381600087803b15801561046757600080fd5b505af115801561047b573d6000803e3d6000fd5b50505050600260009054906101000a900473ffffffffffffffffffffffffffffffffffffffff1673ffffffffffffffffffffffffffffffffffffffff1663a22cb4653060016040518363ffffffff1660e01b81526004016104dd929190611586565b600060405180830381600087803b1580156104f757600080fd5b505af115801561050b573d6000803e3d6000fd5b50505050505050565b600160009054906101000a900473ffffffffffffffffffffffffffffffffffffffff1681565b600360009054906101000a900473ffffffffffffffffffffffffffffffffffffffff1681565b60008054906101000a900473ffffffffffffffffffffffffffffffffffffffff1681565b6000600160009054906101000a900473ffffffffffffffffffffffffffffffffffffffff1673ffffffffffffffffffffffffffffffffffffffff16631abf86a8336040518263ffffffff1660e01b81526004016105e19190611459565b602060405180830381865afa1580156105fe573d6000803e3d6000fd5b505050506040513d601f19601f8201168201806040525081019061062291906114ac565b9050600015158115150361066d57336040517fb78b26800000000000000000000000000000000000000000000000000000000081526004016106649190611459565b60405180910390fd5b813373ffffffffffffffffffffffffffffffffffffffff1660008054906101000a900473ffffffffffffffffffffffffffffffffffffffff1673ffffffffffffffffffffffffffffffffffffffff1663fe5ec9ba836040518263ffffffff1660e01b81526004016106de91906115af565b602060405180830381865afa1580156106fb573d6000803e3d6000fd5b505050506040513d601f19601f8201168201806040525081019061071f91906115df565b73ffffffffffffffffffffffffffffffffffffffff161461077757336040517fe0a5df2200000000000000000000000000000000000000000000000000000000815260040161076e9190611459565b60405180910390fd5b60008054906101000a900473ffffffffffffffffffffffffffffffffffffffff1673ffffffffffffffffffffffffffffffffffffffff166355c3fbfb846040518263ffffffff1660e01b81526004016107d091906115af565b600060405180830381600087803b1580156107ea57600080fd5b505af11580156107fe573d6000803e3d6000fd5b50505050505050565b6000600160009054906101000a900473ffffffffffffffffffffffffffffffffffffffff1673ffffffffffffffffffffffffffffffffffffffff16631abf86a8336040518263ffffffff1660e01b81526004016108649190611459565b602060405180830381865afa158015610881573d6000803e3d6000fd5b505050506040513d601f19601f820116820180604052508101906108a591906114ac565b905060001515811515036108f057336040517fb78b26800000000000000000000000000000000000000000000000000000000081526004016108e79190611459565b60405180910390fd5b816001151560008054906101000a900473ffffffffffffffffffffffffffffffffffffffff1673ffffffffffffffffffffffffffffffffffffffff16635f0667f4836040518263ffffffff1660e01b815260040161094e91906115af565b602060405180830381865afa15801561096b573d6000803e3d6000fd5b505050506040513d601f19601f8201168201806040525081019061098f91906114ac565b1515146109d357806040517fc2e9dea70000000000000000000000000000000000000000000000000000000081526004016109ca91906115af565b60405180910390fd5b82348060008054906101000a900473ffffffffffffffffffffffffffffffffffffffff1673ffffffffffffffffffffffffffffffffffffffff16634c5ea5d9846040518263ffffffff1660e01b8152600401610a2f91906115af565b602060405180830381865afa158015610a4c573d6000803e3d6000fd5b505050506040513d601f19601f82011682018060405250810190610a709190611621565b14610ab257806040517fe1340304000000000000000000000000000000000000000000000000000000008152600401610aa991906115af565b60405180910390fd5b60008060009054906101000a900473ffffffffffffffffffffffffffffffffffffffff1673ffffffffffffffffffffffffffffffffffffffff166375788d79876040518263ffffffff1660e01b8152600401610b0e91906115af565b602060405180830381865afa158015610b2b573d6000803e3d6000fd5b505050506040513d601f19601f82011682018060405250810190610b4f9190611621565b90506000600260009054906101000a900473ffffffffffffffffffffffffffffffffffffffff1673ffffffffffffffffffffffffffffffffffffffff16638ad2d5a7836040518263ffffffff1660e01b8152600401610bae91906115af565b602060405180830381865afa158015610bcb573d6000803e3d6000fd5b505050506040513d601f19601f82011682018060405250810190610bef91906115df565b9050600260009054906101000a900473ffffffffffffffffffffffffffffffffffffffff1673ffffffffffffffffffffffffffffffffffffffff1663095ea7b333846040518363ffffffff1660e01b8152600401610c4e929190610df4565b600060405180830381600087803b158015610c6857600080fd5b505af1158015610c7c573d6000803e3d6000fd5b50505050600260009054906101000a900473ffffffffffffffffffffffffffffffffffffffff1673ffffffffffffffffffffffffffffffffffffffff166323b872dd8233856040518463ffffffff1660e01b8152600401610cdf9392919061164e565b600060405180830381600087803b158015610cf957600080fd5b505af1158015610d0d573d6000803e3d6000fd5b505050508073ffffffffffffffffffffffffffffffffffffffff166108fc349081150290604051600060405180830381858888f19350505050158015610d57573d6000803e3d6000fd5b507fa4553a6152bbdffb507141b846fcf3a1d81bf4a0b14b50a6087134a0455943c88733604051610d89929190611685565b60405180910390a150505050505050565b600073ffffffffffffffffffffffffffffffffffffffff82169050919050565b6000610dc582610d9a565b9050919050565b610dd581610dba565b82525050565b6000819050919050565b610dee81610ddb565b82525050565b6000604082019050610e096000830185610dcc565b610e166020830184610de5565b9392505050565b600082825260208201905092915050565b82818337600083830152505050565b6000601f19601f8301169050919050565b6000610e5a8385610e1d565b9350610e67838584610e2e565b610e7083610e3d565b840190509392505050565b6000606082019050610e906000830187610dcc565b610e9d6020830186610de5565b8181036040830152610eb0818486610e4e565b905095945050505050565b600082825260208201905092915050565b7f46616c6c6261636b2066756e6374696f6e2063616c6c65643a20556e7265636f60008201527f676e697a65642066756e6374696f6e2073656c6563746f72206f72206461746160208201527f2e00000000000000000000000000000000000000000000000000000000000000604082015250565b6000610f4e604183610ebb565b9150610f5982610ecc565b606082019050919050565b60006020820190508181036000830152610f7d81610f41565b9050919050565b6000604051905090565b600080fd5b600080fd5b610fa181610dba565b8114610fac57600080fd5b50565b600081359050610fbe81610f98565b92915050565b610fcd81610ddb565b8114610fd857600080fd5b50565b600081359050610fea81610fc4565b92915050565b600080fd5b600080fd5b600080fd5b60008083601f84011261101557611014610ff0565b5b8235905067ffffffffffffffff81111561103257611031610ff5565b5b60208301915083600182028301111561104e5761104d610ffa565b5b9250929050565b60008060008060006080868803121561107157611070610f8e565b5b600061107f88828901610faf565b955050602061109088828901610faf565b94505060406110a188828901610fdb565b935050606086013567ffffffffffffffff8111156110c2576110c1610f93565b5b6110ce88828901610fff565b92509250509295509295909350565b60007fffffffff0000000000000000000000000000000000000000000000000000000082169050919050565b611112816110dd565b82525050565b600060208201905061112d6000830184611109565b92915050565b6000819050919050565b600061115861115361114e84610d9a565b611133565b610d9a565b9050919050565b600061116a8261113d565b9050919050565b600061117c8261115f565b9050919050565b61118c81611171565b82525050565b60006020820190506111a76000830184611183565b92915050565b600080fd5b7f4e487b7100000000000000000000000000000000000000000000000000000000600052604160045260246000fd5b6111ea82610e3d565b810181811067ffffffffffffffff82111715611209576112086111b2565b5b80604052505050565b600061121c610f84565b905061122882826111e1565b919050565b600067ffffffffffffffff821115611248576112476111b2565b5b61125182610e3d565b9050602081019050919050565b600061127161126c8461122d565b611212565b90508281526020810184848401111561128d5761128c6111ad565b5b611298848285610e2e565b509392505050565b600082601f8301126112b5576112b4610ff0565b5b81356112c584826020860161125e565b91505092915050565b600080604083850312156112e5576112e4610f8e565b5b600083013567ffffffffffffffff81111561130357611302610f93565b5b61130f858286016112a0565b925050602061132085828601610fdb565b9150509250929050565b60006113358261115f565b9050919050565b6113458161132a565b82525050565b6000602082019050611360600083018461133c565b92915050565b600061137182610d9a565b9050919050565b61138181611366565b82525050565b600060208201905061139c6000830184611378565b92915050565b60006113ad8261115f565b9050919050565b6113bd816113a2565b82525050565b60006020820190506113d860008301846113b4565b92915050565b6000602082840312156113f4576113f3610f8e565b5b600061140284828501610fdb565b91505092915050565b60006080820190506114206000830188610dcc565b61142d6020830187610dcc565b61143a6040830186610de5565b818103606083015261144d818486610e4e565b90509695505050505050565b600060208201905061146e6000830184610dcc565b92915050565b60008115159050919050565b61148981611474565b811461149457600080fd5b50565b6000815190506114a681611480565b92915050565b6000602082840312156114c2576114c1610f8e565b5b60006114d084828501611497565b91505092915050565b600081519050919050565b60005b838110156115025780820151818401526020810190506114e7565b60008484015250505050565b6000611519826114d9565b6115238185610ebb565b93506115338185602086016114e4565b61153c81610e3d565b840191505092915050565b60006040820190508181036000830152611561818561150e565b90506115706020830184610de5565b9392505050565b61158081611474565b82525050565b600060408201905061159b6000830185610dcc565b6115a86020830184611577565b9392505050565b60006020820190506115c46000830184610de5565b92915050565b6000815190506115d981610f98565b92915050565b6000602082840312156115f5576115f4610f8e565b5b6000611603848285016115ca565b91505092915050565b60008151905061161b81610fc4565b92915050565b60006020828403121561163757611636610f8e565b5b60006116458482850161160c565b91505092915050565b60006060820190506116636000830186610dcc565b6116706020830185610dcc565b61167d6040830184610de5565b949350505050565b600060408201905061169a6000830185610de5565b6116a76020830184610dcc565b939250505056fea2646970667358221220dea2875c47442e0a9889b1acb758d1de7ee3a94f01e8cf032ec2f9758c78748164736f6c63430008140033",
  "linkReferences": {},
  "deployedLinkReferences": {}
}