{
  "_format": "hh-sol-artifact-1",
  "contractName": "ListAndSellApartment",
  "sourceName": "contracts/ListAndSellApartment.sol",
  "abi": [
    {
      "inputs": [
        {
          "internalType": "address",
          "name": "_aptDeployedAddress",
          "type": "address"
        },
        {
          "internalType": "address",
          "name": "_aptNFTDeployedAddress",
          "type": "address"
        },
        {
          "internalType": "address",
          "name": "_userDeployedAddress",
          "type": "address"
        }
      ],
      "stateMutability": "nonpayable",
      "type": "constructor"
    },
    {
      "inputs": [
        {
          "internalType": "uint256",
          "name": "eth",
          "type": "uint256"
        }
      ],
      "name": "NotEnoughEther",
      "type": "error"
    },
    {
      "inputs": [
        {
          "internalType": "address",
          "name": "user",
          "type": "address"
        }
      ],
      "name": "UserIsNotRegistered",
      "type": "error"
    },
    {
      "inputs": [
        {
          "internalType": "uint256",
          "name": "_apartmentID",
          "type": "uint256"
        }
      ],
      "name": "apartmentNotFound",
      "type": "error"
    },
    {
      "anonymous": false,
      "inputs": [
        {
          "indexed": false,
          "internalType": "uint256",
          "name": "apartmentID",
          "type": "uint256"
        },
        {
          "indexed": false,
          "internalType": "address",
          "name": "newOwner",
          "type": "address"
        }
      ],
      "name": "ApartmentBought",
      "type": "event"
    },
    {
      "anonymous": false,
      "inputs": [
        {
          "indexed": false,
          "internalType": "address",
          "name": "sender",
          "type": "address"
        },
        {
          "indexed": false,
          "internalType": "uint256",
          "name": "value",
          "type": "uint256"
        }
      ],
      "name": "EtherReceived",
      "type": "event"
    },
    {
      "anonymous": false,
      "inputs": [
        {
          "indexed": false,
          "internalType": "address",
          "name": "sender",
          "type": "address"
        },
        {
          "indexed": false,
          "internalType": "uint256",
          "name": "value",
          "type": "uint256"
        },
        {
          "indexed": false,
          "internalType": "bytes",
          "name": "data",
          "type": "bytes"
        }
      ],
      "name": "FallbackCalled",
      "type": "event"
    },
    {
      "anonymous": false,
      "inputs": [
        {
          "indexed": false,
          "internalType": "address",
          "name": "from",
          "type": "address"
        },
        {
          "indexed": false,
          "internalType": "address",
          "name": "to",
          "type": "address"
        },
        {
          "indexed": false,
          "internalType": "uint256",
          "name": "tokenId",
          "type": "uint256"
        },
        {
          "indexed": false,
          "internalType": "bytes",
          "name": "data",
          "type": "bytes"
        }
      ],
      "name": "NFTReceived",
      "type": "event"
    },
    {
      "anonymous": false,
      "inputs": [
        {
          "indexed": false,
          "internalType": "uint256",
          "name": "apartmentID",
          "type": "uint256"
        }
      ],
      "name": "apartmentRemoved",
      "type": "event"
    },
    {
      "stateMutability": "payable",
      "type": "fallback"
    },
    {
      "inputs": [],
      "name": "apartmenOwner",
      "outputs": [
        {
          "internalType": "address payable",
          "name": "",
          "type": "address"
        }
      ],
      "stateMutability": "view",
      "type": "function"
    },
    {
      "inputs": [],
      "name": "apartment",
      "outputs": [
        {
          "internalType": "contract Apartment",
          "name": "",
          "type": "address"
        }
      ],
      "stateMutability": "view",
      "type": "function"
    },
    {
      "inputs": [],
      "name": "aptNFT",
      "outputs": [
        {
          "internalType": "contract apartmentNFT",
          "name": "",
          "type": "address"
        }
      ],
      "stateMutability": "view",
      "type": "function"
    },
    {
      "inputs": [
        {
          "internalType": "uint256",
          "name": "_apartmentID",
          "type": "uint256"
        }
      ],
      "name": "buyApartment",
      "outputs": [],
      "stateMutability": "payable",
      "type": "function"
    },
    {
      "inputs": [
        {
          "internalType": "string",
          "name": "_IPFSHash",
          "type": "string"
        },
        {
          "internalType": "uint256",
          "name": "_ethPrice",
          "type": "uint256"
        }
      ],
      "name": "listApartmentForSale",
      "outputs": [],
      "stateMutability": "nonpayable",
      "type": "function"
    },
    {
      "inputs": [
        {
          "internalType": "address",
          "name": "operator",
          "type": "address"
        },
        {
          "internalType": "address",
          "name": "from",
          "type": "address"
        },
        {
          "internalType": "uint256",
          "name": "tokenId",
          "type": "uint256"
        },
        {
          "internalType": "bytes",
          "name": "data",
          "type": "bytes"
        }
      ],
      "name": "onERC721Received",
      "outputs": [
        {
          "internalType": "bytes4",
          "name": "",
          "type": "bytes4"
        }
      ],
      "stateMutability": "nonpayable",
      "type": "function"
    },
    {
      "inputs": [
        {
          "internalType": "uint256",
          "name": "_apartmentID",
          "type": "uint256"
        }
      ],
      "name": "removeApartment",
      "outputs": [],
      "stateMutability": "nonpayable",
      "type": "function"
    },
    {
      "inputs": [],
      "name": "user",
      "outputs": [
        {
          "internalType": "contract userContract",
          "name": "",
          "type": "address"
        }
      ],
      "stateMutability": "view",
      "type": "function"
    },
    {
      "stateMutability": "payable",
      "type": "receive"
    }
  ],
  "bytecode": "0x60806040523480156200001157600080fd5b506040516200187d3803806200187d8339818101604052810190620000379190620001ad565b826000806101000a81548173ffffffffffffffffffffffffffffffffffffffff021916908373ffffffffffffffffffffffffffffffffffffffff16021790555081600260006101000a81548173ffffffffffffffffffffffffffffffffffffffff021916908373ffffffffffffffffffffffffffffffffffffffff16021790555080600160006101000a81548173ffffffffffffffffffffffffffffffffffffffff021916908373ffffffffffffffffffffffffffffffffffffffff16021790555033600360006101000a81548173ffffffffffffffffffffffffffffffffffffffff021916908373ffffffffffffffffffffffffffffffffffffffff16021790555050505062000209565b600080fd5b600073ffffffffffffffffffffffffffffffffffffffff82169050919050565b6000620001758262000148565b9050919050565b620001878162000168565b81146200019357600080fd5b50565b600081519050620001a7816200017c565b92915050565b600080600060608486031215620001c957620001c862000143565b5b6000620001d98682870162000196565b9350506020620001ec8682870162000196565b9250506040620001ff8682870162000196565b9150509250925092565b61166480620002196000396000f3fe60806040526004361061007f5760003560e01c8063976f11191161004e578063976f1119146101f4578063c18658a51461021f578063d791441b1461024a578063fc6d7ce114610273576100bf565b8063150b7a02146101385780633263ab261461017557806340aa24dd146101a05780634f8632ba146101c9576100bf565b366100bf577f1e57e3bb474320be3d2c77138f75b7c3941292d647f5f9634e33a8e94e0e069b33346040516100b5929190610d0c565b60405180910390a1005b7faca09dd456ca888dccf8cc966e382e6e3042bb7e4d2d7815015f844edeafce4233346000366040516100f59493929190610d93565b60405180910390a16040517f08c379a000000000000000000000000000000000000000000000000000000000815260040161012f90610e7c565b60405180910390fd5b34801561014457600080fd5b5061015f600480360381019061015a9190610f6d565b61028f565b60405161016c9190611030565b60405180910390f35b34801561018157600080fd5b5061018a6102e3565b60405161019791906110aa565b60405180910390f35b3480156101ac57600080fd5b506101c760048036038101906101c291906111e6565b610309565b005b3480156101d557600080fd5b506101de610486565b6040516101eb9190611263565b60405180910390f35b34801561020057600080fd5b506102096104ac565b604051610216919061129f565b60405180910390f35b34801561022b57600080fd5b506102346104d2565b60405161024191906112db565b60405180910390f35b34801561025657600080fd5b50610271600480360381019061026c91906112f6565b6104f6565b005b61028d600480360381019061028891906112f6565b6106a5565b005b60007f1d823cdc8f0514a95b53538df2d2f3deaf98d1c534c6e750daa593173c27f8f085878686866040516102c8959493929190611323565b60405180910390a163150b7a0260e01b905095945050505050565b600260009054906101000a900473ffffffffffffffffffffffffffffffffffffffff1681565b6000600160009054906101000a900473ffffffffffffffffffffffffffffffffffffffff1673ffffffffffffffffffffffffffffffffffffffff16631abf86a8336040518263ffffffff1660e01b81526004016103669190611371565b602060405180830381865afa158015610383573d6000803e3d6000fd5b505050506040513d601f19601f820116820180604052508101906103a791906113c4565b905060001515811515036103f257336040517fb78b26800000000000000000000000000000000000000000000000000000000081526004016103e99190611371565b60405180910390fd5b60008054906101000a900473ffffffffffffffffffffffffffffffffffffffff1673ffffffffffffffffffffffffffffffffffffffff1663eaa425428484336040518463ffffffff1660e01b815260040161044f9392919061145f565b600060405180830381600087803b15801561046957600080fd5b505af115801561047d573d6000803e3d6000fd5b50505050505050565b600160009054906101000a900473ffffffffffffffffffffffffffffffffffffffff1681565b600360009054906101000a900473ffffffffffffffffffffffffffffffffffffffff1681565b60008054906101000a900473ffffffffffffffffffffffffffffffffffffffff1681565b6000600160009054906101000a900473ffffffffffffffffffffffffffffffffffffffff1673ffffffffffffffffffffffffffffffffffffffff16631abf86a8336040518263ffffffff1660e01b81526004016105539190611371565b602060405180830381865afa158015610570573d6000803e3d6000fd5b505050506040513d601f19601f8201168201806040525081019061059491906113c4565b905060001515811515036105df57336040517fb78b26800000000000000000000000000000000000000000000000000000000081526004016105d69190611371565b60405180910390fd5b60008054906101000a900473ffffffffffffffffffffffffffffffffffffffff1673ffffffffffffffffffffffffffffffffffffffff166355c3fbfb836040518263ffffffff1660e01b8152600401610638919061149d565b600060405180830381600087803b15801561065257600080fd5b505af1158015610666573d6000803e3d6000fd5b505050507f3808325e9cc3c4400b8c15c856beb683c0a41b0fd6aa31ee89f33861a0e6d62c82604051610699919061149d565b60405180910390a15050565b6000600160009054906101000a900473ffffffffffffffffffffffffffffffffffffffff1673ffffffffffffffffffffffffffffffffffffffff16631abf86a8336040518263ffffffff1660e01b81526004016107029190611371565b602060405180830381865afa15801561071f573d6000803e3d6000fd5b505050506040513d601f19601f8201168201806040525081019061074391906113c4565b9050600015158115150361078e57336040517fb78b26800000000000000000000000000000000000000000000000000000000081526004016107859190611371565b60405180910390fd5b816001151560008054906101000a900473ffffffffffffffffffffffffffffffffffffffff1673ffffffffffffffffffffffffffffffffffffffff16635f0667f4836040518263ffffffff1660e01b81526004016107ec919061149d565b602060405180830381865afa158015610809573d6000803e3d6000fd5b505050506040513d601f19601f8201168201806040525081019061082d91906113c4565b15151461087157806040517fc2e9dea7000000000000000000000000000000000000000000000000000000008152600401610868919061149d565b60405180910390fd5b82348060008054906101000a900473ffffffffffffffffffffffffffffffffffffffff1673ffffffffffffffffffffffffffffffffffffffff16634c5ea5d9846040518263ffffffff1660e01b81526004016108cd919061149d565b602060405180830381865afa1580156108ea573d6000803e3d6000fd5b505050506040513d601f19601f8201168201806040525081019061090e91906114cd565b1461095057806040517fe1340304000000000000000000000000000000000000000000000000000000008152600401610947919061149d565b60405180910390fd5b60008060009054906101000a900473ffffffffffffffffffffffffffffffffffffffff1673ffffffffffffffffffffffffffffffffffffffff166375788d79876040518263ffffffff1660e01b81526004016109ac919061149d565b602060405180830381865afa1580156109c9573d6000803e3d6000fd5b505050506040513d601f19601f820116820180604052508101906109ed91906114cd565b90506000600260009054906101000a900473ffffffffffffffffffffffffffffffffffffffff1673ffffffffffffffffffffffffffffffffffffffff16638ad2d5a7836040518263ffffffff1660e01b8152600401610a4c919061149d565b602060405180830381865afa158015610a69573d6000803e3d6000fd5b505050506040513d601f19601f82011682018060405250810190610a8d919061150f565b90503073ffffffffffffffffffffffffffffffffffffffff16600260009054906101000a900473ffffffffffffffffffffffffffffffffffffffff1673ffffffffffffffffffffffffffffffffffffffff1663081812fc846040518263ffffffff1660e01b8152600401610b01919061149d565b602060405180830381865afa158015610b1e573d6000803e3d6000fd5b505050506040513d601f19601f82011682018060405250810190610b42919061150f565b73ffffffffffffffffffffffffffffffffffffffff1614610b98576040517f08c379a0000000000000000000000000000000000000000000000000000000008152600401610b8f906115ae565b60405180910390fd5b600260009054906101000a900473ffffffffffffffffffffffffffffffffffffffff1673ffffffffffffffffffffffffffffffffffffffff166323b872dd8233856040518463ffffffff1660e01b8152600401610bf7939291906115ce565b600060405180830381600087803b158015610c1157600080fd5b505af1158015610c25573d6000803e3d6000fd5b505050508073ffffffffffffffffffffffffffffffffffffffff166108fc349081150290604051600060405180830381858888f19350505050158015610c6f573d6000803e3d6000fd5b507fa4553a6152bbdffb507141b846fcf3a1d81bf4a0b14b50a6087134a0455943c88733604051610ca1929190611605565b60405180910390a150505050505050565b600073ffffffffffffffffffffffffffffffffffffffff82169050919050565b6000610cdd82610cb2565b9050919050565b610ced81610cd2565b82525050565b6000819050919050565b610d0681610cf3565b82525050565b6000604082019050610d216000830185610ce4565b610d2e6020830184610cfd565b9392505050565b600082825260208201905092915050565b82818337600083830152505050565b6000601f19601f8301169050919050565b6000610d728385610d35565b9350610d7f838584610d46565b610d8883610d55565b840190509392505050565b6000606082019050610da86000830187610ce4565b610db56020830186610cfd565b8181036040830152610dc8818486610d66565b905095945050505050565b600082825260208201905092915050565b7f46616c6c6261636b2066756e6374696f6e2063616c6c65643a20556e7265636f60008201527f676e697a65642066756e6374696f6e2073656c6563746f72206f72206461746160208201527f2e00000000000000000000000000000000000000000000000000000000000000604082015250565b6000610e66604183610dd3565b9150610e7182610de4565b606082019050919050565b60006020820190508181036000830152610e9581610e59565b9050919050565b6000604051905090565b600080fd5b600080fd5b610eb981610cd2565b8114610ec457600080fd5b50565b600081359050610ed681610eb0565b92915050565b610ee581610cf3565b8114610ef057600080fd5b50565b600081359050610f0281610edc565b92915050565b600080fd5b600080fd5b600080fd5b60008083601f840112610f2d57610f2c610f08565b5b8235905067ffffffffffffffff811115610f4a57610f49610f0d565b5b602083019150836001820283011115610f6657610f65610f12565b5b9250929050565b600080600080600060808688031215610f8957610f88610ea6565b5b6000610f9788828901610ec7565b9550506020610fa888828901610ec7565b9450506040610fb988828901610ef3565b935050606086013567ffffffffffffffff811115610fda57610fd9610eab565b5b610fe688828901610f17565b92509250509295509295909350565b60007fffffffff0000000000000000000000000000000000000000000000000000000082169050919050565b61102a81610ff5565b82525050565b60006020820190506110456000830184611021565b92915050565b6000819050919050565b600061107061106b61106684610cb2565b61104b565b610cb2565b9050919050565b600061108282611055565b9050919050565b600061109482611077565b9050919050565b6110a481611089565b82525050565b60006020820190506110bf600083018461109b565b92915050565b600080fd5b7f4e487b7100000000000000000000000000000000000000000000000000000000600052604160045260246000fd5b61110282610d55565b810181811067ffffffffffffffff82111715611121576111206110ca565b5b80604052505050565b6000611134610e9c565b905061114082826110f9565b919050565b600067ffffffffffffffff8211156111605761115f6110ca565b5b61116982610d55565b9050602081019050919050565b600061118961118484611145565b61112a565b9050828152602081018484840111156111a5576111a46110c5565b5b6111b0848285610d46565b509392505050565b600082601f8301126111cd576111cc610f08565b5b81356111dd848260208601611176565b91505092915050565b600080604083850312156111fd576111fc610ea6565b5b600083013567ffffffffffffffff81111561121b5761121a610eab565b5b611227858286016111b8565b925050602061123885828601610ef3565b9150509250929050565b600061124d82611077565b9050919050565b61125d81611242565b82525050565b60006020820190506112786000830184611254565b92915050565b600061128982610cb2565b9050919050565b6112998161127e565b82525050565b60006020820190506112b46000830184611290565b92915050565b60006112c582611077565b9050919050565b6112d5816112ba565b82525050565b60006020820190506112f060008301846112cc565b92915050565b60006020828403121561130c5761130b610ea6565b5b600061131a84828501610ef3565b91505092915050565b60006080820190506113386000830188610ce4565b6113456020830187610ce4565b6113526040830186610cfd565b8181036060830152611365818486610d66565b90509695505050505050565b60006020820190506113866000830184610ce4565b92915050565b60008115159050919050565b6113a18161138c565b81146113ac57600080fd5b50565b6000815190506113be81611398565b92915050565b6000602082840312156113da576113d9610ea6565b5b60006113e8848285016113af565b91505092915050565b600081519050919050565b60005b8381101561141a5780820151818401526020810190506113ff565b60008484015250505050565b6000611431826113f1565b61143b8185610dd3565b935061144b8185602086016113fc565b61145481610d55565b840191505092915050565b600060608201905081810360008301526114798186611426565b90506114886020830185610cfd565b6114956040830184610ce4565b949350505050565b60006020820190506114b26000830184610cfd565b92915050565b6000815190506114c781610edc565b92915050565b6000602082840312156114e3576114e2610ea6565b5b60006114f1848285016114b8565b91505092915050565b60008151905061150981610eb0565b92915050565b60006020828403121561152557611524610ea6565b5b6000611533848285016114fa565b91505092915050565b7f54686520636f6e7472616374206973206e6f7420617574686f72697a6564207460008201527f6f207472616e7366657220746865204e46540000000000000000000000000000602082015250565b6000611598603283610dd3565b91506115a38261153c565b604082019050919050565b600060208201905081810360008301526115c78161158b565b9050919050565b60006060820190506115e36000830186610ce4565b6115f06020830185610ce4565b6115fd6040830184610cfd565b949350505050565b600060408201905061161a6000830185610cfd565b6116276020830184610ce4565b939250505056fea2646970667358221220a0ec0ee29342ceb4418afb8429d9d6c33b94a78fab51743443e03b8ff768175264736f6c63430008140033",
  "linkReferences": {},
  "deployedLinkReferences": {}
}