{
  "_format": "hh-sol-artifact-1",
  "contractName": "ListAndSellApartment",
  "sourceName": "contracts/ListAndSellApartment.sol",
  "abi": [
    {
      "inputs": [
        {
          "internalType": "address",
          "name": "_deployedUserContractAddess",
          "type": "address"
        },
        {
          "internalType": "address",
          "name": "_deployedApartmentContractAddress",
          "type": "address"
        }
      ],
      "stateMutability": "nonpayable",
      "type": "constructor"
    },
    {
      "anonymous": false,
      "inputs": [
        {
          "indexed": false,
          "internalType": "string",
          "name": "_apartmentAddress",
          "type": "string"
        },
        {
          "indexed": false,
          "internalType": "address",
          "name": "newOwner",
          "type": "address"
        }
      ],
      "name": "apartmentBought",
      "type": "event"
    },
    {
      "anonymous": false,
      "inputs": [
        {
          "indexed": false,
          "internalType": "string",
          "name": "_apartmentAddress",
          "type": "string"
        },
        {
          "indexed": false,
          "internalType": "address",
          "name": "_owner",
          "type": "address"
        }
      ],
      "name": "apartmentOwnershipAdded",
      "type": "event"
    },
    {
      "inputs": [
        {
          "internalType": "string",
          "name": "_apartmentAddress",
          "type": "string"
        }
      ],
      "name": "BuyApartment",
      "outputs": [],
      "stateMutability": "payable",
      "type": "function"
    },
    {
      "inputs": [
        {
          "internalType": "string",
          "name": "_apartmentAddress",
          "type": "string"
        }
      ],
      "name": "deleteApartment",
      "outputs": [],
      "stateMutability": "nonpayable",
      "type": "function"
    },
    {
      "inputs": [
        {
          "internalType": "string",
          "name": "_apartmentAddress",
          "type": "string"
        },
        {
          "internalType": "string",
          "name": "_description",
          "type": "string"
        },
        {
          "internalType": "uint256",
          "name": "_price",
          "type": "uint256"
        }
      ],
      "name": "listAnApartment",
      "outputs": [],
      "stateMutability": "nonpayable",
      "type": "function"
    }
  ],
  "bytecode": "0x60806040523480156200001157600080fd5b506040516200118b3803806200118b83398181016040528101906200003791906200012a565b816000806101000a81548173ffffffffffffffffffffffffffffffffffffffff021916908373ffffffffffffffffffffffffffffffffffffffff16021790555080600160006101000a81548173ffffffffffffffffffffffffffffffffffffffff021916908373ffffffffffffffffffffffffffffffffffffffff160217905550505062000171565b600080fd5b600073ffffffffffffffffffffffffffffffffffffffff82169050919050565b6000620000f282620000c5565b9050919050565b6200010481620000e5565b81146200011057600080fd5b50565b6000815190506200012481620000f9565b92915050565b60008060408385031215620001445762000143620000c0565b5b6000620001548582860162000113565b9250506020620001678582860162000113565b9150509250929050565b61100a80620001816000396000f3fe6080604052600436106100345760003560e01c80630408b887146100395780631e90e3001461006257806397e64fa51461008b575b600080fd5b34801561004557600080fd5b50610060600480360381019061005b91906109ad565b6100a7565b005b34801561006e57600080fd5b5061008960048036038101906100849190610a2c565b610244565b005b6100a560048036038101906100a091906109ad565b6103f7565b005b33818173ffffffffffffffffffffffffffffffffffffffff16600160009054906101000a900473ffffffffffffffffffffffffffffffffffffffff1673ffffffffffffffffffffffffffffffffffffffff16635cf8a03f836040518263ffffffff1660e01b815260040161011b9190610b36565b602060405180830381865afa158015610138573d6000803e3d6000fd5b505050506040513d601f19601f8201168201806040525081019061015c9190610bb6565b73ffffffffffffffffffffffffffffffffffffffff16146101b2576040517f08c379a00000000000000000000000000000000000000000000000000000000081526004016101a990610c55565b60405180910390fd5b600160009054906101000a900473ffffffffffffffffffffffffffffffffffffffff1673ffffffffffffffffffffffffffffffffffffffff16630408b887846040518263ffffffff1660e01b815260040161020d9190610b36565b600060405180830381600087803b15801561022757600080fd5b505af115801561023b573d6000803e3d6000fd5b50505050505050565b336001151560008054906101000a900473ffffffffffffffffffffffffffffffffffffffff1673ffffffffffffffffffffffffffffffffffffffff16631abf86a8336040518263ffffffff1660e01b81526004016102a29190610c84565b602060405180830381865afa1580156102bf573d6000803e3d6000fd5b505050506040513d601f19601f820116820180604052508101906102e39190610cd7565b151514610325576040517f08c379a000000000000000000000000000000000000000000000000000000000815260040161031c90610d76565b60405180910390fd5b600160009054906101000a900473ffffffffffffffffffffffffffffffffffffffff1673ffffffffffffffffffffffffffffffffffffffff1663467fc8f8858585336040518563ffffffff1660e01b81526004016103869493929190610da5565b600060405180830381600087803b1580156103a057600080fd5b505af11580156103b4573d6000803e3d6000fd5b505050507f49aa679ffea771cfec54d2c99671d9a36da589a18f1da5dd2199718f5bf35a4084336040516103e9929190610df8565b60405180910390a150505050565b8060011515600160009054906101000a900473ffffffffffffffffffffffffffffffffffffffff1673ffffffffffffffffffffffffffffffffffffffff16632d4b4953836040518263ffffffff1660e01b81526004016104579190610b36565b602060405180830381865afa158015610474573d6000803e3d6000fd5b505050506040513d601f19601f820116820180604052508101906104989190610cd7565b1515146104da576040517f08c379a00000000000000000000000000000000000000000000000000000000081526004016104d190610e74565b60405180910390fd5b8160011515600160009054906101000a900473ffffffffffffffffffffffffffffffffffffffff1673ffffffffffffffffffffffffffffffffffffffff166371902a4c836040518263ffffffff1660e01b815260040161053a9190610b36565b602060405180830381865afa158015610557573d6000803e3d6000fd5b505050506040513d601f19601f8201168201806040525081019061057b9190610cd7565b1515146105bd576040517f08c379a00000000000000000000000000000000000000000000000000000000081526004016105b490610f06565b60405180910390fd5b823480600160009054906101000a900473ffffffffffffffffffffffffffffffffffffffff1673ffffffffffffffffffffffffffffffffffffffff16630a277fe3846040518263ffffffff1660e01b815260040161061b9190610b36565b602060405180830381865afa158015610638573d6000803e3d6000fd5b505050506040513d601f19601f8201168201806040525081019061065c9190610f3b565b1461069c576040517f08c379a000000000000000000000000000000000000000000000000000000000815260040161069390610fb4565b60405180910390fd5b6000600160009054906101000a900473ffffffffffffffffffffffffffffffffffffffff1673ffffffffffffffffffffffffffffffffffffffff16635cf8a03f876040518263ffffffff1660e01b81526004016106f99190610b36565b602060405180830381865afa158015610716573d6000803e3d6000fd5b505050506040513d601f19601f8201168201806040525081019061073a9190610bb6565b90508073ffffffffffffffffffffffffffffffffffffffff166108fc349081150290604051600060405180830381858888f19350505050158015610782573d6000803e3d6000fd5b50600160009054906101000a900473ffffffffffffffffffffffffffffffffffffffff1673ffffffffffffffffffffffffffffffffffffffff1663f5f4998b87336040518363ffffffff1660e01b81526004016107e0929190610df8565b600060405180830381600087803b1580156107fa57600080fd5b505af115801561080e573d6000803e3d6000fd5b505050507fbcc24b306bb4180073acf1b4cfd217f6278b87d8ae48bfe9845e3cdd544a54d08633604051610843929190610df8565b60405180910390a1505050505050565b6000604051905090565b600080fd5b600080fd5b600080fd5b600080fd5b6000601f19601f8301169050919050565b7f4e487b7100000000000000000000000000000000000000000000000000000000600052604160045260246000fd5b6108ba82610871565b810181811067ffffffffffffffff821117156108d9576108d8610882565b5b80604052505050565b60006108ec610853565b90506108f882826108b1565b919050565b600067ffffffffffffffff82111561091857610917610882565b5b61092182610871565b9050602081019050919050565b82818337600083830152505050565b600061095061094b846108fd565b6108e2565b90508281526020810184848401111561096c5761096b61086c565b5b61097784828561092e565b509392505050565b600082601f83011261099457610993610867565b5b81356109a484826020860161093d565b91505092915050565b6000602082840312156109c3576109c261085d565b5b600082013567ffffffffffffffff8111156109e1576109e0610862565b5b6109ed8482850161097f565b91505092915050565b6000819050919050565b610a09816109f6565b8114610a1457600080fd5b50565b600081359050610a2681610a00565b92915050565b600080600060608486031215610a4557610a4461085d565b5b600084013567ffffffffffffffff811115610a6357610a62610862565b5b610a6f8682870161097f565b935050602084013567ffffffffffffffff811115610a9057610a8f610862565b5b610a9c8682870161097f565b9250506040610aad86828701610a17565b9150509250925092565b600081519050919050565b600082825260208201905092915050565b60005b83811015610af1578082015181840152602081019050610ad6565b60008484015250505050565b6000610b0882610ab7565b610b128185610ac2565b9350610b22818560208601610ad3565b610b2b81610871565b840191505092915050565b60006020820190508181036000830152610b508184610afd565b905092915050565b600073ffffffffffffffffffffffffffffffffffffffff82169050919050565b6000610b8382610b58565b9050919050565b610b9381610b78565b8114610b9e57600080fd5b50565b600081519050610bb081610b8a565b92915050565b600060208284031215610bcc57610bcb61085d565b5b6000610bda84828501610ba1565b91505092915050565b7f536f72727920796f7520646f206e6f742068617665207065726d697373696f6e60008201527f7320746f20636f6d706c657465207468686973207461736b2100000000000000602082015250565b6000610c3f603983610ac2565b9150610c4a82610be3565b604082019050919050565b60006020820190508181036000830152610c6e81610c32565b9050919050565b610c7e81610b78565b82525050565b6000602082019050610c996000830184610c75565b92915050565b60008115159050919050565b610cb481610c9f565b8114610cbf57600080fd5b50565b600081519050610cd181610cab565b92915050565b600060208284031215610ced57610cec61085d565b5b6000610cfb84828501610cc2565b91505092915050565b7f546f20706572666f726d207468697320616374696f6e2075206e65656420746f60008201527f207369676e207570206669727374210000000000000000000000000000000000602082015250565b6000610d60602f83610ac2565b9150610d6b82610d04565b604082019050919050565b60006020820190508181036000830152610d8f81610d53565b9050919050565b610d9f816109f6565b82525050565b60006080820190508181036000830152610dbf8187610afd565b90508181036020830152610dd38186610afd565b9050610de26040830185610d96565b610def6060830184610c75565b95945050505050565b60006040820190508181036000830152610e128185610afd565b9050610e216020830184610c75565b9392505050565b7f5468652061706172746d656e74206973206e6f74206372656174656421000000600082015250565b6000610e5e601d83610ac2565b9150610e6982610e28565b602082019050919050565b60006020820190508181036000830152610e8d81610e51565b9050919050565b7f536f72727920746869732061706172746d656e74206973206e6f74206176616960008201527f6c61626c6520617420746865206d6f6d656e7421000000000000000000000000602082015250565b6000610ef0603483610ac2565b9150610efb82610e94565b604082019050919050565b60006020820190508181036000830152610f1f81610ee3565b9050919050565b600081519050610f3581610a00565b92915050565b600060208284031215610f5157610f5061085d565b5b6000610f5f84828501610f26565b91505092915050565b7f596f7520646f206e6f74206861766520656e6f67682045746821000000000000600082015250565b6000610f9e601a83610ac2565b9150610fa982610f68565b602082019050919050565b60006020820190508181036000830152610fcd81610f91565b905091905056fea26469706673582212207084ec5685d774d7a1221d52b0131780bda471cb23f07c300188bb1c0af4843864736f6c63430008120033",
  "linkReferences": {},
  "deployedLinkReferences": {}
}