{
  "_format": "hh-sol-artifact-1",
  "contractName": "Apartment",
  "sourceName": "contracts/Apartment.sol",
  "abi": [
    {
      "inputs": [
        {
          "internalType": "address",
          "name": "apartmentNFTDeployedAddress",
          "type": "address"
        }
      ],
      "stateMutability": "nonpayable",
      "type": "constructor"
    },
    {
      "inputs": [
        {
          "internalType": "uint256",
          "name": "apartmentID",
          "type": "uint256"
        }
      ],
      "name": "apartmetnDoesNotExist",
      "type": "error"
    },
    {
      "inputs": [
        {
          "internalType": "address",
          "name": "_user",
          "type": "address"
        }
      ],
      "name": "userNotAuthorized",
      "type": "error"
    },
    {
      "anonymous": false,
      "inputs": [
        {
          "indexed": false,
          "internalType": "uint256",
          "name": "apartmentID",
          "type": "uint256"
        },
        {
          "indexed": false,
          "internalType": "uint256",
          "name": "nftTokenID",
          "type": "uint256"
        },
        {
          "indexed": false,
          "internalType": "string",
          "name": "ipfsHash",
          "type": "string"
        },
        {
          "indexed": false,
          "internalType": "enum Apartment.apartmentStatus",
          "name": "aptStatus",
          "type": "uint8"
        }
      ],
      "name": "apartmentAdded",
      "type": "event"
    },
    {
      "anonymous": false,
      "inputs": [
        {
          "indexed": false,
          "internalType": "uint256",
          "name": "ntfTokenID",
          "type": "uint256"
        },
        {
          "indexed": false,
          "internalType": "uint256",
          "name": "apartmentId",
          "type": "uint256"
        }
      ],
      "name": "apartmentDeleted",
      "type": "event"
    },
    {
      "anonymous": false,
      "inputs": [
        {
          "indexed": false,
          "internalType": "uint256",
          "name": "apartmentID",
          "type": "uint256"
        },
        {
          "indexed": false,
          "internalType": "uint256",
          "name": "nftTokenId",
          "type": "uint256"
        },
        {
          "indexed": false,
          "internalType": "string",
          "name": "ipfsHash",
          "type": "string"
        },
        {
          "indexed": false,
          "internalType": "enum Apartment.apartmentStatus",
          "name": "aptStatus",
          "type": "uint8"
        }
      ],
      "name": "apartmentUpdated",
      "type": "event"
    },
    {
      "inputs": [
        {
          "internalType": "string",
          "name": "_ipfsHash",
          "type": "string"
        }
      ],
      "name": "addApartment",
      "outputs": [],
      "stateMutability": "nonpayable",
      "type": "function"
    },
    {
      "inputs": [],
      "name": "apartmentCounter",
      "outputs": [
        {
          "internalType": "uint256",
          "name": "",
          "type": "uint256"
        }
      ],
      "stateMutability": "view",
      "type": "function"
    },
    {
      "inputs": [
        {
          "internalType": "uint256",
          "name": "",
          "type": "uint256"
        }
      ],
      "name": "apartments",
      "outputs": [
        {
          "internalType": "string",
          "name": "ipfsHash",
          "type": "string"
        },
        {
          "internalType": "uint256",
          "name": "nftTokenId",
          "type": "uint256"
        },
        {
          "internalType": "enum Apartment.apartmentStatus",
          "name": "aptStatus",
          "type": "uint8"
        }
      ],
      "stateMutability": "view",
      "type": "function"
    },
    {
      "inputs": [],
      "name": "aptNFT",
      "outputs": [
        {
          "internalType": "contract apartmentNFT",
          "name": "",
          "type": "address"
        }
      ],
      "stateMutability": "view",
      "type": "function"
    },
    {
      "inputs": [
        {
          "internalType": "uint256",
          "name": "_apartmentID",
          "type": "uint256"
        }
      ],
      "name": "deleteApartment",
      "outputs": [],
      "stateMutability": "nonpayable",
      "type": "function"
    },
    {
      "inputs": [
        {
          "internalType": "uint256",
          "name": "_apartmentID",
          "type": "uint256"
        },
        {
          "internalType": "string",
          "name": "_newIpfsHash",
          "type": "string"
        },
        {
          "internalType": "enum Apartment.apartmentStatus",
          "name": "_aptStatus",
          "type": "uint8"
        }
      ],
      "name": "updateApartmentParams",
      "outputs": [],
      "stateMutability": "nonpayable",
      "type": "function"
    }
  ],
  "bytecode": "0x608060405260006002553480156200001657600080fd5b50604051620013893803806200138983398181016040528101906200003c9190620000ed565b806000806101000a81548173ffffffffffffffffffffffffffffffffffffffff021916908373ffffffffffffffffffffffffffffffffffffffff160217905550506200011f565b600080fd5b600073ffffffffffffffffffffffffffffffffffffffff82169050919050565b6000620000b58262000088565b9050919050565b620000c781620000a8565b8114620000d357600080fd5b50565b600081519050620000e781620000bc565b92915050565b60006020828403121562000106576200010562000083565b5b60006200011684828501620000d6565b91505092915050565b61125a806200012f6000396000f3fe608060405234801561001057600080fd5b50600436106100625760003560e01c8063200c758e1461006757806325b76158146100835780633263ab261461009f57806355c3fbfb146100bd5780635ee763e0146100d9578063abb8be17146100f7575b600080fd5b610081600480360381019061007c9190610a80565b610129565b005b61009d60048036038101906100989190610aef565b61034d565b005b6100a76104e6565b6040516100b49190610bb7565b60405180910390f35b6100d760048036038101906100d29190610bd2565b61050a565b005b6100e16107a9565b6040516100ee9190610c0e565b60405180910390f35b610111600480360381019061010c9190610bd2565b6107af565b60405161012093929190610d1f565b60405180910390f35b8260025481111561017157806040517f6a6d37170000000000000000000000000000000000000000000000000000000081526004016101689190610c0e565b60405180910390fd5b833373ffffffffffffffffffffffffffffffffffffffff1660008054906101000a900473ffffffffffffffffffffffffffffffffffffffff1673ffffffffffffffffffffffffffffffffffffffff16636352211e60016000858152602001908152602001600020600101546040518263ffffffff1660e01b81526004016101f89190610c0e565b602060405180830381865afa158015610215573d6000803e3d6000fd5b505050506040513d601f19601f820116820180604052508101906102399190610d9b565b73ffffffffffffffffffffffffffffffffffffffff161461029157336040517fbcc40a460000000000000000000000000000000000000000000000000000000081526004016102889190610dd7565b60405180910390fd5b836001600087815260200190815260200160002060000190816102b49190610ff4565b50826001600087815260200190815260200160002060020160006101000a81548160ff021916908360018111156102ee576102ed610ca8565b5b02179055507f44d3c5a59a28affb08a75820f63db8c7ac59bd2b5ff311867a640cdcd9e385ff856001600088815260200190815260200160002060010154868660405161033e94939291906110c6565b60405180910390a15050505050565b6000600254905060008060009054906101000a900473ffffffffffffffffffffffffffffffffffffffff1673ffffffffffffffffffffffffffffffffffffffff166373a68b8d33856040518363ffffffff1660e01b81526004016103b2929190611112565b6020604051808303816000875af11580156103d1573d6000803e3d6000fd5b505050506040513d601f19601f820116820180604052508101906103f59190611157565b905060405180606001604052808481526020018281526020016000600181111561042257610421610ca8565b5b81525060016000848152602001908152602001600020600082015181600001908161044d9190610ff4565b506020820151816001015560408201518160020160006101000a81548160ff0219169083600181111561048357610482610ca8565b5b02179055509050506002600081548092919061049e906111b3565b91905055507fa68bd18d0df628a6e809bc0c44800578dc50299af34b0b0b44462405953dd7a482828560006040516104d994939291906110c6565b60405180910390a1505050565b60008054906101000a900473ffffffffffffffffffffffffffffffffffffffff1681565b803373ffffffffffffffffffffffffffffffffffffffff1660008054906101000a900473ffffffffffffffffffffffffffffffffffffffff1673ffffffffffffffffffffffffffffffffffffffff16636352211e60016000858152602001908152602001600020600101546040518263ffffffff1660e01b81526004016105919190610c0e565b602060405180830381865afa1580156105ae573d6000803e3d6000fd5b505050506040513d601f19601f820116820180604052508101906105d29190610d9b565b73ffffffffffffffffffffffffffffffffffffffff161461062a57336040517fbcc40a460000000000000000000000000000000000000000000000000000000081526004016106219190610dd7565b60405180910390fd5b8160025481111561067257806040517f6a6d37170000000000000000000000000000000000000000000000000000000081526004016106699190610c0e565b60405180910390fd5b6001600084815260200190815260200160002060008082016000610696919061086e565b60018201600090556002820160006101000a81549060ff0219169055505060008054906101000a900473ffffffffffffffffffffffffffffffffffffffff1673ffffffffffffffffffffffffffffffffffffffff16632890e0d760016000868152602001908152602001600020600101546040518263ffffffff1660e01b81526004016107239190610c0e565b600060405180830381600087803b15801561073d57600080fd5b505af1158015610751573d6000803e3d6000fd5b505050507fd9bf993771d269d554c0f26629c5391b1ca6f34d95109b2998a43920bf7ad1c060016000858152602001908152602001600020600101548460405161079c9291906111fb565b60405180910390a1505050565b60025481565b60016020528060005260406000206000915090508060000180546107d290610e21565b80601f01602080910402602001604051908101604052809291908181526020018280546107fe90610e21565b801561084b5780601f106108205761010080835404028352916020019161084b565b820191906000526020600020905b81548152906001019060200180831161082e57829003601f168201915b5050505050908060010154908060020160009054906101000a900460ff16905083565b50805461087a90610e21565b6000825580601f1061088c57506108ab565b601f0160209004906000526020600020908101906108aa91906108ae565b5b50565b5b808211156108c75760008160009055506001016108af565b5090565b6000604051905090565b600080fd5b600080fd5b6000819050919050565b6108f2816108df565b81146108fd57600080fd5b50565b60008135905061090f816108e9565b92915050565b600080fd5b600080fd5b6000601f19601f8301169050919050565b7f4e487b7100000000000000000000000000000000000000000000000000000000600052604160045260246000fd5b6109688261091f565b810181811067ffffffffffffffff8211171561098757610986610930565b5b80604052505050565b600061099a6108cb565b90506109a6828261095f565b919050565b600067ffffffffffffffff8211156109c6576109c5610930565b5b6109cf8261091f565b9050602081019050919050565b82818337600083830152505050565b60006109fe6109f9846109ab565b610990565b905082815260208101848484011115610a1a57610a1961091a565b5b610a258482856109dc565b509392505050565b600082601f830112610a4257610a41610915565b5b8135610a528482602086016109eb565b91505092915050565b60028110610a6857600080fd5b50565b600081359050610a7a81610a5b565b92915050565b600080600060608486031215610a9957610a986108d5565b5b6000610aa786828701610900565b935050602084013567ffffffffffffffff811115610ac857610ac76108da565b5b610ad486828701610a2d565b9250506040610ae586828701610a6b565b9150509250925092565b600060208284031215610b0557610b046108d5565b5b600082013567ffffffffffffffff811115610b2357610b226108da565b5b610b2f84828501610a2d565b91505092915050565b600073ffffffffffffffffffffffffffffffffffffffff82169050919050565b6000819050919050565b6000610b7d610b78610b7384610b38565b610b58565b610b38565b9050919050565b6000610b8f82610b62565b9050919050565b6000610ba182610b84565b9050919050565b610bb181610b96565b82525050565b6000602082019050610bcc6000830184610ba8565b92915050565b600060208284031215610be857610be76108d5565b5b6000610bf684828501610900565b91505092915050565b610c08816108df565b82525050565b6000602082019050610c236000830184610bff565b92915050565b600081519050919050565b600082825260208201905092915050565b60005b83811015610c63578082015181840152602081019050610c48565b60008484015250505050565b6000610c7a82610c29565b610c848185610c34565b9350610c94818560208601610c45565b610c9d8161091f565b840191505092915050565b7f4e487b7100000000000000000000000000000000000000000000000000000000600052602160045260246000fd5b60028110610ce857610ce7610ca8565b5b50565b6000819050610cf982610cd7565b919050565b6000610d0982610ceb565b9050919050565b610d1981610cfe565b82525050565b60006060820190508181036000830152610d398186610c6f565b9050610d486020830185610bff565b610d556040830184610d10565b949350505050565b6000610d6882610b38565b9050919050565b610d7881610d5d565b8114610d8357600080fd5b50565b600081519050610d9581610d6f565b92915050565b600060208284031215610db157610db06108d5565b5b6000610dbf84828501610d86565b91505092915050565b610dd181610d5d565b82525050565b6000602082019050610dec6000830184610dc8565b92915050565b7f4e487b7100000000000000000000000000000000000000000000000000000000600052602260045260246000fd5b60006002820490506001821680610e3957607f821691505b602082108103610e4c57610e4b610df2565b5b50919050565b60008190508160005260206000209050919050565b60006020601f8301049050919050565b600082821b905092915050565b600060088302610eb47fffffffffffffffffffffffffffffffffffffffffffffffffffffffffffffffff82610e77565b610ebe8683610e77565b95508019841693508086168417925050509392505050565b6000610ef1610eec610ee7846108df565b610b58565b6108df565b9050919050565b6000819050919050565b610f0b83610ed6565b610f1f610f1782610ef8565b848454610e84565b825550505050565b600090565b610f34610f27565b610f3f818484610f02565b505050565b5b81811015610f6357610f58600082610f2c565b600181019050610f45565b5050565b601f821115610fa857610f7981610e52565b610f8284610e67565b81016020851015610f91578190505b610fa5610f9d85610e67565b830182610f44565b50505b505050565b600082821c905092915050565b6000610fcb60001984600802610fad565b1980831691505092915050565b6000610fe48383610fba565b9150826002028217905092915050565b610ffd82610c29565b67ffffffffffffffff81111561101657611015610930565b5b6110208254610e21565b61102b828285610f67565b600060209050601f83116001811461105e576000841561104c578287015190505b6110568582610fd8565b8655506110be565b601f19841661106c86610e52565b60005b828110156110945784890151825560018201915060208501945060208101905061106f565b868310156110b157848901516110ad601f891682610fba565b8355505b6001600288020188555050505b505050505050565b60006080820190506110db6000830187610bff565b6110e86020830186610bff565b81810360408301526110fa8185610c6f565b90506111096060830184610d10565b95945050505050565b60006040820190506111276000830185610dc8565b81810360208301526111398184610c6f565b90509392505050565b600081519050611151816108e9565b92915050565b60006020828403121561116d5761116c6108d5565b5b600061117b84828501611142565b91505092915050565b7f4e487b7100000000000000000000000000000000000000000000000000000000600052601160045260246000fd5b60006111be826108df565b91507fffffffffffffffffffffffffffffffffffffffffffffffffffffffffffffffff82036111f0576111ef611184565b5b600182019050919050565b60006040820190506112106000830185610bff565b61121d6020830184610bff565b939250505056fea26469706673582212208671ec8e6b9763b5337c9e0b46e192743990cf759ef6768b726b212be4862c6164736f6c63430008140033",
  "linkReferences": {},
  "deployedLinkReferences": {}
}