{
  "_format": "hh-sol-artifact-1",
  "contractName": "Apartment",
  "sourceName": "contracts/Apartment.sol",
  "abi": [
    {
      "inputs": [
        {
          "internalType": "address",
          "name": "apartmentNFTDeployedAddress",
          "type": "address"
        }
      ],
      "stateMutability": "nonpayable",
      "type": "constructor"
    },
    {
      "inputs": [
        {
          "internalType": "uint256",
          "name": "apartmentID",
          "type": "uint256"
        }
      ],
      "name": "apartmetnDoesNotExist",
      "type": "error"
    },
    {
      "inputs": [
        {
          "internalType": "address",
          "name": "_user",
          "type": "address"
        }
      ],
      "name": "userNotAuthorized",
      "type": "error"
    },
    {
      "anonymous": false,
      "inputs": [
        {
          "indexed": false,
          "internalType": "uint256",
          "name": "apartmentID",
          "type": "uint256"
        },
        {
          "indexed": false,
          "internalType": "uint256",
          "name": "nftTokenID",
          "type": "uint256"
        },
        {
          "indexed": false,
          "internalType": "string",
          "name": "ipfsHash",
          "type": "string"
        },
        {
          "indexed": false,
          "internalType": "address",
          "name": "owner",
          "type": "address"
        },
        {
          "indexed": false,
          "internalType": "uint256",
          "name": "ethPrice",
          "type": "uint256"
        }
      ],
      "name": "apartmentAdded",
      "type": "event"
    },
    {
      "anonymous": false,
      "inputs": [
        {
          "indexed": false,
          "internalType": "uint256",
          "name": "ntfTokenID",
          "type": "uint256"
        },
        {
          "indexed": false,
          "internalType": "uint256",
          "name": "apartmentId",
          "type": "uint256"
        }
      ],
      "name": "apartmentDeleted",
      "type": "event"
    },
    {
      "anonymous": false,
      "inputs": [
        {
          "indexed": false,
          "internalType": "uint256",
          "name": "apartmentID",
          "type": "uint256"
        },
        {
          "indexed": false,
          "internalType": "uint256",
          "name": "nftTokenId",
          "type": "uint256"
        },
        {
          "indexed": false,
          "internalType": "string",
          "name": "ipfsHash",
          "type": "string"
        },
        {
          "indexed": false,
          "internalType": "uint256",
          "name": "ethPrice",
          "type": "uint256"
        }
      ],
      "name": "apartmentUpdated",
      "type": "event"
    },
    {
      "inputs": [
        {
          "internalType": "string",
          "name": "_ipfsHash",
          "type": "string"
        },
        {
          "internalType": "uint256",
          "name": "_ethPrice",
          "type": "uint256"
        }
      ],
      "name": "addApartment",
      "outputs": [],
      "stateMutability": "nonpayable",
      "type": "function"
    },
    {
      "inputs": [],
      "name": "apartmentCounter",
      "outputs": [
        {
          "internalType": "uint256",
          "name": "",
          "type": "uint256"
        }
      ],
      "stateMutability": "view",
      "type": "function"
    },
    {
      "inputs": [
        {
          "internalType": "uint256",
          "name": "_apartmentID",
          "type": "uint256"
        }
      ],
      "name": "apartmentExists",
      "outputs": [
        {
          "internalType": "bool",
          "name": "",
          "type": "bool"
        }
      ],
      "stateMutability": "view",
      "type": "function"
    },
    {
      "inputs": [
        {
          "internalType": "uint256",
          "name": "_apartmentID",
          "type": "uint256"
        }
      ],
      "name": "apartmentOwner",
      "outputs": [
        {
          "internalType": "address",
          "name": "",
          "type": "address"
        }
      ],
      "stateMutability": "view",
      "type": "function"
    },
    {
      "inputs": [
        {
          "internalType": "uint256",
          "name": "",
          "type": "uint256"
        }
      ],
      "name": "apartments",
      "outputs": [
        {
          "internalType": "string",
          "name": "ipfsHash",
          "type": "string"
        },
        {
          "internalType": "uint256",
          "name": "nftTokenId",
          "type": "uint256"
        },
        {
          "internalType": "address",
          "name": "owner",
          "type": "address"
        },
        {
          "internalType": "uint256",
          "name": "ethPrice",
          "type": "uint256"
        }
      ],
      "stateMutability": "view",
      "type": "function"
    },
    {
      "inputs": [],
      "name": "aptNFT",
      "outputs": [
        {
          "internalType": "contract apartmentNFT",
          "name": "",
          "type": "address"
        }
      ],
      "stateMutability": "view",
      "type": "function"
    },
    {
      "inputs": [
        {
          "internalType": "uint256",
          "name": "_apartmentID",
          "type": "uint256"
        }
      ],
      "name": "deleteApartment",
      "outputs": [],
      "stateMutability": "nonpayable",
      "type": "function"
    },
    {
      "inputs": [
        {
          "internalType": "uint256",
          "name": "_apartmentID",
          "type": "uint256"
        }
      ],
      "name": "getApartmentEthPrice",
      "outputs": [
        {
          "internalType": "uint256",
          "name": "",
          "type": "uint256"
        }
      ],
      "stateMutability": "view",
      "type": "function"
    },
    {
      "inputs": [
        {
          "internalType": "uint256",
          "name": "_apartmentID",
          "type": "uint256"
        }
      ],
      "name": "getApartmentInfo",
      "outputs": [
        {
          "components": [
            {
              "internalType": "string",
              "name": "ipfsHash",
              "type": "string"
            },
            {
              "internalType": "uint256",
              "name": "nftTokenId",
              "type": "uint256"
            },
            {
              "internalType": "address",
              "name": "owner",
              "type": "address"
            },
            {
              "internalType": "uint256",
              "name": "ethPrice",
              "type": "uint256"
            }
          ],
          "internalType": "struct Apartment.apartmentInfo",
          "name": "",
          "type": "tuple"
        }
      ],
      "stateMutability": "view",
      "type": "function"
    },
    {
      "inputs": [
        {
          "internalType": "uint256",
          "name": "_apartmentID",
          "type": "uint256"
        }
      ],
      "name": "getApartmentNftTokenID",
      "outputs": [
        {
          "internalType": "uint256",
          "name": "",
          "type": "uint256"
        }
      ],
      "stateMutability": "view",
      "type": "function"
    },
    {
      "inputs": [
        {
          "internalType": "uint256",
          "name": "_apartmentID",
          "type": "uint256"
        },
        {
          "internalType": "string",
          "name": "_newIpfsHash",
          "type": "string"
        },
        {
          "internalType": "uint256",
          "name": "_ethPrice",
          "type": "uint256"
        }
      ],
      "name": "updateApartmentParams",
      "outputs": [],
      "stateMutability": "nonpayable",
      "type": "function"
    }
  ],
  "bytecode": "0x608060405260006002553480156200001657600080fd5b50604051620018d8380380620018d883398181016040528101906200003c9190620000ed565b806000806101000a81548173ffffffffffffffffffffffffffffffffffffffff021916908373ffffffffffffffffffffffffffffffffffffffff160217905550506200011f565b600080fd5b600073ffffffffffffffffffffffffffffffffffffffff82169050919050565b6000620000b58262000088565b9050919050565b620000c781620000a8565b8114620000d357600080fd5b50565b600081519050620000e781620000bc565b92915050565b60006020828403121562000106576200010562000083565b5b60006200011684828501620000d6565b91505092915050565b6117a9806200012f6000396000f3fe608060405234801561001057600080fd5b50600436106100a95760003560e01c80635f0667f4116100715780635f0667f41461015257806375788d7914610182578063909735ce146101b257806393353038146101e2578063abb8be17146101fe578063fe5ec9ba14610231576100a9565b80632fac5ab3146100ae5780633263ab26146100ca5780634c5ea5d9146100e857806355c3fbfb146101185780635ee763e014610134575b600080fd5b6100c860048036038101906100c39190610ea8565b610261565b005b6100d2610426565b6040516100df9190610f83565b60405180910390f35b61010260048036038101906100fd9190610f9e565b61044a565b60405161010f9190610fda565b60405180910390f35b610132600480360381019061012d9190610f9e565b61046a565b005b61013c610723565b6040516101499190610fda565b60405180910390f35b61016c60048036038101906101679190610f9e565b610729565b6040516101799190611010565b60405180910390f35b61019c60048036038101906101979190610f9e565b6107a7565b6040516101a99190610fda565b60405180910390f35b6101cc60048036038101906101c79190610f9e565b6107c7565b6040516101d9919061113d565b60405180910390f35b6101fc60048036038101906101f7919061115f565b610938565b005b61021860048036038101906102139190610f9e565b610b1d565b6040516102289493929190611227565b60405180910390f35b61024b60048036038101906102469190610f9e565b610bf5565b6040516102589190611273565b60405180910390f35b6000600254905060008060009054906101000a900473ffffffffffffffffffffffffffffffffffffffff1673ffffffffffffffffffffffffffffffffffffffff166373a68b8d33866040518363ffffffff1660e01b81526004016102c692919061128e565b6020604051808303816000875af11580156102e5573d6000803e3d6000fd5b505050506040513d601f19601f8201168201806040525081019061030991906112d3565b905060405180608001604052808581526020018281526020013373ffffffffffffffffffffffffffffffffffffffff1681526020018481525060016000848152602001908152602001600020600082015181600001908161036a9190611502565b506020820151816001015560408201518160020160006101000a81548173ffffffffffffffffffffffffffffffffffffffff021916908373ffffffffffffffffffffffffffffffffffffffff16021790555060608201518160030155905050600260008154809291906103dc90611603565b91905055507fb1dd8166e9630471c4f50086f293a6aaa5ffac12a8e7eece775410c4ec204e68828286338760405161041895949392919061164b565b60405180910390a150505050565b60008054906101000a900473ffffffffffffffffffffffffffffffffffffffff1681565b600060016000838152602001908152602001600020600301549050919050565b8060025481106104b157806040517f6a6d37170000000000000000000000000000000000000000000000000000000081526004016104a89190610fda565b60405180910390fd5b813373ffffffffffffffffffffffffffffffffffffffff1660008054906101000a900473ffffffffffffffffffffffffffffffffffffffff1673ffffffffffffffffffffffffffffffffffffffff16636352211e60016000858152602001908152602001600020600101546040518263ffffffff1660e01b81526004016105389190610fda565b602060405180830381865afa158015610555573d6000803e3d6000fd5b505050506040513d601f19601f8201168201806040525081019061057991906116d1565b73ffffffffffffffffffffffffffffffffffffffff16146105d157336040517fbcc40a460000000000000000000000000000000000000000000000000000000081526004016105c89190611273565b60405180910390fd5b60008054906101000a900473ffffffffffffffffffffffffffffffffffffffff1673ffffffffffffffffffffffffffffffffffffffff16632890e0d760016000868152602001908152602001600020600101546040518263ffffffff1660e01b81526004016106409190610fda565b600060405180830381600087803b15801561065a57600080fd5b505af115801561066e573d6000803e3d6000fd5b505050507fd9bf993771d269d554c0f26629c5391b1ca6f34d95109b2998a43920bf7ad1c06001600085815260200190815260200160002060010154846040516106b99291906116fe565b60405180910390a160016000848152602001908152602001600020600080820160006106e59190610c7d565b60018201600090556002820160006101000a81549073ffffffffffffffffffffffffffffffffffffffff021916905560038201600090555050505050565b60025481565b60008073ffffffffffffffffffffffffffffffffffffffff166001600084815260200190815260200160002060020160009054906101000a900473ffffffffffffffffffffffffffffffffffffffff1673ffffffffffffffffffffffffffffffffffffffff161461079d57600190506107a2565b600090505b919050565b600060016000838152602001908152602001600020600101549050919050565b6107cf610cbd565b81600254811061081657806040517f6a6d371700000000000000000000000000000000000000000000000000000000815260040161080d9190610fda565b60405180910390fd5b600160008481526020019081526020016000206040518060800160405290816000820180546108449061132f565b80601f01602080910402602001604051908101604052809291908181526020018280546108709061132f565b80156108bd5780601f10610892576101008083540402835291602001916108bd565b820191906000526020600020905b8154815290600101906020018083116108a057829003601f168201915b50505050508152602001600182015481526020016002820160009054906101000a900473ffffffffffffffffffffffffffffffffffffffff1673ffffffffffffffffffffffffffffffffffffffff1673ffffffffffffffffffffffffffffffffffffffff168152602001600382015481525050915050919050565b82600254811061097f57806040517f6a6d37170000000000000000000000000000000000000000000000000000000081526004016109769190610fda565b60405180910390fd5b833373ffffffffffffffffffffffffffffffffffffffff1660008054906101000a900473ffffffffffffffffffffffffffffffffffffffff1673ffffffffffffffffffffffffffffffffffffffff16636352211e60016000858152602001908152602001600020600101546040518263ffffffff1660e01b8152600401610a069190610fda565b602060405180830381865afa158015610a23573d6000803e3d6000fd5b505050506040513d601f19601f82011682018060405250810190610a4791906116d1565b73ffffffffffffffffffffffffffffffffffffffff1614610a9f57336040517fbcc40a46000000000000000000000000000000000000000000000000000000008152600401610a969190611273565b60405180910390fd5b83600160008781526020019081526020016000206000019081610ac29190611502565b507fba60be1102048dc0d3f82f8f31c1823e3c98f8f75dd8e0f202c2504e2c343d218560016000888152602001908152602001600020600101548686604051610b0e9493929190611727565b60405180910390a15050505050565b6001602052806000526040600020600091509050806000018054610b409061132f565b80601f0160208091040260200160405190810160405280929190818152602001828054610b6c9061132f565b8015610bb95780601f10610b8e57610100808354040283529160200191610bb9565b820191906000526020600020905b815481529060010190602001808311610b9c57829003601f168201915b5050505050908060010154908060020160009054906101000a900473ffffffffffffffffffffffffffffffffffffffff16908060030154905084565b6000816002548110610c3e57806040517f6a6d3717000000000000000000000000000000000000000000000000000000008152600401610c359190610fda565b60405180910390fd5b6001600084815260200190815260200160002060020160009054906101000a900473ffffffffffffffffffffffffffffffffffffffff16915050919050565b508054610c899061132f565b6000825580601f10610c9b5750610cba565b601f016020900490600052602060002090810190610cb99190610cfb565b5b50565b60405180608001604052806060815260200160008152602001600073ffffffffffffffffffffffffffffffffffffffff168152602001600081525090565b5b80821115610d14576000816000905550600101610cfc565b5090565b6000604051905090565b600080fd5b600080fd5b600080fd5b600080fd5b6000601f19601f8301169050919050565b7f4e487b7100000000000000000000000000000000000000000000000000000000600052604160045260246000fd5b610d7f82610d36565b810181811067ffffffffffffffff82111715610d9e57610d9d610d47565b5b80604052505050565b6000610db1610d18565b9050610dbd8282610d76565b919050565b600067ffffffffffffffff821115610ddd57610ddc610d47565b5b610de682610d36565b9050602081019050919050565b82818337600083830152505050565b6000610e15610e1084610dc2565b610da7565b905082815260208101848484011115610e3157610e30610d31565b5b610e3c848285610df3565b509392505050565b600082601f830112610e5957610e58610d2c565b5b8135610e69848260208601610e02565b91505092915050565b6000819050919050565b610e8581610e72565b8114610e9057600080fd5b50565b600081359050610ea281610e7c565b92915050565b60008060408385031215610ebf57610ebe610d22565b5b600083013567ffffffffffffffff811115610edd57610edc610d27565b5b610ee985828601610e44565b9250506020610efa85828601610e93565b9150509250929050565b600073ffffffffffffffffffffffffffffffffffffffff82169050919050565b6000819050919050565b6000610f49610f44610f3f84610f04565b610f24565b610f04565b9050919050565b6000610f5b82610f2e565b9050919050565b6000610f6d82610f50565b9050919050565b610f7d81610f62565b82525050565b6000602082019050610f986000830184610f74565b92915050565b600060208284031215610fb457610fb3610d22565b5b6000610fc284828501610e93565b91505092915050565b610fd481610e72565b82525050565b6000602082019050610fef6000830184610fcb565b92915050565b60008115159050919050565b61100a81610ff5565b82525050565b60006020820190506110256000830184611001565b92915050565b600081519050919050565b600082825260208201905092915050565b60005b8381101561106557808201518184015260208101905061104a565b60008484015250505050565b600061107c8261102b565b6110868185611036565b9350611096818560208601611047565b61109f81610d36565b840191505092915050565b6110b381610e72565b82525050565b60006110c482610f04565b9050919050565b6110d4816110b9565b82525050565b600060808301600083015184820360008601526110f78282611071565b915050602083015161110c60208601826110aa565b50604083015161111f60408601826110cb565b50606083015161113260608601826110aa565b508091505092915050565b6000602082019050818103600083015261115781846110da565b905092915050565b60008060006060848603121561117857611177610d22565b5b600061118686828701610e93565b935050602084013567ffffffffffffffff8111156111a7576111a6610d27565b5b6111b386828701610e44565b92505060406111c486828701610e93565b9150509250925092565b600082825260208201905092915050565b60006111ea8261102b565b6111f481856111ce565b9350611204818560208601611047565b61120d81610d36565b840191505092915050565b611221816110b9565b82525050565b6000608082019050818103600083015261124181876111df565b90506112506020830186610fcb565b61125d6040830185611218565b61126a6060830184610fcb565b95945050505050565b60006020820190506112886000830184611218565b92915050565b60006040820190506112a36000830185611218565b81810360208301526112b581846111df565b90509392505050565b6000815190506112cd81610e7c565b92915050565b6000602082840312156112e9576112e8610d22565b5b60006112f7848285016112be565b91505092915050565b7f4e487b7100000000000000000000000000000000000000000000000000000000600052602260045260246000fd5b6000600282049050600182168061134757607f821691505b60208210810361135a57611359611300565b5b50919050565b60008190508160005260206000209050919050565b60006020601f8301049050919050565b600082821b905092915050565b6000600883026113c27fffffffffffffffffffffffffffffffffffffffffffffffffffffffffffffffff82611385565b6113cc8683611385565b95508019841693508086168417925050509392505050565b60006113ff6113fa6113f584610e72565b610f24565b610e72565b9050919050565b6000819050919050565b611419836113e4565b61142d61142582611406565b848454611392565b825550505050565b600090565b611442611435565b61144d818484611410565b505050565b5b818110156114715761146660008261143a565b600181019050611453565b5050565b601f8211156114b65761148781611360565b61149084611375565b8101602085101561149f578190505b6114b36114ab85611375565b830182611452565b50505b505050565b600082821c905092915050565b60006114d9600019846008026114bb565b1980831691505092915050565b60006114f283836114c8565b9150826002028217905092915050565b61150b8261102b565b67ffffffffffffffff81111561152457611523610d47565b5b61152e825461132f565b611539828285611475565b600060209050601f83116001811461156c576000841561155a578287015190505b61156485826114e6565b8655506115cc565b601f19841661157a86611360565b60005b828110156115a25784890151825560018201915060208501945060208101905061157d565b868310156115bf57848901516115bb601f8916826114c8565b8355505b6001600288020188555050505b505050505050565b7f4e487b7100000000000000000000000000000000000000000000000000000000600052601160045260246000fd5b600061160e82610e72565b91507fffffffffffffffffffffffffffffffffffffffffffffffffffffffffffffffff82036116405761163f6115d4565b5b600182019050919050565b600060a0820190506116606000830188610fcb565b61166d6020830187610fcb565b818103604083015261167f81866111df565b905061168e6060830185611218565b61169b6080830184610fcb565b9695505050505050565b6116ae816110b9565b81146116b957600080fd5b50565b6000815190506116cb816116a5565b92915050565b6000602082840312156116e7576116e6610d22565b5b60006116f5848285016116bc565b91505092915050565b60006040820190506117136000830185610fcb565b6117206020830184610fcb565b9392505050565b600060808201905061173c6000830187610fcb565b6117496020830186610fcb565b818103604083015261175b81856111df565b905061176a6060830184610fcb565b9594505050505056fea2646970667358221220aa2b17d735e96ea4162ee4f453df070db3b1e46ed830713349006c7dc458eed364736f6c63430008140033",
  "linkReferences": {},
  "deployedLinkReferences": {}
}