{
  "_format": "hh-sol-artifact-1",
  "contractName": "Apartment",
  "sourceName": "contracts/Apartment.sol",
  "abi": [
    {
      "inputs": [
        {
          "internalType": "address",
          "name": "apartmentNFTDeployedAddress",
          "type": "address"
        }
      ],
      "stateMutability": "nonpayable",
      "type": "constructor"
    },
    {
      "inputs": [
        {
          "internalType": "uint256",
          "name": "apartmentID",
          "type": "uint256"
        }
      ],
      "name": "apartmetnDoesNotExist",
      "type": "error"
    },
    {
      "inputs": [
        {
          "internalType": "address",
          "name": "_user",
          "type": "address"
        }
      ],
      "name": "userNotAuthorized",
      "type": "error"
    },
    {
      "anonymous": false,
      "inputs": [
        {
          "indexed": false,
          "internalType": "uint256",
          "name": "apartmentID",
          "type": "uint256"
        },
        {
          "indexed": false,
          "internalType": "uint256",
          "name": "nftTokenID",
          "type": "uint256"
        },
        {
          "indexed": false,
          "internalType": "string",
          "name": "ipfsHash",
          "type": "string"
        },
        {
          "indexed": false,
          "internalType": "enum Apartment.apartmentStatus",
          "name": "aptStatus",
          "type": "uint8"
        }
      ],
      "name": "apartmentAdded",
      "type": "event"
    },
    {
      "anonymous": false,
      "inputs": [
        {
          "indexed": false,
          "internalType": "uint256",
          "name": "ntfTokenID",
          "type": "uint256"
        },
        {
          "indexed": false,
          "internalType": "uint256",
          "name": "apartmentId",
          "type": "uint256"
        }
      ],
      "name": "apartmentDeleted",
      "type": "event"
    },
    {
      "anonymous": false,
      "inputs": [
        {
          "indexed": false,
          "internalType": "uint256",
          "name": "apartmentID",
          "type": "uint256"
        },
        {
          "indexed": false,
          "internalType": "uint256",
          "name": "nftTokenId",
          "type": "uint256"
        },
        {
          "indexed": false,
          "internalType": "string",
          "name": "ipfsHash",
          "type": "string"
        },
        {
          "indexed": false,
          "internalType": "enum Apartment.apartmentStatus",
          "name": "aptStatus",
          "type": "uint8"
        }
      ],
      "name": "apartmentUpdated",
      "type": "event"
    },
    {
      "inputs": [
        {
          "internalType": "string",
          "name": "_ipfsHash",
          "type": "string"
        }
      ],
      "name": "addApartment",
      "outputs": [],
      "stateMutability": "nonpayable",
      "type": "function"
    },
    {
      "inputs": [],
      "name": "apartmentCounter",
      "outputs": [
        {
          "internalType": "uint256",
          "name": "",
          "type": "uint256"
        }
      ],
      "stateMutability": "view",
      "type": "function"
    },
    {
      "inputs": [
        {
          "internalType": "uint256",
          "name": "",
          "type": "uint256"
        }
      ],
      "name": "apartments",
      "outputs": [
        {
          "internalType": "string",
          "name": "ipfsHash",
          "type": "string"
        },
        {
          "internalType": "uint256",
          "name": "nftTokenId",
          "type": "uint256"
        },
        {
          "internalType": "enum Apartment.apartmentStatus",
          "name": "aptStatus",
          "type": "uint8"
        }
      ],
      "stateMutability": "view",
      "type": "function"
    },
    {
      "inputs": [],
      "name": "aptNFT",
      "outputs": [
        {
          "internalType": "contract apartmentNFT",
          "name": "",
          "type": "address"
        }
      ],
      "stateMutability": "view",
      "type": "function"
    },
    {
      "inputs": [
        {
          "internalType": "uint256",
          "name": "_apartmentID",
          "type": "uint256"
        }
      ],
      "name": "deleteApartment",
      "outputs": [],
      "stateMutability": "nonpayable",
      "type": "function"
    },
    {
      "inputs": [
        {
          "internalType": "uint256",
          "name": "_apartmentID",
          "type": "uint256"
        }
      ],
      "name": "getApartmentInfo",
      "outputs": [
        {
          "components": [
            {
              "internalType": "string",
              "name": "ipfsHash",
              "type": "string"
            },
            {
              "internalType": "uint256",
              "name": "nftTokenId",
              "type": "uint256"
            },
            {
              "internalType": "enum Apartment.apartmentStatus",
              "name": "aptStatus",
              "type": "uint8"
            }
          ],
          "internalType": "struct Apartment.apartmentInfo",
          "name": "",
          "type": "tuple"
        }
      ],
      "stateMutability": "view",
      "type": "function"
    },
    {
      "inputs": [
        {
          "internalType": "uint256",
          "name": "_apartmentID",
          "type": "uint256"
        },
        {
          "internalType": "string",
          "name": "_newIpfsHash",
          "type": "string"
        },
        {
          "internalType": "enum Apartment.apartmentStatus",
          "name": "_aptStatus",
          "type": "uint8"
        }
      ],
      "name": "updateApartmentParams",
      "outputs": [],
      "stateMutability": "nonpayable",
      "type": "function"
    }
  ],
  "bytecode": "0x608060405260006002553480156200001657600080fd5b506040516200162b3803806200162b83398181016040528101906200003c9190620000ed565b806000806101000a81548173ffffffffffffffffffffffffffffffffffffffff021916908373ffffffffffffffffffffffffffffffffffffffff160217905550506200011f565b600080fd5b600073ffffffffffffffffffffffffffffffffffffffff82169050919050565b6000620000b58262000088565b9050919050565b620000c781620000a8565b8114620000d357600080fd5b50565b600081519050620000e781620000bc565b92915050565b60006020828403121562000106576200010562000083565b5b60006200011684828501620000d6565b91505092915050565b6114fc806200012f6000396000f3fe608060405234801561001057600080fd5b506004361061007d5760003560e01c806355c3fbfb1161005b57806355c3fbfb146100d85780635ee763e0146100f4578063909735ce14610112578063abb8be17146101425761007d565b8063200c758e1461008257806325b761581461009e5780633263ab26146100ba575b600080fd5b61009c60048036038101906100979190610c48565b610174565b005b6100b860048036038101906100b39190610cb7565b610397565b005b6100c2610530565b6040516100cf9190610d7f565b60405180910390f35b6100f260048036038101906100ed9190610d9a565b610554565b005b6100fc6107f2565b6040516101099190610dd6565b60405180910390f35b61012c60048036038101906101279190610d9a565b6107f8565b6040516101399190610f46565b60405180910390f35b61015c60048036038101906101579190610d9a565b610944565b60405161016b93929190610fc1565b60405180910390f35b8260025481106101bb57806040517f6a6d37170000000000000000000000000000000000000000000000000000000081526004016101b29190610dd6565b60405180910390fd5b833373ffffffffffffffffffffffffffffffffffffffff1660008054906101000a900473ffffffffffffffffffffffffffffffffffffffff1673ffffffffffffffffffffffffffffffffffffffff16636352211e60016000858152602001908152602001600020600101546040518263ffffffff1660e01b81526004016102429190610dd6565b602060405180830381865afa15801561025f573d6000803e3d6000fd5b505050506040513d601f19601f82011682018060405250810190610283919061103d565b73ffffffffffffffffffffffffffffffffffffffff16146102db57336040517fbcc40a460000000000000000000000000000000000000000000000000000000081526004016102d29190611079565b60405180910390fd5b836001600087815260200190815260200160002060000190816102fe9190611296565b50826001600087815260200190815260200160002060020160006101000a81548160ff0219169083600181111561033857610337610e7f565b5b02179055507f44d3c5a59a28affb08a75820f63db8c7ac59bd2b5ff311867a640cdcd9e385ff85600160008881526020019081526020016000206001015486866040516103889493929190611368565b60405180910390a15050505050565b6000600254905060008060009054906101000a900473ffffffffffffffffffffffffffffffffffffffff1673ffffffffffffffffffffffffffffffffffffffff166373a68b8d33856040518363ffffffff1660e01b81526004016103fc9291906113b4565b6020604051808303816000875af115801561041b573d6000803e3d6000fd5b505050506040513d601f19601f8201168201806040525081019061043f91906113f9565b905060405180606001604052808481526020018281526020016000600181111561046c5761046b610e7f565b5b8152506001600084815260200190815260200160002060008201518160000190816104979190611296565b506020820151816001015560408201518160020160006101000a81548160ff021916908360018111156104cd576104cc610e7f565b5b0217905550905050600260008154809291906104e890611455565b91905055507fa68bd18d0df628a6e809bc0c44800578dc50299af34b0b0b44462405953dd7a482828560006040516105239493929190611368565b60405180910390a1505050565b60008054906101000a900473ffffffffffffffffffffffffffffffffffffffff1681565b80600254811061059b57806040517f6a6d37170000000000000000000000000000000000000000000000000000000081526004016105929190610dd6565b60405180910390fd5b813373ffffffffffffffffffffffffffffffffffffffff1660008054906101000a900473ffffffffffffffffffffffffffffffffffffffff1673ffffffffffffffffffffffffffffffffffffffff16636352211e60016000858152602001908152602001600020600101546040518263ffffffff1660e01b81526004016106229190610dd6565b602060405180830381865afa15801561063f573d6000803e3d6000fd5b505050506040513d601f19601f82011682018060405250810190610663919061103d565b73ffffffffffffffffffffffffffffffffffffffff16146106bb57336040517fbcc40a460000000000000000000000000000000000000000000000000000000081526004016106b29190611079565b60405180910390fd5b60008054906101000a900473ffffffffffffffffffffffffffffffffffffffff1673ffffffffffffffffffffffffffffffffffffffff16632890e0d760016000868152602001908152602001600020600101546040518263ffffffff1660e01b815260040161072a9190610dd6565b600060405180830381600087803b15801561074457600080fd5b505af1158015610758573d6000803e3d6000fd5b505050507fd9bf993771d269d554c0f26629c5391b1ca6f34d95109b2998a43920bf7ad1c06001600085815260200190815260200160002060010154846040516107a392919061149d565b60405180910390a160016000848152602001908152602001600020600080820160006107cf9190610a03565b60018201600090556002820160006101000a81549060ff02191690555050505050565b60025481565b610800610a43565b81600254811061084757806040517f6a6d371700000000000000000000000000000000000000000000000000000000815260040161083e9190610dd6565b60405180910390fd5b60016000848152602001908152602001600020604051806060016040529081600082018054610875906110c3565b80601f01602080910402602001604051908101604052809291908181526020018280546108a1906110c3565b80156108ee5780601f106108c3576101008083540402835291602001916108ee565b820191906000526020600020905b8154815290600101906020018083116108d157829003601f168201915b50505050508152602001600182015481526020016002820160009054906101000a900460ff16600181111561092657610925610e7f565b5b600181111561093857610937610e7f565b5b81525050915050919050565b6001602052806000526040600020600091509050806000018054610967906110c3565b80601f0160208091040260200160405190810160405280929190818152602001828054610993906110c3565b80156109e05780601f106109b5576101008083540402835291602001916109e0565b820191906000526020600020905b8154815290600101906020018083116109c357829003601f168201915b5050505050908060010154908060020160009054906101000a900460ff16905083565b508054610a0f906110c3565b6000825580601f10610a215750610a40565b601f016020900490600052602060002090810190610a3f9190610a76565b5b50565b6040518060600160405280606081526020016000815260200160006001811115610a7057610a6f610e7f565b5b81525090565b5b80821115610a8f576000816000905550600101610a77565b5090565b6000604051905090565b600080fd5b600080fd5b6000819050919050565b610aba81610aa7565b8114610ac557600080fd5b50565b600081359050610ad781610ab1565b92915050565b600080fd5b600080fd5b6000601f19601f8301169050919050565b7f4e487b7100000000000000000000000000000000000000000000000000000000600052604160045260246000fd5b610b3082610ae7565b810181811067ffffffffffffffff82111715610b4f57610b4e610af8565b5b80604052505050565b6000610b62610a93565b9050610b6e8282610b27565b919050565b600067ffffffffffffffff821115610b8e57610b8d610af8565b5b610b9782610ae7565b9050602081019050919050565b82818337600083830152505050565b6000610bc6610bc184610b73565b610b58565b905082815260208101848484011115610be257610be1610ae2565b5b610bed848285610ba4565b509392505050565b600082601f830112610c0a57610c09610add565b5b8135610c1a848260208601610bb3565b91505092915050565b60028110610c3057600080fd5b50565b600081359050610c4281610c23565b92915050565b600080600060608486031215610c6157610c60610a9d565b5b6000610c6f86828701610ac8565b935050602084013567ffffffffffffffff811115610c9057610c8f610aa2565b5b610c9c86828701610bf5565b9250506040610cad86828701610c33565b9150509250925092565b600060208284031215610ccd57610ccc610a9d565b5b600082013567ffffffffffffffff811115610ceb57610cea610aa2565b5b610cf784828501610bf5565b91505092915050565b600073ffffffffffffffffffffffffffffffffffffffff82169050919050565b6000819050919050565b6000610d45610d40610d3b84610d00565b610d20565b610d00565b9050919050565b6000610d5782610d2a565b9050919050565b6000610d6982610d4c565b9050919050565b610d7981610d5e565b82525050565b6000602082019050610d946000830184610d70565b92915050565b600060208284031215610db057610daf610a9d565b5b6000610dbe84828501610ac8565b91505092915050565b610dd081610aa7565b82525050565b6000602082019050610deb6000830184610dc7565b92915050565b600081519050919050565b600082825260208201905092915050565b60005b83811015610e2b578082015181840152602081019050610e10565b60008484015250505050565b6000610e4282610df1565b610e4c8185610dfc565b9350610e5c818560208601610e0d565b610e6581610ae7565b840191505092915050565b610e7981610aa7565b82525050565b7f4e487b7100000000000000000000000000000000000000000000000000000000600052602160045260246000fd5b60028110610ebf57610ebe610e7f565b5b50565b6000819050610ed082610eae565b919050565b6000610ee082610ec2565b9050919050565b610ef081610ed5565b82525050565b60006060830160008301518482036000860152610f138282610e37565b9150506020830151610f286020860182610e70565b506040830151610f3b6040860182610ee7565b508091505092915050565b60006020820190508181036000830152610f608184610ef6565b905092915050565b600082825260208201905092915050565b6000610f8482610df1565b610f8e8185610f68565b9350610f9e818560208601610e0d565b610fa781610ae7565b840191505092915050565b610fbb81610ed5565b82525050565b60006060820190508181036000830152610fdb8186610f79565b9050610fea6020830185610dc7565b610ff76040830184610fb2565b949350505050565b600061100a82610d00565b9050919050565b61101a81610fff565b811461102557600080fd5b50565b60008151905061103781611011565b92915050565b60006020828403121561105357611052610a9d565b5b600061106184828501611028565b91505092915050565b61107381610fff565b82525050565b600060208201905061108e600083018461106a565b92915050565b7f4e487b7100000000000000000000000000000000000000000000000000000000600052602260045260246000fd5b600060028204905060018216806110db57607f821691505b6020821081036110ee576110ed611094565b5b50919050565b60008190508160005260206000209050919050565b60006020601f8301049050919050565b600082821b905092915050565b6000600883026111567fffffffffffffffffffffffffffffffffffffffffffffffffffffffffffffffff82611119565b6111608683611119565b95508019841693508086168417925050509392505050565b600061119361118e61118984610aa7565b610d20565b610aa7565b9050919050565b6000819050919050565b6111ad83611178565b6111c16111b98261119a565b848454611126565b825550505050565b600090565b6111d66111c9565b6111e18184846111a4565b505050565b5b81811015611205576111fa6000826111ce565b6001810190506111e7565b5050565b601f82111561124a5761121b816110f4565b61122484611109565b81016020851015611233578190505b61124761123f85611109565b8301826111e6565b50505b505050565b600082821c905092915050565b600061126d6000198460080261124f565b1980831691505092915050565b6000611286838361125c565b9150826002028217905092915050565b61129f82610df1565b67ffffffffffffffff8111156112b8576112b7610af8565b5b6112c282546110c3565b6112cd828285611209565b600060209050601f83116001811461130057600084156112ee578287015190505b6112f8858261127a565b865550611360565b601f19841661130e866110f4565b60005b8281101561133657848901518255600182019150602085019450602081019050611311565b86831015611353578489015161134f601f89168261125c565b8355505b6001600288020188555050505b505050505050565b600060808201905061137d6000830187610dc7565b61138a6020830186610dc7565b818103604083015261139c8185610f79565b90506113ab6060830184610fb2565b95945050505050565b60006040820190506113c9600083018561106a565b81810360208301526113db8184610f79565b90509392505050565b6000815190506113f381610ab1565b92915050565b60006020828403121561140f5761140e610a9d565b5b600061141d848285016113e4565b91505092915050565b7f4e487b7100000000000000000000000000000000000000000000000000000000600052601160045260246000fd5b600061146082610aa7565b91507fffffffffffffffffffffffffffffffffffffffffffffffffffffffffffffffff820361149257611491611426565b5b600182019050919050565b60006040820190506114b26000830185610dc7565b6114bf6020830184610dc7565b939250505056fea264697066735822122070cfdcd7f44649c7a1389177dae00a0da6a0eae37051c7be59cf28603e8e08aa64736f6c63430008140033",
  "linkReferences": {},
  "deployedLinkReferences": {}
}