{
  "_format": "hh-sol-artifact-1",
  "contractName": "Apartment",
  "sourceName": "contracts/Apartment.sol",
  "abi": [
    {
      "inputs": [
        {
          "internalType": "address",
          "name": "apartmentNFTDeployedAddress",
          "type": "address"
        }
      ],
      "stateMutability": "nonpayable",
      "type": "constructor"
    },
    {
      "inputs": [
        {
          "internalType": "uint256",
          "name": "apartmentID",
          "type": "uint256"
        }
      ],
      "name": "apartmetnDoesNotExist",
      "type": "error"
    },
    {
      "inputs": [
        {
          "internalType": "address",
          "name": "_user",
          "type": "address"
        }
      ],
      "name": "userNotAuthorized",
      "type": "error"
    },
    {
      "anonymous": false,
      "inputs": [
        {
          "indexed": false,
          "internalType": "uint256",
          "name": "apartmentID",
          "type": "uint256"
        },
        {
          "indexed": false,
          "internalType": "uint256",
          "name": "nftTokenID",
          "type": "uint256"
        },
        {
          "indexed": false,
          "internalType": "string",
          "name": "ipfsHash",
          "type": "string"
        },
        {
          "indexed": false,
          "internalType": "address",
          "name": "owner",
          "type": "address"
        },
        {
          "indexed": false,
          "internalType": "uint256",
          "name": "ethPrice",
          "type": "uint256"
        }
      ],
      "name": "apartmentAdded",
      "type": "event"
    },
    {
      "anonymous": false,
      "inputs": [
        {
          "indexed": false,
          "internalType": "uint256",
          "name": "ntfTokenID",
          "type": "uint256"
        },
        {
          "indexed": false,
          "internalType": "uint256",
          "name": "apartmentId",
          "type": "uint256"
        }
      ],
      "name": "apartmentDeleted",
      "type": "event"
    },
    {
      "anonymous": false,
      "inputs": [
        {
          "indexed": false,
          "internalType": "uint256",
          "name": "apartmentID",
          "type": "uint256"
        },
        {
          "indexed": false,
          "internalType": "uint256",
          "name": "nftTokenId",
          "type": "uint256"
        },
        {
          "indexed": false,
          "internalType": "string",
          "name": "ipfsHash",
          "type": "string"
        },
        {
          "indexed": false,
          "internalType": "uint256",
          "name": "ethPrice",
          "type": "uint256"
        }
      ],
      "name": "apartmentUpdated",
      "type": "event"
    },
    {
      "inputs": [
        {
          "internalType": "string",
          "name": "_ipfsHash",
          "type": "string"
        },
        {
          "internalType": "uint256",
          "name": "_ethPrice",
          "type": "uint256"
        },
        {
          "internalType": "address",
          "name": "_owner",
          "type": "address"
        }
      ],
      "name": "addApartment",
      "outputs": [],
      "stateMutability": "nonpayable",
      "type": "function"
    },
    {
      "inputs": [],
      "name": "apartmentCounter",
      "outputs": [
        {
          "internalType": "uint256",
          "name": "",
          "type": "uint256"
        }
      ],
      "stateMutability": "view",
      "type": "function"
    },
    {
      "inputs": [
        {
          "internalType": "uint256",
          "name": "_apartmentID",
          "type": "uint256"
        }
      ],
      "name": "apartmentExists",
      "outputs": [
        {
          "internalType": "bool",
          "name": "",
          "type": "bool"
        }
      ],
      "stateMutability": "view",
      "type": "function"
    },
    {
      "inputs": [
        {
          "internalType": "uint256",
          "name": "_apartmentID",
          "type": "uint256"
        }
      ],
      "name": "apartmentOwner",
      "outputs": [
        {
          "internalType": "address",
          "name": "",
          "type": "address"
        }
      ],
      "stateMutability": "view",
      "type": "function"
    },
    {
      "inputs": [
        {
          "internalType": "uint256",
          "name": "",
          "type": "uint256"
        }
      ],
      "name": "apartments",
      "outputs": [
        {
          "internalType": "string",
          "name": "ipfsHash",
          "type": "string"
        },
        {
          "internalType": "uint256",
          "name": "nftTokenId",
          "type": "uint256"
        },
        {
          "internalType": "address",
          "name": "owner",
          "type": "address"
        },
        {
          "internalType": "uint256",
          "name": "ethPrice",
          "type": "uint256"
        }
      ],
      "stateMutability": "view",
      "type": "function"
    },
    {
      "inputs": [],
      "name": "aptNFT",
      "outputs": [
        {
          "internalType": "contract apartmentNFT",
          "name": "",
          "type": "address"
        }
      ],
      "stateMutability": "view",
      "type": "function"
    },
    {
      "inputs": [
        {
          "internalType": "uint256",
          "name": "_apartmentID",
          "type": "uint256"
        }
      ],
      "name": "deleteApartment",
      "outputs": [],
      "stateMutability": "nonpayable",
      "type": "function"
    },
    {
      "inputs": [
        {
          "internalType": "uint256",
          "name": "_apartmentID",
          "type": "uint256"
        }
      ],
      "name": "getApartmentEthPrice",
      "outputs": [
        {
          "internalType": "uint256",
          "name": "",
          "type": "uint256"
        }
      ],
      "stateMutability": "view",
      "type": "function"
    },
    {
      "inputs": [
        {
          "internalType": "uint256",
          "name": "_apartmentID",
          "type": "uint256"
        }
      ],
      "name": "getApartmentInfo",
      "outputs": [
        {
          "components": [
            {
              "internalType": "string",
              "name": "ipfsHash",
              "type": "string"
            },
            {
              "internalType": "uint256",
              "name": "nftTokenId",
              "type": "uint256"
            },
            {
              "internalType": "address",
              "name": "owner",
              "type": "address"
            },
            {
              "internalType": "uint256",
              "name": "ethPrice",
              "type": "uint256"
            }
          ],
          "internalType": "struct Apartment.apartmentInfo",
          "name": "",
          "type": "tuple"
        }
      ],
      "stateMutability": "view",
      "type": "function"
    },
    {
      "inputs": [
        {
          "internalType": "uint256",
          "name": "_apartmentID",
          "type": "uint256"
        }
      ],
      "name": "getApartmentNftTokenID",
      "outputs": [
        {
          "internalType": "uint256",
          "name": "",
          "type": "uint256"
        }
      ],
      "stateMutability": "view",
      "type": "function"
    },
    {
      "inputs": [
        {
          "internalType": "uint256",
          "name": "_apartmentID",
          "type": "uint256"
        },
        {
          "internalType": "string",
          "name": "_newIpfsHash",
          "type": "string"
        },
        {
          "internalType": "uint256",
          "name": "_ethPrice",
          "type": "uint256"
        }
      ],
      "name": "updateApartmentParams",
      "outputs": [],
      "stateMutability": "nonpayable",
      "type": "function"
    }
  ],
  "bytecode": "0x608060405260006002553480156200001657600080fd5b50604051620019953803806200199583398181016040528101906200003c9190620000ed565b806000806101000a81548173ffffffffffffffffffffffffffffffffffffffff021916908373ffffffffffffffffffffffffffffffffffffffff160217905550506200011f565b600080fd5b600073ffffffffffffffffffffffffffffffffffffffff82169050919050565b6000620000b58262000088565b9050919050565b620000c781620000a8565b8114620000d357600080fd5b50565b600081519050620000e781620000bc565b92915050565b60006020828403121562000106576200010562000083565b5b60006200011684828501620000d6565b91505092915050565b611866806200012f6000396000f3fe608060405234801561001057600080fd5b50600436106100a95760003560e01c806375788d791161007157806375788d7914610166578063909735ce1461019657806393353038146101c6578063abb8be17146101e2578063eaa4254214610215578063fe5ec9ba14610231576100a9565b80633263ab26146100ae5780634c5ea5d9146100cc57806355c3fbfb146100fc5780635ee763e0146101185780635f0667f414610136575b600080fd5b6100b6610261565b6040516100c39190610d9a565b60405180910390f35b6100e660048036038101906100e19190610dff565b610285565b6040516100f39190610e3b565b60405180910390f35b61011660048036038101906101119190610dff565b6102a5565b005b610120610560565b60405161012d9190610e3b565b60405180910390f35b610150600480360381019061014b9190610dff565b610566565b60405161015d9190610e71565b60405180910390f35b610180600480360381019061017b9190610dff565b6105e4565b60405161018d9190610e3b565b60405180910390f35b6101b060048036038101906101ab9190610dff565b610604565b6040516101bd9190610faf565b60405180910390f35b6101e060048036038101906101db9190611106565b610775565b005b6101fc60048036038101906101f79190610dff565b61095a565b60405161020c94939291906111ce565b60405180910390f35b61022f600480360381019061022a9190611246565b610a32565b005b61024b60048036038101906102469190610dff565b610bf8565b60405161025891906112b5565b60405180910390f35b60008054906101000a900473ffffffffffffffffffffffffffffffffffffffff1681565b600060016000838152602001908152602001600020600301549050919050565b8060025481106102ec57806040517f6a6d37170000000000000000000000000000000000000000000000000000000081526004016102e39190610e3b565b60405180910390fd5b6000600160008481526020019081526020016000206001015490503073ffffffffffffffffffffffffffffffffffffffff1660008054906101000a900473ffffffffffffffffffffffffffffffffffffffff1673ffffffffffffffffffffffffffffffffffffffff1663081812fc836040518263ffffffff1660e01b81526004016103779190610e3b565b602060405180830381865afa158015610394573d6000803e3d6000fd5b505050506040513d601f19601f820116820180604052508101906103b891906112e5565b73ffffffffffffffffffffffffffffffffffffffff161461040e576040517f08c379a000000000000000000000000000000000000000000000000000000000815260040161040590611384565b60405180910390fd5b60008054906101000a900473ffffffffffffffffffffffffffffffffffffffff1673ffffffffffffffffffffffffffffffffffffffff16632890e0d760016000868152602001908152602001600020600101546040518263ffffffff1660e01b815260040161047d9190610e3b565b600060405180830381600087803b15801561049757600080fd5b505af11580156104ab573d6000803e3d6000fd5b505050507fd9bf993771d269d554c0f26629c5391b1ca6f34d95109b2998a43920bf7ad1c06001600085815260200190815260200160002060010154846040516104f69291906113a4565b60405180910390a160016000848152602001908152602001600020600080820160006105229190610c80565b60018201600090556002820160006101000a81549073ffffffffffffffffffffffffffffffffffffffff021916905560038201600090555050505050565b60025481565b60008073ffffffffffffffffffffffffffffffffffffffff166001600084815260200190815260200160002060020160009054906101000a900473ffffffffffffffffffffffffffffffffffffffff1673ffffffffffffffffffffffffffffffffffffffff16146105da57600190506105df565b600090505b919050565b600060016000838152602001908152602001600020600101549050919050565b61060c610cc0565b81600254811061065357806040517f6a6d371700000000000000000000000000000000000000000000000000000000815260040161064a9190610e3b565b60405180910390fd5b60016000848152602001908152602001600020604051806080016040529081600082018054610681906113fc565b80601f01602080910402602001604051908101604052809291908181526020018280546106ad906113fc565b80156106fa5780601f106106cf576101008083540402835291602001916106fa565b820191906000526020600020905b8154815290600101906020018083116106dd57829003601f168201915b50505050508152602001600182015481526020016002820160009054906101000a900473ffffffffffffffffffffffffffffffffffffffff1673ffffffffffffffffffffffffffffffffffffffff1673ffffffffffffffffffffffffffffffffffffffff168152602001600382015481525050915050919050565b8260025481106107bc57806040517f6a6d37170000000000000000000000000000000000000000000000000000000081526004016107b39190610e3b565b60405180910390fd5b833373ffffffffffffffffffffffffffffffffffffffff1660008054906101000a900473ffffffffffffffffffffffffffffffffffffffff1673ffffffffffffffffffffffffffffffffffffffff16636352211e60016000858152602001908152602001600020600101546040518263ffffffff1660e01b81526004016108439190610e3b565b602060405180830381865afa158015610860573d6000803e3d6000fd5b505050506040513d601f19601f8201168201806040525081019061088491906112e5565b73ffffffffffffffffffffffffffffffffffffffff16146108dc57336040517fbcc40a460000000000000000000000000000000000000000000000000000000081526004016108d391906112b5565b60405180910390fd5b836001600087815260200190815260200160002060000190816108ff91906115cf565b507fba60be1102048dc0d3f82f8f31c1823e3c98f8f75dd8e0f202c2504e2c343d21856001600088815260200190815260200160002060010154868660405161094b94939291906116a1565b60405180910390a15050505050565b600160205280600052604060002060009150905080600001805461097d906113fc565b80601f01602080910402602001604051908101604052809291908181526020018280546109a9906113fc565b80156109f65780601f106109cb576101008083540402835291602001916109f6565b820191906000526020600020905b8154815290600101906020018083116109d957829003601f168201915b5050505050908060010154908060020160009054906101000a900473ffffffffffffffffffffffffffffffffffffffff16908060030154905084565b6000600254905060008060009054906101000a900473ffffffffffffffffffffffffffffffffffffffff1673ffffffffffffffffffffffffffffffffffffffff166373a68b8d84876040518363ffffffff1660e01b8152600401610a979291906116ed565b6020604051808303816000875af1158015610ab6573d6000803e3d6000fd5b505050506040513d601f19601f82011682018060405250810190610ada9190611732565b905060405180608001604052808681526020018281526020018473ffffffffffffffffffffffffffffffffffffffff16815260200185815250600160008481526020019081526020016000206000820151816000019081610b3b91906115cf565b506020820151816001015560408201518160020160006101000a81548173ffffffffffffffffffffffffffffffffffffffff021916908373ffffffffffffffffffffffffffffffffffffffff1602179055506060820151816003015590505060026000815480929190610bad9061178e565b91905055507fb1dd8166e9630471c4f50086f293a6aaa5ffac12a8e7eece775410c4ec204e688282878688604051610be99594939291906117d6565b60405180910390a15050505050565b6000816002548110610c4157806040517f6a6d3717000000000000000000000000000000000000000000000000000000008152600401610c389190610e3b565b60405180910390fd5b6001600084815260200190815260200160002060020160009054906101000a900473ffffffffffffffffffffffffffffffffffffffff16915050919050565b508054610c8c906113fc565b6000825580601f10610c9e5750610cbd565b601f016020900490600052602060002090810190610cbc9190610cfe565b5b50565b60405180608001604052806060815260200160008152602001600073ffffffffffffffffffffffffffffffffffffffff168152602001600081525090565b5b80821115610d17576000816000905550600101610cff565b5090565b600073ffffffffffffffffffffffffffffffffffffffff82169050919050565b6000819050919050565b6000610d60610d5b610d5684610d1b565b610d3b565b610d1b565b9050919050565b6000610d7282610d45565b9050919050565b6000610d8482610d67565b9050919050565b610d9481610d79565b82525050565b6000602082019050610daf6000830184610d8b565b92915050565b6000604051905090565b600080fd5b600080fd5b6000819050919050565b610ddc81610dc9565b8114610de757600080fd5b50565b600081359050610df981610dd3565b92915050565b600060208284031215610e1557610e14610dbf565b5b6000610e2384828501610dea565b91505092915050565b610e3581610dc9565b82525050565b6000602082019050610e506000830184610e2c565b92915050565b60008115159050919050565b610e6b81610e56565b82525050565b6000602082019050610e866000830184610e62565b92915050565b600081519050919050565b600082825260208201905092915050565b60005b83811015610ec6578082015181840152602081019050610eab565b60008484015250505050565b6000601f19601f8301169050919050565b6000610eee82610e8c565b610ef88185610e97565b9350610f08818560208601610ea8565b610f1181610ed2565b840191505092915050565b610f2581610dc9565b82525050565b6000610f3682610d1b565b9050919050565b610f4681610f2b565b82525050565b60006080830160008301518482036000860152610f698282610ee3565b9150506020830151610f7e6020860182610f1c565b506040830151610f916040860182610f3d565b506060830151610fa46060860182610f1c565b508091505092915050565b60006020820190508181036000830152610fc98184610f4c565b905092915050565b600080fd5b600080fd5b7f4e487b7100000000000000000000000000000000000000000000000000000000600052604160045260246000fd5b61101382610ed2565b810181811067ffffffffffffffff8211171561103257611031610fdb565b5b80604052505050565b6000611045610db5565b9050611051828261100a565b919050565b600067ffffffffffffffff82111561107157611070610fdb565b5b61107a82610ed2565b9050602081019050919050565b82818337600083830152505050565b60006110a96110a484611056565b61103b565b9050828152602081018484840111156110c5576110c4610fd6565b5b6110d0848285611087565b509392505050565b600082601f8301126110ed576110ec610fd1565b5b81356110fd848260208601611096565b91505092915050565b60008060006060848603121561111f5761111e610dbf565b5b600061112d86828701610dea565b935050602084013567ffffffffffffffff81111561114e5761114d610dc4565b5b61115a868287016110d8565b925050604061116b86828701610dea565b9150509250925092565b600082825260208201905092915050565b600061119182610e8c565b61119b8185611175565b93506111ab818560208601610ea8565b6111b481610ed2565b840191505092915050565b6111c881610f2b565b82525050565b600060808201905081810360008301526111e88187611186565b90506111f76020830186610e2c565b61120460408301856111bf565b6112116060830184610e2c565b95945050505050565b61122381610f2b565b811461122e57600080fd5b50565b6000813590506112408161121a565b92915050565b60008060006060848603121561125f5761125e610dbf565b5b600084013567ffffffffffffffff81111561127d5761127c610dc4565b5b611289868287016110d8565b935050602061129a86828701610dea565b92505060406112ab86828701611231565b9150509250925092565b60006020820190506112ca60008301846111bf565b92915050565b6000815190506112df8161121a565b92915050565b6000602082840312156112fb576112fa610dbf565b5b6000611309848285016112d0565b91505092915050565b7f54686520636f6e7472616374206973206e6f7420617574686f72697a6564207460008201527f6f206275726e20746865204e4654000000000000000000000000000000000000602082015250565b600061136e602e83611175565b915061137982611312565b604082019050919050565b6000602082019050818103600083015261139d81611361565b9050919050565b60006040820190506113b96000830185610e2c565b6113c66020830184610e2c565b9392505050565b7f4e487b7100000000000000000000000000000000000000000000000000000000600052602260045260246000fd5b6000600282049050600182168061141457607f821691505b602082108103611427576114266113cd565b5b50919050565b60008190508160005260206000209050919050565b60006020601f8301049050919050565b600082821b905092915050565b60006008830261148f7fffffffffffffffffffffffffffffffffffffffffffffffffffffffffffffffff82611452565b6114998683611452565b95508019841693508086168417925050509392505050565b60006114cc6114c76114c284610dc9565b610d3b565b610dc9565b9050919050565b6000819050919050565b6114e6836114b1565b6114fa6114f2826114d3565b84845461145f565b825550505050565b600090565b61150f611502565b61151a8184846114dd565b505050565b5b8181101561153e57611533600082611507565b600181019050611520565b5050565b601f821115611583576115548161142d565b61155d84611442565b8101602085101561156c578190505b61158061157885611442565b83018261151f565b50505b505050565b600082821c905092915050565b60006115a660001984600802611588565b1980831691505092915050565b60006115bf8383611595565b9150826002028217905092915050565b6115d882610e8c565b67ffffffffffffffff8111156115f1576115f0610fdb565b5b6115fb82546113fc565b611606828285611542565b600060209050601f8311600181146116395760008415611627578287015190505b61163185826115b3565b865550611699565b601f1984166116478661142d565b60005b8281101561166f5784890151825560018201915060208501945060208101905061164a565b8683101561168c5784890151611688601f891682611595565b8355505b6001600288020188555050505b505050505050565b60006080820190506116b66000830187610e2c565b6116c36020830186610e2c565b81810360408301526116d58185611186565b90506116e46060830184610e2c565b95945050505050565b600060408201905061170260008301856111bf565b81810360208301526117148184611186565b90509392505050565b60008151905061172c81610dd3565b92915050565b60006020828403121561174857611747610dbf565b5b60006117568482850161171d565b91505092915050565b7f4e487b7100000000000000000000000000000000000000000000000000000000600052601160045260246000fd5b600061179982610dc9565b91507fffffffffffffffffffffffffffffffffffffffffffffffffffffffffffffffff82036117cb576117ca61175f565b5b600182019050919050565b600060a0820190506117eb6000830188610e2c565b6117f86020830187610e2c565b818103604083015261180a8186611186565b905061181960608301856111bf565b6118266080830184610e2c565b969550505050505056fea264697066735822122059ba1f8ad5556bc2f24fa382abac0825232997d31373d48acd91b452b9ecb3ce64736f6c63430008140033",
  "linkReferences": {},
  "deployedLinkReferences": {}
}