{
  "_format": "hh-sol-artifact-1",
  "contractName": "userContract",
  "sourceName": "contracts/userContract.sol",
  "abi": [
    {
      "inputs": [
        {
          "internalType": "address",
          "name": "userAddress",
          "type": "address"
        }
      ],
      "name": "UserFound",
      "type": "error"
    },
    {
      "inputs": [
        {
          "internalType": "address",
          "name": "userAddress",
          "type": "address"
        }
      ],
      "name": "UserNotFound",
      "type": "error"
    },
    {
      "anonymous": false,
      "inputs": [
        {
          "indexed": false,
          "internalType": "address",
          "name": "userAddress",
          "type": "address"
        },
        {
          "indexed": false,
          "internalType": "string",
          "name": "name",
          "type": "string"
        },
        {
          "indexed": false,
          "internalType": "uint256",
          "name": "age",
          "type": "uint256"
        }
      ],
      "name": "NewUserAdded",
      "type": "event"
    },
    {
      "anonymous": false,
      "inputs": [
        {
          "indexed": false,
          "internalType": "address",
          "name": "userAddress",
          "type": "address"
        }
      ],
      "name": "UserDeleted",
      "type": "event"
    },
    {
      "anonymous": false,
      "inputs": [
        {
          "indexed": false,
          "internalType": "address",
          "name": "userAddress",
          "type": "address"
        },
        {
          "indexed": false,
          "internalType": "string",
          "name": "name",
          "type": "string"
        },
        {
          "indexed": false,
          "internalType": "uint256",
          "name": "age",
          "type": "uint256"
        }
      ],
      "name": "UserUpdated",
      "type": "event"
    },
    {
      "inputs": [
        {
          "internalType": "string",
          "name": "_name",
          "type": "string"
        },
        {
          "internalType": "uint256",
          "name": "_age",
          "type": "uint256"
        }
      ],
      "name": "addUser",
      "outputs": [],
      "stateMutability": "nonpayable",
      "type": "function"
    },
    {
      "inputs": [
        {
          "internalType": "address",
          "name": "_user",
          "type": "address"
        }
      ],
      "name": "checkUserExistance",
      "outputs": [
        {
          "internalType": "bool",
          "name": "",
          "type": "bool"
        }
      ],
      "stateMutability": "view",
      "type": "function"
    },
    {
      "inputs": [],
      "name": "deleteUser",
      "outputs": [],
      "stateMutability": "nonpayable",
      "type": "function"
    },
    {
      "inputs": [],
      "name": "getUser",
      "outputs": [
        {
          "components": [
            {
              "internalType": "address",
              "name": "userWalletAddress",
              "type": "address"
            },
            {
              "internalType": "string",
              "name": "name",
              "type": "string"
            },
            {
              "internalType": "uint256",
              "name": "age",
              "type": "uint256"
            }
          ],
          "internalType": "struct userContract.User",
          "name": "",
          "type": "tuple"
        }
      ],
      "stateMutability": "view",
      "type": "function"
    },
    {
      "inputs": [
        {
          "internalType": "string",
          "name": "_name",
          "type": "string"
        },
        {
          "internalType": "uint256",
          "name": "_age",
          "type": "uint256"
        }
      ],
      "name": "updateUser",
      "outputs": [],
      "stateMutability": "nonpayable",
      "type": "function"
    }
  ],
  "bytecode": "0x608060405234801561001057600080fd5b50611303806100206000396000f3fe608060405234801561001057600080fd5b50600436106100575760003560e01c8063026ff05e1461005c5780631abf86a8146100665780631c5220c2146100965780632bf9866f146100b2578063832880e7146100ce575b600080fd5b6100646100ec565b005b610080600480360381019061007b9190610ae6565b610279565b60405161008d9190610b2e565b60405180910390f35b6100b060048036038101906100ab9190610cc5565b610322565b005b6100cc60048036038101906100c79190610cc5565b610595565b005b6100d66107c4565b6040516100e39190610e0e565b60405180910390f35b33600073ffffffffffffffffffffffffffffffffffffffff166000808373ffffffffffffffffffffffffffffffffffffffff1673ffffffffffffffffffffffffffffffffffffffff16815260200190815260200160002060000160009054906101000a900473ffffffffffffffffffffffffffffffffffffffff1673ffffffffffffffffffffffffffffffffffffffff16036101bf57806040517f4fae3c9a0000000000000000000000000000000000000000000000000000000081526004016101b69190610e3f565b60405180910390fd5b6000803373ffffffffffffffffffffffffffffffffffffffff1673ffffffffffffffffffffffffffffffffffffffff168152602001908152602001600020600080820160006101000a81549073ffffffffffffffffffffffffffffffffffffffff021916905560018201600061023591906109e0565b600282016000905550507f4bc56f1321288dfb5b416cb3a7fd188723979f9e866c91d88eccf7fca039d0393360405161026e9190610e3f565b60405180910390a150565b60008073ffffffffffffffffffffffffffffffffffffffff166000808473ffffffffffffffffffffffffffffffffffffffff1673ffffffffffffffffffffffffffffffffffffffff16815260200190815260200160002060000160009054906101000a900473ffffffffffffffffffffffffffffffffffffffff1673ffffffffffffffffffffffffffffffffffffffff1614610318576001905061031d565b600090505b919050565b33600073ffffffffffffffffffffffffffffffffffffffff166000808373ffffffffffffffffffffffffffffffffffffffff1673ffffffffffffffffffffffffffffffffffffffff16815260200190815260200160002060000160009054906101000a900473ffffffffffffffffffffffffffffffffffffffff1673ffffffffffffffffffffffffffffffffffffffff16146103f557806040517f571fb6d30000000000000000000000000000000000000000000000000000000081526004016103ec9190610e3f565b60405180910390fd5b6000835111610439576040517f08c379a000000000000000000000000000000000000000000000000000000000815260040161043090610eb7565b60405180910390fd5b6011821161047c576040517f08c379a000000000000000000000000000000000000000000000000000000000815260040161047390610f49565b60405180910390fd5b60405180606001604052803373ffffffffffffffffffffffffffffffffffffffff168152602001848152602001838152506000803373ffffffffffffffffffffffffffffffffffffffff1673ffffffffffffffffffffffffffffffffffffffff16815260200190815260200160002060008201518160000160006101000a81548173ffffffffffffffffffffffffffffffffffffffff021916908373ffffffffffffffffffffffffffffffffffffffff16021790555060208201518160010190816105479190611175565b50604082015181600201559050507f2a7fba888cc6468b8c2e9943da6efc3eb46c1014f15e02ef0c4912efeb3ebfa73384846040516105889392919061128f565b60405180910390a1505050565b33600073ffffffffffffffffffffffffffffffffffffffff166000808373ffffffffffffffffffffffffffffffffffffffff1673ffffffffffffffffffffffffffffffffffffffff16815260200190815260200160002060000160009054906101000a900473ffffffffffffffffffffffffffffffffffffffff1673ffffffffffffffffffffffffffffffffffffffff160361066857806040517f4fae3c9a00000000000000000000000000000000000000000000000000000000815260040161065f9190610e3f565b60405180910390fd5b60008351116106ac576040517f08c379a00000000000000000000000000000000000000000000000000000000081526004016106a390610eb7565b60405180910390fd5b601182116106ef576040517f08c379a00000000000000000000000000000000000000000000000000000000081526004016106e690610f49565b60405180910390fd5b826000803373ffffffffffffffffffffffffffffffffffffffff1673ffffffffffffffffffffffffffffffffffffffff168152602001908152602001600020600101908161073d9190611175565b50816000803373ffffffffffffffffffffffffffffffffffffffff1673ffffffffffffffffffffffffffffffffffffffff168152602001908152602001600020600201819055507f429ad3a7ede99d93a72d6f0ba190681a2763d681f984e2f299af21ca35caebdb3384846040516107b79392919061128f565b60405180910390a1505050565b6107cc610a20565b33600073ffffffffffffffffffffffffffffffffffffffff166000808373ffffffffffffffffffffffffffffffffffffffff1673ffffffffffffffffffffffffffffffffffffffff16815260200190815260200160002060000160009054906101000a900473ffffffffffffffffffffffffffffffffffffffff1673ffffffffffffffffffffffffffffffffffffffff160361089f57806040517f4fae3c9a0000000000000000000000000000000000000000000000000000000081526004016108969190610e3f565b60405180910390fd5b6000803373ffffffffffffffffffffffffffffffffffffffff1673ffffffffffffffffffffffffffffffffffffffff1681526020019081526020016000206040518060600160405290816000820160009054906101000a900473ffffffffffffffffffffffffffffffffffffffff1673ffffffffffffffffffffffffffffffffffffffff1673ffffffffffffffffffffffffffffffffffffffff16815260200160018201805461094e90610f98565b80601f016020809104026020016040519081016040528092919081815260200182805461097a90610f98565b80156109c75780601f1061099c576101008083540402835291602001916109c7565b820191906000526020600020905b8154815290600101906020018083116109aa57829003601f168201915b5050505050815260200160028201548152505091505090565b5080546109ec90610f98565b6000825580601f106109fe5750610a1d565b601f016020900490600052602060002090810190610a1c9190610a57565b5b50565b6040518060600160405280600073ffffffffffffffffffffffffffffffffffffffff16815260200160608152602001600081525090565b5b80821115610a70576000816000905550600101610a58565b5090565b6000604051905090565b600080fd5b600080fd5b600073ffffffffffffffffffffffffffffffffffffffff82169050919050565b6000610ab382610a88565b9050919050565b610ac381610aa8565b8114610ace57600080fd5b50565b600081359050610ae081610aba565b92915050565b600060208284031215610afc57610afb610a7e565b5b6000610b0a84828501610ad1565b91505092915050565b60008115159050919050565b610b2881610b13565b82525050565b6000602082019050610b436000830184610b1f565b92915050565b600080fd5b600080fd5b6000601f19601f8301169050919050565b7f4e487b7100000000000000000000000000000000000000000000000000000000600052604160045260246000fd5b610b9c82610b53565b810181811067ffffffffffffffff82111715610bbb57610bba610b64565b5b80604052505050565b6000610bce610a74565b9050610bda8282610b93565b919050565b600067ffffffffffffffff821115610bfa57610bf9610b64565b5b610c0382610b53565b9050602081019050919050565b82818337600083830152505050565b6000610c32610c2d84610bdf565b610bc4565b905082815260208101848484011115610c4e57610c4d610b4e565b5b610c59848285610c10565b509392505050565b600082601f830112610c7657610c75610b49565b5b8135610c86848260208601610c1f565b91505092915050565b6000819050919050565b610ca281610c8f565b8114610cad57600080fd5b50565b600081359050610cbf81610c99565b92915050565b60008060408385031215610cdc57610cdb610a7e565b5b600083013567ffffffffffffffff811115610cfa57610cf9610a83565b5b610d0685828601610c61565b9250506020610d1785828601610cb0565b9150509250929050565b610d2a81610aa8565b82525050565b600081519050919050565b600082825260208201905092915050565b60005b83811015610d6a578082015181840152602081019050610d4f565b60008484015250505050565b6000610d8182610d30565b610d8b8185610d3b565b9350610d9b818560208601610d4c565b610da481610b53565b840191505092915050565b610db881610c8f565b82525050565b6000606083016000830151610dd66000860182610d21565b5060208301518482036020860152610dee8282610d76565b9150506040830151610e036040860182610daf565b508091505092915050565b60006020820190508181036000830152610e288184610dbe565b905092915050565b610e3981610aa8565b82525050565b6000602082019050610e546000830184610e30565b92915050565b600082825260208201905092915050565b7f546865206e616d652063616e206e6f7420626520656d70747921000000000000600082015250565b6000610ea1601a83610e5a565b9150610eac82610e6b565b602082019050919050565b60006020820190508181036000830152610ed081610e94565b9050919050565b7f43757272656e74207573657220646f6573206e6f74206d65657420746865206d60008201527f696e696d756d2061676520726571756972656421000000000000000000000000602082015250565b6000610f33603483610e5a565b9150610f3e82610ed7565b604082019050919050565b60006020820190508181036000830152610f6281610f26565b9050919050565b7f4e487b7100000000000000000000000000000000000000000000000000000000600052602260045260246000fd5b60006002820490506001821680610fb057607f821691505b602082108103610fc357610fc2610f69565b5b50919050565b60008190508160005260206000209050919050565b60006020601f8301049050919050565b600082821b905092915050565b60006008830261102b7fffffffffffffffffffffffffffffffffffffffffffffffffffffffffffffffff82610fee565b6110358683610fee565b95508019841693508086168417925050509392505050565b6000819050919050565b600061107261106d61106884610c8f565b61104d565b610c8f565b9050919050565b6000819050919050565b61108c83611057565b6110a061109882611079565b848454610ffb565b825550505050565b600090565b6110b56110a8565b6110c0818484611083565b505050565b5b818110156110e4576110d96000826110ad565b6001810190506110c6565b5050565b601f821115611129576110fa81610fc9565b61110384610fde565b81016020851015611112578190505b61112661111e85610fde565b8301826110c5565b50505b505050565b600082821c905092915050565b600061114c6000198460080261112e565b1980831691505092915050565b6000611165838361113b565b9150826002028217905092915050565b61117e82610d30565b67ffffffffffffffff81111561119757611196610b64565b5b6111a18254610f98565b6111ac8282856110e8565b600060209050601f8311600181146111df57600084156111cd578287015190505b6111d78582611159565b86555061123f565b601f1984166111ed86610fc9565b60005b82811015611215578489015182556001820191506020850194506020810190506111f0565b86831015611232578489015161122e601f89168261113b565b8355505b6001600288020188555050505b505050505050565b600061125282610d30565b61125c8185610e5a565b935061126c818560208601610d4c565b61127581610b53565b840191505092915050565b61128981610c8f565b82525050565b60006060820190506112a46000830186610e30565b81810360208301526112b68185611247565b90506112c56040830184611280565b94935050505056fea26469706673582212204de49def4c50c0d65c3894dc7b55d274f28bcd014b3556e7e52e85e5cc47413064736f6c63430008140033",
  "linkReferences": {},
  "deployedLinkReferences": {}
}