{
  "_format": "hh-sol-artifact-1",
  "contractName": "userContract",
  "sourceName": "contracts/userContract.sol",
  "abi": [
    {
      "inputs": [
        {
          "internalType": "address",
          "name": "userAddress",
          "type": "address"
        }
      ],
      "name": "UserFound",
      "type": "error"
    },
    {
      "inputs": [
        {
          "internalType": "address",
          "name": "userAddress",
          "type": "address"
        }
      ],
      "name": "UserNotFound",
      "type": "error"
    },
    {
      "anonymous": false,
      "inputs": [
        {
          "indexed": false,
          "internalType": "address",
          "name": "userAddress",
          "type": "address"
        },
        {
          "indexed": false,
          "internalType": "string",
          "name": "name",
          "type": "string"
        },
        {
          "indexed": false,
          "internalType": "uint256",
          "name": "age",
          "type": "uint256"
        }
      ],
      "name": "NewUserAdded",
      "type": "event"
    },
    {
      "anonymous": false,
      "inputs": [
        {
          "indexed": false,
          "internalType": "address",
          "name": "userAddress",
          "type": "address"
        }
      ],
      "name": "UserDeleted",
      "type": "event"
    },
    {
      "anonymous": false,
      "inputs": [
        {
          "indexed": false,
          "internalType": "address",
          "name": "userAddress",
          "type": "address"
        },
        {
          "indexed": false,
          "internalType": "string",
          "name": "name",
          "type": "string"
        },
        {
          "indexed": false,
          "internalType": "uint256",
          "name": "age",
          "type": "uint256"
        }
      ],
      "name": "UserUpdated",
      "type": "event"
    },
    {
      "inputs": [
        {
          "internalType": "string",
          "name": "_name",
          "type": "string"
        },
        {
          "internalType": "uint256",
          "name": "_age",
          "type": "uint256"
        }
      ],
      "name": "addUser",
      "outputs": [],
      "stateMutability": "nonpayable",
      "type": "function"
    },
    {
      "inputs": [
        {
          "internalType": "address",
          "name": "_userWalletAddress",
          "type": "address"
        }
      ],
      "name": "checkUserExistance",
      "outputs": [
        {
          "internalType": "bool",
          "name": "",
          "type": "bool"
        }
      ],
      "stateMutability": "view",
      "type": "function"
    },
    {
      "inputs": [],
      "name": "deleteUser",
      "outputs": [],
      "stateMutability": "nonpayable",
      "type": "function"
    },
    {
      "inputs": [],
      "name": "getUser",
      "outputs": [
        {
          "components": [
            {
              "internalType": "address",
              "name": "userWalletAddress",
              "type": "address"
            },
            {
              "internalType": "string",
              "name": "name",
              "type": "string"
            },
            {
              "internalType": "uint256",
              "name": "age",
              "type": "uint256"
            }
          ],
          "internalType": "struct userContract.User",
          "name": "",
          "type": "tuple"
        }
      ],
      "stateMutability": "view",
      "type": "function"
    },
    {
      "inputs": [
        {
          "internalType": "string",
          "name": "_name",
          "type": "string"
        },
        {
          "internalType": "uint256",
          "name": "_age",
          "type": "uint256"
        }
      ],
      "name": "updateUser",
      "outputs": [],
      "stateMutability": "nonpayable",
      "type": "function"
    }
  ],
  "bytecode": "0x608060405234801561001057600080fd5b50611305806100206000396000f3fe608060405234801561001057600080fd5b50600436106100575760003560e01c8063026ff05e1461005c5780631abf86a8146100665780631c5220c2146100965780632bf9866f146100b2578063832880e7146100ce575b600080fd5b6100646100ec565b005b610080600480360381019061007b9190610ae8565b610279565b60405161008d9190610b30565b60405180910390f35b6100b060048036038101906100ab9190610cc7565b610322565b005b6100cc60048036038101906100c79190610cc7565b610596565b005b6100d66107c6565b6040516100e39190610e10565b60405180910390f35b33600073ffffffffffffffffffffffffffffffffffffffff166000808373ffffffffffffffffffffffffffffffffffffffff1673ffffffffffffffffffffffffffffffffffffffff16815260200190815260200160002060000160009054906101000a900473ffffffffffffffffffffffffffffffffffffffff1673ffffffffffffffffffffffffffffffffffffffff16036101bf57806040517f4fae3c9a0000000000000000000000000000000000000000000000000000000081526004016101b69190610e41565b60405180910390fd5b6000803373ffffffffffffffffffffffffffffffffffffffff1673ffffffffffffffffffffffffffffffffffffffff168152602001908152602001600020600080820160006101000a81549073ffffffffffffffffffffffffffffffffffffffff021916905560018201600061023591906109e2565b600282016000905550507f4bc56f1321288dfb5b416cb3a7fd188723979f9e866c91d88eccf7fca039d0393360405161026e9190610e41565b60405180910390a150565b60008073ffffffffffffffffffffffffffffffffffffffff166000808473ffffffffffffffffffffffffffffffffffffffff1673ffffffffffffffffffffffffffffffffffffffff16815260200190815260200160002060000160009054906101000a900473ffffffffffffffffffffffffffffffffffffffff1673ffffffffffffffffffffffffffffffffffffffff1614610318576001905061031d565b600090505b919050565b33600073ffffffffffffffffffffffffffffffffffffffff166000808373ffffffffffffffffffffffffffffffffffffffff1673ffffffffffffffffffffffffffffffffffffffff16815260200190815260200160002060000160009054906101000a900473ffffffffffffffffffffffffffffffffffffffff1673ffffffffffffffffffffffffffffffffffffffff16146103f557806040517f571fb6d30000000000000000000000000000000000000000000000000000000081526004016103ec9190610e41565b60405180910390fd5b6000835111610439576040517f08c379a000000000000000000000000000000000000000000000000000000000815260040161043090610eb9565b60405180910390fd5b601282101561047d576040517f08c379a000000000000000000000000000000000000000000000000000000000815260040161047490610f4b565b60405180910390fd5b60405180606001604052803373ffffffffffffffffffffffffffffffffffffffff168152602001848152602001838152506000803373ffffffffffffffffffffffffffffffffffffffff1673ffffffffffffffffffffffffffffffffffffffff16815260200190815260200160002060008201518160000160006101000a81548173ffffffffffffffffffffffffffffffffffffffff021916908373ffffffffffffffffffffffffffffffffffffffff16021790555060208201518160010190816105489190611177565b50604082015181600201559050507f2a7fba888cc6468b8c2e9943da6efc3eb46c1014f15e02ef0c4912efeb3ebfa733848460405161058993929190611291565b60405180910390a1505050565b33600073ffffffffffffffffffffffffffffffffffffffff166000808373ffffffffffffffffffffffffffffffffffffffff1673ffffffffffffffffffffffffffffffffffffffff16815260200190815260200160002060000160009054906101000a900473ffffffffffffffffffffffffffffffffffffffff1673ffffffffffffffffffffffffffffffffffffffff160361066957806040517f4fae3c9a0000000000000000000000000000000000000000000000000000000081526004016106609190610e41565b60405180910390fd5b60008351116106ad576040517f08c379a00000000000000000000000000000000000000000000000000000000081526004016106a490610eb9565b60405180910390fd5b60128210156106f1576040517f08c379a00000000000000000000000000000000000000000000000000000000081526004016106e890610f4b565b60405180910390fd5b826000803373ffffffffffffffffffffffffffffffffffffffff1673ffffffffffffffffffffffffffffffffffffffff168152602001908152602001600020600101908161073f9190611177565b50816000803373ffffffffffffffffffffffffffffffffffffffff1673ffffffffffffffffffffffffffffffffffffffff168152602001908152602001600020600201819055507f429ad3a7ede99d93a72d6f0ba190681a2763d681f984e2f299af21ca35caebdb3384846040516107b993929190611291565b60405180910390a1505050565b6107ce610a22565b33600073ffffffffffffffffffffffffffffffffffffffff166000808373ffffffffffffffffffffffffffffffffffffffff1673ffffffffffffffffffffffffffffffffffffffff16815260200190815260200160002060000160009054906101000a900473ffffffffffffffffffffffffffffffffffffffff1673ffffffffffffffffffffffffffffffffffffffff16036108a157806040517f4fae3c9a0000000000000000000000000000000000000000000000000000000081526004016108989190610e41565b60405180910390fd5b6000803373ffffffffffffffffffffffffffffffffffffffff1673ffffffffffffffffffffffffffffffffffffffff1681526020019081526020016000206040518060600160405290816000820160009054906101000a900473ffffffffffffffffffffffffffffffffffffffff1673ffffffffffffffffffffffffffffffffffffffff1673ffffffffffffffffffffffffffffffffffffffff16815260200160018201805461095090610f9a565b80601f016020809104026020016040519081016040528092919081815260200182805461097c90610f9a565b80156109c95780601f1061099e576101008083540402835291602001916109c9565b820191906000526020600020905b8154815290600101906020018083116109ac57829003601f168201915b5050505050815260200160028201548152505091505090565b5080546109ee90610f9a565b6000825580601f10610a005750610a1f565b601f016020900490600052602060002090810190610a1e9190610a59565b5b50565b6040518060600160405280600073ffffffffffffffffffffffffffffffffffffffff16815260200160608152602001600081525090565b5b80821115610a72576000816000905550600101610a5a565b5090565b6000604051905090565b600080fd5b600080fd5b600073ffffffffffffffffffffffffffffffffffffffff82169050919050565b6000610ab582610a8a565b9050919050565b610ac581610aaa565b8114610ad057600080fd5b50565b600081359050610ae281610abc565b92915050565b600060208284031215610afe57610afd610a80565b5b6000610b0c84828501610ad3565b91505092915050565b60008115159050919050565b610b2a81610b15565b82525050565b6000602082019050610b456000830184610b21565b92915050565b600080fd5b600080fd5b6000601f19601f8301169050919050565b7f4e487b7100000000000000000000000000000000000000000000000000000000600052604160045260246000fd5b610b9e82610b55565b810181811067ffffffffffffffff82111715610bbd57610bbc610b66565b5b80604052505050565b6000610bd0610a76565b9050610bdc8282610b95565b919050565b600067ffffffffffffffff821115610bfc57610bfb610b66565b5b610c0582610b55565b9050602081019050919050565b82818337600083830152505050565b6000610c34610c2f84610be1565b610bc6565b905082815260208101848484011115610c5057610c4f610b50565b5b610c5b848285610c12565b509392505050565b600082601f830112610c7857610c77610b4b565b5b8135610c88848260208601610c21565b91505092915050565b6000819050919050565b610ca481610c91565b8114610caf57600080fd5b50565b600081359050610cc181610c9b565b92915050565b60008060408385031215610cde57610cdd610a80565b5b600083013567ffffffffffffffff811115610cfc57610cfb610a85565b5b610d0885828601610c63565b9250506020610d1985828601610cb2565b9150509250929050565b610d2c81610aaa565b82525050565b600081519050919050565b600082825260208201905092915050565b60005b83811015610d6c578082015181840152602081019050610d51565b60008484015250505050565b6000610d8382610d32565b610d8d8185610d3d565b9350610d9d818560208601610d4e565b610da681610b55565b840191505092915050565b610dba81610c91565b82525050565b6000606083016000830151610dd86000860182610d23565b5060208301518482036020860152610df08282610d78565b9150506040830151610e056040860182610db1565b508091505092915050565b60006020820190508181036000830152610e2a8184610dc0565b905092915050565b610e3b81610aaa565b82525050565b6000602082019050610e566000830184610e32565b92915050565b600082825260208201905092915050565b7f546865206e616d652063616e206e6f7420626520656d70747921000000000000600082015250565b6000610ea3601a83610e5c565b9150610eae82610e6d565b602082019050919050565b60006020820190508181036000830152610ed281610e96565b9050919050565b7f43757272656e74207573657220646f6573206e6f74206d65657420746865206d60008201527f696e696d756d2061676520726571756972656421000000000000000000000000602082015250565b6000610f35603483610e5c565b9150610f4082610ed9565b604082019050919050565b60006020820190508181036000830152610f6481610f28565b9050919050565b7f4e487b7100000000000000000000000000000000000000000000000000000000600052602260045260246000fd5b60006002820490506001821680610fb257607f821691505b602082108103610fc557610fc4610f6b565b5b50919050565b60008190508160005260206000209050919050565b60006020601f8301049050919050565b600082821b905092915050565b60006008830261102d7fffffffffffffffffffffffffffffffffffffffffffffffffffffffffffffffff82610ff0565b6110378683610ff0565b95508019841693508086168417925050509392505050565b6000819050919050565b600061107461106f61106a84610c91565b61104f565b610c91565b9050919050565b6000819050919050565b61108e83611059565b6110a261109a8261107b565b848454610ffd565b825550505050565b600090565b6110b76110aa565b6110c2818484611085565b505050565b5b818110156110e6576110db6000826110af565b6001810190506110c8565b5050565b601f82111561112b576110fc81610fcb565b61110584610fe0565b81016020851015611114578190505b61112861112085610fe0565b8301826110c7565b50505b505050565b600082821c905092915050565b600061114e60001984600802611130565b1980831691505092915050565b6000611167838361113d565b9150826002028217905092915050565b61118082610d32565b67ffffffffffffffff81111561119957611198610b66565b5b6111a38254610f9a565b6111ae8282856110ea565b600060209050601f8311600181146111e157600084156111cf578287015190505b6111d9858261115b565b865550611241565b601f1984166111ef86610fcb565b60005b82811015611217578489015182556001820191506020850194506020810190506111f2565b868310156112345784890151611230601f89168261113d565b8355505b6001600288020188555050505b505050505050565b600061125482610d32565b61125e8185610e5c565b935061126e818560208601610d4e565b61127781610b55565b840191505092915050565b61128b81610c91565b82525050565b60006060820190506112a66000830186610e32565b81810360208301526112b88185611249565b90506112c76040830184611282565b94935050505056fea2646970667358221220f815f54c34f1e271d6bae29b599caf1c796e1dc60300b2eccee88a41611a84d464736f6c63430008120033",
  "linkReferences": {},
  "deployedLinkReferences": {}
}